{
  "_format": "hh-sol-artifact-1",
  "contractName": "AxinsureOracle",
  "sourceName": "src/AxinsureOracle.sol",
  "abi": [
    {
      "inputs": [],
      "stateMutability": "nonpayable",
      "type": "constructor"
    },
    {
      "inputs": [],
      "name": "checkOracle",
      "outputs": [
        {
          "internalType": "bool[2]",
          "name": "",
          "type": "bool[2]"
        }
      ],
      "stateMutability": "pure",
      "type": "function"
    }
  ],
  "bytecode": "0x608060405234801561001057600080fd5b506101ca806100206000396000f3fe608060405234801561001057600080fd5b506004361061002b5760003560e01c8063261e563614610030575b600080fd5b61003861004e565b6040516100459190610179565b60405180910390f35b6100566100a0565b600060405180604001604052806001151581526020016001151581525090506040518060400160405280826000015115151515815260200182602001511515151581525091505090565b6040518060400160405280600290602082028036833780820191505090505090565b600060029050919050565b600081905092915050565b6000819050919050565b60008115159050919050565b6100f7816100e2565b82525050565b600061010983836100ee565b60208301905092915050565b6000602082019050919050565b61012b816100c2565b61013581846100cd565b9250610140826100d8565b8060005b8381101561017157815161015887826100fd565b965061016383610115565b925050600181019050610144565b505050505050565b600060408201905061018e6000830184610122565b9291505056fea2646970667358221220d37d0e37e928184dab1756507ae195e24efdef5401904371131c31f86674b45164736f6c63430008120033",
  "linkReferences": {},
  "deployedLinkReferences": {}
}