{"src/AxinsureCore.sol":{"AxinsureCore":{"abi":[{"inputs":[{"internalType":"address","name":"_paymentToken","type":"address"},{"internalType":"address","name":"_axelarGatewayAddress","type":"address"},{"internalType":"address","name":"_gasReceiver","type":"address"}],"stateMutability":"nonpayable","type":"constructor"},{"inputs":[],"name":"InvalidAddress","type":"error"},{"inputs":[],"name":"InvalidAddressString","type":"error"},{"inputs":[],"name":"NotApprovedByGateway","type":"error"},{"anonymous":false,"inputs":[{"indexed":true,"internalType":"address","name":"previousOwner","type":"address"},{"indexed":true,"internalType":"address","name":"newOwner","type":"address"}],"name":"OwnershipTransferred","type":"event"},{"anonymous":false,"inputs":[{"indexed":true,"internalType":"uint256","name":"policyNumber","type":"uint256"},{"indexed":true,"internalType":"address","name":"insurerAddress","type":"address"},{"indexed":false,"internalType":"address","name":"oracleAddress","type":"address"},{"indexed":false,"internalType":"uint256","name":"fundingAmount","type":"uint256"},{"indexed":false,"internalType":"uint256","name":"payoutAmount","type":"uint256"},{"indexed":false,"internalType":"uint256","name":"premiumsCost","type":"uint256"}],"name":"newPolicyAdded","type":"event"},{"anonymous":false,"inputs":[{"indexed":true,"internalType":"uint256","name":"policyNumber","type":"uint256"},{"indexed":true,"internalType":"string","name":"userChain","type":"string"},{"indexed":false,"internalType":"address","name":"userAddress","type":"address"}],"name":"newUserAdded","type":"event"},{"inputs":[{"internalType":"uint256","name":"","type":"uint256"}],"name":"InsurancePolicies","outputs":[{"internalType":"address","name":"insurerAddress","type":"address"},{"internalType":"address","name":"oracleAddress","type":"address"},{"internalType":"uint256","name":"fundingAmount","type":"uint256"},{"internalType":"uint256","name":"payoutAmount","type":"uint256"},{"internalType":"uint256","name":"premiumsCost","type":"uint256"},{"internalType":"uint256","name":"policyNumber","type":"uint256"},{"internalType":"uint256","name":"premiumsTotal","type":"uint256"},{"internalType":"bool","name":"isPolicyActive","type":"bool"}],"stateMutability":"view","type":"function"},{"inputs":[{"internalType":"string","name":"chain","type":"string"},{"internalType":"address","name":"collectorAddress","type":"address"}],"name":"addCollector","outputs":[],"stateMutability":"nonpayable","type":"function"},{"inputs":[{"internalType":"uint256","name":"policyNumber","type":"uint256"},{"internalType":"string","name":"userChain","type":"string"},{"internalType":"address","name":"userAddress","type":"address"}],"name":"addPolicyUser","outputs":[],"stateMutability":"nonpayable","type":"function"},{"inputs":[{"internalType":"string","name":"","type":"string"}],"name":"axInsureCollectors","outputs":[{"internalType":"address","name":"","type":"address"}],"stateMutability":"view","type":"function"},{"inputs":[{"internalType":"uint256","name":"policyNumber","type":"uint256"}],"name":"checkOracleAndPayout","outputs":[],"stateMutability":"nonpayable","type":"function"},{"inputs":[{"internalType":"address","name":"oracleAddress","type":"address"},{"internalType":"uint256","name":"fundingAmount","type":"uint256"},{"internalType":"uint256","name":"payoutAmount","type":"uint256"},{"internalType":"uint256","name":"premiumsCost","type":"uint256"}],"name":"createInsurancePolicy","outputs":[],"stateMutability":"nonpayable","type":"function"},{"inputs":[{"internalType":"bytes32","name":"commandId","type":"bytes32"},{"internalType":"string","name":"sourceChain","type":"string"},{"internalType":"string","name":"sourceAddress","type":"string"},{"internalType":"bytes","name":"payload","type":"bytes"}],"name":"execute","outputs":[],"stateMutability":"nonpayable","type":"function"},{"inputs":[{"internalType":"bytes32","name":"commandId","type":"bytes32"},{"internalType":"string","name":"sourceChain","type":"string"},{"internalType":"string","name":"sourceAddress","type":"string"},{"internalType":"bytes","name":"payload","type":"bytes"},{"internalType":"string","name":"tokenSymbol","type":"string"},{"internalType":"uint256","name":"amount","type":"uint256"}],"name":"executeWithToken","outputs":[],"stateMutability":"nonpayable","type":"function"},{"inputs":[],"name":"gasService","outputs":[{"internalType":"contract IAxelarGasService","name":"","type":"address"}],"stateMutability":"view","type":"function"},{"inputs":[],"name":"gateway","outputs":[{"internalType":"contract IAxelarGateway","name":"","type":"address"}],"stateMutability":"view","type":"function"},{"inputs":[],"name":"owner","outputs":[{"internalType":"address","name":"","type":"address"}],"stateMutability":"view","type":"function"},{"inputs":[],"name":"paymentToken","outputs":[{"internalType":"address","name":"","type":"address"}],"stateMutability":"view","type":"function"},{"inputs":[{"internalType":"uint256","name":"","type":"uint256"},{"internalType":"uint256","name":"","type":"uint256"}],"name":"policyUsers","outputs":[{"internalType":"string","name":"userChain","type":"string"},{"internalType":"address","name":"userAddress","type":"address"}],"stateMutability":"view","type":"function"},{"inputs":[],"name":"renounceOwnership","outputs":[],"stateMutability":"nonpayable","type":"function"},{"inputs":[{"internalType":"address","name":"newOwner","type":"address"}],"name":"transferOwnership","outputs":[],"stateMutability":"nonpayable","type":"function"}],"evm":{"bytecode":{"linkReferences":{},"object":"60c06040523480156200001157600080fd5b5060405162003805380380620038058339818101604052810190620000379190620002a8565b81620000586200004c6200017260201b60201c565b6200017a60201b60201c565b600073ffffffffffffffffffffffffffffffffffffffff168173ffffffffffffffffffffffffffffffffffffffff1603620000bf576040517fe6c4247b00000000000000000000000000000000000000000000000000000000815260040160405180910390fd5b8073ffffffffffffffffffffffffffffffffffffffff1660808173ffffffffffffffffffffffffffffffffffffffff16815250505082600160006101000a81548173ffffffffffffffffffffffffffffffffffffffff021916908373ffffffffffffffffffffffffffffffffffffffff1602179055508073ffffffffffffffffffffffffffffffffffffffff1660a08173ffffffffffffffffffffffffffffffffffffffff168152505050505062000304565b600033905090565b60008060009054906101000a900473ffffffffffffffffffffffffffffffffffffffff169050816000806101000a81548173ffffffffffffffffffffffffffffffffffffffff021916908373ffffffffffffffffffffffffffffffffffffffff1602179055508173ffffffffffffffffffffffffffffffffffffffff168173ffffffffffffffffffffffffffffffffffffffff167f8be0079c531659141344cd1fd0a4f28419497f9722a3daafe3b4186f6b6457e060405160405180910390a35050565b600080fd5b600073ffffffffffffffffffffffffffffffffffffffff82169050919050565b6000620002708262000243565b9050919050565b620002828162000263565b81146200028e57600080fd5b50565b600081519050620002a28162000277565b92915050565b600080600060608486031215620002c457620002c36200023e565b5b6000620002d48682870162000291565b9350506020620002e78682870162000291565b9250506040620002fa8682870162000291565b9150509250925092565b60805160a0516134b86200034d600039600061086d0152600081816105ae0152818161063701528181610779015281816110a401528181611216015261139e01526134b86000f3fe608060405234801561001057600080fd5b50600436106100f45760003560e01c8063715018a611610097578063a614ba0911610066578063a614ba091461024c578063c257283814610268578063f2559ed214610284578063f2fde38b146102bb576100f4565b8063715018a6146101d75780638593cbe1146101e15780638da5cb5b14610212578063948ffe6714610230576100f4565b80631a98b2e0116100d35780631a98b2e0146101635780633013ce291461017f578063491606581461019d5780636a22d8cc146101b9576100f4565b80624db56e146100f9578063116191b61461011557806318af2fa814610133575b600080fd5b610113600480360381019061010e9190611eb0565b6102d7565b005b61011d6105ac565b60405161012a9190611f76565b60405180910390f35b61014d600480360381019061014891906120d7565b6105d0565b60405161015a919061212f565b60405180910390f35b61017d60048036038101906101789190612236565b610619565b005b610187610735565b604051610194919061212f565b60405180910390f35b6101b760048036038101906101b29190612346565b61075b565b005b6101c161086b565b6040516101ce9190612430565b60405180910390f35b6101df61088f565b005b6101fb60048036038101906101f6919061244b565b6108a3565b60405161020992919061250a565b60405180910390f35b61021a61098c565b604051610227919061212f565b60405180910390f35b61024a6004803603810190610245919061253a565b6109b5565b005b6102666004803603810190610261919061259a565b610a21565b005b610282600480360381019061027d919061260e565b610d29565b005b61029e6004803603810190610299919061260e565b6114ee565b6040516102b2989796959493929190612665565b60405180910390f35b6102d560048036038101906102d091906126e3565b611593565b005b8083101561031a576040517f08c379a000000000000000000000000000000000000000000000000000000000815260040161031190612782565b60405180910390fd5b600160009054906101000a900473ffffffffffffffffffffffffffffffffffffffff1673ffffffffffffffffffffffffffffffffffffffff166323b872dd3330866040518463ffffffff1660e01b8152600401610379939291906127a2565b6020604051808303816000875af1158015610398573d6000803e3d6000fd5b505050506040513d601f19601f820116820180604052508101906103bc9190612805565b50600060016002805490506103d19190612861565b905060006040518061010001604052803373ffffffffffffffffffffffffffffffffffffffff1681526020018773ffffffffffffffffffffffffffffffffffffffff16815260200186815260200185815260200184815260200183815260200160008152602001600115158152509050600281908060018154018082558091505060019003906000526020600020906008020160009091909190915060008201518160000160006101000a81548173ffffffffffffffffffffffffffffffffffffffff021916908373ffffffffffffffffffffffffffffffffffffffff16021790555060208201518160010160006101000a81548173ffffffffffffffffffffffffffffffffffffffff021916908373ffffffffffffffffffffffffffffffffffffffff16021790555060408201518160020155606082015181600301556080820151816004015560a0820151816005015560c0820151816006015560e08201518160070160006101000a81548160ff02191690831515021790555050503373ffffffffffffffffffffffffffffffffffffffff16827f0d6f218ae1da38509b48b02255526effe001fc404e8c14aaf0888d4f3f879afa8888888860405161059c9493929190612895565b60405180910390a3505050505050565b7f000000000000000000000000000000000000000000000000000000000000000081565b6004818051602081018201805184825260208301602085012081835280955050505050506000915054906101000a900473ffffffffffffffffffffffffffffffffffffffff1681565b6000858560405161062b92919061290a565b604051809103902090507f000000000000000000000000000000000000000000000000000000000000000073ffffffffffffffffffffffffffffffffffffffff16631876eed98c8c8c8c8c878b8b8b6040518a63ffffffff1660e01b815260040161069e9998979695949392919061295f565b6020604051808303816000875af11580156106bd573d6000803e3d6000fd5b505050506040513d601f19601f820116820180604052508101906106e19190612805565b610717576040517f500c44b400000000000000000000000000000000000000000000000000000000815260040160405180910390fd5b6107288a8a8a8a8a8a8a8a8a611616565b5050505050505050505050565b600160009054906101000a900473ffffffffffffffffffffffffffffffffffffffff1681565b6000828260405161076d92919061290a565b604051809103902090507f000000000000000000000000000000000000000000000000000000000000000073ffffffffffffffffffffffffffffffffffffffff16635f6970c38989898989876040518763ffffffff1660e01b81526004016107da969594939291906129db565b6020604051808303816000875af11580156107f9573d6000803e3d6000fd5b505050506040513d601f19601f8201168201806040525081019061081d9190612805565b610853576040517f500c44b400000000000000000000000000000000000000000000000000000000815260040160405180910390fd5b610861878787878787611745565b5050505050505050565b7f000000000000000000000000000000000000000000000000000000000000000081565b61089761174d565b6108a160006117cb565b565b600360205281600052604060002081815481106108bf57600080fd5b9060005260206000209060020201600091509150508060000180546108e390612a61565b80601f016020809104026020016040519081016040528092919081815260200182805461090f90612a61565b801561095c5780601f106109315761010080835404028352916020019161095c565b820191906000526020600020905b81548152906001019060200180831161093f57829003601f168201915b5050505050908060010160009054906101000a900473ffffffffffffffffffffffffffffffffffffffff16905082565b60008060009054906101000a900473ffffffffffffffffffffffffffffffffffffffff16905090565b6109bd61174d565b80600484846040516109d0929190612ac2565b908152602001604051809103902060006101000a81548173ffffffffffffffffffffffffffffffffffffffff021916908373ffffffffffffffffffffffffffffffffffffffff160217905550505050565b600060028581548110610a3757610a36612adb565b5b9060005260206000209060080201604051806101000160405290816000820160009054906101000a900473ffffffffffffffffffffffffffffffffffffffff1673ffffffffffffffffffffffffffffffffffffffff1673ffffffffffffffffffffffffffffffffffffffff1681526020016001820160009054906101000a900473ffffffffffffffffffffffffffffffffffffffff1673ffffffffffffffffffffffffffffffffffffffff1673ffffffffffffffffffffffffffffffffffffffff16815260200160028201548152602001600382015481526020016004820154815260200160058201548152602001600682015481526020016007820160009054906101000a900460ff161515151581525050905080604001518160c001518260800151610b659190612861565b10610ba5576040517f08c379a0000000000000000000000000000000000000000000000000000000008152600401610b9c90612b7c565b60405180910390fd5b6000604051806040016040528086868080601f016020809104026020016040519081016040528093929190818152602001838380828437600081840152601f19601f8201169050808301925050505050505081526020018473ffffffffffffffffffffffffffffffffffffffff168152509050600360008781526020019081526020016000208190806001815401808255809150506001900390600052602060002090600202016000909190919091506000820151816000019081610c6a9190612d3e565b5060208201518160010160006101000a81548173ffffffffffffffffffffffffffffffffffffffff021916908373ffffffffffffffffffffffffffffffffffffffff160217905550505081608001518260c001818151610cca9190612861565b915081815250508484604051610ce1929190612ac2565b6040518091039020867f0736f217c62d7f771e891926226a8792fe30888530849c3dbaabae6c9f0d535c85604051610d19919061212f565b60405180910390a3505050505050565b600060028281548110610d3f57610d3e612adb565b5b9060005260206000209060080201604051806101000160405290816000820160009054906101000a900473ffffffffffffffffffffffffffffffffffffffff1673ffffffffffffffffffffffffffffffffffffffff1673ffffffffffffffffffffffffffffffffffffffff1681526020016001820160009054906101000a900473ffffffffffffffffffffffffffffffffffffffff1673ffffffffffffffffffffffffffffffffffffffff1673ffffffffffffffffffffffffffffffffffffffff16815260200160028201548152602001600382015481526020016004820154815260200160058201548152602001600682015481526020016007820160009054906101000a900460ff16151515158152505090508060e00151610e98576040517f08c379a0000000000000000000000000000000000000000000000000000000008152600401610e8f90612e5c565b60405180910390fd5b60008160200151905060008173ffffffffffffffffffffffffffffffffffffffff1663261e56366040518163ffffffff1660e01b81526004016040805180830381865afa158015610eed573d6000803e3d6000fd5b505050506040513d601f19601f82011682018060405250810190610f119190612f2d565b905080600060028110610f2757610f26612adb565b5b60200201518015610f4d575080600160028110610f4757610f46612adb565b5b60200201515b1561135c5760006003600086815260200190815260200160002080549050905060005b818110156111f0576000600360008881526020019081526020016000208281548110610f9f57610f9e612adb565b5b9060005260206000209060020201604051806040016040529081600082018054610fc890612a61565b80601f0160208091040260200160405190810160405280929190818152602001828054610ff490612a61565b80156110415780601f1061101657610100808354040283529160200191611041565b820191906000526020600020905b81548152906001019060200180831161102457829003601f168201915b505050505081526020016001820160009054906101000a900473ffffffffffffffffffffffffffffffffffffffff1673ffffffffffffffffffffffffffffffffffffffff1673ffffffffffffffffffffffffffffffffffffffff168152505090507f000000000000000000000000000000000000000000000000000000000000000073ffffffffffffffffffffffffffffffffffffffff166326ef699d82600001516110f0846020015161188f565b600160009054906101000a900473ffffffffffffffffffffffffffffffffffffffff1673ffffffffffffffffffffffffffffffffffffffff166395d89b416040518163ffffffff1660e01b8152600401600060405180830381865afa15801561115d573d6000803e3d6000fd5b505050506040513d6000823e3d601f19601f820116820180604052508101906111869190612fca565b8a606001516040518563ffffffff1660e01b81526004016111aa9493929190613013565b600060405180830381600087803b1580156111c457600080fd5b505af11580156111d8573d6000803e3d6000fd5b505050505080806111e89061306d565b915050610f70565b50600084606001518261120391906130b5565b856040015161121291906130f7565b90507f000000000000000000000000000000000000000000000000000000000000000073ffffffffffffffffffffffffffffffffffffffff166326ef699d61125d876000015161188f565b600160009054906101000a900473ffffffffffffffffffffffffffffffffffffffff1673ffffffffffffffffffffffffffffffffffffffff166395d89b416040518163ffffffff1660e01b8152600401600060405180830381865afa1580156112ca573d6000803e3d6000fd5b505050506040513d6000823e3d601f19601f820116820180604052508101906112f39190612fca565b846040518463ffffffff1660e01b815260040161131293929190613177565b600060405180830381600087803b15801561132c57600080fd5b505af1158015611340573d6000803e3d6000fd5b5050505060008560e001901515908115158152505050506114e8565b806000600281106113705761136f612adb565b5b602002015180156113975750806001600281106113905761138f612adb565b5b6020020151155b156114e6577f000000000000000000000000000000000000000000000000000000000000000073ffffffffffffffffffffffffffffffffffffffff166326ef699d6113e5856000015161188f565b600160009054906101000a900473ffffffffffffffffffffffffffffffffffffffff1673ffffffffffffffffffffffffffffffffffffffff166395d89b416040518163ffffffff1660e01b8152600401600060405180830381865afa158015611452573d6000803e3d6000fd5b505050506040513d6000823e3d601f19601f8201168201806040525081019061147b9190612fca565b86604001516040518463ffffffff1660e01b815260040161149e93929190613177565b600060405180830381600087803b1580156114b857600080fd5b505af11580156114cc573d6000803e3d6000fd5b5050505060008360e00190151590811515815250506114e7565b5b5b50505050565b600281815481106114fe57600080fd5b90600052602060002090600802016000915090508060000160009054906101000a900473ffffffffffffffffffffffffffffffffffffffff16908060010160009054906101000a900473ffffffffffffffffffffffffffffffffffffffff16908060020154908060030154908060040154908060050154908060060154908060070160009054906101000a900460ff16905088565b61159b61174d565b600073ffffffffffffffffffffffffffffffffffffffff168173ffffffffffffffffffffffffffffffffffffffff160361160a576040517f08c379a000000000000000000000000000000000000000000000000000000000815260040161160190613241565b60405180910390fd5b611613816117cb565b50565b6000808686810190611628919061329f565b91509150600061167b8a8a8080601f016020809104026020016040519081016040528093929190818152602001838380828437600081840152601f19601f82011690508083019250505050505050611bb2565b90508073ffffffffffffffffffffffffffffffffffffffff1660048d8d6040516116a6929190612ac2565b908152602001604051809103902060009054906101000a900473ffffffffffffffffffffffffffffffffffffffff1673ffffffffffffffffffffffffffffffffffffffff161461172b576040517f08c379a000000000000000000000000000000000000000000000000000000000815260040161172290613351565b60405180910390fd5b611737838d8d85610a21565b505050505050505050505050565b505050505050565b611755611e00565b73ffffffffffffffffffffffffffffffffffffffff1661177361098c565b73ffffffffffffffffffffffffffffffffffffffff16146117c9576040517f08c379a00000000000000000000000000000000000000000000000000000000081526004016117c0906133bd565b60405180910390fd5b565b60008060009054906101000a900473ffffffffffffffffffffffffffffffffffffffff169050816000806101000a81548173ffffffffffffffffffffffffffffffffffffffff021916908373ffffffffffffffffffffffffffffffffffffffff1602179055508173ffffffffffffffffffffffffffffffffffffffff168173ffffffffffffffffffffffffffffffffffffffff167f8be0079c531659141344cd1fd0a4f28419497f9722a3daafe3b4186f6b6457e060405160405180910390a35050565b60606000826040516020016118a49190613425565b604051602081830303815290604052905060008151905060006040518060400160405280601081526020017f3031323334353637383961626364656600000000000000000000000000000000815250905060006002845161190591906130b5565b60026119119190612861565b67ffffffffffffffff81111561192a57611929611fac565b5b6040519080825280601f01601f19166020018201604052801561195c5781602001600182028036833780820191505090505b5090507f30000000000000000000000000000000000000000000000000000000000000008160008151811061199457611993612adb565b5b60200101907effffffffffffffffffffffffffffffffffffffffffffffffffffffffffffff1916908160001a9053507f7800000000000000000000000000000000000000000000000000000000000000816001815181106119f8576119f7612adb565b5b60200101907effffffffffffffffffffffffffffffffffffffffffffffffffffffffffffff1916908160001a90535060005b83811015611ba557826004868381518110611a4857611a47612adb565b5b602001015160f81c60f81b7effffffffffffffffffffffffffffffffffffffffffffffffffffffffffffff1916901c60f81c60ff1681518110611a8e57611a8d612adb565b5b602001015160f81c60f81b82600283611aa791906130b5565b6002611ab39190612861565b81518110611ac457611ac3612adb565b5b60200101907effffffffffffffffffffffffffffffffffffffffffffffffffffffffffffff1916908160001a90535082600f60f81b868381518110611b0c57611b0b612adb565b5b602001015160f81c60f81b1660f81c60ff1681518110611b2f57611b2e612adb565b5b602001015160f81c60f81b82600283611b4891906130b5565b6003611b549190612861565b81518110611b6557611b64612adb565b5b60200101907effffffffffffffffffffffffffffffffffffffffffffffffffffffffffffff1916908160001a90535080611b9e9061306d565b9050611a2a565b5080945050505050919050565b600080829050600080602a8351141580611c2c57507f300000000000000000000000000000000000000000000000000000000000000083600081518110611bfc57611bfb612adb565b5b602001015160f81c60f81b7effffffffffffffffffffffffffffffffffffffffffffffffffffffffffffff191614155b80611c9757507f780000000000000000000000000000000000000000000000000000000000000083600181518110611c6757611c66612adb565b5b602001015160f81c60f81b7effffffffffffffffffffffffffffffffffffffffffffffffffffffffffffff191614155b15611cce576040517fdf48f19e00000000000000000000000000000000000000000000000000000000815260040160405180910390fd5b6000600290505b602a811015611df457838181518110611cf157611cf0612adb565b5b602001015160f81c60f81b60f81c915060618260ff1610158015611d19575060668260ff1611155b15611d3257605782611d2b919061344d565b9150611dc8565b60418260ff1610158015611d4a575060468260ff1611155b15611d6357603782611d5c919061344d565b9150611dc7565b60308260ff1610158015611d7b575060398260ff1611155b15611d9457603082611d8d919061344d565b9150611dc6565b6040517fdf48f19e00000000000000000000000000000000000000000000000000000000815260040160405180910390fd5b5b5b6002816029611dd791906130f7565b901b8260ff16901b8317925080611ded9061306d565b9050611cd5565b50819350505050919050565b600033905090565b6000604051905090565b600080fd5b600080fd5b600073ffffffffffffffffffffffffffffffffffffffff82169050919050565b6000611e4782611e1c565b9050919050565b611e5781611e3c565b8114611e6257600080fd5b50565b600081359050611e7481611e4e565b92915050565b6000819050919050565b611e8d81611e7a565b8114611e9857600080fd5b50565b600081359050611eaa81611e84565b92915050565b60008060008060808587031215611eca57611ec9611e12565b5b6000611ed887828801611e65565b9450506020611ee987828801611e9b565b9350506040611efa87828801611e9b565b9250506060611f0b87828801611e9b565b91505092959194509250565b6000819050919050565b6000611f3c611f37611f3284611e1c565b611f17565b611e1c565b9050919050565b6000611f4e82611f21565b9050919050565b6000611f6082611f43565b9050919050565b611f7081611f55565b82525050565b6000602082019050611f8b6000830184611f67565b92915050565b600080fd5b600080fd5b6000601f19601f8301169050919050565b7f4e487b7100000000000000000000000000000000000000000000000000000000600052604160045260246000fd5b611fe482611f9b565b810181811067ffffffffffffffff8211171561200357612002611fac565b5b80604052505050565b6000612016611e08565b90506120228282611fdb565b919050565b600067ffffffffffffffff82111561204257612041611fac565b5b61204b82611f9b565b9050602081019050919050565b82818337600083830152505050565b600061207a61207584612027565b61200c565b90508281526020810184848401111561209657612095611f96565b5b6120a1848285612058565b509392505050565b600082601f8301126120be576120bd611f91565b5b81356120ce848260208601612067565b91505092915050565b6000602082840312156120ed576120ec611e12565b5b600082013567ffffffffffffffff81111561210b5761210a611e17565b5b612117848285016120a9565b91505092915050565b61212981611e3c565b82525050565b60006020820190506121446000830184612120565b92915050565b6000819050919050565b61215d8161214a565b811461216857600080fd5b50565b60008135905061217a81612154565b92915050565b600080fd5b600080fd5b60008083601f8401126121a05761219f611f91565b5b8235905067ffffffffffffffff8111156121bd576121bc612180565b5b6020830191508360018202830111156121d9576121d8612185565b5b9250929050565b60008083601f8401126121f6576121f5611f91565b5b8235905067ffffffffffffffff81111561221357612212612180565b5b60208301915083600182028301111561222f5761222e612185565b5b9250929050565b60008060008060008060008060008060c08b8d03121561225957612258611e12565b5b60006122678d828e0161216b565b9a505060208b013567ffffffffffffffff81111561228857612287611e17565b5b6122948d828e0161218a565b995099505060408b013567ffffffffffffffff8111156122b7576122b6611e17565b5b6122c38d828e0161218a565b975097505060608b013567ffffffffffffffff8111156122e6576122e5611e17565b5b6122f28d828e016121e0565b955095505060808b013567ffffffffffffffff81111561231557612314611e17565b5b6123218d828e0161218a565b935093505060a06123348d828e01611e9b565b9150509295989b9194979a5092959850565b60008060008060008060006080888a03121561236557612364611e12565b5b60006123738a828b0161216b565b975050602088013567ffffffffffffffff81111561239457612393611e17565b5b6123a08a828b0161218a565b9650965050604088013567ffffffffffffffff8111156123c3576123c2611e17565b5b6123cf8a828b0161218a565b9450945050606088013567ffffffffffffffff8111156123f2576123f1611e17565b5b6123fe8a828b016121e0565b925092505092959891949750929550565b600061241a82611f43565b9050919050565b61242a8161240f565b82525050565b60006020820190506124456000830184612421565b92915050565b6000806040838503121561246257612461611e12565b5b600061247085828601611e9b565b925050602061248185828601611e9b565b9150509250929050565b600081519050919050565b600082825260208201905092915050565b60005b838110156124c55780820151818401526020810190506124aa565b60008484015250505050565b60006124dc8261248b565b6124e68185612496565b93506124f68185602086016124a7565b6124ff81611f9b565b840191505092915050565b6000604082019050818103600083015261252481856124d1565b90506125336020830184612120565b9392505050565b60008060006040848603121561255357612552611e12565b5b600084013567ffffffffffffffff81111561257157612570611e17565b5b61257d8682870161218a565b9350935050602061259086828701611e65565b9150509250925092565b600080600080606085870312156125b4576125b3611e12565b5b60006125c287828801611e9b565b945050602085013567ffffffffffffffff8111156125e3576125e2611e17565b5b6125ef8782880161218a565b9350935050604061260287828801611e65565b91505092959194509250565b60006020828403121561262457612623611e12565b5b600061263284828501611e9b565b91505092915050565b61264481611e7a565b82525050565b60008115159050919050565b61265f8161264a565b82525050565b60006101008201905061267b600083018b612120565b612688602083018a612120565b612695604083018961263b565b6126a2606083018861263b565b6126af608083018761263b565b6126bc60a083018661263b565b6126c960c083018561263b565b6126d660e0830184612656565b9998505050505050505050565b6000602082840312156126f9576126f8611e12565b5b600061270784828501611e65565b91505092915050565b7f46756e64696e6720616d6f756e7420697320696e73756666696369656e74207460008201527f6f20636f766572207072656d69756d7300000000000000000000000000000000602082015250565b600061276c603083612496565b915061277782612710565b604082019050919050565b6000602082019050818103600083015261279b8161275f565b9050919050565b60006060820190506127b76000830186612120565b6127c46020830185612120565b6127d1604083018461263b565b949350505050565b6127e28161264a565b81146127ed57600080fd5b50565b6000815190506127ff816127d9565b92915050565b60006020828403121561281b5761281a611e12565b5b6000612829848285016127f0565b91505092915050565b7f4e487b7100000000000000000000000000000000000000000000000000000000600052601160045260246000fd5b600061286c82611e7a565b915061287783611e7a565b925082820190508082111561288f5761288e612832565b5b92915050565b60006080820190506128aa6000830187612120565b6128b7602083018661263b565b6128c4604083018561263b565b6128d1606083018461263b565b95945050505050565b600081905092915050565b60006128f183856128da565b93506128fe838584612058565b82840190509392505050565b60006129178284866128e5565b91508190509392505050565b61292c8161214a565b82525050565b600061293e8385612496565b935061294b838584612058565b61295483611f9b565b840190509392505050565b600060c082019050612974600083018c612923565b8181036020830152612987818a8c612932565b9050818103604083015261299c81888a612932565b90506129ab6060830187612923565b81810360808301526129be818587612932565b90506129cd60a083018461263b565b9a9950505050505050505050565b60006080820190506129f06000830189612923565b8181036020830152612a03818789612932565b90508181036040830152612a18818587612932565b9050612a276060830184612923565b979650505050505050565b7f4e487b7100000000000000000000000000000000000000000000000000000000600052602260045260246000fd5b60006002820490506001821680612a7957607f821691505b602082108103612a8c57612a8b612a32565b5b50919050565b600081905092915050565b6000612aa98385612a92565b9350612ab6838584612058565b82840190509392505050565b6000612acf828486612a9d565b91508190509392505050565b7f4e487b7100000000000000000000000000000000000000000000000000000000600052603260045260246000fd5b7f496e73756666696369656e742066756e64696e6720746f20696e73757265206160008201527f64646974696f6e616c2075736572730000000000000000000000000000000000602082015250565b6000612b66602f83612496565b9150612b7182612b0a565b604082019050919050565b60006020820190508181036000830152612b9581612b59565b9050919050565b60008190508160005260206000209050919050565b60006020601f8301049050919050565b600082821b905092915050565b600060088302612bfe7fffffffffffffffffffffffffffffffffffffffffffffffffffffffffffffffff82612bc1565b612c088683612bc1565b95508019841693508086168417925050509392505050565b6000612c3b612c36612c3184611e7a565b611f17565b611e7a565b9050919050565b6000819050919050565b612c5583612c20565b612c69612c6182612c42565b848454612bce565b825550505050565b600090565b612c7e612c71565b612c89818484612c4c565b505050565b5b81811015612cad57612ca2600082612c76565b600181019050612c8f565b5050565b601f821115612cf257612cc381612b9c565b612ccc84612bb1565b81016020851015612cdb578190505b612cef612ce785612bb1565b830182612c8e565b50505b505050565b600082821c905092915050565b6000612d1560001984600802612cf7565b1980831691505092915050565b6000612d2e8383612d04565b9150826002028217905092915050565b612d478261248b565b67ffffffffffffffff811115612d6057612d5f611fac565b5b612d6a8254612a61565b612d75828285612cb1565b600060209050601f831160018114612da85760008415612d96578287015190505b612da08582612d22565b865550612e08565b601f198416612db686612b9c565b60005b82811015612dde57848901518255600182019150602085019450602081019050612db9565b86831015612dfb5784890151612df7601f891682612d04565b8355505b6001600288020188555050505b505050505050565b7f506f6c696379206973206e6f7420616374697665000000000000000000000000600082015250565b6000612e46601483612496565b9150612e5182612e10565b602082019050919050565b60006020820190508181036000830152612e7581612e39565b9050919050565b600067ffffffffffffffff821115612e9757612e96611fac565b5b602082029050919050565b6000612eb5612eb084612e7c565b61200c565b90508060208402830185811115612ecf57612ece612185565b5b835b81811015612ef85780612ee488826127f0565b845260208401935050602081019050612ed1565b5050509392505050565b600082601f830112612f1757612f16611f91565b5b6002612f24848285612ea2565b91505092915050565b600060408284031215612f4357612f42611e12565b5b6000612f5184828501612f02565b91505092915050565b6000612f6d612f6884612027565b61200c565b905082815260208101848484011115612f8957612f88611f96565b5b612f948482856124a7565b509392505050565b600082601f830112612fb157612fb0611f91565b5b8151612fc1848260208601612f5a565b91505092915050565b600060208284031215612fe057612fdf611e12565b5b600082015167ffffffffffffffff811115612ffe57612ffd611e17565b5b61300a84828501612f9c565b91505092915050565b6000608082019050818103600083015261302d81876124d1565b9050818103602083015261304181866124d1565b9050818103604083015261305581856124d1565b9050613064606083018461263b565b95945050505050565b600061307882611e7a565b91507fffffffffffffffffffffffffffffffffffffffffffffffffffffffffffffffff82036130aa576130a9612832565b5b600182019050919050565b60006130c082611e7a565b91506130cb83611e7a565b92508282026130d981611e7a565b915082820484148315176130f0576130ef612832565b5b5092915050565b600061310282611e7a565b915061310d83611e7a565b925082820390508181111561312557613124612832565b5b92915050565b7f6178656c61720000000000000000000000000000000000000000000000000000600082015250565b6000613161600683612496565b915061316c8261312b565b602082019050919050565b6000608082019050818103600083015261319081613154565b905081810360208301526131a481866124d1565b905081810360408301526131b881856124d1565b90506131c7606083018461263b565b949350505050565b7f4f776e61626c653a206e6577206f776e657220697320746865207a65726f206160008201527f6464726573730000000000000000000000000000000000000000000000000000602082015250565b600061322b602683612496565b9150613236826131cf565b604082019050919050565b6000602082019050818103600083015261325a8161321e565b9050919050565b600061326c82611e1c565b9050919050565b61327c81613261565b811461328757600080fd5b50565b60008135905061329981613273565b92915050565b600080604083850312156132b6576132b5611e12565b5b60006132c485828601611e9b565b92505060206132d58582860161328a565b9150509250929050565b7f536f75726365206164647265737320616e6420636861696e20646f206e6f742060008201527f62656c6f6e6720696e207468652073616d65206d617070696e67000000000000602082015250565b600061333b603a83612496565b9150613346826132df565b604082019050919050565b6000602082019050818103600083015261336a8161332e565b9050919050565b7f4f776e61626c653a2063616c6c6572206973206e6f7420746865206f776e6572600082015250565b60006133a7602083612496565b91506133b282613371565b602082019050919050565b600060208201905081810360008301526133d68161339a565b9050919050565b60008160601b9050919050565b60006133f5826133dd565b9050919050565b6000613407826133ea565b9050919050565b61341f61341a82611e3c565b6133fc565b82525050565b6000613431828461340e565b60148201915081905092915050565b600060ff82169050919050565b600061345882613440565b915061346383613440565b9250828203905060ff81111561347c5761347b612832565b5b9291505056fea2646970667358221220cb13ad80e8fd3a7bb65a71aed319ba65e42b696e3f7965b44874eb7aa5d144ef64736f6c63430008120033","opcodes":"PUSH1 0xC0 PUSH1 0x40 MSTORE CALLVALUE DUP1 ISZERO PUSH3 0x11 JUMPI PUSH1 0x0 DUP1 REVERT JUMPDEST POP PUSH1 0x40 MLOAD PUSH3 0x3805 CODESIZE SUB DUP1 PUSH3 0x3805 DUP4 CODECOPY DUP2 DUP2 ADD PUSH1 0x40 MSTORE DUP2 ADD SWAP1 PUSH3 0x37 SWAP2 SWAP1 PUSH3 0x2A8 JUMP JUMPDEST DUP2 PUSH3 0x58 PUSH3 0x4C PUSH3 0x172 PUSH1 0x20 SHL PUSH1 0x20 SHR JUMP JUMPDEST PUSH3 0x17A PUSH1 0x20 SHL PUSH1 0x20 SHR JUMP JUMPDEST PUSH1 0x0 PUSH20 0xFFFFFFFFFFFFFFFFFFFFFFFFFFFFFFFFFFFFFFFF AND DUP2 PUSH20 0xFFFFFFFFFFFFFFFFFFFFFFFFFFFFFFFFFFFFFFFF AND SUB PUSH3 0xBF JUMPI PUSH1 0x40 MLOAD PUSH32 0xE6C4247B00000000000000000000000000000000000000000000000000000000 DUP2 MSTORE PUSH1 0x4 ADD PUSH1 0x40 MLOAD DUP1 SWAP2 SUB SWAP1 REVERT JUMPDEST DUP1 PUSH20 0xFFFFFFFFFFFFFFFFFFFFFFFFFFFFFFFFFFFFFFFF AND PUSH1 0x80 DUP2 PUSH20 0xFFFFFFFFFFFFFFFFFFFFFFFFFFFFFFFFFFFFFFFF AND DUP2 MSTORE POP POP POP DUP3 PUSH1 0x1 PUSH1 0x0 PUSH2 0x100 EXP DUP2 SLOAD DUP2 PUSH20 0xFFFFFFFFFFFFFFFFFFFFFFFFFFFFFFFFFFFFFFFF MUL NOT AND SWAP1 DUP4 PUSH20 0xFFFFFFFFFFFFFFFFFFFFFFFFFFFFFFFFFFFFFFFF AND MUL OR SWAP1 SSTORE POP DUP1 PUSH20 0xFFFFFFFFFFFFFFFFFFFFFFFFFFFFFFFFFFFFFFFF AND PUSH1 0xA0 DUP2 PUSH20 0xFFFFFFFFFFFFFFFFFFFFFFFFFFFFFFFFFFFFFFFF AND DUP2 MSTORE POP POP POP POP POP PUSH3 0x304 JUMP JUMPDEST PUSH1 0x0 CALLER SWAP1 POP SWAP1 JUMP JUMPDEST PUSH1 0x0 DUP1 PUSH1 0x0 SWAP1 SLOAD SWAP1 PUSH2 0x100 EXP SWAP1 DIV PUSH20 0xFFFFFFFFFFFFFFFFFFFFFFFFFFFFFFFFFFFFFFFF AND SWAP1 POP DUP2 PUSH1 0x0 DUP1 PUSH2 0x100 EXP DUP2 SLOAD DUP2 PUSH20 0xFFFFFFFFFFFFFFFFFFFFFFFFFFFFFFFFFFFFFFFF MUL NOT AND SWAP1 DUP4 PUSH20 0xFFFFFFFFFFFFFFFFFFFFFFFFFFFFFFFFFFFFFFFF AND MUL OR SWAP1 SSTORE POP DUP2 PUSH20 0xFFFFFFFFFFFFFFFFFFFFFFFFFFFFFFFFFFFFFFFF AND DUP2 PUSH20 0xFFFFFFFFFFFFFFFFFFFFFFFFFFFFFFFFFFFFFFFF AND PUSH32 0x8BE0079C531659141344CD1FD0A4F28419497F9722A3DAAFE3B4186F6B6457E0 PUSH1 0x40 MLOAD PUSH1 0x40 MLOAD DUP1 SWAP2 SUB SWAP1 LOG3 POP POP JUMP JUMPDEST PUSH1 0x0 DUP1 REVERT JUMPDEST PUSH1 0x0 PUSH20 0xFFFFFFFFFFFFFFFFFFFFFFFFFFFFFFFFFFFFFFFF DUP3 AND SWAP1 POP SWAP2 SWAP1 POP JUMP JUMPDEST PUSH1 0x0 PUSH3 0x270 DUP3 PUSH3 0x243 JUMP JUMPDEST SWAP1 POP SWAP2 SWAP1 POP JUMP JUMPDEST PUSH3 0x282 DUP2 PUSH3 0x263 JUMP JUMPDEST DUP2 EQ PUSH3 0x28E JUMPI PUSH1 0x0 DUP1 REVERT JUMPDEST POP JUMP JUMPDEST PUSH1 0x0 DUP2 MLOAD SWAP1 POP PUSH3 0x2A2 DUP2 PUSH3 0x277 JUMP JUMPDEST SWAP3 SWAP2 POP POP JUMP JUMPDEST PUSH1 0x0 DUP1 PUSH1 0x0 PUSH1 0x60 DUP5 DUP7 SUB SLT ISZERO PUSH3 0x2C4 JUMPI PUSH3 0x2C3 PUSH3 0x23E JUMP JUMPDEST JUMPDEST PUSH1 0x0 PUSH3 0x2D4 DUP7 DUP3 DUP8 ADD PUSH3 0x291 JUMP JUMPDEST SWAP4 POP POP PUSH1 0x20 PUSH3 0x2E7 DUP7 DUP3 DUP8 ADD PUSH3 0x291 JUMP JUMPDEST SWAP3 POP POP PUSH1 0x40 PUSH3 0x2FA DUP7 DUP3 DUP8 ADD PUSH3 0x291 JUMP JUMPDEST SWAP2 POP POP SWAP3 POP SWAP3 POP SWAP3 JUMP JUMPDEST PUSH1 0x80 MLOAD PUSH1 0xA0 MLOAD PUSH2 0x34B8 PUSH3 0x34D PUSH1 0x0 CODECOPY PUSH1 0x0 PUSH2 0x86D ADD MSTORE PUSH1 0x0 DUP2 DUP2 PUSH2 0x5AE ADD MSTORE DUP2 DUP2 PUSH2 0x637 ADD MSTORE DUP2 DUP2 PUSH2 0x779 ADD MSTORE DUP2 DUP2 PUSH2 0x10A4 ADD MSTORE DUP2 DUP2 PUSH2 0x1216 ADD MSTORE PUSH2 0x139E ADD MSTORE PUSH2 0x34B8 PUSH1 0x0 RETURN INVALID PUSH1 0x80 PUSH1 0x40 MSTORE CALLVALUE DUP1 ISZERO PUSH2 0x10 JUMPI PUSH1 0x0 DUP1 REVERT JUMPDEST POP PUSH1 0x4 CALLDATASIZE LT PUSH2 0xF4 JUMPI PUSH1 0x0 CALLDATALOAD PUSH1 0xE0 SHR DUP1 PUSH4 0x715018A6 GT PUSH2 0x97 JUMPI DUP1 PUSH4 0xA614BA09 GT PUSH2 0x66 JUMPI DUP1 PUSH4 0xA614BA09 EQ PUSH2 0x24C JUMPI DUP1 PUSH4 0xC2572838 EQ PUSH2 0x268 JUMPI DUP1 PUSH4 0xF2559ED2 EQ PUSH2 0x284 JUMPI DUP1 PUSH4 0xF2FDE38B EQ PUSH2 0x2BB JUMPI PUSH2 0xF4 JUMP JUMPDEST DUP1 PUSH4 0x715018A6 EQ PUSH2 0x1D7 JUMPI DUP1 PUSH4 0x8593CBE1 EQ PUSH2 0x1E1 JUMPI DUP1 PUSH4 0x8DA5CB5B EQ PUSH2 0x212 JUMPI DUP1 PUSH4 0x948FFE67 EQ PUSH2 0x230 JUMPI PUSH2 0xF4 JUMP JUMPDEST DUP1 PUSH4 0x1A98B2E0 GT PUSH2 0xD3 JUMPI DUP1 PUSH4 0x1A98B2E0 EQ PUSH2 0x163 JUMPI DUP1 PUSH4 0x3013CE29 EQ PUSH2 0x17F JUMPI DUP1 PUSH4 0x49160658 EQ PUSH2 0x19D JUMPI DUP1 PUSH4 0x6A22D8CC EQ PUSH2 0x1B9 JUMPI PUSH2 0xF4 JUMP JUMPDEST DUP1 PUSH3 0x4DB56E EQ PUSH2 0xF9 JUMPI DUP1 PUSH4 0x116191B6 EQ PUSH2 0x115 JUMPI DUP1 PUSH4 0x18AF2FA8 EQ PUSH2 0x133 JUMPI JUMPDEST PUSH1 0x0 DUP1 REVERT JUMPDEST PUSH2 0x113 PUSH1 0x4 DUP1 CALLDATASIZE SUB DUP2 ADD SWAP1 PUSH2 0x10E SWAP2 SWAP1 PUSH2 0x1EB0 JUMP JUMPDEST PUSH2 0x2D7 JUMP JUMPDEST STOP JUMPDEST PUSH2 0x11D PUSH2 0x5AC JUMP JUMPDEST PUSH1 0x40 MLOAD PUSH2 0x12A SWAP2 SWAP1 PUSH2 0x1F76 JUMP JUMPDEST PUSH1 0x40 MLOAD DUP1 SWAP2 SUB SWAP1 RETURN JUMPDEST PUSH2 0x14D PUSH1 0x4 DUP1 CALLDATASIZE SUB DUP2 ADD SWAP1 PUSH2 0x148 SWAP2 SWAP1 PUSH2 0x20D7 JUMP JUMPDEST PUSH2 0x5D0 JUMP JUMPDEST PUSH1 0x40 MLOAD PUSH2 0x15A SWAP2 SWAP1 PUSH2 0x212F JUMP JUMPDEST PUSH1 0x40 MLOAD DUP1 SWAP2 SUB SWAP1 RETURN JUMPDEST PUSH2 0x17D PUSH1 0x4 DUP1 CALLDATASIZE SUB DUP2 ADD SWAP1 PUSH2 0x178 SWAP2 SWAP1 PUSH2 0x2236 JUMP JUMPDEST PUSH2 0x619 JUMP JUMPDEST STOP JUMPDEST PUSH2 0x187 PUSH2 0x735 JUMP JUMPDEST PUSH1 0x40 MLOAD PUSH2 0x194 SWAP2 SWAP1 PUSH2 0x212F JUMP JUMPDEST PUSH1 0x40 MLOAD DUP1 SWAP2 SUB SWAP1 RETURN JUMPDEST PUSH2 0x1B7 PUSH1 0x4 DUP1 CALLDATASIZE SUB DUP2 ADD SWAP1 PUSH2 0x1B2 SWAP2 SWAP1 PUSH2 0x2346 JUMP JUMPDEST PUSH2 0x75B JUMP JUMPDEST STOP JUMPDEST PUSH2 0x1C1 PUSH2 0x86B JUMP JUMPDEST PUSH1 0x40 MLOAD PUSH2 0x1CE SWAP2 SWAP1 PUSH2 0x2430 JUMP JUMPDEST PUSH1 0x40 MLOAD DUP1 SWAP2 SUB SWAP1 RETURN JUMPDEST PUSH2 0x1DF PUSH2 0x88F JUMP JUMPDEST STOP JUMPDEST PUSH2 0x1FB PUSH1 0x4 DUP1 CALLDATASIZE SUB DUP2 ADD SWAP1 PUSH2 0x1F6 SWAP2 SWAP1 PUSH2 0x244B JUMP JUMPDEST PUSH2 0x8A3 JUMP JUMPDEST PUSH1 0x40 MLOAD PUSH2 0x209 SWAP3 SWAP2 SWAP1 PUSH2 0x250A JUMP JUMPDEST PUSH1 0x40 MLOAD DUP1 SWAP2 SUB SWAP1 RETURN JUMPDEST PUSH2 0x21A PUSH2 0x98C JUMP JUMPDEST PUSH1 0x40 MLOAD PUSH2 0x227 SWAP2 SWAP1 PUSH2 0x212F JUMP JUMPDEST PUSH1 0x40 MLOAD DUP1 SWAP2 SUB SWAP1 RETURN JUMPDEST PUSH2 0x24A PUSH1 0x4 DUP1 CALLDATASIZE SUB DUP2 ADD SWAP1 PUSH2 0x245 SWAP2 SWAP1 PUSH2 0x253A JUMP JUMPDEST PUSH2 0x9B5 JUMP JUMPDEST STOP JUMPDEST PUSH2 0x266 PUSH1 0x4 DUP1 CALLDATASIZE SUB DUP2 ADD SWAP1 PUSH2 0x261 SWAP2 SWAP1 PUSH2 0x259A JUMP JUMPDEST PUSH2 0xA21 JUMP JUMPDEST STOP JUMPDEST PUSH2 0x282 PUSH1 0x4 DUP1 CALLDATASIZE SUB DUP2 ADD SWAP1 PUSH2 0x27D SWAP2 SWAP1 PUSH2 0x260E JUMP JUMPDEST PUSH2 0xD29 JUMP JUMPDEST STOP JUMPDEST PUSH2 0x29E PUSH1 0x4 DUP1 CALLDATASIZE SUB DUP2 ADD SWAP1 PUSH2 0x299 SWAP2 SWAP1 PUSH2 0x260E JUMP JUMPDEST PUSH2 0x14EE JUMP JUMPDEST PUSH1 0x40 MLOAD PUSH2 0x2B2 SWAP9 SWAP8 SWAP7 SWAP6 SWAP5 SWAP4 SWAP3 SWAP2 SWAP1 PUSH2 0x2665 JUMP JUMPDEST PUSH1 0x40 MLOAD DUP1 SWAP2 SUB SWAP1 RETURN JUMPDEST PUSH2 0x2D5 PUSH1 0x4 DUP1 CALLDATASIZE SUB DUP2 ADD SWAP1 PUSH2 0x2D0 SWAP2 SWAP1 PUSH2 0x26E3 JUMP JUMPDEST PUSH2 0x1593 JUMP JUMPDEST STOP JUMPDEST DUP1 DUP4 LT ISZERO PUSH2 0x31A JUMPI PUSH1 0x40 MLOAD PUSH32 0x8C379A000000000000000000000000000000000000000000000000000000000 DUP2 MSTORE PUSH1 0x4 ADD PUSH2 0x311 SWAP1 PUSH2 0x2782 JUMP JUMPDEST PUSH1 0x40 MLOAD DUP1 SWAP2 SUB SWAP1 REVERT JUMPDEST PUSH1 0x1 PUSH1 0x0 SWAP1 SLOAD SWAP1 PUSH2 0x100 EXP SWAP1 DIV PUSH20 0xFFFFFFFFFFFFFFFFFFFFFFFFFFFFFFFFFFFFFFFF AND PUSH20 0xFFFFFFFFFFFFFFFFFFFFFFFFFFFFFFFFFFFFFFFF AND PUSH4 0x23B872DD CALLER ADDRESS DUP7 PUSH1 0x40 MLOAD DUP5 PUSH4 0xFFFFFFFF AND PUSH1 0xE0 SHL DUP2 MSTORE PUSH1 0x4 ADD PUSH2 0x379 SWAP4 SWAP3 SWAP2 SWAP1 PUSH2 0x27A2 JUMP JUMPDEST PUSH1 0x20 PUSH1 0x40 MLOAD DUP1 DUP4 SUB DUP2 PUSH1 0x0 DUP8 GAS CALL ISZERO DUP1 ISZERO PUSH2 0x398 JUMPI RETURNDATASIZE PUSH1 0x0 DUP1 RETURNDATACOPY RETURNDATASIZE PUSH1 0x0 REVERT JUMPDEST POP POP POP POP PUSH1 0x40 MLOAD RETURNDATASIZE PUSH1 0x1F NOT PUSH1 0x1F DUP3 ADD AND DUP3 ADD DUP1 PUSH1 0x40 MSTORE POP DUP2 ADD SWAP1 PUSH2 0x3BC SWAP2 SWAP1 PUSH2 0x2805 JUMP JUMPDEST POP PUSH1 0x0 PUSH1 0x1 PUSH1 0x2 DUP1 SLOAD SWAP1 POP PUSH2 0x3D1 SWAP2 SWAP1 PUSH2 0x2861 JUMP JUMPDEST SWAP1 POP PUSH1 0x0 PUSH1 0x40 MLOAD DUP1 PUSH2 0x100 ADD PUSH1 0x40 MSTORE DUP1 CALLER PUSH20 0xFFFFFFFFFFFFFFFFFFFFFFFFFFFFFFFFFFFFFFFF AND DUP2 MSTORE PUSH1 0x20 ADD DUP8 PUSH20 0xFFFFFFFFFFFFFFFFFFFFFFFFFFFFFFFFFFFFFFFF AND DUP2 MSTORE PUSH1 0x20 ADD DUP7 DUP2 MSTORE PUSH1 0x20 ADD DUP6 DUP2 MSTORE PUSH1 0x20 ADD DUP5 DUP2 MSTORE PUSH1 0x20 ADD DUP4 DUP2 MSTORE PUSH1 0x20 ADD PUSH1 0x0 DUP2 MSTORE PUSH1 0x20 ADD PUSH1 0x1 ISZERO ISZERO DUP2 MSTORE POP SWAP1 POP PUSH1 0x2 DUP2 SWAP1 DUP1 PUSH1 0x1 DUP2 SLOAD ADD DUP1 DUP3 SSTORE DUP1 SWAP2 POP POP PUSH1 0x1 SWAP1 SUB SWAP1 PUSH1 0x0 MSTORE PUSH1 0x20 PUSH1 0x0 KECCAK256 SWAP1 PUSH1 0x8 MUL ADD PUSH1 0x0 SWAP1 SWAP2 SWAP1 SWAP2 SWAP1 SWAP2 POP PUSH1 0x0 DUP3 ADD MLOAD DUP2 PUSH1 0x0 ADD PUSH1 0x0 PUSH2 0x100 EXP DUP2 SLOAD DUP2 PUSH20 0xFFFFFFFFFFFFFFFFFFFFFFFFFFFFFFFFFFFFFFFF MUL NOT AND SWAP1 DUP4 PUSH20 0xFFFFFFFFFFFFFFFFFFFFFFFFFFFFFFFFFFFFFFFF AND MUL OR SWAP1 SSTORE POP PUSH1 0x20 DUP3 ADD MLOAD DUP2 PUSH1 0x1 ADD PUSH1 0x0 PUSH2 0x100 EXP DUP2 SLOAD DUP2 PUSH20 0xFFFFFFFFFFFFFFFFFFFFFFFFFFFFFFFFFFFFFFFF MUL NOT AND SWAP1 DUP4 PUSH20 0xFFFFFFFFFFFFFFFFFFFFFFFFFFFFFFFFFFFFFFFF AND MUL OR SWAP1 SSTORE POP PUSH1 0x40 DUP3 ADD MLOAD DUP2 PUSH1 0x2 ADD SSTORE PUSH1 0x60 DUP3 ADD MLOAD DUP2 PUSH1 0x3 ADD SSTORE PUSH1 0x80 DUP3 ADD MLOAD DUP2 PUSH1 0x4 ADD SSTORE PUSH1 0xA0 DUP3 ADD MLOAD DUP2 PUSH1 0x5 ADD SSTORE PUSH1 0xC0 DUP3 ADD MLOAD DUP2 PUSH1 0x6 ADD SSTORE PUSH1 0xE0 DUP3 ADD MLOAD DUP2 PUSH1 0x7 ADD PUSH1 0x0 PUSH2 0x100 EXP DUP2 SLOAD DUP2 PUSH1 0xFF MUL NOT AND SWAP1 DUP4 ISZERO ISZERO MUL OR SWAP1 SSTORE POP POP POP CALLER PUSH20 0xFFFFFFFFFFFFFFFFFFFFFFFFFFFFFFFFFFFFFFFF AND DUP3 PUSH32 0xD6F218AE1DA38509B48B02255526EFFE001FC404E8C14AAF0888D4F3F879AFA DUP9 DUP9 DUP9 DUP9 PUSH1 0x40 MLOAD PUSH2 0x59C SWAP5 SWAP4 SWAP3 SWAP2 SWAP1 PUSH2 0x2895 JUMP JUMPDEST PUSH1 0x40 MLOAD DUP1 SWAP2 SUB SWAP1 LOG3 POP POP POP POP POP POP JUMP JUMPDEST PUSH32 0x0 DUP2 JUMP JUMPDEST PUSH1 0x4 DUP2 DUP1 MLOAD PUSH1 0x20 DUP2 ADD DUP3 ADD DUP1 MLOAD DUP5 DUP3 MSTORE PUSH1 0x20 DUP4 ADD PUSH1 0x20 DUP6 ADD KECCAK256 DUP2 DUP4 MSTORE DUP1 SWAP6 POP POP POP POP POP POP PUSH1 0x0 SWAP2 POP SLOAD SWAP1 PUSH2 0x100 EXP SWAP1 DIV PUSH20 0xFFFFFFFFFFFFFFFFFFFFFFFFFFFFFFFFFFFFFFFF AND DUP2 JUMP JUMPDEST PUSH1 0x0 DUP6 DUP6 PUSH1 0x40 MLOAD PUSH2 0x62B SWAP3 SWAP2 SWAP1 PUSH2 0x290A JUMP JUMPDEST PUSH1 0x40 MLOAD DUP1 SWAP2 SUB SWAP1 KECCAK256 SWAP1 POP PUSH32 0x0 PUSH20 0xFFFFFFFFFFFFFFFFFFFFFFFFFFFFFFFFFFFFFFFF AND PUSH4 0x1876EED9 DUP13 DUP13 DUP13 DUP13 DUP13 DUP8 DUP12 DUP12 DUP12 PUSH1 0x40 MLOAD DUP11 PUSH4 0xFFFFFFFF AND PUSH1 0xE0 SHL DUP2 MSTORE PUSH1 0x4 ADD PUSH2 0x69E SWAP10 SWAP9 SWAP8 SWAP7 SWAP6 SWAP5 SWAP4 SWAP3 SWAP2 SWAP1 PUSH2 0x295F JUMP JUMPDEST PUSH1 0x20 PUSH1 0x40 MLOAD DUP1 DUP4 SUB DUP2 PUSH1 0x0 DUP8 GAS CALL ISZERO DUP1 ISZERO PUSH2 0x6BD JUMPI RETURNDATASIZE PUSH1 0x0 DUP1 RETURNDATACOPY RETURNDATASIZE PUSH1 0x0 REVERT JUMPDEST POP POP POP POP PUSH1 0x40 MLOAD RETURNDATASIZE PUSH1 0x1F NOT PUSH1 0x1F DUP3 ADD AND DUP3 ADD DUP1 PUSH1 0x40 MSTORE POP DUP2 ADD SWAP1 PUSH2 0x6E1 SWAP2 SWAP1 PUSH2 0x2805 JUMP JUMPDEST PUSH2 0x717 JUMPI PUSH1 0x40 MLOAD PUSH32 0x500C44B400000000000000000000000000000000000000000000000000000000 DUP2 MSTORE PUSH1 0x4 ADD PUSH1 0x40 MLOAD DUP1 SWAP2 SUB SWAP1 REVERT JUMPDEST PUSH2 0x728 DUP11 DUP11 DUP11 DUP11 DUP11 DUP11 DUP11 DUP11 DUP11 PUSH2 0x1616 JUMP JUMPDEST POP POP POP POP POP POP POP POP POP POP POP JUMP JUMPDEST PUSH1 0x1 PUSH1 0x0 SWAP1 SLOAD SWAP1 PUSH2 0x100 EXP SWAP1 DIV PUSH20 0xFFFFFFFFFFFFFFFFFFFFFFFFFFFFFFFFFFFFFFFF AND DUP2 JUMP JUMPDEST PUSH1 0x0 DUP3 DUP3 PUSH1 0x40 MLOAD PUSH2 0x76D SWAP3 SWAP2 SWAP1 PUSH2 0x290A JUMP JUMPDEST PUSH1 0x40 MLOAD DUP1 SWAP2 SUB SWAP1 KECCAK256 SWAP1 POP PUSH32 0x0 PUSH20 0xFFFFFFFFFFFFFFFFFFFFFFFFFFFFFFFFFFFFFFFF AND PUSH4 0x5F6970C3 DUP10 DUP10 DUP10 DUP10 DUP10 DUP8 PUSH1 0x40 MLOAD DUP8 PUSH4 0xFFFFFFFF AND PUSH1 0xE0 SHL DUP2 MSTORE PUSH1 0x4 ADD PUSH2 0x7DA SWAP7 SWAP6 SWAP5 SWAP4 SWAP3 SWAP2 SWAP1 PUSH2 0x29DB JUMP JUMPDEST PUSH1 0x20 PUSH1 0x40 MLOAD DUP1 DUP4 SUB DUP2 PUSH1 0x0 DUP8 GAS CALL ISZERO DUP1 ISZERO PUSH2 0x7F9 JUMPI RETURNDATASIZE PUSH1 0x0 DUP1 RETURNDATACOPY RETURNDATASIZE PUSH1 0x0 REVERT JUMPDEST POP POP POP POP PUSH1 0x40 MLOAD RETURNDATASIZE PUSH1 0x1F NOT PUSH1 0x1F DUP3 ADD AND DUP3 ADD DUP1 PUSH1 0x40 MSTORE POP DUP2 ADD SWAP1 PUSH2 0x81D SWAP2 SWAP1 PUSH2 0x2805 JUMP JUMPDEST PUSH2 0x853 JUMPI PUSH1 0x40 MLOAD PUSH32 0x500C44B400000000000000000000000000000000000000000000000000000000 DUP2 MSTORE PUSH1 0x4 ADD PUSH1 0x40 MLOAD DUP1 SWAP2 SUB SWAP1 REVERT JUMPDEST PUSH2 0x861 DUP8 DUP8 DUP8 DUP8 DUP8 DUP8 PUSH2 0x1745 JUMP JUMPDEST POP POP POP POP POP POP POP POP JUMP JUMPDEST PUSH32 0x0 DUP2 JUMP JUMPDEST PUSH2 0x897 PUSH2 0x174D JUMP JUMPDEST PUSH2 0x8A1 PUSH1 0x0 PUSH2 0x17CB JUMP JUMPDEST JUMP JUMPDEST PUSH1 0x3 PUSH1 0x20 MSTORE DUP2 PUSH1 0x0 MSTORE PUSH1 0x40 PUSH1 0x0 KECCAK256 DUP2 DUP2 SLOAD DUP2 LT PUSH2 0x8BF JUMPI PUSH1 0x0 DUP1 REVERT JUMPDEST SWAP1 PUSH1 0x0 MSTORE PUSH1 0x20 PUSH1 0x0 KECCAK256 SWAP1 PUSH1 0x2 MUL ADD PUSH1 0x0 SWAP2 POP SWAP2 POP POP DUP1 PUSH1 0x0 ADD DUP1 SLOAD PUSH2 0x8E3 SWAP1 PUSH2 0x2A61 JUMP JUMPDEST DUP1 PUSH1 0x1F ADD PUSH1 0x20 DUP1 SWAP2 DIV MUL PUSH1 0x20 ADD PUSH1 0x40 MLOAD SWAP1 DUP2 ADD PUSH1 0x40 MSTORE DUP1 SWAP3 SWAP2 SWAP1 DUP2 DUP2 MSTORE PUSH1 0x20 ADD DUP3 DUP1 SLOAD PUSH2 0x90F SWAP1 PUSH2 0x2A61 JUMP JUMPDEST DUP1 ISZERO PUSH2 0x95C JUMPI DUP1 PUSH1 0x1F LT PUSH2 0x931 JUMPI PUSH2 0x100 DUP1 DUP4 SLOAD DIV MUL DUP4 MSTORE SWAP2 PUSH1 0x20 ADD SWAP2 PUSH2 0x95C JUMP JUMPDEST DUP3 ADD SWAP2 SWAP1 PUSH1 0x0 MSTORE PUSH1 0x20 PUSH1 0x0 KECCAK256 SWAP1 JUMPDEST DUP2 SLOAD DUP2 MSTORE SWAP1 PUSH1 0x1 ADD SWAP1 PUSH1 0x20 ADD DUP1 DUP4 GT PUSH2 0x93F JUMPI DUP3 SWAP1 SUB PUSH1 0x1F AND DUP3 ADD SWAP2 JUMPDEST POP POP POP POP POP SWAP1 DUP1 PUSH1 0x1 ADD PUSH1 0x0 SWAP1 SLOAD SWAP1 PUSH2 0x100 EXP SWAP1 DIV PUSH20 0xFFFFFFFFFFFFFFFFFFFFFFFFFFFFFFFFFFFFFFFF AND SWAP1 POP DUP3 JUMP JUMPDEST PUSH1 0x0 DUP1 PUSH1 0x0 SWAP1 SLOAD SWAP1 PUSH2 0x100 EXP SWAP1 DIV PUSH20 0xFFFFFFFFFFFFFFFFFFFFFFFFFFFFFFFFFFFFFFFF AND SWAP1 POP SWAP1 JUMP JUMPDEST PUSH2 0x9BD PUSH2 0x174D JUMP JUMPDEST DUP1 PUSH1 0x4 DUP5 DUP5 PUSH1 0x40 MLOAD PUSH2 0x9D0 SWAP3 SWAP2 SWAP1 PUSH2 0x2AC2 JUMP JUMPDEST SWAP1 DUP2 MSTORE PUSH1 0x20 ADD PUSH1 0x40 MLOAD DUP1 SWAP2 SUB SWAP1 KECCAK256 PUSH1 0x0 PUSH2 0x100 EXP DUP2 SLOAD DUP2 PUSH20 0xFFFFFFFFFFFFFFFFFFFFFFFFFFFFFFFFFFFFFFFF MUL NOT AND SWAP1 DUP4 PUSH20 0xFFFFFFFFFFFFFFFFFFFFFFFFFFFFFFFFFFFFFFFF AND MUL OR SWAP1 SSTORE POP POP POP POP JUMP JUMPDEST PUSH1 0x0 PUSH1 0x2 DUP6 DUP2 SLOAD DUP2 LT PUSH2 0xA37 JUMPI PUSH2 0xA36 PUSH2 0x2ADB JUMP JUMPDEST JUMPDEST SWAP1 PUSH1 0x0 MSTORE PUSH1 0x20 PUSH1 0x0 KECCAK256 SWAP1 PUSH1 0x8 MUL ADD PUSH1 0x40 MLOAD DUP1 PUSH2 0x100 ADD PUSH1 0x40 MSTORE SWAP1 DUP2 PUSH1 0x0 DUP3 ADD PUSH1 0x0 SWAP1 SLOAD SWAP1 PUSH2 0x100 EXP SWAP1 DIV PUSH20 0xFFFFFFFFFFFFFFFFFFFFFFFFFFFFFFFFFFFFFFFF AND PUSH20 0xFFFFFFFFFFFFFFFFFFFFFFFFFFFFFFFFFFFFFFFF AND PUSH20 0xFFFFFFFFFFFFFFFFFFFFFFFFFFFFFFFFFFFFFFFF AND DUP2 MSTORE PUSH1 0x20 ADD PUSH1 0x1 DUP3 ADD PUSH1 0x0 SWAP1 SLOAD SWAP1 PUSH2 0x100 EXP SWAP1 DIV PUSH20 0xFFFFFFFFFFFFFFFFFFFFFFFFFFFFFFFFFFFFFFFF AND PUSH20 0xFFFFFFFFFFFFFFFFFFFFFFFFFFFFFFFFFFFFFFFF AND PUSH20 0xFFFFFFFFFFFFFFFFFFFFFFFFFFFFFFFFFFFFFFFF AND DUP2 MSTORE PUSH1 0x20 ADD PUSH1 0x2 DUP3 ADD SLOAD DUP2 MSTORE PUSH1 0x20 ADD PUSH1 0x3 DUP3 ADD SLOAD DUP2 MSTORE PUSH1 0x20 ADD PUSH1 0x4 DUP3 ADD SLOAD DUP2 MSTORE PUSH1 0x20 ADD PUSH1 0x5 DUP3 ADD SLOAD DUP2 MSTORE PUSH1 0x20 ADD PUSH1 0x6 DUP3 ADD SLOAD DUP2 MSTORE PUSH1 0x20 ADD PUSH1 0x7 DUP3 ADD PUSH1 0x0 SWAP1 SLOAD SWAP1 PUSH2 0x100 EXP SWAP1 DIV PUSH1 0xFF AND ISZERO ISZERO ISZERO ISZERO DUP2 MSTORE POP POP SWAP1 POP DUP1 PUSH1 0x40 ADD MLOAD DUP2 PUSH1 0xC0 ADD MLOAD DUP3 PUSH1 0x80 ADD MLOAD PUSH2 0xB65 SWAP2 SWAP1 PUSH2 0x2861 JUMP JUMPDEST LT PUSH2 0xBA5 JUMPI PUSH1 0x40 MLOAD PUSH32 0x8C379A000000000000000000000000000000000000000000000000000000000 DUP2 MSTORE PUSH1 0x4 ADD PUSH2 0xB9C SWAP1 PUSH2 0x2B7C JUMP JUMPDEST PUSH1 0x40 MLOAD DUP1 SWAP2 SUB SWAP1 REVERT JUMPDEST PUSH1 0x0 PUSH1 0x40 MLOAD DUP1 PUSH1 0x40 ADD PUSH1 0x40 MSTORE DUP1 DUP7 DUP7 DUP1 DUP1 PUSH1 0x1F ADD PUSH1 0x20 DUP1 SWAP2 DIV MUL PUSH1 0x20 ADD PUSH1 0x40 MLOAD SWAP1 DUP2 ADD PUSH1 0x40 MSTORE DUP1 SWAP4 SWAP3 SWAP2 SWAP1 DUP2 DUP2 MSTORE PUSH1 0x20 ADD DUP4 DUP4 DUP1 DUP3 DUP5 CALLDATACOPY PUSH1 0x0 DUP2 DUP5 ADD MSTORE PUSH1 0x1F NOT PUSH1 0x1F DUP3 ADD AND SWAP1 POP DUP1 DUP4 ADD SWAP3 POP POP POP POP POP POP POP DUP2 MSTORE PUSH1 0x20 ADD DUP5 PUSH20 0xFFFFFFFFFFFFFFFFFFFFFFFFFFFFFFFFFFFFFFFF AND DUP2 MSTORE POP SWAP1 POP PUSH1 0x3 PUSH1 0x0 DUP8 DUP2 MSTORE PUSH1 0x20 ADD SWAP1 DUP2 MSTORE PUSH1 0x20 ADD PUSH1 0x0 KECCAK256 DUP2 SWAP1 DUP1 PUSH1 0x1 DUP2 SLOAD ADD DUP1 DUP3 SSTORE DUP1 SWAP2 POP POP PUSH1 0x1 SWAP1 SUB SWAP1 PUSH1 0x0 MSTORE PUSH1 0x20 PUSH1 0x0 KECCAK256 SWAP1 PUSH1 0x2 MUL ADD PUSH1 0x0 SWAP1 SWAP2 SWAP1 SWAP2 SWAP1 SWAP2 POP PUSH1 0x0 DUP3 ADD MLOAD DUP2 PUSH1 0x0 ADD SWAP1 DUP2 PUSH2 0xC6A SWAP2 SWAP1 PUSH2 0x2D3E JUMP JUMPDEST POP PUSH1 0x20 DUP3 ADD MLOAD DUP2 PUSH1 0x1 ADD PUSH1 0x0 PUSH2 0x100 EXP DUP2 SLOAD DUP2 PUSH20 0xFFFFFFFFFFFFFFFFFFFFFFFFFFFFFFFFFFFFFFFF MUL NOT AND SWAP1 DUP4 PUSH20 0xFFFFFFFFFFFFFFFFFFFFFFFFFFFFFFFFFFFFFFFF AND MUL OR SWAP1 SSTORE POP POP POP DUP2 PUSH1 0x80 ADD MLOAD DUP3 PUSH1 0xC0 ADD DUP2 DUP2 MLOAD PUSH2 0xCCA SWAP2 SWAP1 PUSH2 0x2861 JUMP JUMPDEST SWAP2 POP DUP2 DUP2 MSTORE POP POP DUP5 DUP5 PUSH1 0x40 MLOAD PUSH2 0xCE1 SWAP3 SWAP2 SWAP1 PUSH2 0x2AC2 JUMP JUMPDEST PUSH1 0x40 MLOAD DUP1 SWAP2 SUB SWAP1 KECCAK256 DUP7 PUSH32 0x736F217C62D7F771E891926226A8792FE30888530849C3DBAABAE6C9F0D535C DUP6 PUSH1 0x40 MLOAD PUSH2 0xD19 SWAP2 SWAP1 PUSH2 0x212F JUMP JUMPDEST PUSH1 0x40 MLOAD DUP1 SWAP2 SUB SWAP1 LOG3 POP POP POP POP POP POP JUMP JUMPDEST PUSH1 0x0 PUSH1 0x2 DUP3 DUP2 SLOAD DUP2 LT PUSH2 0xD3F JUMPI PUSH2 0xD3E PUSH2 0x2ADB JUMP JUMPDEST JUMPDEST SWAP1 PUSH1 0x0 MSTORE PUSH1 0x20 PUSH1 0x0 KECCAK256 SWAP1 PUSH1 0x8 MUL ADD PUSH1 0x40 MLOAD DUP1 PUSH2 0x100 ADD PUSH1 0x40 MSTORE SWAP1 DUP2 PUSH1 0x0 DUP3 ADD PUSH1 0x0 SWAP1 SLOAD SWAP1 PUSH2 0x100 EXP SWAP1 DIV PUSH20 0xFFFFFFFFFFFFFFFFFFFFFFFFFFFFFFFFFFFFFFFF AND PUSH20 0xFFFFFFFFFFFFFFFFFFFFFFFFFFFFFFFFFFFFFFFF AND PUSH20 0xFFFFFFFFFFFFFFFFFFFFFFFFFFFFFFFFFFFFFFFF AND DUP2 MSTORE PUSH1 0x20 ADD PUSH1 0x1 DUP3 ADD PUSH1 0x0 SWAP1 SLOAD SWAP1 PUSH2 0x100 EXP SWAP1 DIV PUSH20 0xFFFFFFFFFFFFFFFFFFFFFFFFFFFFFFFFFFFFFFFF AND PUSH20 0xFFFFFFFFFFFFFFFFFFFFFFFFFFFFFFFFFFFFFFFF AND PUSH20 0xFFFFFFFFFFFFFFFFFFFFFFFFFFFFFFFFFFFFFFFF AND DUP2 MSTORE PUSH1 0x20 ADD PUSH1 0x2 DUP3 ADD SLOAD DUP2 MSTORE PUSH1 0x20 ADD PUSH1 0x3 DUP3 ADD SLOAD DUP2 MSTORE PUSH1 0x20 ADD PUSH1 0x4 DUP3 ADD SLOAD DUP2 MSTORE PUSH1 0x20 ADD PUSH1 0x5 DUP3 ADD SLOAD DUP2 MSTORE PUSH1 0x20 ADD PUSH1 0x6 DUP3 ADD SLOAD DUP2 MSTORE PUSH1 0x20 ADD PUSH1 0x7 DUP3 ADD PUSH1 0x0 SWAP1 SLOAD SWAP1 PUSH2 0x100 EXP SWAP1 DIV PUSH1 0xFF AND ISZERO ISZERO ISZERO ISZERO DUP2 MSTORE POP POP SWAP1 POP DUP1 PUSH1 0xE0 ADD MLOAD PUSH2 0xE98 JUMPI PUSH1 0x40 MLOAD PUSH32 0x8C379A000000000000000000000000000000000000000000000000000000000 DUP2 MSTORE PUSH1 0x4 ADD PUSH2 0xE8F SWAP1 PUSH2 0x2E5C JUMP JUMPDEST PUSH1 0x40 MLOAD DUP1 SWAP2 SUB SWAP1 REVERT JUMPDEST PUSH1 0x0 DUP2 PUSH1 0x20 ADD MLOAD SWAP1 POP PUSH1 0x0 DUP2 PUSH20 0xFFFFFFFFFFFFFFFFFFFFFFFFFFFFFFFFFFFFFFFF AND PUSH4 0x261E5636 PUSH1 0x40 MLOAD DUP2 PUSH4 0xFFFFFFFF AND PUSH1 0xE0 SHL DUP2 MSTORE PUSH1 0x4 ADD PUSH1 0x40 DUP1 MLOAD DUP1 DUP4 SUB DUP2 DUP7 GAS STATICCALL ISZERO DUP1 ISZERO PUSH2 0xEED JUMPI RETURNDATASIZE PUSH1 0x0 DUP1 RETURNDATACOPY RETURNDATASIZE PUSH1 0x0 REVERT JUMPDEST POP POP POP POP PUSH1 0x40 MLOAD RETURNDATASIZE PUSH1 0x1F NOT PUSH1 0x1F DUP3 ADD AND DUP3 ADD DUP1 PUSH1 0x40 MSTORE POP DUP2 ADD SWAP1 PUSH2 0xF11 SWAP2 SWAP1 PUSH2 0x2F2D JUMP JUMPDEST SWAP1 POP DUP1 PUSH1 0x0 PUSH1 0x2 DUP2 LT PUSH2 0xF27 JUMPI PUSH2 0xF26 PUSH2 0x2ADB JUMP JUMPDEST JUMPDEST PUSH1 0x20 MUL ADD MLOAD DUP1 ISZERO PUSH2 0xF4D JUMPI POP DUP1 PUSH1 0x1 PUSH1 0x2 DUP2 LT PUSH2 0xF47 JUMPI PUSH2 0xF46 PUSH2 0x2ADB JUMP JUMPDEST JUMPDEST PUSH1 0x20 MUL ADD MLOAD JUMPDEST ISZERO PUSH2 0x135C JUMPI PUSH1 0x0 PUSH1 0x3 PUSH1 0x0 DUP7 DUP2 MSTORE PUSH1 0x20 ADD SWAP1 DUP2 MSTORE PUSH1 0x20 ADD PUSH1 0x0 KECCAK256 DUP1 SLOAD SWAP1 POP SWAP1 POP PUSH1 0x0 JUMPDEST DUP2 DUP2 LT ISZERO PUSH2 0x11F0 JUMPI PUSH1 0x0 PUSH1 0x3 PUSH1 0x0 DUP9 DUP2 MSTORE PUSH1 0x20 ADD SWAP1 DUP2 MSTORE PUSH1 0x20 ADD PUSH1 0x0 KECCAK256 DUP3 DUP2 SLOAD DUP2 LT PUSH2 0xF9F JUMPI PUSH2 0xF9E PUSH2 0x2ADB JUMP JUMPDEST JUMPDEST SWAP1 PUSH1 0x0 MSTORE PUSH1 0x20 PUSH1 0x0 KECCAK256 SWAP1 PUSH1 0x2 MUL ADD PUSH1 0x40 MLOAD DUP1 PUSH1 0x40 ADD PUSH1 0x40 MSTORE SWAP1 DUP2 PUSH1 0x0 DUP3 ADD DUP1 SLOAD PUSH2 0xFC8 SWAP1 PUSH2 0x2A61 JUMP JUMPDEST DUP1 PUSH1 0x1F ADD PUSH1 0x20 DUP1 SWAP2 DIV MUL PUSH1 0x20 ADD PUSH1 0x40 MLOAD SWAP1 DUP2 ADD PUSH1 0x40 MSTORE DUP1 SWAP3 SWAP2 SWAP1 DUP2 DUP2 MSTORE PUSH1 0x20 ADD DUP3 DUP1 SLOAD PUSH2 0xFF4 SWAP1 PUSH2 0x2A61 JUMP JUMPDEST DUP1 ISZERO PUSH2 0x1041 JUMPI DUP1 PUSH1 0x1F LT PUSH2 0x1016 JUMPI PUSH2 0x100 DUP1 DUP4 SLOAD DIV MUL DUP4 MSTORE SWAP2 PUSH1 0x20 ADD SWAP2 PUSH2 0x1041 JUMP JUMPDEST DUP3 ADD SWAP2 SWAP1 PUSH1 0x0 MSTORE PUSH1 0x20 PUSH1 0x0 KECCAK256 SWAP1 JUMPDEST DUP2 SLOAD DUP2 MSTORE SWAP1 PUSH1 0x1 ADD SWAP1 PUSH1 0x20 ADD DUP1 DUP4 GT PUSH2 0x1024 JUMPI DUP3 SWAP1 SUB PUSH1 0x1F AND DUP3 ADD SWAP2 JUMPDEST POP POP POP POP POP DUP2 MSTORE PUSH1 0x20 ADD PUSH1 0x1 DUP3 ADD PUSH1 0x0 SWAP1 SLOAD SWAP1 PUSH2 0x100 EXP SWAP1 DIV PUSH20 0xFFFFFFFFFFFFFFFFFFFFFFFFFFFFFFFFFFFFFFFF AND PUSH20 0xFFFFFFFFFFFFFFFFFFFFFFFFFFFFFFFFFFFFFFFF AND PUSH20 0xFFFFFFFFFFFFFFFFFFFFFFFFFFFFFFFFFFFFFFFF AND DUP2 MSTORE POP POP SWAP1 POP PUSH32 0x0 PUSH20 0xFFFFFFFFFFFFFFFFFFFFFFFFFFFFFFFFFFFFFFFF AND PUSH4 0x26EF699D DUP3 PUSH1 0x0 ADD MLOAD PUSH2 0x10F0 DUP5 PUSH1 0x20 ADD MLOAD PUSH2 0x188F JUMP JUMPDEST PUSH1 0x1 PUSH1 0x0 SWAP1 SLOAD SWAP1 PUSH2 0x100 EXP SWAP1 DIV PUSH20 0xFFFFFFFFFFFFFFFFFFFFFFFFFFFFFFFFFFFFFFFF AND PUSH20 0xFFFFFFFFFFFFFFFFFFFFFFFFFFFFFFFFFFFFFFFF AND PUSH4 0x95D89B41 PUSH1 0x40 MLOAD DUP2 PUSH4 0xFFFFFFFF AND PUSH1 0xE0 SHL DUP2 MSTORE PUSH1 0x4 ADD PUSH1 0x0 PUSH1 0x40 MLOAD DUP1 DUP4 SUB DUP2 DUP7 GAS STATICCALL ISZERO DUP1 ISZERO PUSH2 0x115D JUMPI RETURNDATASIZE PUSH1 0x0 DUP1 RETURNDATACOPY RETURNDATASIZE PUSH1 0x0 REVERT JUMPDEST POP POP POP POP PUSH1 0x40 MLOAD RETURNDATASIZE PUSH1 0x0 DUP3 RETURNDATACOPY RETURNDATASIZE PUSH1 0x1F NOT PUSH1 0x1F DUP3 ADD AND DUP3 ADD DUP1 PUSH1 0x40 MSTORE POP DUP2 ADD SWAP1 PUSH2 0x1186 SWAP2 SWAP1 PUSH2 0x2FCA JUMP JUMPDEST DUP11 PUSH1 0x60 ADD MLOAD PUSH1 0x40 MLOAD DUP6 PUSH4 0xFFFFFFFF AND PUSH1 0xE0 SHL DUP2 MSTORE PUSH1 0x4 ADD PUSH2 0x11AA SWAP5 SWAP4 SWAP3 SWAP2 SWAP1 PUSH2 0x3013 JUMP JUMPDEST PUSH1 0x0 PUSH1 0x40 MLOAD DUP1 DUP4 SUB DUP2 PUSH1 0x0 DUP8 DUP1 EXTCODESIZE ISZERO DUP1 ISZERO PUSH2 0x11C4 JUMPI PUSH1 0x0 DUP1 REVERT JUMPDEST POP GAS CALL ISZERO DUP1 ISZERO PUSH2 0x11D8 JUMPI RETURNDATASIZE PUSH1 0x0 DUP1 RETURNDATACOPY RETURNDATASIZE PUSH1 0x0 REVERT JUMPDEST POP POP POP POP POP DUP1 DUP1 PUSH2 0x11E8 SWAP1 PUSH2 0x306D JUMP JUMPDEST SWAP2 POP POP PUSH2 0xF70 JUMP JUMPDEST POP PUSH1 0x0 DUP5 PUSH1 0x60 ADD MLOAD DUP3 PUSH2 0x1203 SWAP2 SWAP1 PUSH2 0x30B5 JUMP JUMPDEST DUP6 PUSH1 0x40 ADD MLOAD PUSH2 0x1212 SWAP2 SWAP1 PUSH2 0x30F7 JUMP JUMPDEST SWAP1 POP PUSH32 0x0 PUSH20 0xFFFFFFFFFFFFFFFFFFFFFFFFFFFFFFFFFFFFFFFF AND PUSH4 0x26EF699D PUSH2 0x125D DUP8 PUSH1 0x0 ADD MLOAD PUSH2 0x188F JUMP JUMPDEST PUSH1 0x1 PUSH1 0x0 SWAP1 SLOAD SWAP1 PUSH2 0x100 EXP SWAP1 DIV PUSH20 0xFFFFFFFFFFFFFFFFFFFFFFFFFFFFFFFFFFFFFFFF AND PUSH20 0xFFFFFFFFFFFFFFFFFFFFFFFFFFFFFFFFFFFFFFFF AND PUSH4 0x95D89B41 PUSH1 0x40 MLOAD DUP2 PUSH4 0xFFFFFFFF AND PUSH1 0xE0 SHL DUP2 MSTORE PUSH1 0x4 ADD PUSH1 0x0 PUSH1 0x40 MLOAD DUP1 DUP4 SUB DUP2 DUP7 GAS STATICCALL ISZERO DUP1 ISZERO PUSH2 0x12CA JUMPI RETURNDATASIZE PUSH1 0x0 DUP1 RETURNDATACOPY RETURNDATASIZE PUSH1 0x0 REVERT JUMPDEST POP POP POP POP PUSH1 0x40 MLOAD RETURNDATASIZE PUSH1 0x0 DUP3 RETURNDATACOPY RETURNDATASIZE PUSH1 0x1F NOT PUSH1 0x1F DUP3 ADD AND DUP3 ADD DUP1 PUSH1 0x40 MSTORE POP DUP2 ADD SWAP1 PUSH2 0x12F3 SWAP2 SWAP1 PUSH2 0x2FCA JUMP JUMPDEST DUP5 PUSH1 0x40 MLOAD DUP5 PUSH4 0xFFFFFFFF AND PUSH1 0xE0 SHL DUP2 MSTORE PUSH1 0x4 ADD PUSH2 0x1312 SWAP4 SWAP3 SWAP2 SWAP1 PUSH2 0x3177 JUMP JUMPDEST PUSH1 0x0 PUSH1 0x40 MLOAD DUP1 DUP4 SUB DUP2 PUSH1 0x0 DUP8 DUP1 EXTCODESIZE ISZERO DUP1 ISZERO PUSH2 0x132C JUMPI PUSH1 0x0 DUP1 REVERT JUMPDEST POP GAS CALL ISZERO DUP1 ISZERO PUSH2 0x1340 JUMPI RETURNDATASIZE PUSH1 0x0 DUP1 RETURNDATACOPY RETURNDATASIZE PUSH1 0x0 REVERT JUMPDEST POP POP POP POP PUSH1 0x0 DUP6 PUSH1 0xE0 ADD SWAP1 ISZERO ISZERO SWAP1 DUP2 ISZERO ISZERO DUP2 MSTORE POP POP POP POP PUSH2 0x14E8 JUMP JUMPDEST DUP1 PUSH1 0x0 PUSH1 0x2 DUP2 LT PUSH2 0x1370 JUMPI PUSH2 0x136F PUSH2 0x2ADB JUMP JUMPDEST JUMPDEST PUSH1 0x20 MUL ADD MLOAD DUP1 ISZERO PUSH2 0x1397 JUMPI POP DUP1 PUSH1 0x1 PUSH1 0x2 DUP2 LT PUSH2 0x1390 JUMPI PUSH2 0x138F PUSH2 0x2ADB JUMP JUMPDEST JUMPDEST PUSH1 0x20 MUL ADD MLOAD ISZERO JUMPDEST ISZERO PUSH2 0x14E6 JUMPI PUSH32 0x0 PUSH20 0xFFFFFFFFFFFFFFFFFFFFFFFFFFFFFFFFFFFFFFFF AND PUSH4 0x26EF699D PUSH2 0x13E5 DUP6 PUSH1 0x0 ADD MLOAD PUSH2 0x188F JUMP JUMPDEST PUSH1 0x1 PUSH1 0x0 SWAP1 SLOAD SWAP1 PUSH2 0x100 EXP SWAP1 DIV PUSH20 0xFFFFFFFFFFFFFFFFFFFFFFFFFFFFFFFFFFFFFFFF AND PUSH20 0xFFFFFFFFFFFFFFFFFFFFFFFFFFFFFFFFFFFFFFFF AND PUSH4 0x95D89B41 PUSH1 0x40 MLOAD DUP2 PUSH4 0xFFFFFFFF AND PUSH1 0xE0 SHL DUP2 MSTORE PUSH1 0x4 ADD PUSH1 0x0 PUSH1 0x40 MLOAD DUP1 DUP4 SUB DUP2 DUP7 GAS STATICCALL ISZERO DUP1 ISZERO PUSH2 0x1452 JUMPI RETURNDATASIZE PUSH1 0x0 DUP1 RETURNDATACOPY RETURNDATASIZE PUSH1 0x0 REVERT JUMPDEST POP POP POP POP PUSH1 0x40 MLOAD RETURNDATASIZE PUSH1 0x0 DUP3 RETURNDATACOPY RETURNDATASIZE PUSH1 0x1F NOT PUSH1 0x1F DUP3 ADD AND DUP3 ADD DUP1 PUSH1 0x40 MSTORE POP DUP2 ADD SWAP1 PUSH2 0x147B SWAP2 SWAP1 PUSH2 0x2FCA JUMP JUMPDEST DUP7 PUSH1 0x40 ADD MLOAD PUSH1 0x40 MLOAD DUP5 PUSH4 0xFFFFFFFF AND PUSH1 0xE0 SHL DUP2 MSTORE PUSH1 0x4 ADD PUSH2 0x149E SWAP4 SWAP3 SWAP2 SWAP1 PUSH2 0x3177 JUMP JUMPDEST PUSH1 0x0 PUSH1 0x40 MLOAD DUP1 DUP4 SUB DUP2 PUSH1 0x0 DUP8 DUP1 EXTCODESIZE ISZERO DUP1 ISZERO PUSH2 0x14B8 JUMPI PUSH1 0x0 DUP1 REVERT JUMPDEST POP GAS CALL ISZERO DUP1 ISZERO PUSH2 0x14CC JUMPI RETURNDATASIZE PUSH1 0x0 DUP1 RETURNDATACOPY RETURNDATASIZE PUSH1 0x0 REVERT JUMPDEST POP POP POP POP PUSH1 0x0 DUP4 PUSH1 0xE0 ADD SWAP1 ISZERO ISZERO SWAP1 DUP2 ISZERO ISZERO DUP2 MSTORE POP POP PUSH2 0x14E7 JUMP JUMPDEST JUMPDEST JUMPDEST POP POP POP POP JUMP JUMPDEST PUSH1 0x2 DUP2 DUP2 SLOAD DUP2 LT PUSH2 0x14FE JUMPI PUSH1 0x0 DUP1 REVERT JUMPDEST SWAP1 PUSH1 0x0 MSTORE PUSH1 0x20 PUSH1 0x0 KECCAK256 SWAP1 PUSH1 0x8 MUL ADD PUSH1 0x0 SWAP2 POP SWAP1 POP DUP1 PUSH1 0x0 ADD PUSH1 0x0 SWAP1 SLOAD SWAP1 PUSH2 0x100 EXP SWAP1 DIV PUSH20 0xFFFFFFFFFFFFFFFFFFFFFFFFFFFFFFFFFFFFFFFF AND SWAP1 DUP1 PUSH1 0x1 ADD PUSH1 0x0 SWAP1 SLOAD SWAP1 PUSH2 0x100 EXP SWAP1 DIV PUSH20 0xFFFFFFFFFFFFFFFFFFFFFFFFFFFFFFFFFFFFFFFF AND SWAP1 DUP1 PUSH1 0x2 ADD SLOAD SWAP1 DUP1 PUSH1 0x3 ADD SLOAD SWAP1 DUP1 PUSH1 0x4 ADD SLOAD SWAP1 DUP1 PUSH1 0x5 ADD SLOAD SWAP1 DUP1 PUSH1 0x6 ADD SLOAD SWAP1 DUP1 PUSH1 0x7 ADD PUSH1 0x0 SWAP1 SLOAD SWAP1 PUSH2 0x100 EXP SWAP1 DIV PUSH1 0xFF AND SWAP1 POP DUP9 JUMP JUMPDEST PUSH2 0x159B PUSH2 0x174D JUMP JUMPDEST PUSH1 0x0 PUSH20 0xFFFFFFFFFFFFFFFFFFFFFFFFFFFFFFFFFFFFFFFF AND DUP2 PUSH20 0xFFFFFFFFFFFFFFFFFFFFFFFFFFFFFFFFFFFFFFFF AND SUB PUSH2 0x160A JUMPI PUSH1 0x40 MLOAD PUSH32 0x8C379A000000000000000000000000000000000000000000000000000000000 DUP2 MSTORE PUSH1 0x4 ADD PUSH2 0x1601 SWAP1 PUSH2 0x3241 JUMP JUMPDEST PUSH1 0x40 MLOAD DUP1 SWAP2 SUB SWAP1 REVERT JUMPDEST PUSH2 0x1613 DUP2 PUSH2 0x17CB JUMP JUMPDEST POP JUMP JUMPDEST PUSH1 0x0 DUP1 DUP7 DUP7 DUP2 ADD SWAP1 PUSH2 0x1628 SWAP2 SWAP1 PUSH2 0x329F JUMP JUMPDEST SWAP2 POP SWAP2 POP PUSH1 0x0 PUSH2 0x167B DUP11 DUP11 DUP1 DUP1 PUSH1 0x1F ADD PUSH1 0x20 DUP1 SWAP2 DIV MUL PUSH1 0x20 ADD PUSH1 0x40 MLOAD SWAP1 DUP2 ADD PUSH1 0x40 MSTORE DUP1 SWAP4 SWAP3 SWAP2 SWAP1 DUP2 DUP2 MSTORE PUSH1 0x20 ADD DUP4 DUP4 DUP1 DUP3 DUP5 CALLDATACOPY PUSH1 0x0 DUP2 DUP5 ADD MSTORE PUSH1 0x1F NOT PUSH1 0x1F DUP3 ADD AND SWAP1 POP DUP1 DUP4 ADD SWAP3 POP POP POP POP POP POP POP PUSH2 0x1BB2 JUMP JUMPDEST SWAP1 POP DUP1 PUSH20 0xFFFFFFFFFFFFFFFFFFFFFFFFFFFFFFFFFFFFFFFF AND PUSH1 0x4 DUP14 DUP14 PUSH1 0x40 MLOAD PUSH2 0x16A6 SWAP3 SWAP2 SWAP1 PUSH2 0x2AC2 JUMP JUMPDEST SWAP1 DUP2 MSTORE PUSH1 0x20 ADD PUSH1 0x40 MLOAD DUP1 SWAP2 SUB SWAP1 KECCAK256 PUSH1 0x0 SWAP1 SLOAD SWAP1 PUSH2 0x100 EXP SWAP1 DIV PUSH20 0xFFFFFFFFFFFFFFFFFFFFFFFFFFFFFFFFFFFFFFFF AND PUSH20 0xFFFFFFFFFFFFFFFFFFFFFFFFFFFFFFFFFFFFFFFF AND EQ PUSH2 0x172B JUMPI PUSH1 0x40 MLOAD PUSH32 0x8C379A000000000000000000000000000000000000000000000000000000000 DUP2 MSTORE PUSH1 0x4 ADD PUSH2 0x1722 SWAP1 PUSH2 0x3351 JUMP JUMPDEST PUSH1 0x40 MLOAD DUP1 SWAP2 SUB SWAP1 REVERT JUMPDEST PUSH2 0x1737 DUP4 DUP14 DUP14 DUP6 PUSH2 0xA21 JUMP JUMPDEST POP POP POP POP POP POP POP POP POP POP POP POP JUMP JUMPDEST POP POP POP POP POP POP JUMP JUMPDEST PUSH2 0x1755 PUSH2 0x1E00 JUMP JUMPDEST PUSH20 0xFFFFFFFFFFFFFFFFFFFFFFFFFFFFFFFFFFFFFFFF AND PUSH2 0x1773 PUSH2 0x98C JUMP JUMPDEST PUSH20 0xFFFFFFFFFFFFFFFFFFFFFFFFFFFFFFFFFFFFFFFF AND EQ PUSH2 0x17C9 JUMPI PUSH1 0x40 MLOAD PUSH32 0x8C379A000000000000000000000000000000000000000000000000000000000 DUP2 MSTORE PUSH1 0x4 ADD PUSH2 0x17C0 SWAP1 PUSH2 0x33BD JUMP JUMPDEST PUSH1 0x40 MLOAD DUP1 SWAP2 SUB SWAP1 REVERT JUMPDEST JUMP JUMPDEST PUSH1 0x0 DUP1 PUSH1 0x0 SWAP1 SLOAD SWAP1 PUSH2 0x100 EXP SWAP1 DIV PUSH20 0xFFFFFFFFFFFFFFFFFFFFFFFFFFFFFFFFFFFFFFFF AND SWAP1 POP DUP2 PUSH1 0x0 DUP1 PUSH2 0x100 EXP DUP2 SLOAD DUP2 PUSH20 0xFFFFFFFFFFFFFFFFFFFFFFFFFFFFFFFFFFFFFFFF MUL NOT AND SWAP1 DUP4 PUSH20 0xFFFFFFFFFFFFFFFFFFFFFFFFFFFFFFFFFFFFFFFF AND MUL OR SWAP1 SSTORE POP DUP2 PUSH20 0xFFFFFFFFFFFFFFFFFFFFFFFFFFFFFFFFFFFFFFFF AND DUP2 PUSH20 0xFFFFFFFFFFFFFFFFFFFFFFFFFFFFFFFFFFFFFFFF AND PUSH32 0x8BE0079C531659141344CD1FD0A4F28419497F9722A3DAAFE3B4186F6B6457E0 PUSH1 0x40 MLOAD PUSH1 0x40 MLOAD DUP1 SWAP2 SUB SWAP1 LOG3 POP POP JUMP JUMPDEST PUSH1 0x60 PUSH1 0x0 DUP3 PUSH1 0x40 MLOAD PUSH1 0x20 ADD PUSH2 0x18A4 SWAP2 SWAP1 PUSH2 0x3425 JUMP JUMPDEST PUSH1 0x40 MLOAD PUSH1 0x20 DUP2 DUP4 SUB SUB DUP2 MSTORE SWAP1 PUSH1 0x40 MSTORE SWAP1 POP PUSH1 0x0 DUP2 MLOAD SWAP1 POP PUSH1 0x0 PUSH1 0x40 MLOAD DUP1 PUSH1 0x40 ADD PUSH1 0x40 MSTORE DUP1 PUSH1 0x10 DUP2 MSTORE PUSH1 0x20 ADD PUSH32 0x3031323334353637383961626364656600000000000000000000000000000000 DUP2 MSTORE POP SWAP1 POP PUSH1 0x0 PUSH1 0x2 DUP5 MLOAD PUSH2 0x1905 SWAP2 SWAP1 PUSH2 0x30B5 JUMP JUMPDEST PUSH1 0x2 PUSH2 0x1911 SWAP2 SWAP1 PUSH2 0x2861 JUMP JUMPDEST PUSH8 0xFFFFFFFFFFFFFFFF DUP2 GT ISZERO PUSH2 0x192A JUMPI PUSH2 0x1929 PUSH2 0x1FAC JUMP JUMPDEST JUMPDEST PUSH1 0x40 MLOAD SWAP1 DUP1 DUP3 MSTORE DUP1 PUSH1 0x1F ADD PUSH1 0x1F NOT AND PUSH1 0x20 ADD DUP3 ADD PUSH1 0x40 MSTORE DUP1 ISZERO PUSH2 0x195C JUMPI DUP2 PUSH1 0x20 ADD PUSH1 0x1 DUP3 MUL DUP1 CALLDATASIZE DUP4 CALLDATACOPY DUP1 DUP3 ADD SWAP2 POP POP SWAP1 POP JUMPDEST POP SWAP1 POP PUSH32 0x3000000000000000000000000000000000000000000000000000000000000000 DUP2 PUSH1 0x0 DUP2 MLOAD DUP2 LT PUSH2 0x1994 JUMPI PUSH2 0x1993 PUSH2 0x2ADB JUMP JUMPDEST JUMPDEST PUSH1 0x20 ADD ADD SWAP1 PUSH31 0xFFFFFFFFFFFFFFFFFFFFFFFFFFFFFFFFFFFFFFFFFFFFFFFFFFFFFFFFFFFFFF NOT AND SWAP1 DUP2 PUSH1 0x0 BYTE SWAP1 MSTORE8 POP PUSH32 0x7800000000000000000000000000000000000000000000000000000000000000 DUP2 PUSH1 0x1 DUP2 MLOAD DUP2 LT PUSH2 0x19F8 JUMPI PUSH2 0x19F7 PUSH2 0x2ADB JUMP JUMPDEST JUMPDEST PUSH1 0x20 ADD ADD SWAP1 PUSH31 0xFFFFFFFFFFFFFFFFFFFFFFFFFFFFFFFFFFFFFFFFFFFFFFFFFFFFFFFFFFFFFF NOT AND SWAP1 DUP2 PUSH1 0x0 BYTE SWAP1 MSTORE8 POP PUSH1 0x0 JUMPDEST DUP4 DUP2 LT ISZERO PUSH2 0x1BA5 JUMPI DUP3 PUSH1 0x4 DUP7 DUP4 DUP2 MLOAD DUP2 LT PUSH2 0x1A48 JUMPI PUSH2 0x1A47 PUSH2 0x2ADB JUMP JUMPDEST JUMPDEST PUSH1 0x20 ADD ADD MLOAD PUSH1 0xF8 SHR PUSH1 0xF8 SHL PUSH31 0xFFFFFFFFFFFFFFFFFFFFFFFFFFFFFFFFFFFFFFFFFFFFFFFFFFFFFFFFFFFFFF NOT AND SWAP1 SHR PUSH1 0xF8 SHR PUSH1 0xFF AND DUP2 MLOAD DUP2 LT PUSH2 0x1A8E JUMPI PUSH2 0x1A8D PUSH2 0x2ADB JUMP JUMPDEST JUMPDEST PUSH1 0x20 ADD ADD MLOAD PUSH1 0xF8 SHR PUSH1 0xF8 SHL DUP3 PUSH1 0x2 DUP4 PUSH2 0x1AA7 SWAP2 SWAP1 PUSH2 0x30B5 JUMP JUMPDEST PUSH1 0x2 PUSH2 0x1AB3 SWAP2 SWAP1 PUSH2 0x2861 JUMP JUMPDEST DUP2 MLOAD DUP2 LT PUSH2 0x1AC4 JUMPI PUSH2 0x1AC3 PUSH2 0x2ADB JUMP JUMPDEST JUMPDEST PUSH1 0x20 ADD ADD SWAP1 PUSH31 0xFFFFFFFFFFFFFFFFFFFFFFFFFFFFFFFFFFFFFFFFFFFFFFFFFFFFFFFFFFFFFF NOT AND SWAP1 DUP2 PUSH1 0x0 BYTE SWAP1 MSTORE8 POP DUP3 PUSH1 0xF PUSH1 0xF8 SHL DUP7 DUP4 DUP2 MLOAD DUP2 LT PUSH2 0x1B0C JUMPI PUSH2 0x1B0B PUSH2 0x2ADB JUMP JUMPDEST JUMPDEST PUSH1 0x20 ADD ADD MLOAD PUSH1 0xF8 SHR PUSH1 0xF8 SHL AND PUSH1 0xF8 SHR PUSH1 0xFF AND DUP2 MLOAD DUP2 LT PUSH2 0x1B2F JUMPI PUSH2 0x1B2E PUSH2 0x2ADB JUMP JUMPDEST JUMPDEST PUSH1 0x20 ADD ADD MLOAD PUSH1 0xF8 SHR PUSH1 0xF8 SHL DUP3 PUSH1 0x2 DUP4 PUSH2 0x1B48 SWAP2 SWAP1 PUSH2 0x30B5 JUMP JUMPDEST PUSH1 0x3 PUSH2 0x1B54 SWAP2 SWAP1 PUSH2 0x2861 JUMP JUMPDEST DUP2 MLOAD DUP2 LT PUSH2 0x1B65 JUMPI PUSH2 0x1B64 PUSH2 0x2ADB JUMP JUMPDEST JUMPDEST PUSH1 0x20 ADD ADD SWAP1 PUSH31 0xFFFFFFFFFFFFFFFFFFFFFFFFFFFFFFFFFFFFFFFFFFFFFFFFFFFFFFFFFFFFFF NOT AND SWAP1 DUP2 PUSH1 0x0 BYTE SWAP1 MSTORE8 POP DUP1 PUSH2 0x1B9E SWAP1 PUSH2 0x306D JUMP JUMPDEST SWAP1 POP PUSH2 0x1A2A JUMP JUMPDEST POP DUP1 SWAP5 POP POP POP POP POP SWAP2 SWAP1 POP JUMP JUMPDEST PUSH1 0x0 DUP1 DUP3 SWAP1 POP PUSH1 0x0 DUP1 PUSH1 0x2A DUP4 MLOAD EQ ISZERO DUP1 PUSH2 0x1C2C JUMPI POP PUSH32 0x3000000000000000000000000000000000000000000000000000000000000000 DUP4 PUSH1 0x0 DUP2 MLOAD DUP2 LT PUSH2 0x1BFC JUMPI PUSH2 0x1BFB PUSH2 0x2ADB JUMP JUMPDEST JUMPDEST PUSH1 0x20 ADD ADD MLOAD PUSH1 0xF8 SHR PUSH1 0xF8 SHL PUSH31 0xFFFFFFFFFFFFFFFFFFFFFFFFFFFFFFFFFFFFFFFFFFFFFFFFFFFFFFFFFFFFFF NOT AND EQ ISZERO JUMPDEST DUP1 PUSH2 0x1C97 JUMPI POP PUSH32 0x7800000000000000000000000000000000000000000000000000000000000000 DUP4 PUSH1 0x1 DUP2 MLOAD DUP2 LT PUSH2 0x1C67 JUMPI PUSH2 0x1C66 PUSH2 0x2ADB JUMP JUMPDEST JUMPDEST PUSH1 0x20 ADD ADD MLOAD PUSH1 0xF8 SHR PUSH1 0xF8 SHL PUSH31 0xFFFFFFFFFFFFFFFFFFFFFFFFFFFFFFFFFFFFFFFFFFFFFFFFFFFFFFFFFFFFFF NOT AND EQ ISZERO JUMPDEST ISZERO PUSH2 0x1CCE JUMPI PUSH1 0x40 MLOAD PUSH32 0xDF48F19E00000000000000000000000000000000000000000000000000000000 DUP2 MSTORE PUSH1 0x4 ADD PUSH1 0x40 MLOAD DUP1 SWAP2 SUB SWAP1 REVERT JUMPDEST PUSH1 0x0 PUSH1 0x2 SWAP1 POP JUMPDEST PUSH1 0x2A DUP2 LT ISZERO PUSH2 0x1DF4 JUMPI DUP4 DUP2 DUP2 MLOAD DUP2 LT PUSH2 0x1CF1 JUMPI PUSH2 0x1CF0 PUSH2 0x2ADB JUMP JUMPDEST JUMPDEST PUSH1 0x20 ADD ADD MLOAD PUSH1 0xF8 SHR PUSH1 0xF8 SHL PUSH1 0xF8 SHR SWAP2 POP PUSH1 0x61 DUP3 PUSH1 0xFF AND LT ISZERO DUP1 ISZERO PUSH2 0x1D19 JUMPI POP PUSH1 0x66 DUP3 PUSH1 0xFF AND GT ISZERO JUMPDEST ISZERO PUSH2 0x1D32 JUMPI PUSH1 0x57 DUP3 PUSH2 0x1D2B SWAP2 SWAP1 PUSH2 0x344D JUMP JUMPDEST SWAP2 POP PUSH2 0x1DC8 JUMP JUMPDEST PUSH1 0x41 DUP3 PUSH1 0xFF AND LT ISZERO DUP1 ISZERO PUSH2 0x1D4A JUMPI POP PUSH1 0x46 DUP3 PUSH1 0xFF AND GT ISZERO JUMPDEST ISZERO PUSH2 0x1D63 JUMPI PUSH1 0x37 DUP3 PUSH2 0x1D5C SWAP2 SWAP1 PUSH2 0x344D JUMP JUMPDEST SWAP2 POP PUSH2 0x1DC7 JUMP JUMPDEST PUSH1 0x30 DUP3 PUSH1 0xFF AND LT ISZERO DUP1 ISZERO PUSH2 0x1D7B JUMPI POP PUSH1 0x39 DUP3 PUSH1 0xFF AND GT ISZERO JUMPDEST ISZERO PUSH2 0x1D94 JUMPI PUSH1 0x30 DUP3 PUSH2 0x1D8D SWAP2 SWAP1 PUSH2 0x344D JUMP JUMPDEST SWAP2 POP PUSH2 0x1DC6 JUMP JUMPDEST PUSH1 0x40 MLOAD PUSH32 0xDF48F19E00000000000000000000000000000000000000000000000000000000 DUP2 MSTORE PUSH1 0x4 ADD PUSH1 0x40 MLOAD DUP1 SWAP2 SUB SWAP1 REVERT JUMPDEST JUMPDEST JUMPDEST PUSH1 0x2 DUP2 PUSH1 0x29 PUSH2 0x1DD7 SWAP2 SWAP1 PUSH2 0x30F7 JUMP JUMPDEST SWAP1 SHL DUP3 PUSH1 0xFF AND SWAP1 SHL DUP4 OR SWAP3 POP DUP1 PUSH2 0x1DED SWAP1 PUSH2 0x306D JUMP JUMPDEST SWAP1 POP PUSH2 0x1CD5 JUMP JUMPDEST POP DUP2 SWAP4 POP POP POP POP SWAP2 SWAP1 POP JUMP JUMPDEST PUSH1 0x0 CALLER SWAP1 POP SWAP1 JUMP JUMPDEST PUSH1 0x0 PUSH1 0x40 MLOAD SWAP1 POP SWAP1 JUMP JUMPDEST PUSH1 0x0 DUP1 REVERT JUMPDEST PUSH1 0x0 DUP1 REVERT JUMPDEST PUSH1 0x0 PUSH20 0xFFFFFFFFFFFFFFFFFFFFFFFFFFFFFFFFFFFFFFFF DUP3 AND SWAP1 POP SWAP2 SWAP1 POP JUMP JUMPDEST PUSH1 0x0 PUSH2 0x1E47 DUP3 PUSH2 0x1E1C JUMP JUMPDEST SWAP1 POP SWAP2 SWAP1 POP JUMP JUMPDEST PUSH2 0x1E57 DUP2 PUSH2 0x1E3C JUMP JUMPDEST DUP2 EQ PUSH2 0x1E62 JUMPI PUSH1 0x0 DUP1 REVERT JUMPDEST POP JUMP JUMPDEST PUSH1 0x0 DUP2 CALLDATALOAD SWAP1 POP PUSH2 0x1E74 DUP2 PUSH2 0x1E4E JUMP JUMPDEST SWAP3 SWAP2 POP POP JUMP JUMPDEST PUSH1 0x0 DUP2 SWAP1 POP SWAP2 SWAP1 POP JUMP JUMPDEST PUSH2 0x1E8D DUP2 PUSH2 0x1E7A JUMP JUMPDEST DUP2 EQ PUSH2 0x1E98 JUMPI PUSH1 0x0 DUP1 REVERT JUMPDEST POP JUMP JUMPDEST PUSH1 0x0 DUP2 CALLDATALOAD SWAP1 POP PUSH2 0x1EAA DUP2 PUSH2 0x1E84 JUMP JUMPDEST SWAP3 SWAP2 POP POP JUMP JUMPDEST PUSH1 0x0 DUP1 PUSH1 0x0 DUP1 PUSH1 0x80 DUP6 DUP8 SUB SLT ISZERO PUSH2 0x1ECA JUMPI PUSH2 0x1EC9 PUSH2 0x1E12 JUMP JUMPDEST JUMPDEST PUSH1 0x0 PUSH2 0x1ED8 DUP8 DUP3 DUP9 ADD PUSH2 0x1E65 JUMP JUMPDEST SWAP5 POP POP PUSH1 0x20 PUSH2 0x1EE9 DUP8 DUP3 DUP9 ADD PUSH2 0x1E9B JUMP JUMPDEST SWAP4 POP POP PUSH1 0x40 PUSH2 0x1EFA DUP8 DUP3 DUP9 ADD PUSH2 0x1E9B JUMP JUMPDEST SWAP3 POP POP PUSH1 0x60 PUSH2 0x1F0B DUP8 DUP3 DUP9 ADD PUSH2 0x1E9B JUMP JUMPDEST SWAP2 POP POP SWAP3 SWAP6 SWAP2 SWAP5 POP SWAP3 POP JUMP JUMPDEST PUSH1 0x0 DUP2 SWAP1 POP SWAP2 SWAP1 POP JUMP JUMPDEST PUSH1 0x0 PUSH2 0x1F3C PUSH2 0x1F37 PUSH2 0x1F32 DUP5 PUSH2 0x1E1C JUMP JUMPDEST PUSH2 0x1F17 JUMP JUMPDEST PUSH2 0x1E1C JUMP JUMPDEST SWAP1 POP SWAP2 SWAP1 POP JUMP JUMPDEST PUSH1 0x0 PUSH2 0x1F4E DUP3 PUSH2 0x1F21 JUMP JUMPDEST SWAP1 POP SWAP2 SWAP1 POP JUMP JUMPDEST PUSH1 0x0 PUSH2 0x1F60 DUP3 PUSH2 0x1F43 JUMP JUMPDEST SWAP1 POP SWAP2 SWAP1 POP JUMP JUMPDEST PUSH2 0x1F70 DUP2 PUSH2 0x1F55 JUMP JUMPDEST DUP3 MSTORE POP POP JUMP JUMPDEST PUSH1 0x0 PUSH1 0x20 DUP3 ADD SWAP1 POP PUSH2 0x1F8B PUSH1 0x0 DUP4 ADD DUP5 PUSH2 0x1F67 JUMP JUMPDEST SWAP3 SWAP2 POP POP JUMP JUMPDEST PUSH1 0x0 DUP1 REVERT JUMPDEST PUSH1 0x0 DUP1 REVERT JUMPDEST PUSH1 0x0 PUSH1 0x1F NOT PUSH1 0x1F DUP4 ADD AND SWAP1 POP SWAP2 SWAP1 POP JUMP JUMPDEST PUSH32 0x4E487B7100000000000000000000000000000000000000000000000000000000 PUSH1 0x0 MSTORE PUSH1 0x41 PUSH1 0x4 MSTORE PUSH1 0x24 PUSH1 0x0 REVERT JUMPDEST PUSH2 0x1FE4 DUP3 PUSH2 0x1F9B JUMP JUMPDEST DUP2 ADD DUP2 DUP2 LT PUSH8 0xFFFFFFFFFFFFFFFF DUP3 GT OR ISZERO PUSH2 0x2003 JUMPI PUSH2 0x2002 PUSH2 0x1FAC JUMP JUMPDEST JUMPDEST DUP1 PUSH1 0x40 MSTORE POP POP POP JUMP JUMPDEST PUSH1 0x0 PUSH2 0x2016 PUSH2 0x1E08 JUMP JUMPDEST SWAP1 POP PUSH2 0x2022 DUP3 DUP3 PUSH2 0x1FDB JUMP JUMPDEST SWAP2 SWAP1 POP JUMP JUMPDEST PUSH1 0x0 PUSH8 0xFFFFFFFFFFFFFFFF DUP3 GT ISZERO PUSH2 0x2042 JUMPI PUSH2 0x2041 PUSH2 0x1FAC JUMP JUMPDEST JUMPDEST PUSH2 0x204B DUP3 PUSH2 0x1F9B JUMP JUMPDEST SWAP1 POP PUSH1 0x20 DUP2 ADD SWAP1 POP SWAP2 SWAP1 POP JUMP JUMPDEST DUP3 DUP2 DUP4 CALLDATACOPY PUSH1 0x0 DUP4 DUP4 ADD MSTORE POP POP POP JUMP JUMPDEST PUSH1 0x0 PUSH2 0x207A PUSH2 0x2075 DUP5 PUSH2 0x2027 JUMP JUMPDEST PUSH2 0x200C JUMP JUMPDEST SWAP1 POP DUP3 DUP2 MSTORE PUSH1 0x20 DUP2 ADD DUP5 DUP5 DUP5 ADD GT ISZERO PUSH2 0x2096 JUMPI PUSH2 0x2095 PUSH2 0x1F96 JUMP JUMPDEST JUMPDEST PUSH2 0x20A1 DUP5 DUP3 DUP6 PUSH2 0x2058 JUMP JUMPDEST POP SWAP4 SWAP3 POP POP POP JUMP JUMPDEST PUSH1 0x0 DUP3 PUSH1 0x1F DUP4 ADD SLT PUSH2 0x20BE JUMPI PUSH2 0x20BD PUSH2 0x1F91 JUMP JUMPDEST JUMPDEST DUP2 CALLDATALOAD PUSH2 0x20CE DUP5 DUP3 PUSH1 0x20 DUP7 ADD PUSH2 0x2067 JUMP JUMPDEST SWAP2 POP POP SWAP3 SWAP2 POP POP JUMP JUMPDEST PUSH1 0x0 PUSH1 0x20 DUP3 DUP5 SUB SLT ISZERO PUSH2 0x20ED JUMPI PUSH2 0x20EC PUSH2 0x1E12 JUMP JUMPDEST JUMPDEST PUSH1 0x0 DUP3 ADD CALLDATALOAD PUSH8 0xFFFFFFFFFFFFFFFF DUP2 GT ISZERO PUSH2 0x210B JUMPI PUSH2 0x210A PUSH2 0x1E17 JUMP JUMPDEST JUMPDEST PUSH2 0x2117 DUP5 DUP3 DUP6 ADD PUSH2 0x20A9 JUMP JUMPDEST SWAP2 POP POP SWAP3 SWAP2 POP POP JUMP JUMPDEST PUSH2 0x2129 DUP2 PUSH2 0x1E3C JUMP JUMPDEST DUP3 MSTORE POP POP JUMP JUMPDEST PUSH1 0x0 PUSH1 0x20 DUP3 ADD SWAP1 POP PUSH2 0x2144 PUSH1 0x0 DUP4 ADD DUP5 PUSH2 0x2120 JUMP JUMPDEST SWAP3 SWAP2 POP POP JUMP JUMPDEST PUSH1 0x0 DUP2 SWAP1 POP SWAP2 SWAP1 POP JUMP JUMPDEST PUSH2 0x215D DUP2 PUSH2 0x214A JUMP JUMPDEST DUP2 EQ PUSH2 0x2168 JUMPI PUSH1 0x0 DUP1 REVERT JUMPDEST POP JUMP JUMPDEST PUSH1 0x0 DUP2 CALLDATALOAD SWAP1 POP PUSH2 0x217A DUP2 PUSH2 0x2154 JUMP JUMPDEST SWAP3 SWAP2 POP POP JUMP JUMPDEST PUSH1 0x0 DUP1 REVERT JUMPDEST PUSH1 0x0 DUP1 REVERT JUMPDEST PUSH1 0x0 DUP1 DUP4 PUSH1 0x1F DUP5 ADD SLT PUSH2 0x21A0 JUMPI PUSH2 0x219F PUSH2 0x1F91 JUMP JUMPDEST JUMPDEST DUP3 CALLDATALOAD SWAP1 POP PUSH8 0xFFFFFFFFFFFFFFFF DUP2 GT ISZERO PUSH2 0x21BD JUMPI PUSH2 0x21BC PUSH2 0x2180 JUMP JUMPDEST JUMPDEST PUSH1 0x20 DUP4 ADD SWAP2 POP DUP4 PUSH1 0x1 DUP3 MUL DUP4 ADD GT ISZERO PUSH2 0x21D9 JUMPI PUSH2 0x21D8 PUSH2 0x2185 JUMP JUMPDEST JUMPDEST SWAP3 POP SWAP3 SWAP1 POP JUMP JUMPDEST PUSH1 0x0 DUP1 DUP4 PUSH1 0x1F DUP5 ADD SLT PUSH2 0x21F6 JUMPI PUSH2 0x21F5 PUSH2 0x1F91 JUMP JUMPDEST JUMPDEST DUP3 CALLDATALOAD SWAP1 POP PUSH8 0xFFFFFFFFFFFFFFFF DUP2 GT ISZERO PUSH2 0x2213 JUMPI PUSH2 0x2212 PUSH2 0x2180 JUMP JUMPDEST JUMPDEST PUSH1 0x20 DUP4 ADD SWAP2 POP DUP4 PUSH1 0x1 DUP3 MUL DUP4 ADD GT ISZERO PUSH2 0x222F JUMPI PUSH2 0x222E PUSH2 0x2185 JUMP JUMPDEST JUMPDEST SWAP3 POP SWAP3 SWAP1 POP JUMP JUMPDEST PUSH1 0x0 DUP1 PUSH1 0x0 DUP1 PUSH1 0x0 DUP1 PUSH1 0x0 DUP1 PUSH1 0x0 DUP1 PUSH1 0xC0 DUP12 DUP14 SUB SLT ISZERO PUSH2 0x2259 JUMPI PUSH2 0x2258 PUSH2 0x1E12 JUMP JUMPDEST JUMPDEST PUSH1 0x0 PUSH2 0x2267 DUP14 DUP3 DUP15 ADD PUSH2 0x216B JUMP JUMPDEST SWAP11 POP POP PUSH1 0x20 DUP12 ADD CALLDATALOAD PUSH8 0xFFFFFFFFFFFFFFFF DUP2 GT ISZERO PUSH2 0x2288 JUMPI PUSH2 0x2287 PUSH2 0x1E17 JUMP JUMPDEST JUMPDEST PUSH2 0x2294 DUP14 DUP3 DUP15 ADD PUSH2 0x218A JUMP JUMPDEST SWAP10 POP SWAP10 POP POP PUSH1 0x40 DUP12 ADD CALLDATALOAD PUSH8 0xFFFFFFFFFFFFFFFF DUP2 GT ISZERO PUSH2 0x22B7 JUMPI PUSH2 0x22B6 PUSH2 0x1E17 JUMP JUMPDEST JUMPDEST PUSH2 0x22C3 DUP14 DUP3 DUP15 ADD PUSH2 0x218A JUMP JUMPDEST SWAP8 POP SWAP8 POP POP PUSH1 0x60 DUP12 ADD CALLDATALOAD PUSH8 0xFFFFFFFFFFFFFFFF DUP2 GT ISZERO PUSH2 0x22E6 JUMPI PUSH2 0x22E5 PUSH2 0x1E17 JUMP JUMPDEST JUMPDEST PUSH2 0x22F2 DUP14 DUP3 DUP15 ADD PUSH2 0x21E0 JUMP JUMPDEST SWAP6 POP SWAP6 POP POP PUSH1 0x80 DUP12 ADD CALLDATALOAD PUSH8 0xFFFFFFFFFFFFFFFF DUP2 GT ISZERO PUSH2 0x2315 JUMPI PUSH2 0x2314 PUSH2 0x1E17 JUMP JUMPDEST JUMPDEST PUSH2 0x2321 DUP14 DUP3 DUP15 ADD PUSH2 0x218A JUMP JUMPDEST SWAP4 POP SWAP4 POP POP PUSH1 0xA0 PUSH2 0x2334 DUP14 DUP3 DUP15 ADD PUSH2 0x1E9B JUMP JUMPDEST SWAP2 POP POP SWAP3 SWAP6 SWAP9 SWAP12 SWAP2 SWAP5 SWAP8 SWAP11 POP SWAP3 SWAP6 SWAP9 POP JUMP JUMPDEST PUSH1 0x0 DUP1 PUSH1 0x0 DUP1 PUSH1 0x0 DUP1 PUSH1 0x0 PUSH1 0x80 DUP9 DUP11 SUB SLT ISZERO PUSH2 0x2365 JUMPI PUSH2 0x2364 PUSH2 0x1E12 JUMP JUMPDEST JUMPDEST PUSH1 0x0 PUSH2 0x2373 DUP11 DUP3 DUP12 ADD PUSH2 0x216B JUMP JUMPDEST SWAP8 POP POP PUSH1 0x20 DUP9 ADD CALLDATALOAD PUSH8 0xFFFFFFFFFFFFFFFF DUP2 GT ISZERO PUSH2 0x2394 JUMPI PUSH2 0x2393 PUSH2 0x1E17 JUMP JUMPDEST JUMPDEST PUSH2 0x23A0 DUP11 DUP3 DUP12 ADD PUSH2 0x218A JUMP JUMPDEST SWAP7 POP SWAP7 POP POP PUSH1 0x40 DUP9 ADD CALLDATALOAD PUSH8 0xFFFFFFFFFFFFFFFF DUP2 GT ISZERO PUSH2 0x23C3 JUMPI PUSH2 0x23C2 PUSH2 0x1E17 JUMP JUMPDEST JUMPDEST PUSH2 0x23CF DUP11 DUP3 DUP12 ADD PUSH2 0x218A JUMP JUMPDEST SWAP5 POP SWAP5 POP POP PUSH1 0x60 DUP9 ADD CALLDATALOAD PUSH8 0xFFFFFFFFFFFFFFFF DUP2 GT ISZERO PUSH2 0x23F2 JUMPI PUSH2 0x23F1 PUSH2 0x1E17 JUMP JUMPDEST JUMPDEST PUSH2 0x23FE DUP11 DUP3 DUP12 ADD PUSH2 0x21E0 JUMP JUMPDEST SWAP3 POP SWAP3 POP POP SWAP3 SWAP6 SWAP9 SWAP2 SWAP5 SWAP8 POP SWAP3 SWAP6 POP JUMP JUMPDEST PUSH1 0x0 PUSH2 0x241A DUP3 PUSH2 0x1F43 JUMP JUMPDEST SWAP1 POP SWAP2 SWAP1 POP JUMP JUMPDEST PUSH2 0x242A DUP2 PUSH2 0x240F JUMP JUMPDEST DUP3 MSTORE POP POP JUMP JUMPDEST PUSH1 0x0 PUSH1 0x20 DUP3 ADD SWAP1 POP PUSH2 0x2445 PUSH1 0x0 DUP4 ADD DUP5 PUSH2 0x2421 JUMP JUMPDEST SWAP3 SWAP2 POP POP JUMP JUMPDEST PUSH1 0x0 DUP1 PUSH1 0x40 DUP4 DUP6 SUB SLT ISZERO PUSH2 0x2462 JUMPI PUSH2 0x2461 PUSH2 0x1E12 JUMP JUMPDEST JUMPDEST PUSH1 0x0 PUSH2 0x2470 DUP6 DUP3 DUP7 ADD PUSH2 0x1E9B JUMP JUMPDEST SWAP3 POP POP PUSH1 0x20 PUSH2 0x2481 DUP6 DUP3 DUP7 ADD PUSH2 0x1E9B JUMP JUMPDEST SWAP2 POP POP SWAP3 POP SWAP3 SWAP1 POP JUMP JUMPDEST PUSH1 0x0 DUP2 MLOAD SWAP1 POP SWAP2 SWAP1 POP JUMP JUMPDEST PUSH1 0x0 DUP3 DUP3 MSTORE PUSH1 0x20 DUP3 ADD SWAP1 POP SWAP3 SWAP2 POP POP JUMP JUMPDEST PUSH1 0x0 JUMPDEST DUP4 DUP2 LT ISZERO PUSH2 0x24C5 JUMPI DUP1 DUP3 ADD MLOAD DUP2 DUP5 ADD MSTORE PUSH1 0x20 DUP2 ADD SWAP1 POP PUSH2 0x24AA JUMP JUMPDEST PUSH1 0x0 DUP5 DUP5 ADD MSTORE POP POP POP POP JUMP JUMPDEST PUSH1 0x0 PUSH2 0x24DC DUP3 PUSH2 0x248B JUMP JUMPDEST PUSH2 0x24E6 DUP2 DUP6 PUSH2 0x2496 JUMP JUMPDEST SWAP4 POP PUSH2 0x24F6 DUP2 DUP6 PUSH1 0x20 DUP7 ADD PUSH2 0x24A7 JUMP JUMPDEST PUSH2 0x24FF DUP2 PUSH2 0x1F9B JUMP JUMPDEST DUP5 ADD SWAP2 POP POP SWAP3 SWAP2 POP POP JUMP JUMPDEST PUSH1 0x0 PUSH1 0x40 DUP3 ADD SWAP1 POP DUP2 DUP2 SUB PUSH1 0x0 DUP4 ADD MSTORE PUSH2 0x2524 DUP2 DUP6 PUSH2 0x24D1 JUMP JUMPDEST SWAP1 POP PUSH2 0x2533 PUSH1 0x20 DUP4 ADD DUP5 PUSH2 0x2120 JUMP JUMPDEST SWAP4 SWAP3 POP POP POP JUMP JUMPDEST PUSH1 0x0 DUP1 PUSH1 0x0 PUSH1 0x40 DUP5 DUP7 SUB SLT ISZERO PUSH2 0x2553 JUMPI PUSH2 0x2552 PUSH2 0x1E12 JUMP JUMPDEST JUMPDEST PUSH1 0x0 DUP5 ADD CALLDATALOAD PUSH8 0xFFFFFFFFFFFFFFFF DUP2 GT ISZERO PUSH2 0x2571 JUMPI PUSH2 0x2570 PUSH2 0x1E17 JUMP JUMPDEST JUMPDEST PUSH2 0x257D DUP7 DUP3 DUP8 ADD PUSH2 0x218A JUMP JUMPDEST SWAP4 POP SWAP4 POP POP PUSH1 0x20 PUSH2 0x2590 DUP7 DUP3 DUP8 ADD PUSH2 0x1E65 JUMP JUMPDEST SWAP2 POP POP SWAP3 POP SWAP3 POP SWAP3 JUMP JUMPDEST PUSH1 0x0 DUP1 PUSH1 0x0 DUP1 PUSH1 0x60 DUP6 DUP8 SUB SLT ISZERO PUSH2 0x25B4 JUMPI PUSH2 0x25B3 PUSH2 0x1E12 JUMP JUMPDEST JUMPDEST PUSH1 0x0 PUSH2 0x25C2 DUP8 DUP3 DUP9 ADD PUSH2 0x1E9B JUMP JUMPDEST SWAP5 POP POP PUSH1 0x20 DUP6 ADD CALLDATALOAD PUSH8 0xFFFFFFFFFFFFFFFF DUP2 GT ISZERO PUSH2 0x25E3 JUMPI PUSH2 0x25E2 PUSH2 0x1E17 JUMP JUMPDEST JUMPDEST PUSH2 0x25EF DUP8 DUP3 DUP9 ADD PUSH2 0x218A JUMP JUMPDEST SWAP4 POP SWAP4 POP POP PUSH1 0x40 PUSH2 0x2602 DUP8 DUP3 DUP9 ADD PUSH2 0x1E65 JUMP JUMPDEST SWAP2 POP POP SWAP3 SWAP6 SWAP2 SWAP5 POP SWAP3 POP JUMP JUMPDEST PUSH1 0x0 PUSH1 0x20 DUP3 DUP5 SUB SLT ISZERO PUSH2 0x2624 JUMPI PUSH2 0x2623 PUSH2 0x1E12 JUMP JUMPDEST JUMPDEST PUSH1 0x0 PUSH2 0x2632 DUP5 DUP3 DUP6 ADD PUSH2 0x1E9B JUMP JUMPDEST SWAP2 POP POP SWAP3 SWAP2 POP POP JUMP JUMPDEST PUSH2 0x2644 DUP2 PUSH2 0x1E7A JUMP JUMPDEST DUP3 MSTORE POP POP JUMP JUMPDEST PUSH1 0x0 DUP2 ISZERO ISZERO SWAP1 POP SWAP2 SWAP1 POP JUMP JUMPDEST PUSH2 0x265F DUP2 PUSH2 0x264A JUMP JUMPDEST DUP3 MSTORE POP POP JUMP JUMPDEST PUSH1 0x0 PUSH2 0x100 DUP3 ADD SWAP1 POP PUSH2 0x267B PUSH1 0x0 DUP4 ADD DUP12 PUSH2 0x2120 JUMP JUMPDEST PUSH2 0x2688 PUSH1 0x20 DUP4 ADD DUP11 PUSH2 0x2120 JUMP JUMPDEST PUSH2 0x2695 PUSH1 0x40 DUP4 ADD DUP10 PUSH2 0x263B JUMP JUMPDEST PUSH2 0x26A2 PUSH1 0x60 DUP4 ADD DUP9 PUSH2 0x263B JUMP JUMPDEST PUSH2 0x26AF PUSH1 0x80 DUP4 ADD DUP8 PUSH2 0x263B JUMP JUMPDEST PUSH2 0x26BC PUSH1 0xA0 DUP4 ADD DUP7 PUSH2 0x263B JUMP JUMPDEST PUSH2 0x26C9 PUSH1 0xC0 DUP4 ADD DUP6 PUSH2 0x263B JUMP JUMPDEST PUSH2 0x26D6 PUSH1 0xE0 DUP4 ADD DUP5 PUSH2 0x2656 JUMP JUMPDEST SWAP10 SWAP9 POP POP POP POP POP POP POP POP POP JUMP JUMPDEST PUSH1 0x0 PUSH1 0x20 DUP3 DUP5 SUB SLT ISZERO PUSH2 0x26F9 JUMPI PUSH2 0x26F8 PUSH2 0x1E12 JUMP JUMPDEST JUMPDEST PUSH1 0x0 PUSH2 0x2707 DUP5 DUP3 DUP6 ADD PUSH2 0x1E65 JUMP JUMPDEST SWAP2 POP POP SWAP3 SWAP2 POP POP JUMP JUMPDEST PUSH32 0x46756E64696E6720616D6F756E7420697320696E73756666696369656E742074 PUSH1 0x0 DUP3 ADD MSTORE PUSH32 0x6F20636F766572207072656D69756D7300000000000000000000000000000000 PUSH1 0x20 DUP3 ADD MSTORE POP JUMP JUMPDEST PUSH1 0x0 PUSH2 0x276C PUSH1 0x30 DUP4 PUSH2 0x2496 JUMP JUMPDEST SWAP2 POP PUSH2 0x2777 DUP3 PUSH2 0x2710 JUMP JUMPDEST PUSH1 0x40 DUP3 ADD SWAP1 POP SWAP2 SWAP1 POP JUMP JUMPDEST PUSH1 0x0 PUSH1 0x20 DUP3 ADD SWAP1 POP DUP2 DUP2 SUB PUSH1 0x0 DUP4 ADD MSTORE PUSH2 0x279B DUP2 PUSH2 0x275F JUMP JUMPDEST SWAP1 POP SWAP2 SWAP1 POP JUMP JUMPDEST PUSH1 0x0 PUSH1 0x60 DUP3 ADD SWAP1 POP PUSH2 0x27B7 PUSH1 0x0 DUP4 ADD DUP7 PUSH2 0x2120 JUMP JUMPDEST PUSH2 0x27C4 PUSH1 0x20 DUP4 ADD DUP6 PUSH2 0x2120 JUMP JUMPDEST PUSH2 0x27D1 PUSH1 0x40 DUP4 ADD DUP5 PUSH2 0x263B JUMP JUMPDEST SWAP5 SWAP4 POP POP POP POP JUMP JUMPDEST PUSH2 0x27E2 DUP2 PUSH2 0x264A JUMP JUMPDEST DUP2 EQ PUSH2 0x27ED JUMPI PUSH1 0x0 DUP1 REVERT JUMPDEST POP JUMP JUMPDEST PUSH1 0x0 DUP2 MLOAD SWAP1 POP PUSH2 0x27FF DUP2 PUSH2 0x27D9 JUMP JUMPDEST SWAP3 SWAP2 POP POP JUMP JUMPDEST PUSH1 0x0 PUSH1 0x20 DUP3 DUP5 SUB SLT ISZERO PUSH2 0x281B JUMPI PUSH2 0x281A PUSH2 0x1E12 JUMP JUMPDEST JUMPDEST PUSH1 0x0 PUSH2 0x2829 DUP5 DUP3 DUP6 ADD PUSH2 0x27F0 JUMP JUMPDEST SWAP2 POP POP SWAP3 SWAP2 POP POP JUMP JUMPDEST PUSH32 0x4E487B7100000000000000000000000000000000000000000000000000000000 PUSH1 0x0 MSTORE PUSH1 0x11 PUSH1 0x4 MSTORE PUSH1 0x24 PUSH1 0x0 REVERT JUMPDEST PUSH1 0x0 PUSH2 0x286C DUP3 PUSH2 0x1E7A JUMP JUMPDEST SWAP2 POP PUSH2 0x2877 DUP4 PUSH2 0x1E7A JUMP JUMPDEST SWAP3 POP DUP3 DUP3 ADD SWAP1 POP DUP1 DUP3 GT ISZERO PUSH2 0x288F JUMPI PUSH2 0x288E PUSH2 0x2832 JUMP JUMPDEST JUMPDEST SWAP3 SWAP2 POP POP JUMP JUMPDEST PUSH1 0x0 PUSH1 0x80 DUP3 ADD SWAP1 POP PUSH2 0x28AA PUSH1 0x0 DUP4 ADD DUP8 PUSH2 0x2120 JUMP JUMPDEST PUSH2 0x28B7 PUSH1 0x20 DUP4 ADD DUP7 PUSH2 0x263B JUMP JUMPDEST PUSH2 0x28C4 PUSH1 0x40 DUP4 ADD DUP6 PUSH2 0x263B JUMP JUMPDEST PUSH2 0x28D1 PUSH1 0x60 DUP4 ADD DUP5 PUSH2 0x263B JUMP JUMPDEST SWAP6 SWAP5 POP POP POP POP POP JUMP JUMPDEST PUSH1 0x0 DUP2 SWAP1 POP SWAP3 SWAP2 POP POP JUMP JUMPDEST PUSH1 0x0 PUSH2 0x28F1 DUP4 DUP6 PUSH2 0x28DA JUMP JUMPDEST SWAP4 POP PUSH2 0x28FE DUP4 DUP6 DUP5 PUSH2 0x2058 JUMP JUMPDEST DUP3 DUP5 ADD SWAP1 POP SWAP4 SWAP3 POP POP POP JUMP JUMPDEST PUSH1 0x0 PUSH2 0x2917 DUP3 DUP5 DUP7 PUSH2 0x28E5 JUMP JUMPDEST SWAP2 POP DUP2 SWAP1 POP SWAP4 SWAP3 POP POP POP JUMP JUMPDEST PUSH2 0x292C DUP2 PUSH2 0x214A JUMP JUMPDEST DUP3 MSTORE POP POP JUMP JUMPDEST PUSH1 0x0 PUSH2 0x293E DUP4 DUP6 PUSH2 0x2496 JUMP JUMPDEST SWAP4 POP PUSH2 0x294B DUP4 DUP6 DUP5 PUSH2 0x2058 JUMP JUMPDEST PUSH2 0x2954 DUP4 PUSH2 0x1F9B JUMP JUMPDEST DUP5 ADD SWAP1 POP SWAP4 SWAP3 POP POP POP JUMP JUMPDEST PUSH1 0x0 PUSH1 0xC0 DUP3 ADD SWAP1 POP PUSH2 0x2974 PUSH1 0x0 DUP4 ADD DUP13 PUSH2 0x2923 JUMP JUMPDEST DUP2 DUP2 SUB PUSH1 0x20 DUP4 ADD MSTORE PUSH2 0x2987 DUP2 DUP11 DUP13 PUSH2 0x2932 JUMP JUMPDEST SWAP1 POP DUP2 DUP2 SUB PUSH1 0x40 DUP4 ADD MSTORE PUSH2 0x299C DUP2 DUP9 DUP11 PUSH2 0x2932 JUMP JUMPDEST SWAP1 POP PUSH2 0x29AB PUSH1 0x60 DUP4 ADD DUP8 PUSH2 0x2923 JUMP JUMPDEST DUP2 DUP2 SUB PUSH1 0x80 DUP4 ADD MSTORE PUSH2 0x29BE DUP2 DUP6 DUP8 PUSH2 0x2932 JUMP JUMPDEST SWAP1 POP PUSH2 0x29CD PUSH1 0xA0 DUP4 ADD DUP5 PUSH2 0x263B JUMP JUMPDEST SWAP11 SWAP10 POP POP POP POP POP POP POP POP POP POP JUMP JUMPDEST PUSH1 0x0 PUSH1 0x80 DUP3 ADD SWAP1 POP PUSH2 0x29F0 PUSH1 0x0 DUP4 ADD DUP10 PUSH2 0x2923 JUMP JUMPDEST DUP2 DUP2 SUB PUSH1 0x20 DUP4 ADD MSTORE PUSH2 0x2A03 DUP2 DUP8 DUP10 PUSH2 0x2932 JUMP JUMPDEST SWAP1 POP DUP2 DUP2 SUB PUSH1 0x40 DUP4 ADD MSTORE PUSH2 0x2A18 DUP2 DUP6 DUP8 PUSH2 0x2932 JUMP JUMPDEST SWAP1 POP PUSH2 0x2A27 PUSH1 0x60 DUP4 ADD DUP5 PUSH2 0x2923 JUMP JUMPDEST SWAP8 SWAP7 POP POP POP POP POP POP POP JUMP JUMPDEST PUSH32 0x4E487B7100000000000000000000000000000000000000000000000000000000 PUSH1 0x0 MSTORE PUSH1 0x22 PUSH1 0x4 MSTORE PUSH1 0x24 PUSH1 0x0 REVERT JUMPDEST PUSH1 0x0 PUSH1 0x2 DUP3 DIV SWAP1 POP PUSH1 0x1 DUP3 AND DUP1 PUSH2 0x2A79 JUMPI PUSH1 0x7F DUP3 AND SWAP2 POP JUMPDEST PUSH1 0x20 DUP3 LT DUP2 SUB PUSH2 0x2A8C JUMPI PUSH2 0x2A8B PUSH2 0x2A32 JUMP JUMPDEST JUMPDEST POP SWAP2 SWAP1 POP JUMP JUMPDEST PUSH1 0x0 DUP2 SWAP1 POP SWAP3 SWAP2 POP POP JUMP JUMPDEST PUSH1 0x0 PUSH2 0x2AA9 DUP4 DUP6 PUSH2 0x2A92 JUMP JUMPDEST SWAP4 POP PUSH2 0x2AB6 DUP4 DUP6 DUP5 PUSH2 0x2058 JUMP JUMPDEST DUP3 DUP5 ADD SWAP1 POP SWAP4 SWAP3 POP POP POP JUMP JUMPDEST PUSH1 0x0 PUSH2 0x2ACF DUP3 DUP5 DUP7 PUSH2 0x2A9D JUMP JUMPDEST SWAP2 POP DUP2 SWAP1 POP SWAP4 SWAP3 POP POP POP JUMP JUMPDEST PUSH32 0x4E487B7100000000000000000000000000000000000000000000000000000000 PUSH1 0x0 MSTORE PUSH1 0x32 PUSH1 0x4 MSTORE PUSH1 0x24 PUSH1 0x0 REVERT JUMPDEST PUSH32 0x496E73756666696369656E742066756E64696E6720746F20696E737572652061 PUSH1 0x0 DUP3 ADD MSTORE PUSH32 0x64646974696F6E616C2075736572730000000000000000000000000000000000 PUSH1 0x20 DUP3 ADD MSTORE POP JUMP JUMPDEST PUSH1 0x0 PUSH2 0x2B66 PUSH1 0x2F DUP4 PUSH2 0x2496 JUMP JUMPDEST SWAP2 POP PUSH2 0x2B71 DUP3 PUSH2 0x2B0A JUMP JUMPDEST PUSH1 0x40 DUP3 ADD SWAP1 POP SWAP2 SWAP1 POP JUMP JUMPDEST PUSH1 0x0 PUSH1 0x20 DUP3 ADD SWAP1 POP DUP2 DUP2 SUB PUSH1 0x0 DUP4 ADD MSTORE PUSH2 0x2B95 DUP2 PUSH2 0x2B59 JUMP JUMPDEST SWAP1 POP SWAP2 SWAP1 POP JUMP JUMPDEST PUSH1 0x0 DUP2 SWAP1 POP DUP2 PUSH1 0x0 MSTORE PUSH1 0x20 PUSH1 0x0 KECCAK256 SWAP1 POP SWAP2 SWAP1 POP JUMP JUMPDEST PUSH1 0x0 PUSH1 0x20 PUSH1 0x1F DUP4 ADD DIV SWAP1 POP SWAP2 SWAP1 POP JUMP JUMPDEST PUSH1 0x0 DUP3 DUP3 SHL SWAP1 POP SWAP3 SWAP2 POP POP JUMP JUMPDEST PUSH1 0x0 PUSH1 0x8 DUP4 MUL PUSH2 0x2BFE PUSH32 0xFFFFFFFFFFFFFFFFFFFFFFFFFFFFFFFFFFFFFFFFFFFFFFFFFFFFFFFFFFFFFFFF DUP3 PUSH2 0x2BC1 JUMP JUMPDEST PUSH2 0x2C08 DUP7 DUP4 PUSH2 0x2BC1 JUMP JUMPDEST SWAP6 POP DUP1 NOT DUP5 AND SWAP4 POP DUP1 DUP7 AND DUP5 OR SWAP3 POP POP POP SWAP4 SWAP3 POP POP POP JUMP JUMPDEST PUSH1 0x0 PUSH2 0x2C3B PUSH2 0x2C36 PUSH2 0x2C31 DUP5 PUSH2 0x1E7A JUMP JUMPDEST PUSH2 0x1F17 JUMP JUMPDEST PUSH2 0x1E7A JUMP JUMPDEST SWAP1 POP SWAP2 SWAP1 POP JUMP JUMPDEST PUSH1 0x0 DUP2 SWAP1 POP SWAP2 SWAP1 POP JUMP JUMPDEST PUSH2 0x2C55 DUP4 PUSH2 0x2C20 JUMP JUMPDEST PUSH2 0x2C69 PUSH2 0x2C61 DUP3 PUSH2 0x2C42 JUMP JUMPDEST DUP5 DUP5 SLOAD PUSH2 0x2BCE JUMP JUMPDEST DUP3 SSTORE POP POP POP POP JUMP JUMPDEST PUSH1 0x0 SWAP1 JUMP JUMPDEST PUSH2 0x2C7E PUSH2 0x2C71 JUMP JUMPDEST PUSH2 0x2C89 DUP2 DUP5 DUP5 PUSH2 0x2C4C JUMP JUMPDEST POP POP POP JUMP JUMPDEST JUMPDEST DUP2 DUP2 LT ISZERO PUSH2 0x2CAD JUMPI PUSH2 0x2CA2 PUSH1 0x0 DUP3 PUSH2 0x2C76 JUMP JUMPDEST PUSH1 0x1 DUP2 ADD SWAP1 POP PUSH2 0x2C8F JUMP JUMPDEST POP POP JUMP JUMPDEST PUSH1 0x1F DUP3 GT ISZERO PUSH2 0x2CF2 JUMPI PUSH2 0x2CC3 DUP2 PUSH2 0x2B9C JUMP JUMPDEST PUSH2 0x2CCC DUP5 PUSH2 0x2BB1 JUMP JUMPDEST DUP2 ADD PUSH1 0x20 DUP6 LT ISZERO PUSH2 0x2CDB JUMPI DUP2 SWAP1 POP JUMPDEST PUSH2 0x2CEF PUSH2 0x2CE7 DUP6 PUSH2 0x2BB1 JUMP JUMPDEST DUP4 ADD DUP3 PUSH2 0x2C8E JUMP JUMPDEST POP POP JUMPDEST POP POP POP JUMP JUMPDEST PUSH1 0x0 DUP3 DUP3 SHR SWAP1 POP SWAP3 SWAP2 POP POP JUMP JUMPDEST PUSH1 0x0 PUSH2 0x2D15 PUSH1 0x0 NOT DUP5 PUSH1 0x8 MUL PUSH2 0x2CF7 JUMP JUMPDEST NOT DUP1 DUP4 AND SWAP2 POP POP SWAP3 SWAP2 POP POP JUMP JUMPDEST PUSH1 0x0 PUSH2 0x2D2E DUP4 DUP4 PUSH2 0x2D04 JUMP JUMPDEST SWAP2 POP DUP3 PUSH1 0x2 MUL DUP3 OR SWAP1 POP SWAP3 SWAP2 POP POP JUMP JUMPDEST PUSH2 0x2D47 DUP3 PUSH2 0x248B JUMP JUMPDEST PUSH8 0xFFFFFFFFFFFFFFFF DUP2 GT ISZERO PUSH2 0x2D60 JUMPI PUSH2 0x2D5F PUSH2 0x1FAC JUMP JUMPDEST JUMPDEST PUSH2 0x2D6A DUP3 SLOAD PUSH2 0x2A61 JUMP JUMPDEST PUSH2 0x2D75 DUP3 DUP3 DUP6 PUSH2 0x2CB1 JUMP JUMPDEST PUSH1 0x0 PUSH1 0x20 SWAP1 POP PUSH1 0x1F DUP4 GT PUSH1 0x1 DUP2 EQ PUSH2 0x2DA8 JUMPI PUSH1 0x0 DUP5 ISZERO PUSH2 0x2D96 JUMPI DUP3 DUP8 ADD MLOAD SWAP1 POP JUMPDEST PUSH2 0x2DA0 DUP6 DUP3 PUSH2 0x2D22 JUMP JUMPDEST DUP7 SSTORE POP PUSH2 0x2E08 JUMP JUMPDEST PUSH1 0x1F NOT DUP5 AND PUSH2 0x2DB6 DUP7 PUSH2 0x2B9C JUMP JUMPDEST PUSH1 0x0 JUMPDEST DUP3 DUP2 LT ISZERO PUSH2 0x2DDE JUMPI DUP5 DUP10 ADD MLOAD DUP3 SSTORE PUSH1 0x1 DUP3 ADD SWAP2 POP PUSH1 0x20 DUP6 ADD SWAP5 POP PUSH1 0x20 DUP2 ADD SWAP1 POP PUSH2 0x2DB9 JUMP JUMPDEST DUP7 DUP4 LT ISZERO PUSH2 0x2DFB JUMPI DUP5 DUP10 ADD MLOAD PUSH2 0x2DF7 PUSH1 0x1F DUP10 AND DUP3 PUSH2 0x2D04 JUMP JUMPDEST DUP4 SSTORE POP JUMPDEST PUSH1 0x1 PUSH1 0x2 DUP9 MUL ADD DUP9 SSTORE POP POP POP JUMPDEST POP POP POP POP POP POP JUMP JUMPDEST PUSH32 0x506F6C696379206973206E6F7420616374697665000000000000000000000000 PUSH1 0x0 DUP3 ADD MSTORE POP JUMP JUMPDEST PUSH1 0x0 PUSH2 0x2E46 PUSH1 0x14 DUP4 PUSH2 0x2496 JUMP JUMPDEST SWAP2 POP PUSH2 0x2E51 DUP3 PUSH2 0x2E10 JUMP JUMPDEST PUSH1 0x20 DUP3 ADD SWAP1 POP SWAP2 SWAP1 POP JUMP JUMPDEST PUSH1 0x0 PUSH1 0x20 DUP3 ADD SWAP1 POP DUP2 DUP2 SUB PUSH1 0x0 DUP4 ADD MSTORE PUSH2 0x2E75 DUP2 PUSH2 0x2E39 JUMP JUMPDEST SWAP1 POP SWAP2 SWAP1 POP JUMP JUMPDEST PUSH1 0x0 PUSH8 0xFFFFFFFFFFFFFFFF DUP3 GT ISZERO PUSH2 0x2E97 JUMPI PUSH2 0x2E96 PUSH2 0x1FAC JUMP JUMPDEST JUMPDEST PUSH1 0x20 DUP3 MUL SWAP1 POP SWAP2 SWAP1 POP JUMP JUMPDEST PUSH1 0x0 PUSH2 0x2EB5 PUSH2 0x2EB0 DUP5 PUSH2 0x2E7C JUMP JUMPDEST PUSH2 0x200C JUMP JUMPDEST SWAP1 POP DUP1 PUSH1 0x20 DUP5 MUL DUP4 ADD DUP6 DUP2 GT ISZERO PUSH2 0x2ECF JUMPI PUSH2 0x2ECE PUSH2 0x2185 JUMP JUMPDEST JUMPDEST DUP4 JUMPDEST DUP2 DUP2 LT ISZERO PUSH2 0x2EF8 JUMPI DUP1 PUSH2 0x2EE4 DUP9 DUP3 PUSH2 0x27F0 JUMP JUMPDEST DUP5 MSTORE PUSH1 0x20 DUP5 ADD SWAP4 POP POP PUSH1 0x20 DUP2 ADD SWAP1 POP PUSH2 0x2ED1 JUMP JUMPDEST POP POP POP SWAP4 SWAP3 POP POP POP JUMP JUMPDEST PUSH1 0x0 DUP3 PUSH1 0x1F DUP4 ADD SLT PUSH2 0x2F17 JUMPI PUSH2 0x2F16 PUSH2 0x1F91 JUMP JUMPDEST JUMPDEST PUSH1 0x2 PUSH2 0x2F24 DUP5 DUP3 DUP6 PUSH2 0x2EA2 JUMP JUMPDEST SWAP2 POP POP SWAP3 SWAP2 POP POP JUMP JUMPDEST PUSH1 0x0 PUSH1 0x40 DUP3 DUP5 SUB SLT ISZERO PUSH2 0x2F43 JUMPI PUSH2 0x2F42 PUSH2 0x1E12 JUMP JUMPDEST JUMPDEST PUSH1 0x0 PUSH2 0x2F51 DUP5 DUP3 DUP6 ADD PUSH2 0x2F02 JUMP JUMPDEST SWAP2 POP POP SWAP3 SWAP2 POP POP JUMP JUMPDEST PUSH1 0x0 PUSH2 0x2F6D PUSH2 0x2F68 DUP5 PUSH2 0x2027 JUMP JUMPDEST PUSH2 0x200C JUMP JUMPDEST SWAP1 POP DUP3 DUP2 MSTORE PUSH1 0x20 DUP2 ADD DUP5 DUP5 DUP5 ADD GT ISZERO PUSH2 0x2F89 JUMPI PUSH2 0x2F88 PUSH2 0x1F96 JUMP JUMPDEST JUMPDEST PUSH2 0x2F94 DUP5 DUP3 DUP6 PUSH2 0x24A7 JUMP JUMPDEST POP SWAP4 SWAP3 POP POP POP JUMP JUMPDEST PUSH1 0x0 DUP3 PUSH1 0x1F DUP4 ADD SLT PUSH2 0x2FB1 JUMPI PUSH2 0x2FB0 PUSH2 0x1F91 JUMP JUMPDEST JUMPDEST DUP2 MLOAD PUSH2 0x2FC1 DUP5 DUP3 PUSH1 0x20 DUP7 ADD PUSH2 0x2F5A JUMP JUMPDEST SWAP2 POP POP SWAP3 SWAP2 POP POP JUMP JUMPDEST PUSH1 0x0 PUSH1 0x20 DUP3 DUP5 SUB SLT ISZERO PUSH2 0x2FE0 JUMPI PUSH2 0x2FDF PUSH2 0x1E12 JUMP JUMPDEST JUMPDEST PUSH1 0x0 DUP3 ADD MLOAD PUSH8 0xFFFFFFFFFFFFFFFF DUP2 GT ISZERO PUSH2 0x2FFE JUMPI PUSH2 0x2FFD PUSH2 0x1E17 JUMP JUMPDEST JUMPDEST PUSH2 0x300A DUP5 DUP3 DUP6 ADD PUSH2 0x2F9C JUMP JUMPDEST SWAP2 POP POP SWAP3 SWAP2 POP POP JUMP JUMPDEST PUSH1 0x0 PUSH1 0x80 DUP3 ADD SWAP1 POP DUP2 DUP2 SUB PUSH1 0x0 DUP4 ADD MSTORE PUSH2 0x302D DUP2 DUP8 PUSH2 0x24D1 JUMP JUMPDEST SWAP1 POP DUP2 DUP2 SUB PUSH1 0x20 DUP4 ADD MSTORE PUSH2 0x3041 DUP2 DUP7 PUSH2 0x24D1 JUMP JUMPDEST SWAP1 POP DUP2 DUP2 SUB PUSH1 0x40 DUP4 ADD MSTORE PUSH2 0x3055 DUP2 DUP6 PUSH2 0x24D1 JUMP JUMPDEST SWAP1 POP PUSH2 0x3064 PUSH1 0x60 DUP4 ADD DUP5 PUSH2 0x263B JUMP JUMPDEST SWAP6 SWAP5 POP POP POP POP POP JUMP JUMPDEST PUSH1 0x0 PUSH2 0x3078 DUP3 PUSH2 0x1E7A JUMP JUMPDEST SWAP2 POP PUSH32 0xFFFFFFFFFFFFFFFFFFFFFFFFFFFFFFFFFFFFFFFFFFFFFFFFFFFFFFFFFFFFFFFF DUP3 SUB PUSH2 0x30AA JUMPI PUSH2 0x30A9 PUSH2 0x2832 JUMP JUMPDEST JUMPDEST PUSH1 0x1 DUP3 ADD SWAP1 POP SWAP2 SWAP1 POP JUMP JUMPDEST PUSH1 0x0 PUSH2 0x30C0 DUP3 PUSH2 0x1E7A JUMP JUMPDEST SWAP2 POP PUSH2 0x30CB DUP4 PUSH2 0x1E7A JUMP JUMPDEST SWAP3 POP DUP3 DUP3 MUL PUSH2 0x30D9 DUP2 PUSH2 0x1E7A JUMP JUMPDEST SWAP2 POP DUP3 DUP3 DIV DUP5 EQ DUP4 ISZERO OR PUSH2 0x30F0 JUMPI PUSH2 0x30EF PUSH2 0x2832 JUMP JUMPDEST JUMPDEST POP SWAP3 SWAP2 POP POP JUMP JUMPDEST PUSH1 0x0 PUSH2 0x3102 DUP3 PUSH2 0x1E7A JUMP JUMPDEST SWAP2 POP PUSH2 0x310D DUP4 PUSH2 0x1E7A JUMP JUMPDEST SWAP3 POP DUP3 DUP3 SUB SWAP1 POP DUP2 DUP2 GT ISZERO PUSH2 0x3125 JUMPI PUSH2 0x3124 PUSH2 0x2832 JUMP JUMPDEST JUMPDEST SWAP3 SWAP2 POP POP JUMP JUMPDEST PUSH32 0x6178656C61720000000000000000000000000000000000000000000000000000 PUSH1 0x0 DUP3 ADD MSTORE POP JUMP JUMPDEST PUSH1 0x0 PUSH2 0x3161 PUSH1 0x6 DUP4 PUSH2 0x2496 JUMP JUMPDEST SWAP2 POP PUSH2 0x316C DUP3 PUSH2 0x312B JUMP JUMPDEST PUSH1 0x20 DUP3 ADD SWAP1 POP SWAP2 SWAP1 POP JUMP JUMPDEST PUSH1 0x0 PUSH1 0x80 DUP3 ADD SWAP1 POP DUP2 DUP2 SUB PUSH1 0x0 DUP4 ADD MSTORE PUSH2 0x3190 DUP2 PUSH2 0x3154 JUMP JUMPDEST SWAP1 POP DUP2 DUP2 SUB PUSH1 0x20 DUP4 ADD MSTORE PUSH2 0x31A4 DUP2 DUP7 PUSH2 0x24D1 JUMP JUMPDEST SWAP1 POP DUP2 DUP2 SUB PUSH1 0x40 DUP4 ADD MSTORE PUSH2 0x31B8 DUP2 DUP6 PUSH2 0x24D1 JUMP JUMPDEST SWAP1 POP PUSH2 0x31C7 PUSH1 0x60 DUP4 ADD DUP5 PUSH2 0x263B JUMP JUMPDEST SWAP5 SWAP4 POP POP POP POP JUMP JUMPDEST PUSH32 0x4F776E61626C653A206E6577206F776E657220697320746865207A65726F2061 PUSH1 0x0 DUP3 ADD MSTORE PUSH32 0x6464726573730000000000000000000000000000000000000000000000000000 PUSH1 0x20 DUP3 ADD MSTORE POP JUMP JUMPDEST PUSH1 0x0 PUSH2 0x322B PUSH1 0x26 DUP4 PUSH2 0x2496 JUMP JUMPDEST SWAP2 POP PUSH2 0x3236 DUP3 PUSH2 0x31CF JUMP JUMPDEST PUSH1 0x40 DUP3 ADD SWAP1 POP SWAP2 SWAP1 POP JUMP JUMPDEST PUSH1 0x0 PUSH1 0x20 DUP3 ADD SWAP1 POP DUP2 DUP2 SUB PUSH1 0x0 DUP4 ADD MSTORE PUSH2 0x325A DUP2 PUSH2 0x321E JUMP JUMPDEST SWAP1 POP SWAP2 SWAP1 POP JUMP JUMPDEST PUSH1 0x0 PUSH2 0x326C DUP3 PUSH2 0x1E1C JUMP JUMPDEST SWAP1 POP SWAP2 SWAP1 POP JUMP JUMPDEST PUSH2 0x327C DUP2 PUSH2 0x3261 JUMP JUMPDEST DUP2 EQ PUSH2 0x3287 JUMPI PUSH1 0x0 DUP1 REVERT JUMPDEST POP JUMP JUMPDEST PUSH1 0x0 DUP2 CALLDATALOAD SWAP1 POP PUSH2 0x3299 DUP2 PUSH2 0x3273 JUMP JUMPDEST SWAP3 SWAP2 POP POP JUMP JUMPDEST PUSH1 0x0 DUP1 PUSH1 0x40 DUP4 DUP6 SUB SLT ISZERO PUSH2 0x32B6 JUMPI PUSH2 0x32B5 PUSH2 0x1E12 JUMP JUMPDEST JUMPDEST PUSH1 0x0 PUSH2 0x32C4 DUP6 DUP3 DUP7 ADD PUSH2 0x1E9B JUMP JUMPDEST SWAP3 POP POP PUSH1 0x20 PUSH2 0x32D5 DUP6 DUP3 DUP7 ADD PUSH2 0x328A JUMP JUMPDEST SWAP2 POP POP SWAP3 POP SWAP3 SWAP1 POP JUMP JUMPDEST PUSH32 0x536F75726365206164647265737320616E6420636861696E20646F206E6F7420 PUSH1 0x0 DUP3 ADD MSTORE PUSH32 0x62656C6F6E6720696E207468652073616D65206D617070696E67000000000000 PUSH1 0x20 DUP3 ADD MSTORE POP JUMP JUMPDEST PUSH1 0x0 PUSH2 0x333B PUSH1 0x3A DUP4 PUSH2 0x2496 JUMP JUMPDEST SWAP2 POP PUSH2 0x3346 DUP3 PUSH2 0x32DF JUMP JUMPDEST PUSH1 0x40 DUP3 ADD SWAP1 POP SWAP2 SWAP1 POP JUMP JUMPDEST PUSH1 0x0 PUSH1 0x20 DUP3 ADD SWAP1 POP DUP2 DUP2 SUB PUSH1 0x0 DUP4 ADD MSTORE PUSH2 0x336A DUP2 PUSH2 0x332E JUMP JUMPDEST SWAP1 POP SWAP2 SWAP1 POP JUMP JUMPDEST PUSH32 0x4F776E61626C653A2063616C6C6572206973206E6F7420746865206F776E6572 PUSH1 0x0 DUP3 ADD MSTORE POP JUMP JUMPDEST PUSH1 0x0 PUSH2 0x33A7 PUSH1 0x20 DUP4 PUSH2 0x2496 JUMP JUMPDEST SWAP2 POP PUSH2 0x33B2 DUP3 PUSH2 0x3371 JUMP JUMPDEST PUSH1 0x20 DUP3 ADD SWAP1 POP SWAP2 SWAP1 POP JUMP JUMPDEST PUSH1 0x0 PUSH1 0x20 DUP3 ADD SWAP1 POP DUP2 DUP2 SUB PUSH1 0x0 DUP4 ADD MSTORE PUSH2 0x33D6 DUP2 PUSH2 0x339A JUMP JUMPDEST SWAP1 POP SWAP2 SWAP1 POP JUMP JUMPDEST PUSH1 0x0 DUP2 PUSH1 0x60 SHL SWAP1 POP SWAP2 SWAP1 POP JUMP JUMPDEST PUSH1 0x0 PUSH2 0x33F5 DUP3 PUSH2 0x33DD JUMP JUMPDEST SWAP1 POP SWAP2 SWAP1 POP JUMP JUMPDEST PUSH1 0x0 PUSH2 0x3407 DUP3 PUSH2 0x33EA JUMP JUMPDEST SWAP1 POP SWAP2 SWAP1 POP JUMP JUMPDEST PUSH2 0x341F PUSH2 0x341A DUP3 PUSH2 0x1E3C JUMP JUMPDEST PUSH2 0x33FC JUMP JUMPDEST DUP3 MSTORE POP POP JUMP JUMPDEST PUSH1 0x0 PUSH2 0x3431 DUP3 DUP5 PUSH2 0x340E JUMP JUMPDEST PUSH1 0x14 DUP3 ADD SWAP2 POP DUP2 SWAP1 POP SWAP3 SWAP2 POP POP JUMP JUMPDEST PUSH1 0x0 PUSH1 0xFF DUP3 AND SWAP1 POP SWAP2 SWAP1 POP JUMP JUMPDEST PUSH1 0x0 PUSH2 0x3458 DUP3 PUSH2 0x3440 JUMP JUMPDEST SWAP2 POP PUSH2 0x3463 DUP4 PUSH2 0x3440 JUMP JUMPDEST SWAP3 POP DUP3 DUP3 SUB SWAP1 POP PUSH1 0xFF DUP2 GT ISZERO PUSH2 0x347C JUMPI PUSH2 0x347B PUSH2 0x2832 JUMP JUMPDEST JUMPDEST SWAP3 SWAP2 POP POP JUMP INVALID LOG2 PUSH5 0x6970667358 0x22 SLT KECCAK256 0xCB SGT 0xAD DUP1 0xE8 REVERT GASPRICE PUSH28 0xB65A71AED319BA65E42B696E3F7965B44874EB7AA5D144EF64736F6C PUSH4 0x43000812 STOP CALLER "},"methodIdentifiers":{"InsurancePolicies(uint256)":"f2559ed2","addCollector(string,address)":"948ffe67","addPolicyUser(uint256,string,address)":"a614ba09","axInsureCollectors(string)":"18af2fa8","checkOracleAndPayout(uint256)":"c2572838","createInsurancePolicy(address,uint256,uint256,uint256)":"004db56e","execute(bytes32,string,string,bytes)":"49160658","executeWithToken(bytes32,string,string,bytes,string,uint256)":"1a98b2e0","gasService()":"6a22d8cc","gateway()":"116191b6","owner()":"8da5cb5b","paymentToken()":"3013ce29","policyUsers(uint256,uint256)":"8593cbe1","renounceOwnership()":"715018a6","transferOwnership(address)":"f2fde38b"}}}}}