{"src/AxinsureCore.sol":{"AxinsureCore":{"abi":[{"inputs":[{"internalType":"string","name":"_paymentToken","type":"string"},{"internalType":"address","name":"_axelarGatewayAddress","type":"address"},{"internalType":"address","name":"_gasReceiver","type":"address"}],"stateMutability":"nonpayable","type":"constructor"},{"inputs":[],"name":"InvalidAddress","type":"error"},{"inputs":[],"name":"InvalidAddressString","type":"error"},{"inputs":[],"name":"NotApprovedByGateway","type":"error"},{"anonymous":false,"inputs":[{"indexed":true,"internalType":"address","name":"previousOwner","type":"address"},{"indexed":true,"internalType":"address","name":"newOwner","type":"address"}],"name":"OwnershipTransferred","type":"event"},{"anonymous":false,"inputs":[{"indexed":true,"internalType":"uint256","name":"policyNumber","type":"uint256"},{"indexed":true,"internalType":"address","name":"insurerAddress","type":"address"},{"indexed":false,"internalType":"address","name":"oracleAddress","type":"address"},{"indexed":false,"internalType":"uint256","name":"fundingAmount","type":"uint256"},{"indexed":false,"internalType":"uint256","name":"payoutAmount","type":"uint256"},{"indexed":false,"internalType":"uint256","name":"premiumsCost","type":"uint256"}],"name":"newPolicyAdded","type":"event"},{"anonymous":false,"inputs":[{"indexed":true,"internalType":"uint256","name":"policyNumber","type":"uint256"},{"indexed":true,"internalType":"string","name":"userChain","type":"string"},{"indexed":false,"internalType":"address","name":"userAddress","type":"address"}],"name":"newUserAdded","type":"event"},{"inputs":[{"internalType":"uint256","name":"","type":"uint256"}],"name":"InsurancePolicies","outputs":[{"internalType":"address","name":"insurerAddress","type":"address"},{"internalType":"address","name":"oracleAddress","type":"address"},{"internalType":"uint256","name":"fundingAmount","type":"uint256"},{"internalType":"uint256","name":"payoutAmount","type":"uint256"},{"internalType":"uint256","name":"premiumsCost","type":"uint256"},{"internalType":"uint256","name":"policyNumber","type":"uint256"},{"internalType":"uint256","name":"premiumsTotal","type":"uint256"},{"internalType":"bool","name":"isPolicyActive","type":"bool"}],"stateMutability":"view","type":"function"},{"inputs":[{"internalType":"string","name":"chain","type":"string"},{"internalType":"address","name":"collectorAddress","type":"address"}],"name":"addCollector","outputs":[],"stateMutability":"nonpayable","type":"function"},{"inputs":[{"internalType":"uint256","name":"policyNumber","type":"uint256"},{"internalType":"string","name":"userChain","type":"string"},{"internalType":"address","name":"userAddress","type":"address"}],"name":"addPolicyUser","outputs":[],"stateMutability":"nonpayable","type":"function"},{"inputs":[{"internalType":"string","name":"","type":"string"}],"name":"axInsureCollectors","outputs":[{"internalType":"address","name":"","type":"address"}],"stateMutability":"view","type":"function"},{"inputs":[{"internalType":"uint256","name":"policyNumber","type":"uint256"}],"name":"checkOracleAndPayout","outputs":[],"stateMutability":"nonpayable","type":"function"},{"inputs":[{"internalType":"address","name":"oracleAddress","type":"address"},{"internalType":"uint256","name":"fundingAmount","type":"uint256"},{"internalType":"uint256","name":"payoutAmount","type":"uint256"},{"internalType":"uint256","name":"premiumsCost","type":"uint256"}],"name":"createInsurancePolicy","outputs":[],"stateMutability":"nonpayable","type":"function"},{"inputs":[{"internalType":"bytes32","name":"commandId","type":"bytes32"},{"internalType":"string","name":"sourceChain","type":"string"},{"internalType":"string","name":"sourceAddress","type":"string"},{"internalType":"bytes","name":"payload","type":"bytes"}],"name":"execute","outputs":[],"stateMutability":"nonpayable","type":"function"},{"inputs":[{"internalType":"bytes32","name":"commandId","type":"bytes32"},{"internalType":"string","name":"sourceChain","type":"string"},{"internalType":"string","name":"sourceAddress","type":"string"},{"internalType":"bytes","name":"payload","type":"bytes"},{"internalType":"string","name":"tokenSymbol","type":"string"},{"internalType":"uint256","name":"amount","type":"uint256"}],"name":"executeWithToken","outputs":[],"stateMutability":"nonpayable","type":"function"},{"inputs":[],"name":"gasService","outputs":[{"internalType":"contract IAxelarGasService","name":"","type":"address"}],"stateMutability":"view","type":"function"},{"inputs":[],"name":"gateway","outputs":[{"internalType":"contract IAxelarGateway","name":"","type":"address"}],"stateMutability":"view","type":"function"},{"inputs":[],"name":"getPaymentToken","outputs":[{"internalType":"address","name":"","type":"address"}],"stateMutability":"view","type":"function"},{"inputs":[],"name":"owner","outputs":[{"internalType":"address","name":"","type":"address"}],"stateMutability":"view","type":"function"},{"inputs":[],"name":"paymentToken","outputs":[{"internalType":"string","name":"","type":"string"}],"stateMutability":"view","type":"function"},{"inputs":[],"name":"paymentTokenAddress","outputs":[{"internalType":"address","name":"","type":"address"}],"stateMutability":"view","type":"function"},{"inputs":[{"internalType":"uint256","name":"","type":"uint256"},{"internalType":"uint256","name":"","type":"uint256"}],"name":"policyUsers","outputs":[{"internalType":"string","name":"userChain","type":"string"},{"internalType":"address","name":"userAddress","type":"address"}],"stateMutability":"view","type":"function"},{"inputs":[],"name":"renounceOwnership","outputs":[],"stateMutability":"nonpayable","type":"function"},{"inputs":[{"internalType":"address","name":"newOwner","type":"address"}],"name":"transferOwnership","outputs":[],"stateMutability":"nonpayable","type":"function"}],"evm":{"bytecode":{"linkReferences":{},"object":"60c06040523480156200001157600080fd5b5060405162003c1d38038062003c1d8339818101604052810190620000379190620004c8565b81620000586200004c6200020460201b60201c565b6200020c60201b60201c565b600073ffffffffffffffffffffffffffffffffffffffff168173ffffffffffffffffffffffffffffffffffffffff1603620000bf576040517fe6c4247b00000000000000000000000000000000000000000000000000000000815260040160405180910390fd5b8073ffffffffffffffffffffffffffffffffffffffff1660808173ffffffffffffffffffffffffffffffffffffffff16815250505082600190816200010591906200078e565b5060805173ffffffffffffffffffffffffffffffffffffffff1663935b13f6846040518263ffffffff1660e01b8152600401620001439190620008c7565b602060405180830381865afa15801562000161573d6000803e3d6000fd5b505050506040513d601f19601f82011682018060405250810190620001879190620008eb565b600260006101000a81548173ffffffffffffffffffffffffffffffffffffffff021916908373ffffffffffffffffffffffffffffffffffffffff1602179055508073ffffffffffffffffffffffffffffffffffffffff1660a08173ffffffffffffffffffffffffffffffffffffffff16815250505050506200091d565b600033905090565b60008060009054906101000a900473ffffffffffffffffffffffffffffffffffffffff169050816000806101000a81548173ffffffffffffffffffffffffffffffffffffffff021916908373ffffffffffffffffffffffffffffffffffffffff1602179055508173ffffffffffffffffffffffffffffffffffffffff168173ffffffffffffffffffffffffffffffffffffffff167f8be0079c531659141344cd1fd0a4f28419497f9722a3daafe3b4186f6b6457e060405160405180910390a35050565b6000604051905090565b600080fd5b600080fd5b600080fd5b600080fd5b6000601f19601f8301169050919050565b7f4e487b7100000000000000000000000000000000000000000000000000000000600052604160045260246000fd5b6200033982620002ee565b810181811067ffffffffffffffff821117156200035b576200035a620002ff565b5b80604052505050565b600062000370620002d0565b90506200037e82826200032e565b919050565b600067ffffffffffffffff821115620003a157620003a0620002ff565b5b620003ac82620002ee565b9050602081019050919050565b60005b83811015620003d9578082015181840152602081019050620003bc565b60008484015250505050565b6000620003fc620003f68462000383565b62000364565b9050828152602081018484840111156200041b576200041a620002e9565b5b62000428848285620003b9565b509392505050565b600082601f830112620004485762000447620002e4565b5b81516200045a848260208601620003e5565b91505092915050565b600073ffffffffffffffffffffffffffffffffffffffff82169050919050565b6000620004908262000463565b9050919050565b620004a28162000483565b8114620004ae57600080fd5b50565b600081519050620004c28162000497565b92915050565b600080600060608486031215620004e457620004e3620002da565b5b600084015167ffffffffffffffff811115620005055762000504620002df565b5b620005138682870162000430565b93505060206200052686828701620004b1565b92505060406200053986828701620004b1565b9150509250925092565b600081519050919050565b7f4e487b7100000000000000000000000000000000000000000000000000000000600052602260045260246000fd5b600060028204905060018216806200059657607f821691505b602082108103620005ac57620005ab6200054e565b5b50919050565b60008190508160005260206000209050919050565b60006020601f8301049050919050565b600082821b905092915050565b600060088302620006167fffffffffffffffffffffffffffffffffffffffffffffffffffffffffffffffff82620005d7565b620006228683620005d7565b95508019841693508086168417925050509392505050565b6000819050919050565b6000819050919050565b60006200066f6200066962000663846200063a565b62000644565b6200063a565b9050919050565b6000819050919050565b6200068b836200064e565b620006a36200069a8262000676565b848454620005e4565b825550505050565b600090565b620006ba620006ab565b620006c781848462000680565b505050565b5b81811015620006ef57620006e3600082620006b0565b600181019050620006cd565b5050565b601f8211156200073e576200070881620005b2565b6200071384620005c7565b8101602085101562000723578190505b6200073b6200073285620005c7565b830182620006cc565b50505b505050565b600082821c905092915050565b6000620007636000198460080262000743565b1980831691505092915050565b60006200077e838362000750565b9150826002028217905092915050565b620007998262000543565b67ffffffffffffffff811115620007b557620007b4620002ff565b5b620007c182546200057d565b620007ce828285620006f3565b600060209050601f831160018114620008065760008415620007f1578287015190505b620007fd858262000770565b8655506200086d565b601f1984166200081686620005b2565b60005b82811015620008405784890151825560018201915060208501945060208101905062000819565b868310156200086057848901516200085c601f89168262000750565b8355505b6001600288020188555050505b505050505050565b600082825260208201905092915050565b6000620008938262000543565b6200089f818562000875565b9350620008b1818560208601620003b9565b620008bc81620002ee565b840191505092915050565b60006020820190508181036000830152620008e3818462000886565b905092915050565b600060208284031215620009045762000903620002da565b5b60006200091484828501620004b1565b91505092915050565b60805160a0516132b762000966600039600061069c015260008181610375015281816103fe015281816105a801528181610ef90152818161106b01526111f301526132b76000f3fe608060405234801561001057600080fd5b506004361061010a5760003560e01c80638593cbe1116100a2578063afb18fe711610071578063afb18fe71461027e578063c25728381461029c578063d41c3a65146102b8578063f2559ed2146102d6578063f2fde38b1461030d5761010a565b80638593cbe1146101f75780638da5cb5b14610228578063948ffe6714610246578063a614ba09146102625761010a565b80633013ce29116100de5780633013ce291461019557806349160658146101b35780636a22d8cc146101cf578063715018a6146101ed5761010a565b80624db56e1461010f578063116191b61461012b57806318af2fa8146101495780631a98b2e014610179575b600080fd5b61012960048036038101906101249190611d2f565b610329565b005b610133610373565b6040516101409190611df5565b60405180910390f35b610163600480360381019061015e9190611f56565b610397565b6040516101709190611fae565b60405180910390f35b610193600480360381019061018e91906120b5565b6103e0565b005b61019d6104fc565b6040516101aa9190612244565b60405180910390f35b6101cd60048036038101906101c89190612266565b61058a565b005b6101d761069a565b6040516101e49190612350565b60405180910390f35b6101f56106be565b005b610211600480360381019061020c919061236b565b6106d2565b60405161021f9291906123ab565b60405180910390f35b6102306107bb565b60405161023d9190611fae565b60405180910390f35b610260600480360381019061025b91906123db565b6107e4565b005b61027c6004803603810190610277919061243b565b610850565b005b610286610b58565b6040516102939190611fae565b60405180910390f35b6102b660048036038101906102b191906124af565b610b7e565b005b6102c0611343565b6040516102cd9190611fae565b60405180910390f35b6102f060048036038101906102eb91906124af565b61136d565b604051610304989796959493929190612506565b60405180910390f35b61032760048036038101906103229190612584565b611412565b005b600a83111561036d576040517f08c379a0000000000000000000000000000000000000000000000000000000008152600401610364906125fd565b60405180910390fd5b50505050565b7f000000000000000000000000000000000000000000000000000000000000000081565b6005818051602081018201805184825260208301602085012081835280955050505050506000915054906101000a900473ffffffffffffffffffffffffffffffffffffffff1681565b600085856040516103f292919061264d565b604051809103902090507f000000000000000000000000000000000000000000000000000000000000000073ffffffffffffffffffffffffffffffffffffffff16631876eed98c8c8c8c8c878b8b8b6040518a63ffffffff1660e01b8152600401610465999897969594939291906126a2565b6020604051808303816000875af1158015610484573d6000803e3d6000fd5b505050506040513d601f19601f820116820180604052508101906104a8919061274a565b6104de576040517f500c44b400000000000000000000000000000000000000000000000000000000815260040160405180910390fd5b6104ef8a8a8a8a8a8a8a8a8a611495565b5050505050505050505050565b60018054610509906127a6565b80601f0160208091040260200160405190810160405280929190818152602001828054610535906127a6565b80156105825780601f1061055757610100808354040283529160200191610582565b820191906000526020600020905b81548152906001019060200180831161056557829003601f168201915b505050505081565b6000828260405161059c92919061264d565b604051809103902090507f000000000000000000000000000000000000000000000000000000000000000073ffffffffffffffffffffffffffffffffffffffff16635f6970c38989898989876040518763ffffffff1660e01b8152600401610609969594939291906127d7565b6020604051808303816000875af1158015610628573d6000803e3d6000fd5b505050506040513d601f19601f8201168201806040525081019061064c919061274a565b610682576040517f500c44b400000000000000000000000000000000000000000000000000000000815260040160405180910390fd5b6106908787878787876115c4565b5050505050505050565b7f000000000000000000000000000000000000000000000000000000000000000081565b6106c66115cc565b6106d0600061164a565b565b600460205281600052604060002081815481106106ee57600080fd5b906000526020600020906002020160009150915050806000018054610712906127a6565b80601f016020809104026020016040519081016040528092919081815260200182805461073e906127a6565b801561078b5780601f106107605761010080835404028352916020019161078b565b820191906000526020600020905b81548152906001019060200180831161076e57829003601f168201915b5050505050908060010160009054906101000a900473ffffffffffffffffffffffffffffffffffffffff16905082565b60008060009054906101000a900473ffffffffffffffffffffffffffffffffffffffff16905090565b6107ec6115cc565b80600584846040516107ff92919061285e565b908152602001604051809103902060006101000a81548173ffffffffffffffffffffffffffffffffffffffff021916908373ffffffffffffffffffffffffffffffffffffffff160217905550505050565b60006003858154811061086657610865612877565b5b9060005260206000209060080201604051806101000160405290816000820160009054906101000a900473ffffffffffffffffffffffffffffffffffffffff1673ffffffffffffffffffffffffffffffffffffffff1673ffffffffffffffffffffffffffffffffffffffff1681526020016001820160009054906101000a900473ffffffffffffffffffffffffffffffffffffffff1673ffffffffffffffffffffffffffffffffffffffff1673ffffffffffffffffffffffffffffffffffffffff16815260200160028201548152602001600382015481526020016004820154815260200160058201548152602001600682015481526020016007820160009054906101000a900460ff161515151581525050905080604001518160c00151826080015161099491906128d5565b106109d4576040517f08c379a00000000000000000000000000000000000000000000000000000000081526004016109cb9061297b565b60405180910390fd5b6000604051806040016040528086868080601f016020809104026020016040519081016040528093929190818152602001838380828437600081840152601f19601f8201169050808301925050505050505081526020018473ffffffffffffffffffffffffffffffffffffffff168152509050600460008781526020019081526020016000208190806001815401808255809150506001900390600052602060002090600202016000909190919091506000820151816000019081610a999190612b3d565b5060208201518160010160006101000a81548173ffffffffffffffffffffffffffffffffffffffff021916908373ffffffffffffffffffffffffffffffffffffffff160217905550505081608001518260c001818151610af991906128d5565b915081815250508484604051610b1092919061285e565b6040518091039020867f0736f217c62d7f771e891926226a8792fe30888530849c3dbaabae6c9f0d535c85604051610b489190611fae565b60405180910390a3505050505050565b600260009054906101000a900473ffffffffffffffffffffffffffffffffffffffff1681565b600060038281548110610b9457610b93612877565b5b9060005260206000209060080201604051806101000160405290816000820160009054906101000a900473ffffffffffffffffffffffffffffffffffffffff1673ffffffffffffffffffffffffffffffffffffffff1673ffffffffffffffffffffffffffffffffffffffff1681526020016001820160009054906101000a900473ffffffffffffffffffffffffffffffffffffffff1673ffffffffffffffffffffffffffffffffffffffff1673ffffffffffffffffffffffffffffffffffffffff16815260200160028201548152602001600382015481526020016004820154815260200160058201548152602001600682015481526020016007820160009054906101000a900460ff16151515158152505090508060e00151610ced576040517f08c379a0000000000000000000000000000000000000000000000000000000008152600401610ce490612c5b565b60405180910390fd5b60008160200151905060008173ffffffffffffffffffffffffffffffffffffffff1663261e56366040518163ffffffff1660e01b81526004016040805180830381865afa158015610d42573d6000803e3d6000fd5b505050506040513d601f19601f82011682018060405250810190610d669190612d2c565b905080600060028110610d7c57610d7b612877565b5b60200201518015610da2575080600160028110610d9c57610d9b612877565b5b60200201515b156111b15760006004600086815260200190815260200160002080549050905060005b81811015611045576000600460008881526020019081526020016000208281548110610df457610df3612877565b5b9060005260206000209060020201604051806040016040529081600082018054610e1d906127a6565b80601f0160208091040260200160405190810160405280929190818152602001828054610e49906127a6565b8015610e965780601f10610e6b57610100808354040283529160200191610e96565b820191906000526020600020905b815481529060010190602001808311610e7957829003601f168201915b505050505081526020016001820160009054906101000a900473ffffffffffffffffffffffffffffffffffffffff1673ffffffffffffffffffffffffffffffffffffffff1673ffffffffffffffffffffffffffffffffffffffff168152505090507f000000000000000000000000000000000000000000000000000000000000000073ffffffffffffffffffffffffffffffffffffffff166326ef699d8260000151610f45846020015161170e565b600260009054906101000a900473ffffffffffffffffffffffffffffffffffffffff1673ffffffffffffffffffffffffffffffffffffffff166395d89b416040518163ffffffff1660e01b8152600401600060405180830381865afa158015610fb2573d6000803e3d6000fd5b505050506040513d6000823e3d601f19601f82011682018060405250810190610fdb9190612dc9565b8a606001516040518563ffffffff1660e01b8152600401610fff9493929190612e12565b600060405180830381600087803b15801561101957600080fd5b505af115801561102d573d6000803e3d6000fd5b5050505050808061103d90612e6c565b915050610dc5565b5060008460600151826110589190612eb4565b85604001516110679190612ef6565b90507f000000000000000000000000000000000000000000000000000000000000000073ffffffffffffffffffffffffffffffffffffffff166326ef699d6110b2876000015161170e565b600260009054906101000a900473ffffffffffffffffffffffffffffffffffffffff1673ffffffffffffffffffffffffffffffffffffffff166395d89b416040518163ffffffff1660e01b8152600401600060405180830381865afa15801561111f573d6000803e3d6000fd5b505050506040513d6000823e3d601f19601f820116820180604052508101906111489190612dc9565b846040518463ffffffff1660e01b815260040161116793929190612f76565b600060405180830381600087803b15801561118157600080fd5b505af1158015611195573d6000803e3d6000fd5b5050505060008560e0019015159081151581525050505061133d565b806000600281106111c5576111c4612877565b5b602002015180156111ec5750806001600281106111e5576111e4612877565b5b6020020151155b1561133b577f000000000000000000000000000000000000000000000000000000000000000073ffffffffffffffffffffffffffffffffffffffff166326ef699d61123a856000015161170e565b600260009054906101000a900473ffffffffffffffffffffffffffffffffffffffff1673ffffffffffffffffffffffffffffffffffffffff166395d89b416040518163ffffffff1660e01b8152600401600060405180830381865afa1580156112a7573d6000803e3d6000fd5b505050506040513d6000823e3d601f19601f820116820180604052508101906112d09190612dc9565b86604001516040518463ffffffff1660e01b81526004016112f393929190612f76565b600060405180830381600087803b15801561130d57600080fd5b505af1158015611321573d6000803e3d6000fd5b5050505060008360e001901515908115158152505061133c565b5b5b50505050565b6000600260009054906101000a900473ffffffffffffffffffffffffffffffffffffffff16905090565b6003818154811061137d57600080fd5b90600052602060002090600802016000915090508060000160009054906101000a900473ffffffffffffffffffffffffffffffffffffffff16908060010160009054906101000a900473ffffffffffffffffffffffffffffffffffffffff16908060020154908060030154908060040154908060050154908060060154908060070160009054906101000a900460ff16905088565b61141a6115cc565b600073ffffffffffffffffffffffffffffffffffffffff168173ffffffffffffffffffffffffffffffffffffffff1603611489576040517f08c379a000000000000000000000000000000000000000000000000000000000815260040161148090613040565b60405180910390fd5b6114928161164a565b50565b60008086868101906114a7919061309e565b9150915060006114fa8a8a8080601f016020809104026020016040519081016040528093929190818152602001838380828437600081840152601f19601f82011690508083019250505050505050611a31565b90508073ffffffffffffffffffffffffffffffffffffffff1660058d8d60405161152592919061285e565b908152602001604051809103902060009054906101000a900473ffffffffffffffffffffffffffffffffffffffff1673ffffffffffffffffffffffffffffffffffffffff16146115aa576040517f08c379a00000000000000000000000000000000000000000000000000000000081526004016115a190613150565b60405180910390fd5b6115b6838d8d85610850565b505050505050505050505050565b505050505050565b6115d4611c7f565b73ffffffffffffffffffffffffffffffffffffffff166115f26107bb565b73ffffffffffffffffffffffffffffffffffffffff1614611648576040517f08c379a000000000000000000000000000000000000000000000000000000000815260040161163f906131bc565b60405180910390fd5b565b60008060009054906101000a900473ffffffffffffffffffffffffffffffffffffffff169050816000806101000a81548173ffffffffffffffffffffffffffffffffffffffff021916908373ffffffffffffffffffffffffffffffffffffffff1602179055508173ffffffffffffffffffffffffffffffffffffffff168173ffffffffffffffffffffffffffffffffffffffff167f8be0079c531659141344cd1fd0a4f28419497f9722a3daafe3b4186f6b6457e060405160405180910390a35050565b60606000826040516020016117239190613224565b604051602081830303815290604052905060008151905060006040518060400160405280601081526020017f303132333435363738396162636465660000000000000000000000000000000081525090506000600284516117849190612eb4565b600261179091906128d5565b67ffffffffffffffff8111156117a9576117a8611e2b565b5b6040519080825280601f01601f1916602001820160405280156117db5781602001600182028036833780820191505090505b5090507f30000000000000000000000000000000000000000000000000000000000000008160008151811061181357611812612877565b5b60200101907effffffffffffffffffffffffffffffffffffffffffffffffffffffffffffff1916908160001a9053507f78000000000000000000000000000000000000000000000000000000000000008160018151811061187757611876612877565b5b60200101907effffffffffffffffffffffffffffffffffffffffffffffffffffffffffffff1916908160001a90535060005b83811015611a24578260048683815181106118c7576118c6612877565b5b602001015160f81c60f81b7effffffffffffffffffffffffffffffffffffffffffffffffffffffffffffff1916901c60f81c60ff168151811061190d5761190c612877565b5b602001015160f81c60f81b826002836119269190612eb4565b600261193291906128d5565b8151811061194357611942612877565b5b60200101907effffffffffffffffffffffffffffffffffffffffffffffffffffffffffffff1916908160001a90535082600f60f81b86838151811061198b5761198a612877565b5b602001015160f81c60f81b1660f81c60ff16815181106119ae576119ad612877565b5b602001015160f81c60f81b826002836119c79190612eb4565b60036119d391906128d5565b815181106119e4576119e3612877565b5b60200101907effffffffffffffffffffffffffffffffffffffffffffffffffffffffffffff1916908160001a90535080611a1d90612e6c565b90506118a9565b5080945050505050919050565b600080829050600080602a8351141580611aab57507f300000000000000000000000000000000000000000000000000000000000000083600081518110611a7b57611a7a612877565b5b602001015160f81c60f81b7effffffffffffffffffffffffffffffffffffffffffffffffffffffffffffff191614155b80611b1657507f780000000000000000000000000000000000000000000000000000000000000083600181518110611ae657611ae5612877565b5b602001015160f81c60f81b7effffffffffffffffffffffffffffffffffffffffffffffffffffffffffffff191614155b15611b4d576040517fdf48f19e00000000000000000000000000000000000000000000000000000000815260040160405180910390fd5b6000600290505b602a811015611c7357838181518110611b7057611b6f612877565b5b602001015160f81c60f81b60f81c915060618260ff1610158015611b98575060668260ff1611155b15611bb157605782611baa919061324c565b9150611c47565b60418260ff1610158015611bc9575060468260ff1611155b15611be257603782611bdb919061324c565b9150611c46565b60308260ff1610158015611bfa575060398260ff1611155b15611c1357603082611c0c919061324c565b9150611c45565b6040517fdf48f19e00000000000000000000000000000000000000000000000000000000815260040160405180910390fd5b5b5b6002816029611c569190612ef6565b901b8260ff16901b8317925080611c6c90612e6c565b9050611b54565b50819350505050919050565b600033905090565b6000604051905090565b600080fd5b600080fd5b600073ffffffffffffffffffffffffffffffffffffffff82169050919050565b6000611cc682611c9b565b9050919050565b611cd681611cbb565b8114611ce157600080fd5b50565b600081359050611cf381611ccd565b92915050565b6000819050919050565b611d0c81611cf9565b8114611d1757600080fd5b50565b600081359050611d2981611d03565b92915050565b60008060008060808587031215611d4957611d48611c91565b5b6000611d5787828801611ce4565b9450506020611d6887828801611d1a565b9350506040611d7987828801611d1a565b9250506060611d8a87828801611d1a565b91505092959194509250565b6000819050919050565b6000611dbb611db6611db184611c9b565b611d96565b611c9b565b9050919050565b6000611dcd82611da0565b9050919050565b6000611ddf82611dc2565b9050919050565b611def81611dd4565b82525050565b6000602082019050611e0a6000830184611de6565b92915050565b600080fd5b600080fd5b6000601f19601f8301169050919050565b7f4e487b7100000000000000000000000000000000000000000000000000000000600052604160045260246000fd5b611e6382611e1a565b810181811067ffffffffffffffff82111715611e8257611e81611e2b565b5b80604052505050565b6000611e95611c87565b9050611ea18282611e5a565b919050565b600067ffffffffffffffff821115611ec157611ec0611e2b565b5b611eca82611e1a565b9050602081019050919050565b82818337600083830152505050565b6000611ef9611ef484611ea6565b611e8b565b905082815260208101848484011115611f1557611f14611e15565b5b611f20848285611ed7565b509392505050565b600082601f830112611f3d57611f3c611e10565b5b8135611f4d848260208601611ee6565b91505092915050565b600060208284031215611f6c57611f6b611c91565b5b600082013567ffffffffffffffff811115611f8a57611f89611c96565b5b611f9684828501611f28565b91505092915050565b611fa881611cbb565b82525050565b6000602082019050611fc36000830184611f9f565b92915050565b6000819050919050565b611fdc81611fc9565b8114611fe757600080fd5b50565b600081359050611ff981611fd3565b92915050565b600080fd5b600080fd5b60008083601f84011261201f5761201e611e10565b5b8235905067ffffffffffffffff81111561203c5761203b611fff565b5b60208301915083600182028301111561205857612057612004565b5b9250929050565b60008083601f84011261207557612074611e10565b5b8235905067ffffffffffffffff81111561209257612091611fff565b5b6020830191508360018202830111156120ae576120ad612004565b5b9250929050565b60008060008060008060008060008060c08b8d0312156120d8576120d7611c91565b5b60006120e68d828e01611fea565b9a505060208b013567ffffffffffffffff81111561210757612106611c96565b5b6121138d828e01612009565b995099505060408b013567ffffffffffffffff81111561213657612135611c96565b5b6121428d828e01612009565b975097505060608b013567ffffffffffffffff81111561216557612164611c96565b5b6121718d828e0161205f565b955095505060808b013567ffffffffffffffff81111561219457612193611c96565b5b6121a08d828e01612009565b935093505060a06121b38d828e01611d1a565b9150509295989b9194979a5092959850565b600081519050919050565b600082825260208201905092915050565b60005b838110156121ff5780820151818401526020810190506121e4565b60008484015250505050565b6000612216826121c5565b61222081856121d0565b93506122308185602086016121e1565b61223981611e1a565b840191505092915050565b6000602082019050818103600083015261225e818461220b565b905092915050565b60008060008060008060006080888a03121561228557612284611c91565b5b60006122938a828b01611fea565b975050602088013567ffffffffffffffff8111156122b4576122b3611c96565b5b6122c08a828b01612009565b9650965050604088013567ffffffffffffffff8111156122e3576122e2611c96565b5b6122ef8a828b01612009565b9450945050606088013567ffffffffffffffff81111561231257612311611c96565b5b61231e8a828b0161205f565b925092505092959891949750929550565b600061233a82611dc2565b9050919050565b61234a8161232f565b82525050565b60006020820190506123656000830184612341565b92915050565b6000806040838503121561238257612381611c91565b5b600061239085828601611d1a565b92505060206123a185828601611d1a565b9150509250929050565b600060408201905081810360008301526123c5818561220b565b90506123d46020830184611f9f565b9392505050565b6000806000604084860312156123f4576123f3611c91565b5b600084013567ffffffffffffffff81111561241257612411611c96565b5b61241e86828701612009565b9350935050602061243186828701611ce4565b9150509250925092565b6000806000806060858703121561245557612454611c91565b5b600061246387828801611d1a565b945050602085013567ffffffffffffffff81111561248457612483611c96565b5b61249087828801612009565b935093505060406124a387828801611ce4565b91505092959194509250565b6000602082840312156124c5576124c4611c91565b5b60006124d384828501611d1a565b91505092915050565b6124e581611cf9565b82525050565b60008115159050919050565b612500816124eb565b82525050565b60006101008201905061251c600083018b611f9f565b612529602083018a611f9f565b61253660408301896124dc565b61254360608301886124dc565b61255060808301876124dc565b61255d60a08301866124dc565b61256a60c08301856124dc565b61257760e08301846124f7565b9998505050505050505050565b60006020828403121561259a57612599611c91565b5b60006125a884828501611ce4565b91505092915050565b7f46756e64696e6720616d6f756e7420697320746f6f2068696768000000000000600082015250565b60006125e7601a836121d0565b91506125f2826125b1565b602082019050919050565b60006020820190508181036000830152612616816125da565b9050919050565b600081905092915050565b6000612634838561261d565b9350612641838584611ed7565b82840190509392505050565b600061265a828486612628565b91508190509392505050565b61266f81611fc9565b82525050565b600061268183856121d0565b935061268e838584611ed7565b61269783611e1a565b840190509392505050565b600060c0820190506126b7600083018c612666565b81810360208301526126ca818a8c612675565b905081810360408301526126df81888a612675565b90506126ee6060830187612666565b8181036080830152612701818587612675565b905061271060a08301846124dc565b9a9950505050505050505050565b612727816124eb565b811461273257600080fd5b50565b6000815190506127448161271e565b92915050565b6000602082840312156127605761275f611c91565b5b600061276e84828501612735565b91505092915050565b7f4e487b7100000000000000000000000000000000000000000000000000000000600052602260045260246000fd5b600060028204905060018216806127be57607f821691505b6020821081036127d1576127d0612777565b5b50919050565b60006080820190506127ec6000830189612666565b81810360208301526127ff818789612675565b90508181036040830152612814818587612675565b90506128236060830184612666565b979650505050505050565b600081905092915050565b6000612845838561282e565b9350612852838584611ed7565b82840190509392505050565b600061286b828486612839565b91508190509392505050565b7f4e487b7100000000000000000000000000000000000000000000000000000000600052603260045260246000fd5b7f4e487b7100000000000000000000000000000000000000000000000000000000600052601160045260246000fd5b60006128e082611cf9565b91506128eb83611cf9565b9250828201905080821115612903576129026128a6565b5b92915050565b7f496e73756666696369656e742066756e64696e6720746f20696e73757265206160008201527f64646974696f6e616c2075736572730000000000000000000000000000000000602082015250565b6000612965602f836121d0565b915061297082612909565b604082019050919050565b6000602082019050818103600083015261299481612958565b9050919050565b60008190508160005260206000209050919050565b60006020601f8301049050919050565b600082821b905092915050565b6000600883026129fd7fffffffffffffffffffffffffffffffffffffffffffffffffffffffffffffffff826129c0565b612a0786836129c0565b95508019841693508086168417925050509392505050565b6000612a3a612a35612a3084611cf9565b611d96565b611cf9565b9050919050565b6000819050919050565b612a5483612a1f565b612a68612a6082612a41565b8484546129cd565b825550505050565b600090565b612a7d612a70565b612a88818484612a4b565b505050565b5b81811015612aac57612aa1600082612a75565b600181019050612a8e565b5050565b601f821115612af157612ac28161299b565b612acb846129b0565b81016020851015612ada578190505b612aee612ae6856129b0565b830182612a8d565b50505b505050565b600082821c905092915050565b6000612b1460001984600802612af6565b1980831691505092915050565b6000612b2d8383612b03565b9150826002028217905092915050565b612b46826121c5565b67ffffffffffffffff811115612b5f57612b5e611e2b565b5b612b6982546127a6565b612b74828285612ab0565b600060209050601f831160018114612ba75760008415612b95578287015190505b612b9f8582612b21565b865550612c07565b601f198416612bb58661299b565b60005b82811015612bdd57848901518255600182019150602085019450602081019050612bb8565b86831015612bfa5784890151612bf6601f891682612b03565b8355505b6001600288020188555050505b505050505050565b7f506f6c696379206973206e6f7420616374697665000000000000000000000000600082015250565b6000612c456014836121d0565b9150612c5082612c0f565b602082019050919050565b60006020820190508181036000830152612c7481612c38565b9050919050565b600067ffffffffffffffff821115612c9657612c95611e2b565b5b602082029050919050565b6000612cb4612caf84612c7b565b611e8b565b90508060208402830185811115612cce57612ccd612004565b5b835b81811015612cf75780612ce38882612735565b845260208401935050602081019050612cd0565b5050509392505050565b600082601f830112612d1657612d15611e10565b5b6002612d23848285612ca1565b91505092915050565b600060408284031215612d4257612d41611c91565b5b6000612d5084828501612d01565b91505092915050565b6000612d6c612d6784611ea6565b611e8b565b905082815260208101848484011115612d8857612d87611e15565b5b612d938482856121e1565b509392505050565b600082601f830112612db057612daf611e10565b5b8151612dc0848260208601612d59565b91505092915050565b600060208284031215612ddf57612dde611c91565b5b600082015167ffffffffffffffff811115612dfd57612dfc611c96565b5b612e0984828501612d9b565b91505092915050565b60006080820190508181036000830152612e2c818761220b565b90508181036020830152612e40818661220b565b90508181036040830152612e54818561220b565b9050612e6360608301846124dc565b95945050505050565b6000612e7782611cf9565b91507fffffffffffffffffffffffffffffffffffffffffffffffffffffffffffffffff8203612ea957612ea86128a6565b5b600182019050919050565b6000612ebf82611cf9565b9150612eca83611cf9565b9250828202612ed881611cf9565b91508282048414831517612eef57612eee6128a6565b5b5092915050565b6000612f0182611cf9565b9150612f0c83611cf9565b9250828203905081811115612f2457612f236128a6565b5b92915050565b7f6178656c61720000000000000000000000000000000000000000000000000000600082015250565b6000612f606006836121d0565b9150612f6b82612f2a565b602082019050919050565b60006080820190508181036000830152612f8f81612f53565b90508181036020830152612fa3818661220b565b90508181036040830152612fb7818561220b565b9050612fc660608301846124dc565b949350505050565b7f4f776e61626c653a206e6577206f776e657220697320746865207a65726f206160008201527f6464726573730000000000000000000000000000000000000000000000000000602082015250565b600061302a6026836121d0565b915061303582612fce565b604082019050919050565b600060208201905081810360008301526130598161301d565b9050919050565b600061306b82611c9b565b9050919050565b61307b81613060565b811461308657600080fd5b50565b60008135905061309881613072565b92915050565b600080604083850312156130b5576130b4611c91565b5b60006130c385828601611d1a565b92505060206130d485828601613089565b9150509250929050565b7f536f75726365206164647265737320616e6420636861696e20646f206e6f742060008201527f62656c6f6e6720696e207468652073616d65206d617070696e67000000000000602082015250565b600061313a603a836121d0565b9150613145826130de565b604082019050919050565b600060208201905081810360008301526131698161312d565b9050919050565b7f4f776e61626c653a2063616c6c6572206973206e6f7420746865206f776e6572600082015250565b60006131a66020836121d0565b91506131b182613170565b602082019050919050565b600060208201905081810360008301526131d581613199565b9050919050565b60008160601b9050919050565b60006131f4826131dc565b9050919050565b6000613206826131e9565b9050919050565b61321e61321982611cbb565b6131fb565b82525050565b6000613230828461320d565b60148201915081905092915050565b600060ff82169050919050565b60006132578261323f565b91506132628361323f565b9250828203905060ff81111561327b5761327a6128a6565b5b9291505056fea2646970667358221220f18dc0161e52784c2c1f972ad39282d6ac39c95906c06150bef98db2ad728e6964736f6c63430008120033","opcodes":"PUSH1 0xC0 PUSH1 0x40 MSTORE CALLVALUE DUP1 ISZERO PUSH3 0x11 JUMPI PUSH1 0x0 DUP1 REVERT JUMPDEST POP PUSH1 0x40 MLOAD PUSH3 0x3C1D CODESIZE SUB DUP1 PUSH3 0x3C1D DUP4 CODECOPY DUP2 DUP2 ADD PUSH1 0x40 MSTORE DUP2 ADD SWAP1 PUSH3 0x37 SWAP2 SWAP1 PUSH3 0x4C8 JUMP JUMPDEST DUP2 PUSH3 0x58 PUSH3 0x4C PUSH3 0x204 PUSH1 0x20 SHL PUSH1 0x20 SHR JUMP JUMPDEST PUSH3 0x20C PUSH1 0x20 SHL PUSH1 0x20 SHR JUMP JUMPDEST PUSH1 0x0 PUSH20 0xFFFFFFFFFFFFFFFFFFFFFFFFFFFFFFFFFFFFFFFF AND DUP2 PUSH20 0xFFFFFFFFFFFFFFFFFFFFFFFFFFFFFFFFFFFFFFFF AND SUB PUSH3 0xBF JUMPI PUSH1 0x40 MLOAD PUSH32 0xE6C4247B00000000000000000000000000000000000000000000000000000000 DUP2 MSTORE PUSH1 0x4 ADD PUSH1 0x40 MLOAD DUP1 SWAP2 SUB SWAP1 REVERT JUMPDEST DUP1 PUSH20 0xFFFFFFFFFFFFFFFFFFFFFFFFFFFFFFFFFFFFFFFF AND PUSH1 0x80 DUP2 PUSH20 0xFFFFFFFFFFFFFFFFFFFFFFFFFFFFFFFFFFFFFFFF AND DUP2 MSTORE POP POP POP DUP3 PUSH1 0x1 SWAP1 DUP2 PUSH3 0x105 SWAP2 SWAP1 PUSH3 0x78E JUMP JUMPDEST POP PUSH1 0x80 MLOAD PUSH20 0xFFFFFFFFFFFFFFFFFFFFFFFFFFFFFFFFFFFFFFFF AND PUSH4 0x935B13F6 DUP5 PUSH1 0x40 MLOAD DUP3 PUSH4 0xFFFFFFFF AND PUSH1 0xE0 SHL DUP2 MSTORE PUSH1 0x4 ADD PUSH3 0x143 SWAP2 SWAP1 PUSH3 0x8C7 JUMP JUMPDEST PUSH1 0x20 PUSH1 0x40 MLOAD DUP1 DUP4 SUB DUP2 DUP7 GAS STATICCALL ISZERO DUP1 ISZERO PUSH3 0x161 JUMPI RETURNDATASIZE PUSH1 0x0 DUP1 RETURNDATACOPY RETURNDATASIZE PUSH1 0x0 REVERT JUMPDEST POP POP POP POP PUSH1 0x40 MLOAD RETURNDATASIZE PUSH1 0x1F NOT PUSH1 0x1F DUP3 ADD AND DUP3 ADD DUP1 PUSH1 0x40 MSTORE POP DUP2 ADD SWAP1 PUSH3 0x187 SWAP2 SWAP1 PUSH3 0x8EB JUMP JUMPDEST PUSH1 0x2 PUSH1 0x0 PUSH2 0x100 EXP DUP2 SLOAD DUP2 PUSH20 0xFFFFFFFFFFFFFFFFFFFFFFFFFFFFFFFFFFFFFFFF MUL NOT AND SWAP1 DUP4 PUSH20 0xFFFFFFFFFFFFFFFFFFFFFFFFFFFFFFFFFFFFFFFF AND MUL OR SWAP1 SSTORE POP DUP1 PUSH20 0xFFFFFFFFFFFFFFFFFFFFFFFFFFFFFFFFFFFFFFFF AND PUSH1 0xA0 DUP2 PUSH20 0xFFFFFFFFFFFFFFFFFFFFFFFFFFFFFFFFFFFFFFFF AND DUP2 MSTORE POP POP POP POP POP PUSH3 0x91D JUMP JUMPDEST PUSH1 0x0 CALLER SWAP1 POP SWAP1 JUMP JUMPDEST PUSH1 0x0 DUP1 PUSH1 0x0 SWAP1 SLOAD SWAP1 PUSH2 0x100 EXP SWAP1 DIV PUSH20 0xFFFFFFFFFFFFFFFFFFFFFFFFFFFFFFFFFFFFFFFF AND SWAP1 POP DUP2 PUSH1 0x0 DUP1 PUSH2 0x100 EXP DUP2 SLOAD DUP2 PUSH20 0xFFFFFFFFFFFFFFFFFFFFFFFFFFFFFFFFFFFFFFFF MUL NOT AND SWAP1 DUP4 PUSH20 0xFFFFFFFFFFFFFFFFFFFFFFFFFFFFFFFFFFFFFFFF AND MUL OR SWAP1 SSTORE POP DUP2 PUSH20 0xFFFFFFFFFFFFFFFFFFFFFFFFFFFFFFFFFFFFFFFF AND DUP2 PUSH20 0xFFFFFFFFFFFFFFFFFFFFFFFFFFFFFFFFFFFFFFFF AND PUSH32 0x8BE0079C531659141344CD1FD0A4F28419497F9722A3DAAFE3B4186F6B6457E0 PUSH1 0x40 MLOAD PUSH1 0x40 MLOAD DUP1 SWAP2 SUB SWAP1 LOG3 POP POP JUMP JUMPDEST PUSH1 0x0 PUSH1 0x40 MLOAD SWAP1 POP SWAP1 JUMP JUMPDEST PUSH1 0x0 DUP1 REVERT JUMPDEST PUSH1 0x0 DUP1 REVERT JUMPDEST PUSH1 0x0 DUP1 REVERT JUMPDEST PUSH1 0x0 DUP1 REVERT JUMPDEST PUSH1 0x0 PUSH1 0x1F NOT PUSH1 0x1F DUP4 ADD AND SWAP1 POP SWAP2 SWAP1 POP JUMP JUMPDEST PUSH32 0x4E487B7100000000000000000000000000000000000000000000000000000000 PUSH1 0x0 MSTORE PUSH1 0x41 PUSH1 0x4 MSTORE PUSH1 0x24 PUSH1 0x0 REVERT JUMPDEST PUSH3 0x339 DUP3 PUSH3 0x2EE JUMP JUMPDEST DUP2 ADD DUP2 DUP2 LT PUSH8 0xFFFFFFFFFFFFFFFF DUP3 GT OR ISZERO PUSH3 0x35B JUMPI PUSH3 0x35A PUSH3 0x2FF JUMP JUMPDEST JUMPDEST DUP1 PUSH1 0x40 MSTORE POP POP POP JUMP JUMPDEST PUSH1 0x0 PUSH3 0x370 PUSH3 0x2D0 JUMP JUMPDEST SWAP1 POP PUSH3 0x37E DUP3 DUP3 PUSH3 0x32E JUMP JUMPDEST SWAP2 SWAP1 POP JUMP JUMPDEST PUSH1 0x0 PUSH8 0xFFFFFFFFFFFFFFFF DUP3 GT ISZERO PUSH3 0x3A1 JUMPI PUSH3 0x3A0 PUSH3 0x2FF JUMP JUMPDEST JUMPDEST PUSH3 0x3AC DUP3 PUSH3 0x2EE JUMP JUMPDEST SWAP1 POP PUSH1 0x20 DUP2 ADD SWAP1 POP SWAP2 SWAP1 POP JUMP JUMPDEST PUSH1 0x0 JUMPDEST DUP4 DUP2 LT ISZERO PUSH3 0x3D9 JUMPI DUP1 DUP3 ADD MLOAD DUP2 DUP5 ADD MSTORE PUSH1 0x20 DUP2 ADD SWAP1 POP PUSH3 0x3BC JUMP JUMPDEST PUSH1 0x0 DUP5 DUP5 ADD MSTORE POP POP POP POP JUMP JUMPDEST PUSH1 0x0 PUSH3 0x3FC PUSH3 0x3F6 DUP5 PUSH3 0x383 JUMP JUMPDEST PUSH3 0x364 JUMP JUMPDEST SWAP1 POP DUP3 DUP2 MSTORE PUSH1 0x20 DUP2 ADD DUP5 DUP5 DUP5 ADD GT ISZERO PUSH3 0x41B JUMPI PUSH3 0x41A PUSH3 0x2E9 JUMP JUMPDEST JUMPDEST PUSH3 0x428 DUP5 DUP3 DUP6 PUSH3 0x3B9 JUMP JUMPDEST POP SWAP4 SWAP3 POP POP POP JUMP JUMPDEST PUSH1 0x0 DUP3 PUSH1 0x1F DUP4 ADD SLT PUSH3 0x448 JUMPI PUSH3 0x447 PUSH3 0x2E4 JUMP JUMPDEST JUMPDEST DUP2 MLOAD PUSH3 0x45A DUP5 DUP3 PUSH1 0x20 DUP7 ADD PUSH3 0x3E5 JUMP JUMPDEST SWAP2 POP POP SWAP3 SWAP2 POP POP JUMP JUMPDEST PUSH1 0x0 PUSH20 0xFFFFFFFFFFFFFFFFFFFFFFFFFFFFFFFFFFFFFFFF DUP3 AND SWAP1 POP SWAP2 SWAP1 POP JUMP JUMPDEST PUSH1 0x0 PUSH3 0x490 DUP3 PUSH3 0x463 JUMP JUMPDEST SWAP1 POP SWAP2 SWAP1 POP JUMP JUMPDEST PUSH3 0x4A2 DUP2 PUSH3 0x483 JUMP JUMPDEST DUP2 EQ PUSH3 0x4AE JUMPI PUSH1 0x0 DUP1 REVERT JUMPDEST POP JUMP JUMPDEST PUSH1 0x0 DUP2 MLOAD SWAP1 POP PUSH3 0x4C2 DUP2 PUSH3 0x497 JUMP JUMPDEST SWAP3 SWAP2 POP POP JUMP JUMPDEST PUSH1 0x0 DUP1 PUSH1 0x0 PUSH1 0x60 DUP5 DUP7 SUB SLT ISZERO PUSH3 0x4E4 JUMPI PUSH3 0x4E3 PUSH3 0x2DA JUMP JUMPDEST JUMPDEST PUSH1 0x0 DUP5 ADD MLOAD PUSH8 0xFFFFFFFFFFFFFFFF DUP2 GT ISZERO PUSH3 0x505 JUMPI PUSH3 0x504 PUSH3 0x2DF JUMP JUMPDEST JUMPDEST PUSH3 0x513 DUP7 DUP3 DUP8 ADD PUSH3 0x430 JUMP JUMPDEST SWAP4 POP POP PUSH1 0x20 PUSH3 0x526 DUP7 DUP3 DUP8 ADD PUSH3 0x4B1 JUMP JUMPDEST SWAP3 POP POP PUSH1 0x40 PUSH3 0x539 DUP7 DUP3 DUP8 ADD PUSH3 0x4B1 JUMP JUMPDEST SWAP2 POP POP SWAP3 POP SWAP3 POP SWAP3 JUMP JUMPDEST PUSH1 0x0 DUP2 MLOAD SWAP1 POP SWAP2 SWAP1 POP JUMP JUMPDEST PUSH32 0x4E487B7100000000000000000000000000000000000000000000000000000000 PUSH1 0x0 MSTORE PUSH1 0x22 PUSH1 0x4 MSTORE PUSH1 0x24 PUSH1 0x0 REVERT JUMPDEST PUSH1 0x0 PUSH1 0x2 DUP3 DIV SWAP1 POP PUSH1 0x1 DUP3 AND DUP1 PUSH3 0x596 JUMPI PUSH1 0x7F DUP3 AND SWAP2 POP JUMPDEST PUSH1 0x20 DUP3 LT DUP2 SUB PUSH3 0x5AC JUMPI PUSH3 0x5AB PUSH3 0x54E JUMP JUMPDEST JUMPDEST POP SWAP2 SWAP1 POP JUMP JUMPDEST PUSH1 0x0 DUP2 SWAP1 POP DUP2 PUSH1 0x0 MSTORE PUSH1 0x20 PUSH1 0x0 KECCAK256 SWAP1 POP SWAP2 SWAP1 POP JUMP JUMPDEST PUSH1 0x0 PUSH1 0x20 PUSH1 0x1F DUP4 ADD DIV SWAP1 POP SWAP2 SWAP1 POP JUMP JUMPDEST PUSH1 0x0 DUP3 DUP3 SHL SWAP1 POP SWAP3 SWAP2 POP POP JUMP JUMPDEST PUSH1 0x0 PUSH1 0x8 DUP4 MUL PUSH3 0x616 PUSH32 0xFFFFFFFFFFFFFFFFFFFFFFFFFFFFFFFFFFFFFFFFFFFFFFFFFFFFFFFFFFFFFFFF DUP3 PUSH3 0x5D7 JUMP JUMPDEST PUSH3 0x622 DUP7 DUP4 PUSH3 0x5D7 JUMP JUMPDEST SWAP6 POP DUP1 NOT DUP5 AND SWAP4 POP DUP1 DUP7 AND DUP5 OR SWAP3 POP POP POP SWAP4 SWAP3 POP POP POP JUMP JUMPDEST PUSH1 0x0 DUP2 SWAP1 POP SWAP2 SWAP1 POP JUMP JUMPDEST PUSH1 0x0 DUP2 SWAP1 POP SWAP2 SWAP1 POP JUMP JUMPDEST PUSH1 0x0 PUSH3 0x66F PUSH3 0x669 PUSH3 0x663 DUP5 PUSH3 0x63A JUMP JUMPDEST PUSH3 0x644 JUMP JUMPDEST PUSH3 0x63A JUMP JUMPDEST SWAP1 POP SWAP2 SWAP1 POP JUMP JUMPDEST PUSH1 0x0 DUP2 SWAP1 POP SWAP2 SWAP1 POP JUMP JUMPDEST PUSH3 0x68B DUP4 PUSH3 0x64E JUMP JUMPDEST PUSH3 0x6A3 PUSH3 0x69A DUP3 PUSH3 0x676 JUMP JUMPDEST DUP5 DUP5 SLOAD PUSH3 0x5E4 JUMP JUMPDEST DUP3 SSTORE POP POP POP POP JUMP JUMPDEST PUSH1 0x0 SWAP1 JUMP JUMPDEST PUSH3 0x6BA PUSH3 0x6AB JUMP JUMPDEST PUSH3 0x6C7 DUP2 DUP5 DUP5 PUSH3 0x680 JUMP JUMPDEST POP POP POP JUMP JUMPDEST JUMPDEST DUP2 DUP2 LT ISZERO PUSH3 0x6EF JUMPI PUSH3 0x6E3 PUSH1 0x0 DUP3 PUSH3 0x6B0 JUMP JUMPDEST PUSH1 0x1 DUP2 ADD SWAP1 POP PUSH3 0x6CD JUMP JUMPDEST POP POP JUMP JUMPDEST PUSH1 0x1F DUP3 GT ISZERO PUSH3 0x73E JUMPI PUSH3 0x708 DUP2 PUSH3 0x5B2 JUMP JUMPDEST PUSH3 0x713 DUP5 PUSH3 0x5C7 JUMP JUMPDEST DUP2 ADD PUSH1 0x20 DUP6 LT ISZERO PUSH3 0x723 JUMPI DUP2 SWAP1 POP JUMPDEST PUSH3 0x73B PUSH3 0x732 DUP6 PUSH3 0x5C7 JUMP JUMPDEST DUP4 ADD DUP3 PUSH3 0x6CC JUMP JUMPDEST POP POP JUMPDEST POP POP POP JUMP JUMPDEST PUSH1 0x0 DUP3 DUP3 SHR SWAP1 POP SWAP3 SWAP2 POP POP JUMP JUMPDEST PUSH1 0x0 PUSH3 0x763 PUSH1 0x0 NOT DUP5 PUSH1 0x8 MUL PUSH3 0x743 JUMP JUMPDEST NOT DUP1 DUP4 AND SWAP2 POP POP SWAP3 SWAP2 POP POP JUMP JUMPDEST PUSH1 0x0 PUSH3 0x77E DUP4 DUP4 PUSH3 0x750 JUMP JUMPDEST SWAP2 POP DUP3 PUSH1 0x2 MUL DUP3 OR SWAP1 POP SWAP3 SWAP2 POP POP JUMP JUMPDEST PUSH3 0x799 DUP3 PUSH3 0x543 JUMP JUMPDEST PUSH8 0xFFFFFFFFFFFFFFFF DUP2 GT ISZERO PUSH3 0x7B5 JUMPI PUSH3 0x7B4 PUSH3 0x2FF JUMP JUMPDEST JUMPDEST PUSH3 0x7C1 DUP3 SLOAD PUSH3 0x57D JUMP JUMPDEST PUSH3 0x7CE DUP3 DUP3 DUP6 PUSH3 0x6F3 JUMP JUMPDEST PUSH1 0x0 PUSH1 0x20 SWAP1 POP PUSH1 0x1F DUP4 GT PUSH1 0x1 DUP2 EQ PUSH3 0x806 JUMPI PUSH1 0x0 DUP5 ISZERO PUSH3 0x7F1 JUMPI DUP3 DUP8 ADD MLOAD SWAP1 POP JUMPDEST PUSH3 0x7FD DUP6 DUP3 PUSH3 0x770 JUMP JUMPDEST DUP7 SSTORE POP PUSH3 0x86D JUMP JUMPDEST PUSH1 0x1F NOT DUP5 AND PUSH3 0x816 DUP7 PUSH3 0x5B2 JUMP JUMPDEST PUSH1 0x0 JUMPDEST DUP3 DUP2 LT ISZERO PUSH3 0x840 JUMPI DUP5 DUP10 ADD MLOAD DUP3 SSTORE PUSH1 0x1 DUP3 ADD SWAP2 POP PUSH1 0x20 DUP6 ADD SWAP5 POP PUSH1 0x20 DUP2 ADD SWAP1 POP PUSH3 0x819 JUMP JUMPDEST DUP7 DUP4 LT ISZERO PUSH3 0x860 JUMPI DUP5 DUP10 ADD MLOAD PUSH3 0x85C PUSH1 0x1F DUP10 AND DUP3 PUSH3 0x750 JUMP JUMPDEST DUP4 SSTORE POP JUMPDEST PUSH1 0x1 PUSH1 0x2 DUP9 MUL ADD DUP9 SSTORE POP POP POP JUMPDEST POP POP POP POP POP POP JUMP JUMPDEST PUSH1 0x0 DUP3 DUP3 MSTORE PUSH1 0x20 DUP3 ADD SWAP1 POP SWAP3 SWAP2 POP POP JUMP JUMPDEST PUSH1 0x0 PUSH3 0x893 DUP3 PUSH3 0x543 JUMP JUMPDEST PUSH3 0x89F DUP2 DUP6 PUSH3 0x875 JUMP JUMPDEST SWAP4 POP PUSH3 0x8B1 DUP2 DUP6 PUSH1 0x20 DUP7 ADD PUSH3 0x3B9 JUMP JUMPDEST PUSH3 0x8BC DUP2 PUSH3 0x2EE JUMP JUMPDEST DUP5 ADD SWAP2 POP POP SWAP3 SWAP2 POP POP JUMP JUMPDEST PUSH1 0x0 PUSH1 0x20 DUP3 ADD SWAP1 POP DUP2 DUP2 SUB PUSH1 0x0 DUP4 ADD MSTORE PUSH3 0x8E3 DUP2 DUP5 PUSH3 0x886 JUMP JUMPDEST SWAP1 POP SWAP3 SWAP2 POP POP JUMP JUMPDEST PUSH1 0x0 PUSH1 0x20 DUP3 DUP5 SUB SLT ISZERO PUSH3 0x904 JUMPI PUSH3 0x903 PUSH3 0x2DA JUMP JUMPDEST JUMPDEST PUSH1 0x0 PUSH3 0x914 DUP5 DUP3 DUP6 ADD PUSH3 0x4B1 JUMP JUMPDEST SWAP2 POP POP SWAP3 SWAP2 POP POP JUMP JUMPDEST PUSH1 0x80 MLOAD PUSH1 0xA0 MLOAD PUSH2 0x32B7 PUSH3 0x966 PUSH1 0x0 CODECOPY PUSH1 0x0 PUSH2 0x69C ADD MSTORE PUSH1 0x0 DUP2 DUP2 PUSH2 0x375 ADD MSTORE DUP2 DUP2 PUSH2 0x3FE ADD MSTORE DUP2 DUP2 PUSH2 0x5A8 ADD MSTORE DUP2 DUP2 PUSH2 0xEF9 ADD MSTORE DUP2 DUP2 PUSH2 0x106B ADD MSTORE PUSH2 0x11F3 ADD MSTORE PUSH2 0x32B7 PUSH1 0x0 RETURN INVALID PUSH1 0x80 PUSH1 0x40 MSTORE CALLVALUE DUP1 ISZERO PUSH2 0x10 JUMPI PUSH1 0x0 DUP1 REVERT JUMPDEST POP PUSH1 0x4 CALLDATASIZE LT PUSH2 0x10A JUMPI PUSH1 0x0 CALLDATALOAD PUSH1 0xE0 SHR DUP1 PUSH4 0x8593CBE1 GT PUSH2 0xA2 JUMPI DUP1 PUSH4 0xAFB18FE7 GT PUSH2 0x71 JUMPI DUP1 PUSH4 0xAFB18FE7 EQ PUSH2 0x27E JUMPI DUP1 PUSH4 0xC2572838 EQ PUSH2 0x29C JUMPI DUP1 PUSH4 0xD41C3A65 EQ PUSH2 0x2B8 JUMPI DUP1 PUSH4 0xF2559ED2 EQ PUSH2 0x2D6 JUMPI DUP1 PUSH4 0xF2FDE38B EQ PUSH2 0x30D JUMPI PUSH2 0x10A JUMP JUMPDEST DUP1 PUSH4 0x8593CBE1 EQ PUSH2 0x1F7 JUMPI DUP1 PUSH4 0x8DA5CB5B EQ PUSH2 0x228 JUMPI DUP1 PUSH4 0x948FFE67 EQ PUSH2 0x246 JUMPI DUP1 PUSH4 0xA614BA09 EQ PUSH2 0x262 JUMPI PUSH2 0x10A JUMP JUMPDEST DUP1 PUSH4 0x3013CE29 GT PUSH2 0xDE JUMPI DUP1 PUSH4 0x3013CE29 EQ PUSH2 0x195 JUMPI DUP1 PUSH4 0x49160658 EQ PUSH2 0x1B3 JUMPI DUP1 PUSH4 0x6A22D8CC EQ PUSH2 0x1CF JUMPI DUP1 PUSH4 0x715018A6 EQ PUSH2 0x1ED JUMPI PUSH2 0x10A JUMP JUMPDEST DUP1 PUSH3 0x4DB56E EQ PUSH2 0x10F JUMPI DUP1 PUSH4 0x116191B6 EQ PUSH2 0x12B JUMPI DUP1 PUSH4 0x18AF2FA8 EQ PUSH2 0x149 JUMPI DUP1 PUSH4 0x1A98B2E0 EQ PUSH2 0x179 JUMPI JUMPDEST PUSH1 0x0 DUP1 REVERT JUMPDEST PUSH2 0x129 PUSH1 0x4 DUP1 CALLDATASIZE SUB DUP2 ADD SWAP1 PUSH2 0x124 SWAP2 SWAP1 PUSH2 0x1D2F JUMP JUMPDEST PUSH2 0x329 JUMP JUMPDEST STOP JUMPDEST PUSH2 0x133 PUSH2 0x373 JUMP JUMPDEST PUSH1 0x40 MLOAD PUSH2 0x140 SWAP2 SWAP1 PUSH2 0x1DF5 JUMP JUMPDEST PUSH1 0x40 MLOAD DUP1 SWAP2 SUB SWAP1 RETURN JUMPDEST PUSH2 0x163 PUSH1 0x4 DUP1 CALLDATASIZE SUB DUP2 ADD SWAP1 PUSH2 0x15E SWAP2 SWAP1 PUSH2 0x1F56 JUMP JUMPDEST PUSH2 0x397 JUMP JUMPDEST PUSH1 0x40 MLOAD PUSH2 0x170 SWAP2 SWAP1 PUSH2 0x1FAE JUMP JUMPDEST PUSH1 0x40 MLOAD DUP1 SWAP2 SUB SWAP1 RETURN JUMPDEST PUSH2 0x193 PUSH1 0x4 DUP1 CALLDATASIZE SUB DUP2 ADD SWAP1 PUSH2 0x18E SWAP2 SWAP1 PUSH2 0x20B5 JUMP JUMPDEST PUSH2 0x3E0 JUMP JUMPDEST STOP JUMPDEST PUSH2 0x19D PUSH2 0x4FC JUMP JUMPDEST PUSH1 0x40 MLOAD PUSH2 0x1AA SWAP2 SWAP1 PUSH2 0x2244 JUMP JUMPDEST PUSH1 0x40 MLOAD DUP1 SWAP2 SUB SWAP1 RETURN JUMPDEST PUSH2 0x1CD PUSH1 0x4 DUP1 CALLDATASIZE SUB DUP2 ADD SWAP1 PUSH2 0x1C8 SWAP2 SWAP1 PUSH2 0x2266 JUMP JUMPDEST PUSH2 0x58A JUMP JUMPDEST STOP JUMPDEST PUSH2 0x1D7 PUSH2 0x69A JUMP JUMPDEST PUSH1 0x40 MLOAD PUSH2 0x1E4 SWAP2 SWAP1 PUSH2 0x2350 JUMP JUMPDEST PUSH1 0x40 MLOAD DUP1 SWAP2 SUB SWAP1 RETURN JUMPDEST PUSH2 0x1F5 PUSH2 0x6BE JUMP JUMPDEST STOP JUMPDEST PUSH2 0x211 PUSH1 0x4 DUP1 CALLDATASIZE SUB DUP2 ADD SWAP1 PUSH2 0x20C SWAP2 SWAP1 PUSH2 0x236B JUMP JUMPDEST PUSH2 0x6D2 JUMP JUMPDEST PUSH1 0x40 MLOAD PUSH2 0x21F SWAP3 SWAP2 SWAP1 PUSH2 0x23AB JUMP JUMPDEST PUSH1 0x40 MLOAD DUP1 SWAP2 SUB SWAP1 RETURN JUMPDEST PUSH2 0x230 PUSH2 0x7BB JUMP JUMPDEST PUSH1 0x40 MLOAD PUSH2 0x23D SWAP2 SWAP1 PUSH2 0x1FAE JUMP JUMPDEST PUSH1 0x40 MLOAD DUP1 SWAP2 SUB SWAP1 RETURN JUMPDEST PUSH2 0x260 PUSH1 0x4 DUP1 CALLDATASIZE SUB DUP2 ADD SWAP1 PUSH2 0x25B SWAP2 SWAP1 PUSH2 0x23DB JUMP JUMPDEST PUSH2 0x7E4 JUMP JUMPDEST STOP JUMPDEST PUSH2 0x27C PUSH1 0x4 DUP1 CALLDATASIZE SUB DUP2 ADD SWAP1 PUSH2 0x277 SWAP2 SWAP1 PUSH2 0x243B JUMP JUMPDEST PUSH2 0x850 JUMP JUMPDEST STOP JUMPDEST PUSH2 0x286 PUSH2 0xB58 JUMP JUMPDEST PUSH1 0x40 MLOAD PUSH2 0x293 SWAP2 SWAP1 PUSH2 0x1FAE JUMP JUMPDEST PUSH1 0x40 MLOAD DUP1 SWAP2 SUB SWAP1 RETURN JUMPDEST PUSH2 0x2B6 PUSH1 0x4 DUP1 CALLDATASIZE SUB DUP2 ADD SWAP1 PUSH2 0x2B1 SWAP2 SWAP1 PUSH2 0x24AF JUMP JUMPDEST PUSH2 0xB7E JUMP JUMPDEST STOP JUMPDEST PUSH2 0x2C0 PUSH2 0x1343 JUMP JUMPDEST PUSH1 0x40 MLOAD PUSH2 0x2CD SWAP2 SWAP1 PUSH2 0x1FAE JUMP JUMPDEST PUSH1 0x40 MLOAD DUP1 SWAP2 SUB SWAP1 RETURN JUMPDEST PUSH2 0x2F0 PUSH1 0x4 DUP1 CALLDATASIZE SUB DUP2 ADD SWAP1 PUSH2 0x2EB SWAP2 SWAP1 PUSH2 0x24AF JUMP JUMPDEST PUSH2 0x136D JUMP JUMPDEST PUSH1 0x40 MLOAD PUSH2 0x304 SWAP9 SWAP8 SWAP7 SWAP6 SWAP5 SWAP4 SWAP3 SWAP2 SWAP1 PUSH2 0x2506 JUMP JUMPDEST PUSH1 0x40 MLOAD DUP1 SWAP2 SUB SWAP1 RETURN JUMPDEST PUSH2 0x327 PUSH1 0x4 DUP1 CALLDATASIZE SUB DUP2 ADD SWAP1 PUSH2 0x322 SWAP2 SWAP1 PUSH2 0x2584 JUMP JUMPDEST PUSH2 0x1412 JUMP JUMPDEST STOP JUMPDEST PUSH1 0xA DUP4 GT ISZERO PUSH2 0x36D JUMPI PUSH1 0x40 MLOAD PUSH32 0x8C379A000000000000000000000000000000000000000000000000000000000 DUP2 MSTORE PUSH1 0x4 ADD PUSH2 0x364 SWAP1 PUSH2 0x25FD JUMP JUMPDEST PUSH1 0x40 MLOAD DUP1 SWAP2 SUB SWAP1 REVERT JUMPDEST POP POP POP POP JUMP JUMPDEST PUSH32 0x0 DUP2 JUMP JUMPDEST PUSH1 0x5 DUP2 DUP1 MLOAD PUSH1 0x20 DUP2 ADD DUP3 ADD DUP1 MLOAD DUP5 DUP3 MSTORE PUSH1 0x20 DUP4 ADD PUSH1 0x20 DUP6 ADD KECCAK256 DUP2 DUP4 MSTORE DUP1 SWAP6 POP POP POP POP POP POP PUSH1 0x0 SWAP2 POP SLOAD SWAP1 PUSH2 0x100 EXP SWAP1 DIV PUSH20 0xFFFFFFFFFFFFFFFFFFFFFFFFFFFFFFFFFFFFFFFF AND DUP2 JUMP JUMPDEST PUSH1 0x0 DUP6 DUP6 PUSH1 0x40 MLOAD PUSH2 0x3F2 SWAP3 SWAP2 SWAP1 PUSH2 0x264D JUMP JUMPDEST PUSH1 0x40 MLOAD DUP1 SWAP2 SUB SWAP1 KECCAK256 SWAP1 POP PUSH32 0x0 PUSH20 0xFFFFFFFFFFFFFFFFFFFFFFFFFFFFFFFFFFFFFFFF AND PUSH4 0x1876EED9 DUP13 DUP13 DUP13 DUP13 DUP13 DUP8 DUP12 DUP12 DUP12 PUSH1 0x40 MLOAD DUP11 PUSH4 0xFFFFFFFF AND PUSH1 0xE0 SHL DUP2 MSTORE PUSH1 0x4 ADD PUSH2 0x465 SWAP10 SWAP9 SWAP8 SWAP7 SWAP6 SWAP5 SWAP4 SWAP3 SWAP2 SWAP1 PUSH2 0x26A2 JUMP JUMPDEST PUSH1 0x20 PUSH1 0x40 MLOAD DUP1 DUP4 SUB DUP2 PUSH1 0x0 DUP8 GAS CALL ISZERO DUP1 ISZERO PUSH2 0x484 JUMPI RETURNDATASIZE PUSH1 0x0 DUP1 RETURNDATACOPY RETURNDATASIZE PUSH1 0x0 REVERT JUMPDEST POP POP POP POP PUSH1 0x40 MLOAD RETURNDATASIZE PUSH1 0x1F NOT PUSH1 0x1F DUP3 ADD AND DUP3 ADD DUP1 PUSH1 0x40 MSTORE POP DUP2 ADD SWAP1 PUSH2 0x4A8 SWAP2 SWAP1 PUSH2 0x274A JUMP JUMPDEST PUSH2 0x4DE JUMPI PUSH1 0x40 MLOAD PUSH32 0x500C44B400000000000000000000000000000000000000000000000000000000 DUP2 MSTORE PUSH1 0x4 ADD PUSH1 0x40 MLOAD DUP1 SWAP2 SUB SWAP1 REVERT JUMPDEST PUSH2 0x4EF DUP11 DUP11 DUP11 DUP11 DUP11 DUP11 DUP11 DUP11 DUP11 PUSH2 0x1495 JUMP JUMPDEST POP POP POP POP POP POP POP POP POP POP POP JUMP JUMPDEST PUSH1 0x1 DUP1 SLOAD PUSH2 0x509 SWAP1 PUSH2 0x27A6 JUMP JUMPDEST DUP1 PUSH1 0x1F ADD PUSH1 0x20 DUP1 SWAP2 DIV MUL PUSH1 0x20 ADD PUSH1 0x40 MLOAD SWAP1 DUP2 ADD PUSH1 0x40 MSTORE DUP1 SWAP3 SWAP2 SWAP1 DUP2 DUP2 MSTORE PUSH1 0x20 ADD DUP3 DUP1 SLOAD PUSH2 0x535 SWAP1 PUSH2 0x27A6 JUMP JUMPDEST DUP1 ISZERO PUSH2 0x582 JUMPI DUP1 PUSH1 0x1F LT PUSH2 0x557 JUMPI PUSH2 0x100 DUP1 DUP4 SLOAD DIV MUL DUP4 MSTORE SWAP2 PUSH1 0x20 ADD SWAP2 PUSH2 0x582 JUMP JUMPDEST DUP3 ADD SWAP2 SWAP1 PUSH1 0x0 MSTORE PUSH1 0x20 PUSH1 0x0 KECCAK256 SWAP1 JUMPDEST DUP2 SLOAD DUP2 MSTORE SWAP1 PUSH1 0x1 ADD SWAP1 PUSH1 0x20 ADD DUP1 DUP4 GT PUSH2 0x565 JUMPI DUP3 SWAP1 SUB PUSH1 0x1F AND DUP3 ADD SWAP2 JUMPDEST POP POP POP POP POP DUP2 JUMP JUMPDEST PUSH1 0x0 DUP3 DUP3 PUSH1 0x40 MLOAD PUSH2 0x59C SWAP3 SWAP2 SWAP1 PUSH2 0x264D JUMP JUMPDEST PUSH1 0x40 MLOAD DUP1 SWAP2 SUB SWAP1 KECCAK256 SWAP1 POP PUSH32 0x0 PUSH20 0xFFFFFFFFFFFFFFFFFFFFFFFFFFFFFFFFFFFFFFFF AND PUSH4 0x5F6970C3 DUP10 DUP10 DUP10 DUP10 DUP10 DUP8 PUSH1 0x40 MLOAD DUP8 PUSH4 0xFFFFFFFF AND PUSH1 0xE0 SHL DUP2 MSTORE PUSH1 0x4 ADD PUSH2 0x609 SWAP7 SWAP6 SWAP5 SWAP4 SWAP3 SWAP2 SWAP1 PUSH2 0x27D7 JUMP JUMPDEST PUSH1 0x20 PUSH1 0x40 MLOAD DUP1 DUP4 SUB DUP2 PUSH1 0x0 DUP8 GAS CALL ISZERO DUP1 ISZERO PUSH2 0x628 JUMPI RETURNDATASIZE PUSH1 0x0 DUP1 RETURNDATACOPY RETURNDATASIZE PUSH1 0x0 REVERT JUMPDEST POP POP POP POP PUSH1 0x40 MLOAD RETURNDATASIZE PUSH1 0x1F NOT PUSH1 0x1F DUP3 ADD AND DUP3 ADD DUP1 PUSH1 0x40 MSTORE POP DUP2 ADD SWAP1 PUSH2 0x64C SWAP2 SWAP1 PUSH2 0x274A JUMP JUMPDEST PUSH2 0x682 JUMPI PUSH1 0x40 MLOAD PUSH32 0x500C44B400000000000000000000000000000000000000000000000000000000 DUP2 MSTORE PUSH1 0x4 ADD PUSH1 0x40 MLOAD DUP1 SWAP2 SUB SWAP1 REVERT JUMPDEST PUSH2 0x690 DUP8 DUP8 DUP8 DUP8 DUP8 DUP8 PUSH2 0x15C4 JUMP JUMPDEST POP POP POP POP POP POP POP POP JUMP JUMPDEST PUSH32 0x0 DUP2 JUMP JUMPDEST PUSH2 0x6C6 PUSH2 0x15CC JUMP JUMPDEST PUSH2 0x6D0 PUSH1 0x0 PUSH2 0x164A JUMP JUMPDEST JUMP JUMPDEST PUSH1 0x4 PUSH1 0x20 MSTORE DUP2 PUSH1 0x0 MSTORE PUSH1 0x40 PUSH1 0x0 KECCAK256 DUP2 DUP2 SLOAD DUP2 LT PUSH2 0x6EE JUMPI PUSH1 0x0 DUP1 REVERT JUMPDEST SWAP1 PUSH1 0x0 MSTORE PUSH1 0x20 PUSH1 0x0 KECCAK256 SWAP1 PUSH1 0x2 MUL ADD PUSH1 0x0 SWAP2 POP SWAP2 POP POP DUP1 PUSH1 0x0 ADD DUP1 SLOAD PUSH2 0x712 SWAP1 PUSH2 0x27A6 JUMP JUMPDEST DUP1 PUSH1 0x1F ADD PUSH1 0x20 DUP1 SWAP2 DIV MUL PUSH1 0x20 ADD PUSH1 0x40 MLOAD SWAP1 DUP2 ADD PUSH1 0x40 MSTORE DUP1 SWAP3 SWAP2 SWAP1 DUP2 DUP2 MSTORE PUSH1 0x20 ADD DUP3 DUP1 SLOAD PUSH2 0x73E SWAP1 PUSH2 0x27A6 JUMP JUMPDEST DUP1 ISZERO PUSH2 0x78B JUMPI DUP1 PUSH1 0x1F LT PUSH2 0x760 JUMPI PUSH2 0x100 DUP1 DUP4 SLOAD DIV MUL DUP4 MSTORE SWAP2 PUSH1 0x20 ADD SWAP2 PUSH2 0x78B JUMP JUMPDEST DUP3 ADD SWAP2 SWAP1 PUSH1 0x0 MSTORE PUSH1 0x20 PUSH1 0x0 KECCAK256 SWAP1 JUMPDEST DUP2 SLOAD DUP2 MSTORE SWAP1 PUSH1 0x1 ADD SWAP1 PUSH1 0x20 ADD DUP1 DUP4 GT PUSH2 0x76E JUMPI DUP3 SWAP1 SUB PUSH1 0x1F AND DUP3 ADD SWAP2 JUMPDEST POP POP POP POP POP SWAP1 DUP1 PUSH1 0x1 ADD PUSH1 0x0 SWAP1 SLOAD SWAP1 PUSH2 0x100 EXP SWAP1 DIV PUSH20 0xFFFFFFFFFFFFFFFFFFFFFFFFFFFFFFFFFFFFFFFF AND SWAP1 POP DUP3 JUMP JUMPDEST PUSH1 0x0 DUP1 PUSH1 0x0 SWAP1 SLOAD SWAP1 PUSH2 0x100 EXP SWAP1 DIV PUSH20 0xFFFFFFFFFFFFFFFFFFFFFFFFFFFFFFFFFFFFFFFF AND SWAP1 POP SWAP1 JUMP JUMPDEST PUSH2 0x7EC PUSH2 0x15CC JUMP JUMPDEST DUP1 PUSH1 0x5 DUP5 DUP5 PUSH1 0x40 MLOAD PUSH2 0x7FF SWAP3 SWAP2 SWAP1 PUSH2 0x285E JUMP JUMPDEST SWAP1 DUP2 MSTORE PUSH1 0x20 ADD PUSH1 0x40 MLOAD DUP1 SWAP2 SUB SWAP1 KECCAK256 PUSH1 0x0 PUSH2 0x100 EXP DUP2 SLOAD DUP2 PUSH20 0xFFFFFFFFFFFFFFFFFFFFFFFFFFFFFFFFFFFFFFFF MUL NOT AND SWAP1 DUP4 PUSH20 0xFFFFFFFFFFFFFFFFFFFFFFFFFFFFFFFFFFFFFFFF AND MUL OR SWAP1 SSTORE POP POP POP POP JUMP JUMPDEST PUSH1 0x0 PUSH1 0x3 DUP6 DUP2 SLOAD DUP2 LT PUSH2 0x866 JUMPI PUSH2 0x865 PUSH2 0x2877 JUMP JUMPDEST JUMPDEST SWAP1 PUSH1 0x0 MSTORE PUSH1 0x20 PUSH1 0x0 KECCAK256 SWAP1 PUSH1 0x8 MUL ADD PUSH1 0x40 MLOAD DUP1 PUSH2 0x100 ADD PUSH1 0x40 MSTORE SWAP1 DUP2 PUSH1 0x0 DUP3 ADD PUSH1 0x0 SWAP1 SLOAD SWAP1 PUSH2 0x100 EXP SWAP1 DIV PUSH20 0xFFFFFFFFFFFFFFFFFFFFFFFFFFFFFFFFFFFFFFFF AND PUSH20 0xFFFFFFFFFFFFFFFFFFFFFFFFFFFFFFFFFFFFFFFF AND PUSH20 0xFFFFFFFFFFFFFFFFFFFFFFFFFFFFFFFFFFFFFFFF AND DUP2 MSTORE PUSH1 0x20 ADD PUSH1 0x1 DUP3 ADD PUSH1 0x0 SWAP1 SLOAD SWAP1 PUSH2 0x100 EXP SWAP1 DIV PUSH20 0xFFFFFFFFFFFFFFFFFFFFFFFFFFFFFFFFFFFFFFFF AND PUSH20 0xFFFFFFFFFFFFFFFFFFFFFFFFFFFFFFFFFFFFFFFF AND PUSH20 0xFFFFFFFFFFFFFFFFFFFFFFFFFFFFFFFFFFFFFFFF AND DUP2 MSTORE PUSH1 0x20 ADD PUSH1 0x2 DUP3 ADD SLOAD DUP2 MSTORE PUSH1 0x20 ADD PUSH1 0x3 DUP3 ADD SLOAD DUP2 MSTORE PUSH1 0x20 ADD PUSH1 0x4 DUP3 ADD SLOAD DUP2 MSTORE PUSH1 0x20 ADD PUSH1 0x5 DUP3 ADD SLOAD DUP2 MSTORE PUSH1 0x20 ADD PUSH1 0x6 DUP3 ADD SLOAD DUP2 MSTORE PUSH1 0x20 ADD PUSH1 0x7 DUP3 ADD PUSH1 0x0 SWAP1 SLOAD SWAP1 PUSH2 0x100 EXP SWAP1 DIV PUSH1 0xFF AND ISZERO ISZERO ISZERO ISZERO DUP2 MSTORE POP POP SWAP1 POP DUP1 PUSH1 0x40 ADD MLOAD DUP2 PUSH1 0xC0 ADD MLOAD DUP3 PUSH1 0x80 ADD MLOAD PUSH2 0x994 SWAP2 SWAP1 PUSH2 0x28D5 JUMP JUMPDEST LT PUSH2 0x9D4 JUMPI PUSH1 0x40 MLOAD PUSH32 0x8C379A000000000000000000000000000000000000000000000000000000000 DUP2 MSTORE PUSH1 0x4 ADD PUSH2 0x9CB SWAP1 PUSH2 0x297B JUMP JUMPDEST PUSH1 0x40 MLOAD DUP1 SWAP2 SUB SWAP1 REVERT JUMPDEST PUSH1 0x0 PUSH1 0x40 MLOAD DUP1 PUSH1 0x40 ADD PUSH1 0x40 MSTORE DUP1 DUP7 DUP7 DUP1 DUP1 PUSH1 0x1F ADD PUSH1 0x20 DUP1 SWAP2 DIV MUL PUSH1 0x20 ADD PUSH1 0x40 MLOAD SWAP1 DUP2 ADD PUSH1 0x40 MSTORE DUP1 SWAP4 SWAP3 SWAP2 SWAP1 DUP2 DUP2 MSTORE PUSH1 0x20 ADD DUP4 DUP4 DUP1 DUP3 DUP5 CALLDATACOPY PUSH1 0x0 DUP2 DUP5 ADD MSTORE PUSH1 0x1F NOT PUSH1 0x1F DUP3 ADD AND SWAP1 POP DUP1 DUP4 ADD SWAP3 POP POP POP POP POP POP POP DUP2 MSTORE PUSH1 0x20 ADD DUP5 PUSH20 0xFFFFFFFFFFFFFFFFFFFFFFFFFFFFFFFFFFFFFFFF AND DUP2 MSTORE POP SWAP1 POP PUSH1 0x4 PUSH1 0x0 DUP8 DUP2 MSTORE PUSH1 0x20 ADD SWAP1 DUP2 MSTORE PUSH1 0x20 ADD PUSH1 0x0 KECCAK256 DUP2 SWAP1 DUP1 PUSH1 0x1 DUP2 SLOAD ADD DUP1 DUP3 SSTORE DUP1 SWAP2 POP POP PUSH1 0x1 SWAP1 SUB SWAP1 PUSH1 0x0 MSTORE PUSH1 0x20 PUSH1 0x0 KECCAK256 SWAP1 PUSH1 0x2 MUL ADD PUSH1 0x0 SWAP1 SWAP2 SWAP1 SWAP2 SWAP1 SWAP2 POP PUSH1 0x0 DUP3 ADD MLOAD DUP2 PUSH1 0x0 ADD SWAP1 DUP2 PUSH2 0xA99 SWAP2 SWAP1 PUSH2 0x2B3D JUMP JUMPDEST POP PUSH1 0x20 DUP3 ADD MLOAD DUP2 PUSH1 0x1 ADD PUSH1 0x0 PUSH2 0x100 EXP DUP2 SLOAD DUP2 PUSH20 0xFFFFFFFFFFFFFFFFFFFFFFFFFFFFFFFFFFFFFFFF MUL NOT AND SWAP1 DUP4 PUSH20 0xFFFFFFFFFFFFFFFFFFFFFFFFFFFFFFFFFFFFFFFF AND MUL OR SWAP1 SSTORE POP POP POP DUP2 PUSH1 0x80 ADD MLOAD DUP3 PUSH1 0xC0 ADD DUP2 DUP2 MLOAD PUSH2 0xAF9 SWAP2 SWAP1 PUSH2 0x28D5 JUMP JUMPDEST SWAP2 POP DUP2 DUP2 MSTORE POP POP DUP5 DUP5 PUSH1 0x40 MLOAD PUSH2 0xB10 SWAP3 SWAP2 SWAP1 PUSH2 0x285E JUMP JUMPDEST PUSH1 0x40 MLOAD DUP1 SWAP2 SUB SWAP1 KECCAK256 DUP7 PUSH32 0x736F217C62D7F771E891926226A8792FE30888530849C3DBAABAE6C9F0D535C DUP6 PUSH1 0x40 MLOAD PUSH2 0xB48 SWAP2 SWAP1 PUSH2 0x1FAE JUMP JUMPDEST PUSH1 0x40 MLOAD DUP1 SWAP2 SUB SWAP1 LOG3 POP POP POP POP POP POP JUMP JUMPDEST PUSH1 0x2 PUSH1 0x0 SWAP1 SLOAD SWAP1 PUSH2 0x100 EXP SWAP1 DIV PUSH20 0xFFFFFFFFFFFFFFFFFFFFFFFFFFFFFFFFFFFFFFFF AND DUP2 JUMP JUMPDEST PUSH1 0x0 PUSH1 0x3 DUP3 DUP2 SLOAD DUP2 LT PUSH2 0xB94 JUMPI PUSH2 0xB93 PUSH2 0x2877 JUMP JUMPDEST JUMPDEST SWAP1 PUSH1 0x0 MSTORE PUSH1 0x20 PUSH1 0x0 KECCAK256 SWAP1 PUSH1 0x8 MUL ADD PUSH1 0x40 MLOAD DUP1 PUSH2 0x100 ADD PUSH1 0x40 MSTORE SWAP1 DUP2 PUSH1 0x0 DUP3 ADD PUSH1 0x0 SWAP1 SLOAD SWAP1 PUSH2 0x100 EXP SWAP1 DIV PUSH20 0xFFFFFFFFFFFFFFFFFFFFFFFFFFFFFFFFFFFFFFFF AND PUSH20 0xFFFFFFFFFFFFFFFFFFFFFFFFFFFFFFFFFFFFFFFF AND PUSH20 0xFFFFFFFFFFFFFFFFFFFFFFFFFFFFFFFFFFFFFFFF AND DUP2 MSTORE PUSH1 0x20 ADD PUSH1 0x1 DUP3 ADD PUSH1 0x0 SWAP1 SLOAD SWAP1 PUSH2 0x100 EXP SWAP1 DIV PUSH20 0xFFFFFFFFFFFFFFFFFFFFFFFFFFFFFFFFFFFFFFFF AND PUSH20 0xFFFFFFFFFFFFFFFFFFFFFFFFFFFFFFFFFFFFFFFF AND PUSH20 0xFFFFFFFFFFFFFFFFFFFFFFFFFFFFFFFFFFFFFFFF AND DUP2 MSTORE PUSH1 0x20 ADD PUSH1 0x2 DUP3 ADD SLOAD DUP2 MSTORE PUSH1 0x20 ADD PUSH1 0x3 DUP3 ADD SLOAD DUP2 MSTORE PUSH1 0x20 ADD PUSH1 0x4 DUP3 ADD SLOAD DUP2 MSTORE PUSH1 0x20 ADD PUSH1 0x5 DUP3 ADD SLOAD DUP2 MSTORE PUSH1 0x20 ADD PUSH1 0x6 DUP3 ADD SLOAD DUP2 MSTORE PUSH1 0x20 ADD PUSH1 0x7 DUP3 ADD PUSH1 0x0 SWAP1 SLOAD SWAP1 PUSH2 0x100 EXP SWAP1 DIV PUSH1 0xFF AND ISZERO ISZERO ISZERO ISZERO DUP2 MSTORE POP POP SWAP1 POP DUP1 PUSH1 0xE0 ADD MLOAD PUSH2 0xCED JUMPI PUSH1 0x40 MLOAD PUSH32 0x8C379A000000000000000000000000000000000000000000000000000000000 DUP2 MSTORE PUSH1 0x4 ADD PUSH2 0xCE4 SWAP1 PUSH2 0x2C5B JUMP JUMPDEST PUSH1 0x40 MLOAD DUP1 SWAP2 SUB SWAP1 REVERT JUMPDEST PUSH1 0x0 DUP2 PUSH1 0x20 ADD MLOAD SWAP1 POP PUSH1 0x0 DUP2 PUSH20 0xFFFFFFFFFFFFFFFFFFFFFFFFFFFFFFFFFFFFFFFF AND PUSH4 0x261E5636 PUSH1 0x40 MLOAD DUP2 PUSH4 0xFFFFFFFF AND PUSH1 0xE0 SHL DUP2 MSTORE PUSH1 0x4 ADD PUSH1 0x40 DUP1 MLOAD DUP1 DUP4 SUB DUP2 DUP7 GAS STATICCALL ISZERO DUP1 ISZERO PUSH2 0xD42 JUMPI RETURNDATASIZE PUSH1 0x0 DUP1 RETURNDATACOPY RETURNDATASIZE PUSH1 0x0 REVERT JUMPDEST POP POP POP POP PUSH1 0x40 MLOAD RETURNDATASIZE PUSH1 0x1F NOT PUSH1 0x1F DUP3 ADD AND DUP3 ADD DUP1 PUSH1 0x40 MSTORE POP DUP2 ADD SWAP1 PUSH2 0xD66 SWAP2 SWAP1 PUSH2 0x2D2C JUMP JUMPDEST SWAP1 POP DUP1 PUSH1 0x0 PUSH1 0x2 DUP2 LT PUSH2 0xD7C JUMPI PUSH2 0xD7B PUSH2 0x2877 JUMP JUMPDEST JUMPDEST PUSH1 0x20 MUL ADD MLOAD DUP1 ISZERO PUSH2 0xDA2 JUMPI POP DUP1 PUSH1 0x1 PUSH1 0x2 DUP2 LT PUSH2 0xD9C JUMPI PUSH2 0xD9B PUSH2 0x2877 JUMP JUMPDEST JUMPDEST PUSH1 0x20 MUL ADD MLOAD JUMPDEST ISZERO PUSH2 0x11B1 JUMPI PUSH1 0x0 PUSH1 0x4 PUSH1 0x0 DUP7 DUP2 MSTORE PUSH1 0x20 ADD SWAP1 DUP2 MSTORE PUSH1 0x20 ADD PUSH1 0x0 KECCAK256 DUP1 SLOAD SWAP1 POP SWAP1 POP PUSH1 0x0 JUMPDEST DUP2 DUP2 LT ISZERO PUSH2 0x1045 JUMPI PUSH1 0x0 PUSH1 0x4 PUSH1 0x0 DUP9 DUP2 MSTORE PUSH1 0x20 ADD SWAP1 DUP2 MSTORE PUSH1 0x20 ADD PUSH1 0x0 KECCAK256 DUP3 DUP2 SLOAD DUP2 LT PUSH2 0xDF4 JUMPI PUSH2 0xDF3 PUSH2 0x2877 JUMP JUMPDEST JUMPDEST SWAP1 PUSH1 0x0 MSTORE PUSH1 0x20 PUSH1 0x0 KECCAK256 SWAP1 PUSH1 0x2 MUL ADD PUSH1 0x40 MLOAD DUP1 PUSH1 0x40 ADD PUSH1 0x40 MSTORE SWAP1 DUP2 PUSH1 0x0 DUP3 ADD DUP1 SLOAD PUSH2 0xE1D SWAP1 PUSH2 0x27A6 JUMP JUMPDEST DUP1 PUSH1 0x1F ADD PUSH1 0x20 DUP1 SWAP2 DIV MUL PUSH1 0x20 ADD PUSH1 0x40 MLOAD SWAP1 DUP2 ADD PUSH1 0x40 MSTORE DUP1 SWAP3 SWAP2 SWAP1 DUP2 DUP2 MSTORE PUSH1 0x20 ADD DUP3 DUP1 SLOAD PUSH2 0xE49 SWAP1 PUSH2 0x27A6 JUMP JUMPDEST DUP1 ISZERO PUSH2 0xE96 JUMPI DUP1 PUSH1 0x1F LT PUSH2 0xE6B JUMPI PUSH2 0x100 DUP1 DUP4 SLOAD DIV MUL DUP4 MSTORE SWAP2 PUSH1 0x20 ADD SWAP2 PUSH2 0xE96 JUMP JUMPDEST DUP3 ADD SWAP2 SWAP1 PUSH1 0x0 MSTORE PUSH1 0x20 PUSH1 0x0 KECCAK256 SWAP1 JUMPDEST DUP2 SLOAD DUP2 MSTORE SWAP1 PUSH1 0x1 ADD SWAP1 PUSH1 0x20 ADD DUP1 DUP4 GT PUSH2 0xE79 JUMPI DUP3 SWAP1 SUB PUSH1 0x1F AND DUP3 ADD SWAP2 JUMPDEST POP POP POP POP POP DUP2 MSTORE PUSH1 0x20 ADD PUSH1 0x1 DUP3 ADD PUSH1 0x0 SWAP1 SLOAD SWAP1 PUSH2 0x100 EXP SWAP1 DIV PUSH20 0xFFFFFFFFFFFFFFFFFFFFFFFFFFFFFFFFFFFFFFFF AND PUSH20 0xFFFFFFFFFFFFFFFFFFFFFFFFFFFFFFFFFFFFFFFF AND PUSH20 0xFFFFFFFFFFFFFFFFFFFFFFFFFFFFFFFFFFFFFFFF AND DUP2 MSTORE POP POP SWAP1 POP PUSH32 0x0 PUSH20 0xFFFFFFFFFFFFFFFFFFFFFFFFFFFFFFFFFFFFFFFF AND PUSH4 0x26EF699D DUP3 PUSH1 0x0 ADD MLOAD PUSH2 0xF45 DUP5 PUSH1 0x20 ADD MLOAD PUSH2 0x170E JUMP JUMPDEST PUSH1 0x2 PUSH1 0x0 SWAP1 SLOAD SWAP1 PUSH2 0x100 EXP SWAP1 DIV PUSH20 0xFFFFFFFFFFFFFFFFFFFFFFFFFFFFFFFFFFFFFFFF AND PUSH20 0xFFFFFFFFFFFFFFFFFFFFFFFFFFFFFFFFFFFFFFFF AND PUSH4 0x95D89B41 PUSH1 0x40 MLOAD DUP2 PUSH4 0xFFFFFFFF AND PUSH1 0xE0 SHL DUP2 MSTORE PUSH1 0x4 ADD PUSH1 0x0 PUSH1 0x40 MLOAD DUP1 DUP4 SUB DUP2 DUP7 GAS STATICCALL ISZERO DUP1 ISZERO PUSH2 0xFB2 JUMPI RETURNDATASIZE PUSH1 0x0 DUP1 RETURNDATACOPY RETURNDATASIZE PUSH1 0x0 REVERT JUMPDEST POP POP POP POP PUSH1 0x40 MLOAD RETURNDATASIZE PUSH1 0x0 DUP3 RETURNDATACOPY RETURNDATASIZE PUSH1 0x1F NOT PUSH1 0x1F DUP3 ADD AND DUP3 ADD DUP1 PUSH1 0x40 MSTORE POP DUP2 ADD SWAP1 PUSH2 0xFDB SWAP2 SWAP1 PUSH2 0x2DC9 JUMP JUMPDEST DUP11 PUSH1 0x60 ADD MLOAD PUSH1 0x40 MLOAD DUP6 PUSH4 0xFFFFFFFF AND PUSH1 0xE0 SHL DUP2 MSTORE PUSH1 0x4 ADD PUSH2 0xFFF SWAP5 SWAP4 SWAP3 SWAP2 SWAP1 PUSH2 0x2E12 JUMP JUMPDEST PUSH1 0x0 PUSH1 0x40 MLOAD DUP1 DUP4 SUB DUP2 PUSH1 0x0 DUP8 DUP1 EXTCODESIZE ISZERO DUP1 ISZERO PUSH2 0x1019 JUMPI PUSH1 0x0 DUP1 REVERT JUMPDEST POP GAS CALL ISZERO DUP1 ISZERO PUSH2 0x102D JUMPI RETURNDATASIZE PUSH1 0x0 DUP1 RETURNDATACOPY RETURNDATASIZE PUSH1 0x0 REVERT JUMPDEST POP POP POP POP POP DUP1 DUP1 PUSH2 0x103D SWAP1 PUSH2 0x2E6C JUMP JUMPDEST SWAP2 POP POP PUSH2 0xDC5 JUMP JUMPDEST POP PUSH1 0x0 DUP5 PUSH1 0x60 ADD MLOAD DUP3 PUSH2 0x1058 SWAP2 SWAP1 PUSH2 0x2EB4 JUMP JUMPDEST DUP6 PUSH1 0x40 ADD MLOAD PUSH2 0x1067 SWAP2 SWAP1 PUSH2 0x2EF6 JUMP JUMPDEST SWAP1 POP PUSH32 0x0 PUSH20 0xFFFFFFFFFFFFFFFFFFFFFFFFFFFFFFFFFFFFFFFF AND PUSH4 0x26EF699D PUSH2 0x10B2 DUP8 PUSH1 0x0 ADD MLOAD PUSH2 0x170E JUMP JUMPDEST PUSH1 0x2 PUSH1 0x0 SWAP1 SLOAD SWAP1 PUSH2 0x100 EXP SWAP1 DIV PUSH20 0xFFFFFFFFFFFFFFFFFFFFFFFFFFFFFFFFFFFFFFFF AND PUSH20 0xFFFFFFFFFFFFFFFFFFFFFFFFFFFFFFFFFFFFFFFF AND PUSH4 0x95D89B41 PUSH1 0x40 MLOAD DUP2 PUSH4 0xFFFFFFFF AND PUSH1 0xE0 SHL DUP2 MSTORE PUSH1 0x4 ADD PUSH1 0x0 PUSH1 0x40 MLOAD DUP1 DUP4 SUB DUP2 DUP7 GAS STATICCALL ISZERO DUP1 ISZERO PUSH2 0x111F JUMPI RETURNDATASIZE PUSH1 0x0 DUP1 RETURNDATACOPY RETURNDATASIZE PUSH1 0x0 REVERT JUMPDEST POP POP POP POP PUSH1 0x40 MLOAD RETURNDATASIZE PUSH1 0x0 DUP3 RETURNDATACOPY RETURNDATASIZE PUSH1 0x1F NOT PUSH1 0x1F DUP3 ADD AND DUP3 ADD DUP1 PUSH1 0x40 MSTORE POP DUP2 ADD SWAP1 PUSH2 0x1148 SWAP2 SWAP1 PUSH2 0x2DC9 JUMP JUMPDEST DUP5 PUSH1 0x40 MLOAD DUP5 PUSH4 0xFFFFFFFF AND PUSH1 0xE0 SHL DUP2 MSTORE PUSH1 0x4 ADD PUSH2 0x1167 SWAP4 SWAP3 SWAP2 SWAP1 PUSH2 0x2F76 JUMP JUMPDEST PUSH1 0x0 PUSH1 0x40 MLOAD DUP1 DUP4 SUB DUP2 PUSH1 0x0 DUP8 DUP1 EXTCODESIZE ISZERO DUP1 ISZERO PUSH2 0x1181 JUMPI PUSH1 0x0 DUP1 REVERT JUMPDEST POP GAS CALL ISZERO DUP1 ISZERO PUSH2 0x1195 JUMPI RETURNDATASIZE PUSH1 0x0 DUP1 RETURNDATACOPY RETURNDATASIZE PUSH1 0x0 REVERT JUMPDEST POP POP POP POP PUSH1 0x0 DUP6 PUSH1 0xE0 ADD SWAP1 ISZERO ISZERO SWAP1 DUP2 ISZERO ISZERO DUP2 MSTORE POP POP POP POP PUSH2 0x133D JUMP JUMPDEST DUP1 PUSH1 0x0 PUSH1 0x2 DUP2 LT PUSH2 0x11C5 JUMPI PUSH2 0x11C4 PUSH2 0x2877 JUMP JUMPDEST JUMPDEST PUSH1 0x20 MUL ADD MLOAD DUP1 ISZERO PUSH2 0x11EC JUMPI POP DUP1 PUSH1 0x1 PUSH1 0x2 DUP2 LT PUSH2 0x11E5 JUMPI PUSH2 0x11E4 PUSH2 0x2877 JUMP JUMPDEST JUMPDEST PUSH1 0x20 MUL ADD MLOAD ISZERO JUMPDEST ISZERO PUSH2 0x133B JUMPI PUSH32 0x0 PUSH20 0xFFFFFFFFFFFFFFFFFFFFFFFFFFFFFFFFFFFFFFFF AND PUSH4 0x26EF699D PUSH2 0x123A DUP6 PUSH1 0x0 ADD MLOAD PUSH2 0x170E JUMP JUMPDEST PUSH1 0x2 PUSH1 0x0 SWAP1 SLOAD SWAP1 PUSH2 0x100 EXP SWAP1 DIV PUSH20 0xFFFFFFFFFFFFFFFFFFFFFFFFFFFFFFFFFFFFFFFF AND PUSH20 0xFFFFFFFFFFFFFFFFFFFFFFFFFFFFFFFFFFFFFFFF AND PUSH4 0x95D89B41 PUSH1 0x40 MLOAD DUP2 PUSH4 0xFFFFFFFF AND PUSH1 0xE0 SHL DUP2 MSTORE PUSH1 0x4 ADD PUSH1 0x0 PUSH1 0x40 MLOAD DUP1 DUP4 SUB DUP2 DUP7 GAS STATICCALL ISZERO DUP1 ISZERO PUSH2 0x12A7 JUMPI RETURNDATASIZE PUSH1 0x0 DUP1 RETURNDATACOPY RETURNDATASIZE PUSH1 0x0 REVERT JUMPDEST POP POP POP POP PUSH1 0x40 MLOAD RETURNDATASIZE PUSH1 0x0 DUP3 RETURNDATACOPY RETURNDATASIZE PUSH1 0x1F NOT PUSH1 0x1F DUP3 ADD AND DUP3 ADD DUP1 PUSH1 0x40 MSTORE POP DUP2 ADD SWAP1 PUSH2 0x12D0 SWAP2 SWAP1 PUSH2 0x2DC9 JUMP JUMPDEST DUP7 PUSH1 0x40 ADD MLOAD PUSH1 0x40 MLOAD DUP5 PUSH4 0xFFFFFFFF AND PUSH1 0xE0 SHL DUP2 MSTORE PUSH1 0x4 ADD PUSH2 0x12F3 SWAP4 SWAP3 SWAP2 SWAP1 PUSH2 0x2F76 JUMP JUMPDEST PUSH1 0x0 PUSH1 0x40 MLOAD DUP1 DUP4 SUB DUP2 PUSH1 0x0 DUP8 DUP1 EXTCODESIZE ISZERO DUP1 ISZERO PUSH2 0x130D JUMPI PUSH1 0x0 DUP1 REVERT JUMPDEST POP GAS CALL ISZERO DUP1 ISZERO PUSH2 0x1321 JUMPI RETURNDATASIZE PUSH1 0x0 DUP1 RETURNDATACOPY RETURNDATASIZE PUSH1 0x0 REVERT JUMPDEST POP POP POP POP PUSH1 0x0 DUP4 PUSH1 0xE0 ADD SWAP1 ISZERO ISZERO SWAP1 DUP2 ISZERO ISZERO DUP2 MSTORE POP POP PUSH2 0x133C JUMP JUMPDEST JUMPDEST JUMPDEST POP POP POP POP JUMP JUMPDEST PUSH1 0x0 PUSH1 0x2 PUSH1 0x0 SWAP1 SLOAD SWAP1 PUSH2 0x100 EXP SWAP1 DIV PUSH20 0xFFFFFFFFFFFFFFFFFFFFFFFFFFFFFFFFFFFFFFFF AND SWAP1 POP SWAP1 JUMP JUMPDEST PUSH1 0x3 DUP2 DUP2 SLOAD DUP2 LT PUSH2 0x137D JUMPI PUSH1 0x0 DUP1 REVERT JUMPDEST SWAP1 PUSH1 0x0 MSTORE PUSH1 0x20 PUSH1 0x0 KECCAK256 SWAP1 PUSH1 0x8 MUL ADD PUSH1 0x0 SWAP2 POP SWAP1 POP DUP1 PUSH1 0x0 ADD PUSH1 0x0 SWAP1 SLOAD SWAP1 PUSH2 0x100 EXP SWAP1 DIV PUSH20 0xFFFFFFFFFFFFFFFFFFFFFFFFFFFFFFFFFFFFFFFF AND SWAP1 DUP1 PUSH1 0x1 ADD PUSH1 0x0 SWAP1 SLOAD SWAP1 PUSH2 0x100 EXP SWAP1 DIV PUSH20 0xFFFFFFFFFFFFFFFFFFFFFFFFFFFFFFFFFFFFFFFF AND SWAP1 DUP1 PUSH1 0x2 ADD SLOAD SWAP1 DUP1 PUSH1 0x3 ADD SLOAD SWAP1 DUP1 PUSH1 0x4 ADD SLOAD SWAP1 DUP1 PUSH1 0x5 ADD SLOAD SWAP1 DUP1 PUSH1 0x6 ADD SLOAD SWAP1 DUP1 PUSH1 0x7 ADD PUSH1 0x0 SWAP1 SLOAD SWAP1 PUSH2 0x100 EXP SWAP1 DIV PUSH1 0xFF AND SWAP1 POP DUP9 JUMP JUMPDEST PUSH2 0x141A PUSH2 0x15CC JUMP JUMPDEST PUSH1 0x0 PUSH20 0xFFFFFFFFFFFFFFFFFFFFFFFFFFFFFFFFFFFFFFFF AND DUP2 PUSH20 0xFFFFFFFFFFFFFFFFFFFFFFFFFFFFFFFFFFFFFFFF AND SUB PUSH2 0x1489 JUMPI PUSH1 0x40 MLOAD PUSH32 0x8C379A000000000000000000000000000000000000000000000000000000000 DUP2 MSTORE PUSH1 0x4 ADD PUSH2 0x1480 SWAP1 PUSH2 0x3040 JUMP JUMPDEST PUSH1 0x40 MLOAD DUP1 SWAP2 SUB SWAP1 REVERT JUMPDEST PUSH2 0x1492 DUP2 PUSH2 0x164A JUMP JUMPDEST POP JUMP JUMPDEST PUSH1 0x0 DUP1 DUP7 DUP7 DUP2 ADD SWAP1 PUSH2 0x14A7 SWAP2 SWAP1 PUSH2 0x309E JUMP JUMPDEST SWAP2 POP SWAP2 POP PUSH1 0x0 PUSH2 0x14FA DUP11 DUP11 DUP1 DUP1 PUSH1 0x1F ADD PUSH1 0x20 DUP1 SWAP2 DIV MUL PUSH1 0x20 ADD PUSH1 0x40 MLOAD SWAP1 DUP2 ADD PUSH1 0x40 MSTORE DUP1 SWAP4 SWAP3 SWAP2 SWAP1 DUP2 DUP2 MSTORE PUSH1 0x20 ADD DUP4 DUP4 DUP1 DUP3 DUP5 CALLDATACOPY PUSH1 0x0 DUP2 DUP5 ADD MSTORE PUSH1 0x1F NOT PUSH1 0x1F DUP3 ADD AND SWAP1 POP DUP1 DUP4 ADD SWAP3 POP POP POP POP POP POP POP PUSH2 0x1A31 JUMP JUMPDEST SWAP1 POP DUP1 PUSH20 0xFFFFFFFFFFFFFFFFFFFFFFFFFFFFFFFFFFFFFFFF AND PUSH1 0x5 DUP14 DUP14 PUSH1 0x40 MLOAD PUSH2 0x1525 SWAP3 SWAP2 SWAP1 PUSH2 0x285E JUMP JUMPDEST SWAP1 DUP2 MSTORE PUSH1 0x20 ADD PUSH1 0x40 MLOAD DUP1 SWAP2 SUB SWAP1 KECCAK256 PUSH1 0x0 SWAP1 SLOAD SWAP1 PUSH2 0x100 EXP SWAP1 DIV PUSH20 0xFFFFFFFFFFFFFFFFFFFFFFFFFFFFFFFFFFFFFFFF AND PUSH20 0xFFFFFFFFFFFFFFFFFFFFFFFFFFFFFFFFFFFFFFFF AND EQ PUSH2 0x15AA JUMPI PUSH1 0x40 MLOAD PUSH32 0x8C379A000000000000000000000000000000000000000000000000000000000 DUP2 MSTORE PUSH1 0x4 ADD PUSH2 0x15A1 SWAP1 PUSH2 0x3150 JUMP JUMPDEST PUSH1 0x40 MLOAD DUP1 SWAP2 SUB SWAP1 REVERT JUMPDEST PUSH2 0x15B6 DUP4 DUP14 DUP14 DUP6 PUSH2 0x850 JUMP JUMPDEST POP POP POP POP POP POP POP POP POP POP POP POP JUMP JUMPDEST POP POP POP POP POP POP JUMP JUMPDEST PUSH2 0x15D4 PUSH2 0x1C7F JUMP JUMPDEST PUSH20 0xFFFFFFFFFFFFFFFFFFFFFFFFFFFFFFFFFFFFFFFF AND PUSH2 0x15F2 PUSH2 0x7BB JUMP JUMPDEST PUSH20 0xFFFFFFFFFFFFFFFFFFFFFFFFFFFFFFFFFFFFFFFF AND EQ PUSH2 0x1648 JUMPI PUSH1 0x40 MLOAD PUSH32 0x8C379A000000000000000000000000000000000000000000000000000000000 DUP2 MSTORE PUSH1 0x4 ADD PUSH2 0x163F SWAP1 PUSH2 0x31BC JUMP JUMPDEST PUSH1 0x40 MLOAD DUP1 SWAP2 SUB SWAP1 REVERT JUMPDEST JUMP JUMPDEST PUSH1 0x0 DUP1 PUSH1 0x0 SWAP1 SLOAD SWAP1 PUSH2 0x100 EXP SWAP1 DIV PUSH20 0xFFFFFFFFFFFFFFFFFFFFFFFFFFFFFFFFFFFFFFFF AND SWAP1 POP DUP2 PUSH1 0x0 DUP1 PUSH2 0x100 EXP DUP2 SLOAD DUP2 PUSH20 0xFFFFFFFFFFFFFFFFFFFFFFFFFFFFFFFFFFFFFFFF MUL NOT AND SWAP1 DUP4 PUSH20 0xFFFFFFFFFFFFFFFFFFFFFFFFFFFFFFFFFFFFFFFF AND MUL OR SWAP1 SSTORE POP DUP2 PUSH20 0xFFFFFFFFFFFFFFFFFFFFFFFFFFFFFFFFFFFFFFFF AND DUP2 PUSH20 0xFFFFFFFFFFFFFFFFFFFFFFFFFFFFFFFFFFFFFFFF AND PUSH32 0x8BE0079C531659141344CD1FD0A4F28419497F9722A3DAAFE3B4186F6B6457E0 PUSH1 0x40 MLOAD PUSH1 0x40 MLOAD DUP1 SWAP2 SUB SWAP1 LOG3 POP POP JUMP JUMPDEST PUSH1 0x60 PUSH1 0x0 DUP3 PUSH1 0x40 MLOAD PUSH1 0x20 ADD PUSH2 0x1723 SWAP2 SWAP1 PUSH2 0x3224 JUMP JUMPDEST PUSH1 0x40 MLOAD PUSH1 0x20 DUP2 DUP4 SUB SUB DUP2 MSTORE SWAP1 PUSH1 0x40 MSTORE SWAP1 POP PUSH1 0x0 DUP2 MLOAD SWAP1 POP PUSH1 0x0 PUSH1 0x40 MLOAD DUP1 PUSH1 0x40 ADD PUSH1 0x40 MSTORE DUP1 PUSH1 0x10 DUP2 MSTORE PUSH1 0x20 ADD PUSH32 0x3031323334353637383961626364656600000000000000000000000000000000 DUP2 MSTORE POP SWAP1 POP PUSH1 0x0 PUSH1 0x2 DUP5 MLOAD PUSH2 0x1784 SWAP2 SWAP1 PUSH2 0x2EB4 JUMP JUMPDEST PUSH1 0x2 PUSH2 0x1790 SWAP2 SWAP1 PUSH2 0x28D5 JUMP JUMPDEST PUSH8 0xFFFFFFFFFFFFFFFF DUP2 GT ISZERO PUSH2 0x17A9 JUMPI PUSH2 0x17A8 PUSH2 0x1E2B JUMP JUMPDEST JUMPDEST PUSH1 0x40 MLOAD SWAP1 DUP1 DUP3 MSTORE DUP1 PUSH1 0x1F ADD PUSH1 0x1F NOT AND PUSH1 0x20 ADD DUP3 ADD PUSH1 0x40 MSTORE DUP1 ISZERO PUSH2 0x17DB JUMPI DUP2 PUSH1 0x20 ADD PUSH1 0x1 DUP3 MUL DUP1 CALLDATASIZE DUP4 CALLDATACOPY DUP1 DUP3 ADD SWAP2 POP POP SWAP1 POP JUMPDEST POP SWAP1 POP PUSH32 0x3000000000000000000000000000000000000000000000000000000000000000 DUP2 PUSH1 0x0 DUP2 MLOAD DUP2 LT PUSH2 0x1813 JUMPI PUSH2 0x1812 PUSH2 0x2877 JUMP JUMPDEST JUMPDEST PUSH1 0x20 ADD ADD SWAP1 PUSH31 0xFFFFFFFFFFFFFFFFFFFFFFFFFFFFFFFFFFFFFFFFFFFFFFFFFFFFFFFFFFFFFF NOT AND SWAP1 DUP2 PUSH1 0x0 BYTE SWAP1 MSTORE8 POP PUSH32 0x7800000000000000000000000000000000000000000000000000000000000000 DUP2 PUSH1 0x1 DUP2 MLOAD DUP2 LT PUSH2 0x1877 JUMPI PUSH2 0x1876 PUSH2 0x2877 JUMP JUMPDEST JUMPDEST PUSH1 0x20 ADD ADD SWAP1 PUSH31 0xFFFFFFFFFFFFFFFFFFFFFFFFFFFFFFFFFFFFFFFFFFFFFFFFFFFFFFFFFFFFFF NOT AND SWAP1 DUP2 PUSH1 0x0 BYTE SWAP1 MSTORE8 POP PUSH1 0x0 JUMPDEST DUP4 DUP2 LT ISZERO PUSH2 0x1A24 JUMPI DUP3 PUSH1 0x4 DUP7 DUP4 DUP2 MLOAD DUP2 LT PUSH2 0x18C7 JUMPI PUSH2 0x18C6 PUSH2 0x2877 JUMP JUMPDEST JUMPDEST PUSH1 0x20 ADD ADD MLOAD PUSH1 0xF8 SHR PUSH1 0xF8 SHL PUSH31 0xFFFFFFFFFFFFFFFFFFFFFFFFFFFFFFFFFFFFFFFFFFFFFFFFFFFFFFFFFFFFFF NOT AND SWAP1 SHR PUSH1 0xF8 SHR PUSH1 0xFF AND DUP2 MLOAD DUP2 LT PUSH2 0x190D JUMPI PUSH2 0x190C PUSH2 0x2877 JUMP JUMPDEST JUMPDEST PUSH1 0x20 ADD ADD MLOAD PUSH1 0xF8 SHR PUSH1 0xF8 SHL DUP3 PUSH1 0x2 DUP4 PUSH2 0x1926 SWAP2 SWAP1 PUSH2 0x2EB4 JUMP JUMPDEST PUSH1 0x2 PUSH2 0x1932 SWAP2 SWAP1 PUSH2 0x28D5 JUMP JUMPDEST DUP2 MLOAD DUP2 LT PUSH2 0x1943 JUMPI PUSH2 0x1942 PUSH2 0x2877 JUMP JUMPDEST JUMPDEST PUSH1 0x20 ADD ADD SWAP1 PUSH31 0xFFFFFFFFFFFFFFFFFFFFFFFFFFFFFFFFFFFFFFFFFFFFFFFFFFFFFFFFFFFFFF NOT AND SWAP1 DUP2 PUSH1 0x0 BYTE SWAP1 MSTORE8 POP DUP3 PUSH1 0xF PUSH1 0xF8 SHL DUP7 DUP4 DUP2 MLOAD DUP2 LT PUSH2 0x198B JUMPI PUSH2 0x198A PUSH2 0x2877 JUMP JUMPDEST JUMPDEST PUSH1 0x20 ADD ADD MLOAD PUSH1 0xF8 SHR PUSH1 0xF8 SHL AND PUSH1 0xF8 SHR PUSH1 0xFF AND DUP2 MLOAD DUP2 LT PUSH2 0x19AE JUMPI PUSH2 0x19AD PUSH2 0x2877 JUMP JUMPDEST JUMPDEST PUSH1 0x20 ADD ADD MLOAD PUSH1 0xF8 SHR PUSH1 0xF8 SHL DUP3 PUSH1 0x2 DUP4 PUSH2 0x19C7 SWAP2 SWAP1 PUSH2 0x2EB4 JUMP JUMPDEST PUSH1 0x3 PUSH2 0x19D3 SWAP2 SWAP1 PUSH2 0x28D5 JUMP JUMPDEST DUP2 MLOAD DUP2 LT PUSH2 0x19E4 JUMPI PUSH2 0x19E3 PUSH2 0x2877 JUMP JUMPDEST JUMPDEST PUSH1 0x20 ADD ADD SWAP1 PUSH31 0xFFFFFFFFFFFFFFFFFFFFFFFFFFFFFFFFFFFFFFFFFFFFFFFFFFFFFFFFFFFFFF NOT AND SWAP1 DUP2 PUSH1 0x0 BYTE SWAP1 MSTORE8 POP DUP1 PUSH2 0x1A1D SWAP1 PUSH2 0x2E6C JUMP JUMPDEST SWAP1 POP PUSH2 0x18A9 JUMP JUMPDEST POP DUP1 SWAP5 POP POP POP POP POP SWAP2 SWAP1 POP JUMP JUMPDEST PUSH1 0x0 DUP1 DUP3 SWAP1 POP PUSH1 0x0 DUP1 PUSH1 0x2A DUP4 MLOAD EQ ISZERO DUP1 PUSH2 0x1AAB JUMPI POP PUSH32 0x3000000000000000000000000000000000000000000000000000000000000000 DUP4 PUSH1 0x0 DUP2 MLOAD DUP2 LT PUSH2 0x1A7B JUMPI PUSH2 0x1A7A PUSH2 0x2877 JUMP JUMPDEST JUMPDEST PUSH1 0x20 ADD ADD MLOAD PUSH1 0xF8 SHR PUSH1 0xF8 SHL PUSH31 0xFFFFFFFFFFFFFFFFFFFFFFFFFFFFFFFFFFFFFFFFFFFFFFFFFFFFFFFFFFFFFF NOT AND EQ ISZERO JUMPDEST DUP1 PUSH2 0x1B16 JUMPI POP PUSH32 0x7800000000000000000000000000000000000000000000000000000000000000 DUP4 PUSH1 0x1 DUP2 MLOAD DUP2 LT PUSH2 0x1AE6 JUMPI PUSH2 0x1AE5 PUSH2 0x2877 JUMP JUMPDEST JUMPDEST PUSH1 0x20 ADD ADD MLOAD PUSH1 0xF8 SHR PUSH1 0xF8 SHL PUSH31 0xFFFFFFFFFFFFFFFFFFFFFFFFFFFFFFFFFFFFFFFFFFFFFFFFFFFFFFFFFFFFFF NOT AND EQ ISZERO JUMPDEST ISZERO PUSH2 0x1B4D JUMPI PUSH1 0x40 MLOAD PUSH32 0xDF48F19E00000000000000000000000000000000000000000000000000000000 DUP2 MSTORE PUSH1 0x4 ADD PUSH1 0x40 MLOAD DUP1 SWAP2 SUB SWAP1 REVERT JUMPDEST PUSH1 0x0 PUSH1 0x2 SWAP1 POP JUMPDEST PUSH1 0x2A DUP2 LT ISZERO PUSH2 0x1C73 JUMPI DUP4 DUP2 DUP2 MLOAD DUP2 LT PUSH2 0x1B70 JUMPI PUSH2 0x1B6F PUSH2 0x2877 JUMP JUMPDEST JUMPDEST PUSH1 0x20 ADD ADD MLOAD PUSH1 0xF8 SHR PUSH1 0xF8 SHL PUSH1 0xF8 SHR SWAP2 POP PUSH1 0x61 DUP3 PUSH1 0xFF AND LT ISZERO DUP1 ISZERO PUSH2 0x1B98 JUMPI POP PUSH1 0x66 DUP3 PUSH1 0xFF AND GT ISZERO JUMPDEST ISZERO PUSH2 0x1BB1 JUMPI PUSH1 0x57 DUP3 PUSH2 0x1BAA SWAP2 SWAP1 PUSH2 0x324C JUMP JUMPDEST SWAP2 POP PUSH2 0x1C47 JUMP JUMPDEST PUSH1 0x41 DUP3 PUSH1 0xFF AND LT ISZERO DUP1 ISZERO PUSH2 0x1BC9 JUMPI POP PUSH1 0x46 DUP3 PUSH1 0xFF AND GT ISZERO JUMPDEST ISZERO PUSH2 0x1BE2 JUMPI PUSH1 0x37 DUP3 PUSH2 0x1BDB SWAP2 SWAP1 PUSH2 0x324C JUMP JUMPDEST SWAP2 POP PUSH2 0x1C46 JUMP JUMPDEST PUSH1 0x30 DUP3 PUSH1 0xFF AND LT ISZERO DUP1 ISZERO PUSH2 0x1BFA JUMPI POP PUSH1 0x39 DUP3 PUSH1 0xFF AND GT ISZERO JUMPDEST ISZERO PUSH2 0x1C13 JUMPI PUSH1 0x30 DUP3 PUSH2 0x1C0C SWAP2 SWAP1 PUSH2 0x324C JUMP JUMPDEST SWAP2 POP PUSH2 0x1C45 JUMP JUMPDEST PUSH1 0x40 MLOAD PUSH32 0xDF48F19E00000000000000000000000000000000000000000000000000000000 DUP2 MSTORE PUSH1 0x4 ADD PUSH1 0x40 MLOAD DUP1 SWAP2 SUB SWAP1 REVERT JUMPDEST JUMPDEST JUMPDEST PUSH1 0x2 DUP2 PUSH1 0x29 PUSH2 0x1C56 SWAP2 SWAP1 PUSH2 0x2EF6 JUMP JUMPDEST SWAP1 SHL DUP3 PUSH1 0xFF AND SWAP1 SHL DUP4 OR SWAP3 POP DUP1 PUSH2 0x1C6C SWAP1 PUSH2 0x2E6C JUMP JUMPDEST SWAP1 POP PUSH2 0x1B54 JUMP JUMPDEST POP DUP2 SWAP4 POP POP POP POP SWAP2 SWAP1 POP JUMP JUMPDEST PUSH1 0x0 CALLER SWAP1 POP SWAP1 JUMP JUMPDEST PUSH1 0x0 PUSH1 0x40 MLOAD SWAP1 POP SWAP1 JUMP JUMPDEST PUSH1 0x0 DUP1 REVERT JUMPDEST PUSH1 0x0 DUP1 REVERT JUMPDEST PUSH1 0x0 PUSH20 0xFFFFFFFFFFFFFFFFFFFFFFFFFFFFFFFFFFFFFFFF DUP3 AND SWAP1 POP SWAP2 SWAP1 POP JUMP JUMPDEST PUSH1 0x0 PUSH2 0x1CC6 DUP3 PUSH2 0x1C9B JUMP JUMPDEST SWAP1 POP SWAP2 SWAP1 POP JUMP JUMPDEST PUSH2 0x1CD6 DUP2 PUSH2 0x1CBB JUMP JUMPDEST DUP2 EQ PUSH2 0x1CE1 JUMPI PUSH1 0x0 DUP1 REVERT JUMPDEST POP JUMP JUMPDEST PUSH1 0x0 DUP2 CALLDATALOAD SWAP1 POP PUSH2 0x1CF3 DUP2 PUSH2 0x1CCD JUMP JUMPDEST SWAP3 SWAP2 POP POP JUMP JUMPDEST PUSH1 0x0 DUP2 SWAP1 POP SWAP2 SWAP1 POP JUMP JUMPDEST PUSH2 0x1D0C DUP2 PUSH2 0x1CF9 JUMP JUMPDEST DUP2 EQ PUSH2 0x1D17 JUMPI PUSH1 0x0 DUP1 REVERT JUMPDEST POP JUMP JUMPDEST PUSH1 0x0 DUP2 CALLDATALOAD SWAP1 POP PUSH2 0x1D29 DUP2 PUSH2 0x1D03 JUMP JUMPDEST SWAP3 SWAP2 POP POP JUMP JUMPDEST PUSH1 0x0 DUP1 PUSH1 0x0 DUP1 PUSH1 0x80 DUP6 DUP8 SUB SLT ISZERO PUSH2 0x1D49 JUMPI PUSH2 0x1D48 PUSH2 0x1C91 JUMP JUMPDEST JUMPDEST PUSH1 0x0 PUSH2 0x1D57 DUP8 DUP3 DUP9 ADD PUSH2 0x1CE4 JUMP JUMPDEST SWAP5 POP POP PUSH1 0x20 PUSH2 0x1D68 DUP8 DUP3 DUP9 ADD PUSH2 0x1D1A JUMP JUMPDEST SWAP4 POP POP PUSH1 0x40 PUSH2 0x1D79 DUP8 DUP3 DUP9 ADD PUSH2 0x1D1A JUMP JUMPDEST SWAP3 POP POP PUSH1 0x60 PUSH2 0x1D8A DUP8 DUP3 DUP9 ADD PUSH2 0x1D1A JUMP JUMPDEST SWAP2 POP POP SWAP3 SWAP6 SWAP2 SWAP5 POP SWAP3 POP JUMP JUMPDEST PUSH1 0x0 DUP2 SWAP1 POP SWAP2 SWAP1 POP JUMP JUMPDEST PUSH1 0x0 PUSH2 0x1DBB PUSH2 0x1DB6 PUSH2 0x1DB1 DUP5 PUSH2 0x1C9B JUMP JUMPDEST PUSH2 0x1D96 JUMP JUMPDEST PUSH2 0x1C9B JUMP JUMPDEST SWAP1 POP SWAP2 SWAP1 POP JUMP JUMPDEST PUSH1 0x0 PUSH2 0x1DCD DUP3 PUSH2 0x1DA0 JUMP JUMPDEST SWAP1 POP SWAP2 SWAP1 POP JUMP JUMPDEST PUSH1 0x0 PUSH2 0x1DDF DUP3 PUSH2 0x1DC2 JUMP JUMPDEST SWAP1 POP SWAP2 SWAP1 POP JUMP JUMPDEST PUSH2 0x1DEF DUP2 PUSH2 0x1DD4 JUMP JUMPDEST DUP3 MSTORE POP POP JUMP JUMPDEST PUSH1 0x0 PUSH1 0x20 DUP3 ADD SWAP1 POP PUSH2 0x1E0A PUSH1 0x0 DUP4 ADD DUP5 PUSH2 0x1DE6 JUMP JUMPDEST SWAP3 SWAP2 POP POP JUMP JUMPDEST PUSH1 0x0 DUP1 REVERT JUMPDEST PUSH1 0x0 DUP1 REVERT JUMPDEST PUSH1 0x0 PUSH1 0x1F NOT PUSH1 0x1F DUP4 ADD AND SWAP1 POP SWAP2 SWAP1 POP JUMP JUMPDEST PUSH32 0x4E487B7100000000000000000000000000000000000000000000000000000000 PUSH1 0x0 MSTORE PUSH1 0x41 PUSH1 0x4 MSTORE PUSH1 0x24 PUSH1 0x0 REVERT JUMPDEST PUSH2 0x1E63 DUP3 PUSH2 0x1E1A JUMP JUMPDEST DUP2 ADD DUP2 DUP2 LT PUSH8 0xFFFFFFFFFFFFFFFF DUP3 GT OR ISZERO PUSH2 0x1E82 JUMPI PUSH2 0x1E81 PUSH2 0x1E2B JUMP JUMPDEST JUMPDEST DUP1 PUSH1 0x40 MSTORE POP POP POP JUMP JUMPDEST PUSH1 0x0 PUSH2 0x1E95 PUSH2 0x1C87 JUMP JUMPDEST SWAP1 POP PUSH2 0x1EA1 DUP3 DUP3 PUSH2 0x1E5A JUMP JUMPDEST SWAP2 SWAP1 POP JUMP JUMPDEST PUSH1 0x0 PUSH8 0xFFFFFFFFFFFFFFFF DUP3 GT ISZERO PUSH2 0x1EC1 JUMPI PUSH2 0x1EC0 PUSH2 0x1E2B JUMP JUMPDEST JUMPDEST PUSH2 0x1ECA DUP3 PUSH2 0x1E1A JUMP JUMPDEST SWAP1 POP PUSH1 0x20 DUP2 ADD SWAP1 POP SWAP2 SWAP1 POP JUMP JUMPDEST DUP3 DUP2 DUP4 CALLDATACOPY PUSH1 0x0 DUP4 DUP4 ADD MSTORE POP POP POP JUMP JUMPDEST PUSH1 0x0 PUSH2 0x1EF9 PUSH2 0x1EF4 DUP5 PUSH2 0x1EA6 JUMP JUMPDEST PUSH2 0x1E8B JUMP JUMPDEST SWAP1 POP DUP3 DUP2 MSTORE PUSH1 0x20 DUP2 ADD DUP5 DUP5 DUP5 ADD GT ISZERO PUSH2 0x1F15 JUMPI PUSH2 0x1F14 PUSH2 0x1E15 JUMP JUMPDEST JUMPDEST PUSH2 0x1F20 DUP5 DUP3 DUP6 PUSH2 0x1ED7 JUMP JUMPDEST POP SWAP4 SWAP3 POP POP POP JUMP JUMPDEST PUSH1 0x0 DUP3 PUSH1 0x1F DUP4 ADD SLT PUSH2 0x1F3D JUMPI PUSH2 0x1F3C PUSH2 0x1E10 JUMP JUMPDEST JUMPDEST DUP2 CALLDATALOAD PUSH2 0x1F4D DUP5 DUP3 PUSH1 0x20 DUP7 ADD PUSH2 0x1EE6 JUMP JUMPDEST SWAP2 POP POP SWAP3 SWAP2 POP POP JUMP JUMPDEST PUSH1 0x0 PUSH1 0x20 DUP3 DUP5 SUB SLT ISZERO PUSH2 0x1F6C JUMPI PUSH2 0x1F6B PUSH2 0x1C91 JUMP JUMPDEST JUMPDEST PUSH1 0x0 DUP3 ADD CALLDATALOAD PUSH8 0xFFFFFFFFFFFFFFFF DUP2 GT ISZERO PUSH2 0x1F8A JUMPI PUSH2 0x1F89 PUSH2 0x1C96 JUMP JUMPDEST JUMPDEST PUSH2 0x1F96 DUP5 DUP3 DUP6 ADD PUSH2 0x1F28 JUMP JUMPDEST SWAP2 POP POP SWAP3 SWAP2 POP POP JUMP JUMPDEST PUSH2 0x1FA8 DUP2 PUSH2 0x1CBB JUMP JUMPDEST DUP3 MSTORE POP POP JUMP JUMPDEST PUSH1 0x0 PUSH1 0x20 DUP3 ADD SWAP1 POP PUSH2 0x1FC3 PUSH1 0x0 DUP4 ADD DUP5 PUSH2 0x1F9F JUMP JUMPDEST SWAP3 SWAP2 POP POP JUMP JUMPDEST PUSH1 0x0 DUP2 SWAP1 POP SWAP2 SWAP1 POP JUMP JUMPDEST PUSH2 0x1FDC DUP2 PUSH2 0x1FC9 JUMP JUMPDEST DUP2 EQ PUSH2 0x1FE7 JUMPI PUSH1 0x0 DUP1 REVERT JUMPDEST POP JUMP JUMPDEST PUSH1 0x0 DUP2 CALLDATALOAD SWAP1 POP PUSH2 0x1FF9 DUP2 PUSH2 0x1FD3 JUMP JUMPDEST SWAP3 SWAP2 POP POP JUMP JUMPDEST PUSH1 0x0 DUP1 REVERT JUMPDEST PUSH1 0x0 DUP1 REVERT JUMPDEST PUSH1 0x0 DUP1 DUP4 PUSH1 0x1F DUP5 ADD SLT PUSH2 0x201F JUMPI PUSH2 0x201E PUSH2 0x1E10 JUMP JUMPDEST JUMPDEST DUP3 CALLDATALOAD SWAP1 POP PUSH8 0xFFFFFFFFFFFFFFFF DUP2 GT ISZERO PUSH2 0x203C JUMPI PUSH2 0x203B PUSH2 0x1FFF JUMP JUMPDEST JUMPDEST PUSH1 0x20 DUP4 ADD SWAP2 POP DUP4 PUSH1 0x1 DUP3 MUL DUP4 ADD GT ISZERO PUSH2 0x2058 JUMPI PUSH2 0x2057 PUSH2 0x2004 JUMP JUMPDEST JUMPDEST SWAP3 POP SWAP3 SWAP1 POP JUMP JUMPDEST PUSH1 0x0 DUP1 DUP4 PUSH1 0x1F DUP5 ADD SLT PUSH2 0x2075 JUMPI PUSH2 0x2074 PUSH2 0x1E10 JUMP JUMPDEST JUMPDEST DUP3 CALLDATALOAD SWAP1 POP PUSH8 0xFFFFFFFFFFFFFFFF DUP2 GT ISZERO PUSH2 0x2092 JUMPI PUSH2 0x2091 PUSH2 0x1FFF JUMP JUMPDEST JUMPDEST PUSH1 0x20 DUP4 ADD SWAP2 POP DUP4 PUSH1 0x1 DUP3 MUL DUP4 ADD GT ISZERO PUSH2 0x20AE JUMPI PUSH2 0x20AD PUSH2 0x2004 JUMP JUMPDEST JUMPDEST SWAP3 POP SWAP3 SWAP1 POP JUMP JUMPDEST PUSH1 0x0 DUP1 PUSH1 0x0 DUP1 PUSH1 0x0 DUP1 PUSH1 0x0 DUP1 PUSH1 0x0 DUP1 PUSH1 0xC0 DUP12 DUP14 SUB SLT ISZERO PUSH2 0x20D8 JUMPI PUSH2 0x20D7 PUSH2 0x1C91 JUMP JUMPDEST JUMPDEST PUSH1 0x0 PUSH2 0x20E6 DUP14 DUP3 DUP15 ADD PUSH2 0x1FEA JUMP JUMPDEST SWAP11 POP POP PUSH1 0x20 DUP12 ADD CALLDATALOAD PUSH8 0xFFFFFFFFFFFFFFFF DUP2 GT ISZERO PUSH2 0x2107 JUMPI PUSH2 0x2106 PUSH2 0x1C96 JUMP JUMPDEST JUMPDEST PUSH2 0x2113 DUP14 DUP3 DUP15 ADD PUSH2 0x2009 JUMP JUMPDEST SWAP10 POP SWAP10 POP POP PUSH1 0x40 DUP12 ADD CALLDATALOAD PUSH8 0xFFFFFFFFFFFFFFFF DUP2 GT ISZERO PUSH2 0x2136 JUMPI PUSH2 0x2135 PUSH2 0x1C96 JUMP JUMPDEST JUMPDEST PUSH2 0x2142 DUP14 DUP3 DUP15 ADD PUSH2 0x2009 JUMP JUMPDEST SWAP8 POP SWAP8 POP POP PUSH1 0x60 DUP12 ADD CALLDATALOAD PUSH8 0xFFFFFFFFFFFFFFFF DUP2 GT ISZERO PUSH2 0x2165 JUMPI PUSH2 0x2164 PUSH2 0x1C96 JUMP JUMPDEST JUMPDEST PUSH2 0x2171 DUP14 DUP3 DUP15 ADD PUSH2 0x205F JUMP JUMPDEST SWAP6 POP SWAP6 POP POP PUSH1 0x80 DUP12 ADD CALLDATALOAD PUSH8 0xFFFFFFFFFFFFFFFF DUP2 GT ISZERO PUSH2 0x2194 JUMPI PUSH2 0x2193 PUSH2 0x1C96 JUMP JUMPDEST JUMPDEST PUSH2 0x21A0 DUP14 DUP3 DUP15 ADD PUSH2 0x2009 JUMP JUMPDEST SWAP4 POP SWAP4 POP POP PUSH1 0xA0 PUSH2 0x21B3 DUP14 DUP3 DUP15 ADD PUSH2 0x1D1A JUMP JUMPDEST SWAP2 POP POP SWAP3 SWAP6 SWAP9 SWAP12 SWAP2 SWAP5 SWAP8 SWAP11 POP SWAP3 SWAP6 SWAP9 POP JUMP JUMPDEST PUSH1 0x0 DUP2 MLOAD SWAP1 POP SWAP2 SWAP1 POP JUMP JUMPDEST PUSH1 0x0 DUP3 DUP3 MSTORE PUSH1 0x20 DUP3 ADD SWAP1 POP SWAP3 SWAP2 POP POP JUMP JUMPDEST PUSH1 0x0 JUMPDEST DUP4 DUP2 LT ISZERO PUSH2 0x21FF JUMPI DUP1 DUP3 ADD MLOAD DUP2 DUP5 ADD MSTORE PUSH1 0x20 DUP2 ADD SWAP1 POP PUSH2 0x21E4 JUMP JUMPDEST PUSH1 0x0 DUP5 DUP5 ADD MSTORE POP POP POP POP JUMP JUMPDEST PUSH1 0x0 PUSH2 0x2216 DUP3 PUSH2 0x21C5 JUMP JUMPDEST PUSH2 0x2220 DUP2 DUP6 PUSH2 0x21D0 JUMP JUMPDEST SWAP4 POP PUSH2 0x2230 DUP2 DUP6 PUSH1 0x20 DUP7 ADD PUSH2 0x21E1 JUMP JUMPDEST PUSH2 0x2239 DUP2 PUSH2 0x1E1A JUMP JUMPDEST DUP5 ADD SWAP2 POP POP SWAP3 SWAP2 POP POP JUMP JUMPDEST PUSH1 0x0 PUSH1 0x20 DUP3 ADD SWAP1 POP DUP2 DUP2 SUB PUSH1 0x0 DUP4 ADD MSTORE PUSH2 0x225E DUP2 DUP5 PUSH2 0x220B JUMP JUMPDEST SWAP1 POP SWAP3 SWAP2 POP POP JUMP JUMPDEST PUSH1 0x0 DUP1 PUSH1 0x0 DUP1 PUSH1 0x0 DUP1 PUSH1 0x0 PUSH1 0x80 DUP9 DUP11 SUB SLT ISZERO PUSH2 0x2285 JUMPI PUSH2 0x2284 PUSH2 0x1C91 JUMP JUMPDEST JUMPDEST PUSH1 0x0 PUSH2 0x2293 DUP11 DUP3 DUP12 ADD PUSH2 0x1FEA JUMP JUMPDEST SWAP8 POP POP PUSH1 0x20 DUP9 ADD CALLDATALOAD PUSH8 0xFFFFFFFFFFFFFFFF DUP2 GT ISZERO PUSH2 0x22B4 JUMPI PUSH2 0x22B3 PUSH2 0x1C96 JUMP JUMPDEST JUMPDEST PUSH2 0x22C0 DUP11 DUP3 DUP12 ADD PUSH2 0x2009 JUMP JUMPDEST SWAP7 POP SWAP7 POP POP PUSH1 0x40 DUP9 ADD CALLDATALOAD PUSH8 0xFFFFFFFFFFFFFFFF DUP2 GT ISZERO PUSH2 0x22E3 JUMPI PUSH2 0x22E2 PUSH2 0x1C96 JUMP JUMPDEST JUMPDEST PUSH2 0x22EF DUP11 DUP3 DUP12 ADD PUSH2 0x2009 JUMP JUMPDEST SWAP5 POP SWAP5 POP POP PUSH1 0x60 DUP9 ADD CALLDATALOAD PUSH8 0xFFFFFFFFFFFFFFFF DUP2 GT ISZERO PUSH2 0x2312 JUMPI PUSH2 0x2311 PUSH2 0x1C96 JUMP JUMPDEST JUMPDEST PUSH2 0x231E DUP11 DUP3 DUP12 ADD PUSH2 0x205F JUMP JUMPDEST SWAP3 POP SWAP3 POP POP SWAP3 SWAP6 SWAP9 SWAP2 SWAP5 SWAP8 POP SWAP3 SWAP6 POP JUMP JUMPDEST PUSH1 0x0 PUSH2 0x233A DUP3 PUSH2 0x1DC2 JUMP JUMPDEST SWAP1 POP SWAP2 SWAP1 POP JUMP JUMPDEST PUSH2 0x234A DUP2 PUSH2 0x232F JUMP JUMPDEST DUP3 MSTORE POP POP JUMP JUMPDEST PUSH1 0x0 PUSH1 0x20 DUP3 ADD SWAP1 POP PUSH2 0x2365 PUSH1 0x0 DUP4 ADD DUP5 PUSH2 0x2341 JUMP JUMPDEST SWAP3 SWAP2 POP POP JUMP JUMPDEST PUSH1 0x0 DUP1 PUSH1 0x40 DUP4 DUP6 SUB SLT ISZERO PUSH2 0x2382 JUMPI PUSH2 0x2381 PUSH2 0x1C91 JUMP JUMPDEST JUMPDEST PUSH1 0x0 PUSH2 0x2390 DUP6 DUP3 DUP7 ADD PUSH2 0x1D1A JUMP JUMPDEST SWAP3 POP POP PUSH1 0x20 PUSH2 0x23A1 DUP6 DUP3 DUP7 ADD PUSH2 0x1D1A JUMP JUMPDEST SWAP2 POP POP SWAP3 POP SWAP3 SWAP1 POP JUMP JUMPDEST PUSH1 0x0 PUSH1 0x40 DUP3 ADD SWAP1 POP DUP2 DUP2 SUB PUSH1 0x0 DUP4 ADD MSTORE PUSH2 0x23C5 DUP2 DUP6 PUSH2 0x220B JUMP JUMPDEST SWAP1 POP PUSH2 0x23D4 PUSH1 0x20 DUP4 ADD DUP5 PUSH2 0x1F9F JUMP JUMPDEST SWAP4 SWAP3 POP POP POP JUMP JUMPDEST PUSH1 0x0 DUP1 PUSH1 0x0 PUSH1 0x40 DUP5 DUP7 SUB SLT ISZERO PUSH2 0x23F4 JUMPI PUSH2 0x23F3 PUSH2 0x1C91 JUMP JUMPDEST JUMPDEST PUSH1 0x0 DUP5 ADD CALLDATALOAD PUSH8 0xFFFFFFFFFFFFFFFF DUP2 GT ISZERO PUSH2 0x2412 JUMPI PUSH2 0x2411 PUSH2 0x1C96 JUMP JUMPDEST JUMPDEST PUSH2 0x241E DUP7 DUP3 DUP8 ADD PUSH2 0x2009 JUMP JUMPDEST SWAP4 POP SWAP4 POP POP PUSH1 0x20 PUSH2 0x2431 DUP7 DUP3 DUP8 ADD PUSH2 0x1CE4 JUMP JUMPDEST SWAP2 POP POP SWAP3 POP SWAP3 POP SWAP3 JUMP JUMPDEST PUSH1 0x0 DUP1 PUSH1 0x0 DUP1 PUSH1 0x60 DUP6 DUP8 SUB SLT ISZERO PUSH2 0x2455 JUMPI PUSH2 0x2454 PUSH2 0x1C91 JUMP JUMPDEST JUMPDEST PUSH1 0x0 PUSH2 0x2463 DUP8 DUP3 DUP9 ADD PUSH2 0x1D1A JUMP JUMPDEST SWAP5 POP POP PUSH1 0x20 DUP6 ADD CALLDATALOAD PUSH8 0xFFFFFFFFFFFFFFFF DUP2 GT ISZERO PUSH2 0x2484 JUMPI PUSH2 0x2483 PUSH2 0x1C96 JUMP JUMPDEST JUMPDEST PUSH2 0x2490 DUP8 DUP3 DUP9 ADD PUSH2 0x2009 JUMP JUMPDEST SWAP4 POP SWAP4 POP POP PUSH1 0x40 PUSH2 0x24A3 DUP8 DUP3 DUP9 ADD PUSH2 0x1CE4 JUMP JUMPDEST SWAP2 POP POP SWAP3 SWAP6 SWAP2 SWAP5 POP SWAP3 POP JUMP JUMPDEST PUSH1 0x0 PUSH1 0x20 DUP3 DUP5 SUB SLT ISZERO PUSH2 0x24C5 JUMPI PUSH2 0x24C4 PUSH2 0x1C91 JUMP JUMPDEST JUMPDEST PUSH1 0x0 PUSH2 0x24D3 DUP5 DUP3 DUP6 ADD PUSH2 0x1D1A JUMP JUMPDEST SWAP2 POP POP SWAP3 SWAP2 POP POP JUMP JUMPDEST PUSH2 0x24E5 DUP2 PUSH2 0x1CF9 JUMP JUMPDEST DUP3 MSTORE POP POP JUMP JUMPDEST PUSH1 0x0 DUP2 ISZERO ISZERO SWAP1 POP SWAP2 SWAP1 POP JUMP JUMPDEST PUSH2 0x2500 DUP2 PUSH2 0x24EB JUMP JUMPDEST DUP3 MSTORE POP POP JUMP JUMPDEST PUSH1 0x0 PUSH2 0x100 DUP3 ADD SWAP1 POP PUSH2 0x251C PUSH1 0x0 DUP4 ADD DUP12 PUSH2 0x1F9F JUMP JUMPDEST PUSH2 0x2529 PUSH1 0x20 DUP4 ADD DUP11 PUSH2 0x1F9F JUMP JUMPDEST PUSH2 0x2536 PUSH1 0x40 DUP4 ADD DUP10 PUSH2 0x24DC JUMP JUMPDEST PUSH2 0x2543 PUSH1 0x60 DUP4 ADD DUP9 PUSH2 0x24DC JUMP JUMPDEST PUSH2 0x2550 PUSH1 0x80 DUP4 ADD DUP8 PUSH2 0x24DC JUMP JUMPDEST PUSH2 0x255D PUSH1 0xA0 DUP4 ADD DUP7 PUSH2 0x24DC JUMP JUMPDEST PUSH2 0x256A PUSH1 0xC0 DUP4 ADD DUP6 PUSH2 0x24DC JUMP JUMPDEST PUSH2 0x2577 PUSH1 0xE0 DUP4 ADD DUP5 PUSH2 0x24F7 JUMP JUMPDEST SWAP10 SWAP9 POP POP POP POP POP POP POP POP POP JUMP JUMPDEST PUSH1 0x0 PUSH1 0x20 DUP3 DUP5 SUB SLT ISZERO PUSH2 0x259A JUMPI PUSH2 0x2599 PUSH2 0x1C91 JUMP JUMPDEST JUMPDEST PUSH1 0x0 PUSH2 0x25A8 DUP5 DUP3 DUP6 ADD PUSH2 0x1CE4 JUMP JUMPDEST SWAP2 POP POP SWAP3 SWAP2 POP POP JUMP JUMPDEST PUSH32 0x46756E64696E6720616D6F756E7420697320746F6F2068696768000000000000 PUSH1 0x0 DUP3 ADD MSTORE POP JUMP JUMPDEST PUSH1 0x0 PUSH2 0x25E7 PUSH1 0x1A DUP4 PUSH2 0x21D0 JUMP JUMPDEST SWAP2 POP PUSH2 0x25F2 DUP3 PUSH2 0x25B1 JUMP JUMPDEST PUSH1 0x20 DUP3 ADD SWAP1 POP SWAP2 SWAP1 POP JUMP JUMPDEST PUSH1 0x0 PUSH1 0x20 DUP3 ADD SWAP1 POP DUP2 DUP2 SUB PUSH1 0x0 DUP4 ADD MSTORE PUSH2 0x2616 DUP2 PUSH2 0x25DA JUMP JUMPDEST SWAP1 POP SWAP2 SWAP1 POP JUMP JUMPDEST PUSH1 0x0 DUP2 SWAP1 POP SWAP3 SWAP2 POP POP JUMP JUMPDEST PUSH1 0x0 PUSH2 0x2634 DUP4 DUP6 PUSH2 0x261D JUMP JUMPDEST SWAP4 POP PUSH2 0x2641 DUP4 DUP6 DUP5 PUSH2 0x1ED7 JUMP JUMPDEST DUP3 DUP5 ADD SWAP1 POP SWAP4 SWAP3 POP POP POP JUMP JUMPDEST PUSH1 0x0 PUSH2 0x265A DUP3 DUP5 DUP7 PUSH2 0x2628 JUMP JUMPDEST SWAP2 POP DUP2 SWAP1 POP SWAP4 SWAP3 POP POP POP JUMP JUMPDEST PUSH2 0x266F DUP2 PUSH2 0x1FC9 JUMP JUMPDEST DUP3 MSTORE POP POP JUMP JUMPDEST PUSH1 0x0 PUSH2 0x2681 DUP4 DUP6 PUSH2 0x21D0 JUMP JUMPDEST SWAP4 POP PUSH2 0x268E DUP4 DUP6 DUP5 PUSH2 0x1ED7 JUMP JUMPDEST PUSH2 0x2697 DUP4 PUSH2 0x1E1A JUMP JUMPDEST DUP5 ADD SWAP1 POP SWAP4 SWAP3 POP POP POP JUMP JUMPDEST PUSH1 0x0 PUSH1 0xC0 DUP3 ADD SWAP1 POP PUSH2 0x26B7 PUSH1 0x0 DUP4 ADD DUP13 PUSH2 0x2666 JUMP JUMPDEST DUP2 DUP2 SUB PUSH1 0x20 DUP4 ADD MSTORE PUSH2 0x26CA DUP2 DUP11 DUP13 PUSH2 0x2675 JUMP JUMPDEST SWAP1 POP DUP2 DUP2 SUB PUSH1 0x40 DUP4 ADD MSTORE PUSH2 0x26DF DUP2 DUP9 DUP11 PUSH2 0x2675 JUMP JUMPDEST SWAP1 POP PUSH2 0x26EE PUSH1 0x60 DUP4 ADD DUP8 PUSH2 0x2666 JUMP JUMPDEST DUP2 DUP2 SUB PUSH1 0x80 DUP4 ADD MSTORE PUSH2 0x2701 DUP2 DUP6 DUP8 PUSH2 0x2675 JUMP JUMPDEST SWAP1 POP PUSH2 0x2710 PUSH1 0xA0 DUP4 ADD DUP5 PUSH2 0x24DC JUMP JUMPDEST SWAP11 SWAP10 POP POP POP POP POP POP POP POP POP POP JUMP JUMPDEST PUSH2 0x2727 DUP2 PUSH2 0x24EB JUMP JUMPDEST DUP2 EQ PUSH2 0x2732 JUMPI PUSH1 0x0 DUP1 REVERT JUMPDEST POP JUMP JUMPDEST PUSH1 0x0 DUP2 MLOAD SWAP1 POP PUSH2 0x2744 DUP2 PUSH2 0x271E JUMP JUMPDEST SWAP3 SWAP2 POP POP JUMP JUMPDEST PUSH1 0x0 PUSH1 0x20 DUP3 DUP5 SUB SLT ISZERO PUSH2 0x2760 JUMPI PUSH2 0x275F PUSH2 0x1C91 JUMP JUMPDEST JUMPDEST PUSH1 0x0 PUSH2 0x276E DUP5 DUP3 DUP6 ADD PUSH2 0x2735 JUMP JUMPDEST SWAP2 POP POP SWAP3 SWAP2 POP POP JUMP JUMPDEST PUSH32 0x4E487B7100000000000000000000000000000000000000000000000000000000 PUSH1 0x0 MSTORE PUSH1 0x22 PUSH1 0x4 MSTORE PUSH1 0x24 PUSH1 0x0 REVERT JUMPDEST PUSH1 0x0 PUSH1 0x2 DUP3 DIV SWAP1 POP PUSH1 0x1 DUP3 AND DUP1 PUSH2 0x27BE JUMPI PUSH1 0x7F DUP3 AND SWAP2 POP JUMPDEST PUSH1 0x20 DUP3 LT DUP2 SUB PUSH2 0x27D1 JUMPI PUSH2 0x27D0 PUSH2 0x2777 JUMP JUMPDEST JUMPDEST POP SWAP2 SWAP1 POP JUMP JUMPDEST PUSH1 0x0 PUSH1 0x80 DUP3 ADD SWAP1 POP PUSH2 0x27EC PUSH1 0x0 DUP4 ADD DUP10 PUSH2 0x2666 JUMP JUMPDEST DUP2 DUP2 SUB PUSH1 0x20 DUP4 ADD MSTORE PUSH2 0x27FF DUP2 DUP8 DUP10 PUSH2 0x2675 JUMP JUMPDEST SWAP1 POP DUP2 DUP2 SUB PUSH1 0x40 DUP4 ADD MSTORE PUSH2 0x2814 DUP2 DUP6 DUP8 PUSH2 0x2675 JUMP JUMPDEST SWAP1 POP PUSH2 0x2823 PUSH1 0x60 DUP4 ADD DUP5 PUSH2 0x2666 JUMP JUMPDEST SWAP8 SWAP7 POP POP POP POP POP POP POP JUMP JUMPDEST PUSH1 0x0 DUP2 SWAP1 POP SWAP3 SWAP2 POP POP JUMP JUMPDEST PUSH1 0x0 PUSH2 0x2845 DUP4 DUP6 PUSH2 0x282E JUMP JUMPDEST SWAP4 POP PUSH2 0x2852 DUP4 DUP6 DUP5 PUSH2 0x1ED7 JUMP JUMPDEST DUP3 DUP5 ADD SWAP1 POP SWAP4 SWAP3 POP POP POP JUMP JUMPDEST PUSH1 0x0 PUSH2 0x286B DUP3 DUP5 DUP7 PUSH2 0x2839 JUMP JUMPDEST SWAP2 POP DUP2 SWAP1 POP SWAP4 SWAP3 POP POP POP JUMP JUMPDEST PUSH32 0x4E487B7100000000000000000000000000000000000000000000000000000000 PUSH1 0x0 MSTORE PUSH1 0x32 PUSH1 0x4 MSTORE PUSH1 0x24 PUSH1 0x0 REVERT JUMPDEST PUSH32 0x4E487B7100000000000000000000000000000000000000000000000000000000 PUSH1 0x0 MSTORE PUSH1 0x11 PUSH1 0x4 MSTORE PUSH1 0x24 PUSH1 0x0 REVERT JUMPDEST PUSH1 0x0 PUSH2 0x28E0 DUP3 PUSH2 0x1CF9 JUMP JUMPDEST SWAP2 POP PUSH2 0x28EB DUP4 PUSH2 0x1CF9 JUMP JUMPDEST SWAP3 POP DUP3 DUP3 ADD SWAP1 POP DUP1 DUP3 GT ISZERO PUSH2 0x2903 JUMPI PUSH2 0x2902 PUSH2 0x28A6 JUMP JUMPDEST JUMPDEST SWAP3 SWAP2 POP POP JUMP JUMPDEST PUSH32 0x496E73756666696369656E742066756E64696E6720746F20696E737572652061 PUSH1 0x0 DUP3 ADD MSTORE PUSH32 0x64646974696F6E616C2075736572730000000000000000000000000000000000 PUSH1 0x20 DUP3 ADD MSTORE POP JUMP JUMPDEST PUSH1 0x0 PUSH2 0x2965 PUSH1 0x2F DUP4 PUSH2 0x21D0 JUMP JUMPDEST SWAP2 POP PUSH2 0x2970 DUP3 PUSH2 0x2909 JUMP JUMPDEST PUSH1 0x40 DUP3 ADD SWAP1 POP SWAP2 SWAP1 POP JUMP JUMPDEST PUSH1 0x0 PUSH1 0x20 DUP3 ADD SWAP1 POP DUP2 DUP2 SUB PUSH1 0x0 DUP4 ADD MSTORE PUSH2 0x2994 DUP2 PUSH2 0x2958 JUMP JUMPDEST SWAP1 POP SWAP2 SWAP1 POP JUMP JUMPDEST PUSH1 0x0 DUP2 SWAP1 POP DUP2 PUSH1 0x0 MSTORE PUSH1 0x20 PUSH1 0x0 KECCAK256 SWAP1 POP SWAP2 SWAP1 POP JUMP JUMPDEST PUSH1 0x0 PUSH1 0x20 PUSH1 0x1F DUP4 ADD DIV SWAP1 POP SWAP2 SWAP1 POP JUMP JUMPDEST PUSH1 0x0 DUP3 DUP3 SHL SWAP1 POP SWAP3 SWAP2 POP POP JUMP JUMPDEST PUSH1 0x0 PUSH1 0x8 DUP4 MUL PUSH2 0x29FD PUSH32 0xFFFFFFFFFFFFFFFFFFFFFFFFFFFFFFFFFFFFFFFFFFFFFFFFFFFFFFFFFFFFFFFF DUP3 PUSH2 0x29C0 JUMP JUMPDEST PUSH2 0x2A07 DUP7 DUP4 PUSH2 0x29C0 JUMP JUMPDEST SWAP6 POP DUP1 NOT DUP5 AND SWAP4 POP DUP1 DUP7 AND DUP5 OR SWAP3 POP POP POP SWAP4 SWAP3 POP POP POP JUMP JUMPDEST PUSH1 0x0 PUSH2 0x2A3A PUSH2 0x2A35 PUSH2 0x2A30 DUP5 PUSH2 0x1CF9 JUMP JUMPDEST PUSH2 0x1D96 JUMP JUMPDEST PUSH2 0x1CF9 JUMP JUMPDEST SWAP1 POP SWAP2 SWAP1 POP JUMP JUMPDEST PUSH1 0x0 DUP2 SWAP1 POP SWAP2 SWAP1 POP JUMP JUMPDEST PUSH2 0x2A54 DUP4 PUSH2 0x2A1F JUMP JUMPDEST PUSH2 0x2A68 PUSH2 0x2A60 DUP3 PUSH2 0x2A41 JUMP JUMPDEST DUP5 DUP5 SLOAD PUSH2 0x29CD JUMP JUMPDEST DUP3 SSTORE POP POP POP POP JUMP JUMPDEST PUSH1 0x0 SWAP1 JUMP JUMPDEST PUSH2 0x2A7D PUSH2 0x2A70 JUMP JUMPDEST PUSH2 0x2A88 DUP2 DUP5 DUP5 PUSH2 0x2A4B JUMP JUMPDEST POP POP POP JUMP JUMPDEST JUMPDEST DUP2 DUP2 LT ISZERO PUSH2 0x2AAC JUMPI PUSH2 0x2AA1 PUSH1 0x0 DUP3 PUSH2 0x2A75 JUMP JUMPDEST PUSH1 0x1 DUP2 ADD SWAP1 POP PUSH2 0x2A8E JUMP JUMPDEST POP POP JUMP JUMPDEST PUSH1 0x1F DUP3 GT ISZERO PUSH2 0x2AF1 JUMPI PUSH2 0x2AC2 DUP2 PUSH2 0x299B JUMP JUMPDEST PUSH2 0x2ACB DUP5 PUSH2 0x29B0 JUMP JUMPDEST DUP2 ADD PUSH1 0x20 DUP6 LT ISZERO PUSH2 0x2ADA JUMPI DUP2 SWAP1 POP JUMPDEST PUSH2 0x2AEE PUSH2 0x2AE6 DUP6 PUSH2 0x29B0 JUMP JUMPDEST DUP4 ADD DUP3 PUSH2 0x2A8D JUMP JUMPDEST POP POP JUMPDEST POP POP POP JUMP JUMPDEST PUSH1 0x0 DUP3 DUP3 SHR SWAP1 POP SWAP3 SWAP2 POP POP JUMP JUMPDEST PUSH1 0x0 PUSH2 0x2B14 PUSH1 0x0 NOT DUP5 PUSH1 0x8 MUL PUSH2 0x2AF6 JUMP JUMPDEST NOT DUP1 DUP4 AND SWAP2 POP POP SWAP3 SWAP2 POP POP JUMP JUMPDEST PUSH1 0x0 PUSH2 0x2B2D DUP4 DUP4 PUSH2 0x2B03 JUMP JUMPDEST SWAP2 POP DUP3 PUSH1 0x2 MUL DUP3 OR SWAP1 POP SWAP3 SWAP2 POP POP JUMP JUMPDEST PUSH2 0x2B46 DUP3 PUSH2 0x21C5 JUMP JUMPDEST PUSH8 0xFFFFFFFFFFFFFFFF DUP2 GT ISZERO PUSH2 0x2B5F JUMPI PUSH2 0x2B5E PUSH2 0x1E2B JUMP JUMPDEST JUMPDEST PUSH2 0x2B69 DUP3 SLOAD PUSH2 0x27A6 JUMP JUMPDEST PUSH2 0x2B74 DUP3 DUP3 DUP6 PUSH2 0x2AB0 JUMP JUMPDEST PUSH1 0x0 PUSH1 0x20 SWAP1 POP PUSH1 0x1F DUP4 GT PUSH1 0x1 DUP2 EQ PUSH2 0x2BA7 JUMPI PUSH1 0x0 DUP5 ISZERO PUSH2 0x2B95 JUMPI DUP3 DUP8 ADD MLOAD SWAP1 POP JUMPDEST PUSH2 0x2B9F DUP6 DUP3 PUSH2 0x2B21 JUMP JUMPDEST DUP7 SSTORE POP PUSH2 0x2C07 JUMP JUMPDEST PUSH1 0x1F NOT DUP5 AND PUSH2 0x2BB5 DUP7 PUSH2 0x299B JUMP JUMPDEST PUSH1 0x0 JUMPDEST DUP3 DUP2 LT ISZERO PUSH2 0x2BDD JUMPI DUP5 DUP10 ADD MLOAD DUP3 SSTORE PUSH1 0x1 DUP3 ADD SWAP2 POP PUSH1 0x20 DUP6 ADD SWAP5 POP PUSH1 0x20 DUP2 ADD SWAP1 POP PUSH2 0x2BB8 JUMP JUMPDEST DUP7 DUP4 LT ISZERO PUSH2 0x2BFA JUMPI DUP5 DUP10 ADD MLOAD PUSH2 0x2BF6 PUSH1 0x1F DUP10 AND DUP3 PUSH2 0x2B03 JUMP JUMPDEST DUP4 SSTORE POP JUMPDEST PUSH1 0x1 PUSH1 0x2 DUP9 MUL ADD DUP9 SSTORE POP POP POP JUMPDEST POP POP POP POP POP POP JUMP JUMPDEST PUSH32 0x506F6C696379206973206E6F7420616374697665000000000000000000000000 PUSH1 0x0 DUP3 ADD MSTORE POP JUMP JUMPDEST PUSH1 0x0 PUSH2 0x2C45 PUSH1 0x14 DUP4 PUSH2 0x21D0 JUMP JUMPDEST SWAP2 POP PUSH2 0x2C50 DUP3 PUSH2 0x2C0F JUMP JUMPDEST PUSH1 0x20 DUP3 ADD SWAP1 POP SWAP2 SWAP1 POP JUMP JUMPDEST PUSH1 0x0 PUSH1 0x20 DUP3 ADD SWAP1 POP DUP2 DUP2 SUB PUSH1 0x0 DUP4 ADD MSTORE PUSH2 0x2C74 DUP2 PUSH2 0x2C38 JUMP JUMPDEST SWAP1 POP SWAP2 SWAP1 POP JUMP JUMPDEST PUSH1 0x0 PUSH8 0xFFFFFFFFFFFFFFFF DUP3 GT ISZERO PUSH2 0x2C96 JUMPI PUSH2 0x2C95 PUSH2 0x1E2B JUMP JUMPDEST JUMPDEST PUSH1 0x20 DUP3 MUL SWAP1 POP SWAP2 SWAP1 POP JUMP JUMPDEST PUSH1 0x0 PUSH2 0x2CB4 PUSH2 0x2CAF DUP5 PUSH2 0x2C7B JUMP JUMPDEST PUSH2 0x1E8B JUMP JUMPDEST SWAP1 POP DUP1 PUSH1 0x20 DUP5 MUL DUP4 ADD DUP6 DUP2 GT ISZERO PUSH2 0x2CCE JUMPI PUSH2 0x2CCD PUSH2 0x2004 JUMP JUMPDEST JUMPDEST DUP4 JUMPDEST DUP2 DUP2 LT ISZERO PUSH2 0x2CF7 JUMPI DUP1 PUSH2 0x2CE3 DUP9 DUP3 PUSH2 0x2735 JUMP JUMPDEST DUP5 MSTORE PUSH1 0x20 DUP5 ADD SWAP4 POP POP PUSH1 0x20 DUP2 ADD SWAP1 POP PUSH2 0x2CD0 JUMP JUMPDEST POP POP POP SWAP4 SWAP3 POP POP POP JUMP JUMPDEST PUSH1 0x0 DUP3 PUSH1 0x1F DUP4 ADD SLT PUSH2 0x2D16 JUMPI PUSH2 0x2D15 PUSH2 0x1E10 JUMP JUMPDEST JUMPDEST PUSH1 0x2 PUSH2 0x2D23 DUP5 DUP3 DUP6 PUSH2 0x2CA1 JUMP JUMPDEST SWAP2 POP POP SWAP3 SWAP2 POP POP JUMP JUMPDEST PUSH1 0x0 PUSH1 0x40 DUP3 DUP5 SUB SLT ISZERO PUSH2 0x2D42 JUMPI PUSH2 0x2D41 PUSH2 0x1C91 JUMP JUMPDEST JUMPDEST PUSH1 0x0 PUSH2 0x2D50 DUP5 DUP3 DUP6 ADD PUSH2 0x2D01 JUMP JUMPDEST SWAP2 POP POP SWAP3 SWAP2 POP POP JUMP JUMPDEST PUSH1 0x0 PUSH2 0x2D6C PUSH2 0x2D67 DUP5 PUSH2 0x1EA6 JUMP JUMPDEST PUSH2 0x1E8B JUMP JUMPDEST SWAP1 POP DUP3 DUP2 MSTORE PUSH1 0x20 DUP2 ADD DUP5 DUP5 DUP5 ADD GT ISZERO PUSH2 0x2D88 JUMPI PUSH2 0x2D87 PUSH2 0x1E15 JUMP JUMPDEST JUMPDEST PUSH2 0x2D93 DUP5 DUP3 DUP6 PUSH2 0x21E1 JUMP JUMPDEST POP SWAP4 SWAP3 POP POP POP JUMP JUMPDEST PUSH1 0x0 DUP3 PUSH1 0x1F DUP4 ADD SLT PUSH2 0x2DB0 JUMPI PUSH2 0x2DAF PUSH2 0x1E10 JUMP JUMPDEST JUMPDEST DUP2 MLOAD PUSH2 0x2DC0 DUP5 DUP3 PUSH1 0x20 DUP7 ADD PUSH2 0x2D59 JUMP JUMPDEST SWAP2 POP POP SWAP3 SWAP2 POP POP JUMP JUMPDEST PUSH1 0x0 PUSH1 0x20 DUP3 DUP5 SUB SLT ISZERO PUSH2 0x2DDF JUMPI PUSH2 0x2DDE PUSH2 0x1C91 JUMP JUMPDEST JUMPDEST PUSH1 0x0 DUP3 ADD MLOAD PUSH8 0xFFFFFFFFFFFFFFFF DUP2 GT ISZERO PUSH2 0x2DFD JUMPI PUSH2 0x2DFC PUSH2 0x1C96 JUMP JUMPDEST JUMPDEST PUSH2 0x2E09 DUP5 DUP3 DUP6 ADD PUSH2 0x2D9B JUMP JUMPDEST SWAP2 POP POP SWAP3 SWAP2 POP POP JUMP JUMPDEST PUSH1 0x0 PUSH1 0x80 DUP3 ADD SWAP1 POP DUP2 DUP2 SUB PUSH1 0x0 DUP4 ADD MSTORE PUSH2 0x2E2C DUP2 DUP8 PUSH2 0x220B JUMP JUMPDEST SWAP1 POP DUP2 DUP2 SUB PUSH1 0x20 DUP4 ADD MSTORE PUSH2 0x2E40 DUP2 DUP7 PUSH2 0x220B JUMP JUMPDEST SWAP1 POP DUP2 DUP2 SUB PUSH1 0x40 DUP4 ADD MSTORE PUSH2 0x2E54 DUP2 DUP6 PUSH2 0x220B JUMP JUMPDEST SWAP1 POP PUSH2 0x2E63 PUSH1 0x60 DUP4 ADD DUP5 PUSH2 0x24DC JUMP JUMPDEST SWAP6 SWAP5 POP POP POP POP POP JUMP JUMPDEST PUSH1 0x0 PUSH2 0x2E77 DUP3 PUSH2 0x1CF9 JUMP JUMPDEST SWAP2 POP PUSH32 0xFFFFFFFFFFFFFFFFFFFFFFFFFFFFFFFFFFFFFFFFFFFFFFFFFFFFFFFFFFFFFFFF DUP3 SUB PUSH2 0x2EA9 JUMPI PUSH2 0x2EA8 PUSH2 0x28A6 JUMP JUMPDEST JUMPDEST PUSH1 0x1 DUP3 ADD SWAP1 POP SWAP2 SWAP1 POP JUMP JUMPDEST PUSH1 0x0 PUSH2 0x2EBF DUP3 PUSH2 0x1CF9 JUMP JUMPDEST SWAP2 POP PUSH2 0x2ECA DUP4 PUSH2 0x1CF9 JUMP JUMPDEST SWAP3 POP DUP3 DUP3 MUL PUSH2 0x2ED8 DUP2 PUSH2 0x1CF9 JUMP JUMPDEST SWAP2 POP DUP3 DUP3 DIV DUP5 EQ DUP4 ISZERO OR PUSH2 0x2EEF JUMPI PUSH2 0x2EEE PUSH2 0x28A6 JUMP JUMPDEST JUMPDEST POP SWAP3 SWAP2 POP POP JUMP JUMPDEST PUSH1 0x0 PUSH2 0x2F01 DUP3 PUSH2 0x1CF9 JUMP JUMPDEST SWAP2 POP PUSH2 0x2F0C DUP4 PUSH2 0x1CF9 JUMP JUMPDEST SWAP3 POP DUP3 DUP3 SUB SWAP1 POP DUP2 DUP2 GT ISZERO PUSH2 0x2F24 JUMPI PUSH2 0x2F23 PUSH2 0x28A6 JUMP JUMPDEST JUMPDEST SWAP3 SWAP2 POP POP JUMP JUMPDEST PUSH32 0x6178656C61720000000000000000000000000000000000000000000000000000 PUSH1 0x0 DUP3 ADD MSTORE POP JUMP JUMPDEST PUSH1 0x0 PUSH2 0x2F60 PUSH1 0x6 DUP4 PUSH2 0x21D0 JUMP JUMPDEST SWAP2 POP PUSH2 0x2F6B DUP3 PUSH2 0x2F2A JUMP JUMPDEST PUSH1 0x20 DUP3 ADD SWAP1 POP SWAP2 SWAP1 POP JUMP JUMPDEST PUSH1 0x0 PUSH1 0x80 DUP3 ADD SWAP1 POP DUP2 DUP2 SUB PUSH1 0x0 DUP4 ADD MSTORE PUSH2 0x2F8F DUP2 PUSH2 0x2F53 JUMP JUMPDEST SWAP1 POP DUP2 DUP2 SUB PUSH1 0x20 DUP4 ADD MSTORE PUSH2 0x2FA3 DUP2 DUP7 PUSH2 0x220B JUMP JUMPDEST SWAP1 POP DUP2 DUP2 SUB PUSH1 0x40 DUP4 ADD MSTORE PUSH2 0x2FB7 DUP2 DUP6 PUSH2 0x220B JUMP JUMPDEST SWAP1 POP PUSH2 0x2FC6 PUSH1 0x60 DUP4 ADD DUP5 PUSH2 0x24DC JUMP JUMPDEST SWAP5 SWAP4 POP POP POP POP JUMP JUMPDEST PUSH32 0x4F776E61626C653A206E6577206F776E657220697320746865207A65726F2061 PUSH1 0x0 DUP3 ADD MSTORE PUSH32 0x6464726573730000000000000000000000000000000000000000000000000000 PUSH1 0x20 DUP3 ADD MSTORE POP JUMP JUMPDEST PUSH1 0x0 PUSH2 0x302A PUSH1 0x26 DUP4 PUSH2 0x21D0 JUMP JUMPDEST SWAP2 POP PUSH2 0x3035 DUP3 PUSH2 0x2FCE JUMP JUMPDEST PUSH1 0x40 DUP3 ADD SWAP1 POP SWAP2 SWAP1 POP JUMP JUMPDEST PUSH1 0x0 PUSH1 0x20 DUP3 ADD SWAP1 POP DUP2 DUP2 SUB PUSH1 0x0 DUP4 ADD MSTORE PUSH2 0x3059 DUP2 PUSH2 0x301D JUMP JUMPDEST SWAP1 POP SWAP2 SWAP1 POP JUMP JUMPDEST PUSH1 0x0 PUSH2 0x306B DUP3 PUSH2 0x1C9B JUMP JUMPDEST SWAP1 POP SWAP2 SWAP1 POP JUMP JUMPDEST PUSH2 0x307B DUP2 PUSH2 0x3060 JUMP JUMPDEST DUP2 EQ PUSH2 0x3086 JUMPI PUSH1 0x0 DUP1 REVERT JUMPDEST POP JUMP JUMPDEST PUSH1 0x0 DUP2 CALLDATALOAD SWAP1 POP PUSH2 0x3098 DUP2 PUSH2 0x3072 JUMP JUMPDEST SWAP3 SWAP2 POP POP JUMP JUMPDEST PUSH1 0x0 DUP1 PUSH1 0x40 DUP4 DUP6 SUB SLT ISZERO PUSH2 0x30B5 JUMPI PUSH2 0x30B4 PUSH2 0x1C91 JUMP JUMPDEST JUMPDEST PUSH1 0x0 PUSH2 0x30C3 DUP6 DUP3 DUP7 ADD PUSH2 0x1D1A JUMP JUMPDEST SWAP3 POP POP PUSH1 0x20 PUSH2 0x30D4 DUP6 DUP3 DUP7 ADD PUSH2 0x3089 JUMP JUMPDEST SWAP2 POP POP SWAP3 POP SWAP3 SWAP1 POP JUMP JUMPDEST PUSH32 0x536F75726365206164647265737320616E6420636861696E20646F206E6F7420 PUSH1 0x0 DUP3 ADD MSTORE PUSH32 0x62656C6F6E6720696E207468652073616D65206D617070696E67000000000000 PUSH1 0x20 DUP3 ADD MSTORE POP JUMP JUMPDEST PUSH1 0x0 PUSH2 0x313A PUSH1 0x3A DUP4 PUSH2 0x21D0 JUMP JUMPDEST SWAP2 POP PUSH2 0x3145 DUP3 PUSH2 0x30DE JUMP JUMPDEST PUSH1 0x40 DUP3 ADD SWAP1 POP SWAP2 SWAP1 POP JUMP JUMPDEST PUSH1 0x0 PUSH1 0x20 DUP3 ADD SWAP1 POP DUP2 DUP2 SUB PUSH1 0x0 DUP4 ADD MSTORE PUSH2 0x3169 DUP2 PUSH2 0x312D JUMP JUMPDEST SWAP1 POP SWAP2 SWAP1 POP JUMP JUMPDEST PUSH32 0x4F776E61626C653A2063616C6C6572206973206E6F7420746865206F776E6572 PUSH1 0x0 DUP3 ADD MSTORE POP JUMP JUMPDEST PUSH1 0x0 PUSH2 0x31A6 PUSH1 0x20 DUP4 PUSH2 0x21D0 JUMP JUMPDEST SWAP2 POP PUSH2 0x31B1 DUP3 PUSH2 0x3170 JUMP JUMPDEST PUSH1 0x20 DUP3 ADD SWAP1 POP SWAP2 SWAP1 POP JUMP JUMPDEST PUSH1 0x0 PUSH1 0x20 DUP3 ADD SWAP1 POP DUP2 DUP2 SUB PUSH1 0x0 DUP4 ADD MSTORE PUSH2 0x31D5 DUP2 PUSH2 0x3199 JUMP JUMPDEST SWAP1 POP SWAP2 SWAP1 POP JUMP JUMPDEST PUSH1 0x0 DUP2 PUSH1 0x60 SHL SWAP1 POP SWAP2 SWAP1 POP JUMP JUMPDEST PUSH1 0x0 PUSH2 0x31F4 DUP3 PUSH2 0x31DC JUMP JUMPDEST SWAP1 POP SWAP2 SWAP1 POP JUMP JUMPDEST PUSH1 0x0 PUSH2 0x3206 DUP3 PUSH2 0x31E9 JUMP JUMPDEST SWAP1 POP SWAP2 SWAP1 POP JUMP JUMPDEST PUSH2 0x321E PUSH2 0x3219 DUP3 PUSH2 0x1CBB JUMP JUMPDEST PUSH2 0x31FB JUMP JUMPDEST DUP3 MSTORE POP POP JUMP JUMPDEST PUSH1 0x0 PUSH2 0x3230 DUP3 DUP5 PUSH2 0x320D JUMP JUMPDEST PUSH1 0x14 DUP3 ADD SWAP2 POP DUP2 SWAP1 POP SWAP3 SWAP2 POP POP JUMP JUMPDEST PUSH1 0x0 PUSH1 0xFF DUP3 AND SWAP1 POP SWAP2 SWAP1 POP JUMP JUMPDEST PUSH1 0x0 PUSH2 0x3257 DUP3 PUSH2 0x323F JUMP JUMPDEST SWAP2 POP PUSH2 0x3262 DUP4 PUSH2 0x323F JUMP JUMPDEST SWAP3 POP DUP3 DUP3 SUB SWAP1 POP PUSH1 0xFF DUP2 GT ISZERO PUSH2 0x327B JUMPI PUSH2 0x327A PUSH2 0x28A6 JUMP JUMPDEST JUMPDEST SWAP3 SWAP2 POP POP JUMP INVALID LOG2 PUSH5 0x6970667358 0x22 SLT KECCAK256 CALL DUP14 0xC0 AND 0x1E MSTORE PUSH25 0x4C2C1F972AD39282D6AC39C95906C06150BEF98DB2AD728E69 PUSH5 0x736F6C6343 STOP ADDMOD SLT STOP CALLER "},"methodIdentifiers":{"InsurancePolicies(uint256)":"f2559ed2","addCollector(string,address)":"948ffe67","addPolicyUser(uint256,string,address)":"a614ba09","axInsureCollectors(string)":"18af2fa8","checkOracleAndPayout(uint256)":"c2572838","createInsurancePolicy(address,uint256,uint256,uint256)":"004db56e","execute(bytes32,string,string,bytes)":"49160658","executeWithToken(bytes32,string,string,bytes,string,uint256)":"1a98b2e0","gasService()":"6a22d8cc","gateway()":"116191b6","getPaymentToken()":"d41c3a65","owner()":"8da5cb5b","paymentToken()":"3013ce29","paymentTokenAddress()":"afb18fe7","policyUsers(uint256,uint256)":"8593cbe1","renounceOwnership()":"715018a6","transferOwnership(address)":"f2fde38b"}}}}}