{
  "_format": "hh-sol-artifact-1",
  "contractName": "AxinsureCore",
  "sourceName": "src/AxinsureCore.sol",
  "abi": [
    {
      "inputs": [
        {
          "internalType": "string",
          "name": "_paymentToken",
          "type": "string"
        },
        {
          "internalType": "address",
          "name": "_axelarGatewayAddress",
          "type": "address"
        },
        {
          "internalType": "address",
          "name": "_gasReceiver",
          "type": "address"
        }
      ],
      "stateMutability": "nonpayable",
      "type": "constructor"
    },
    {
      "inputs": [],
      "name": "InvalidAddress",
      "type": "error"
    },
    {
      "inputs": [],
      "name": "InvalidAddressString",
      "type": "error"
    },
    {
      "inputs": [],
      "name": "NotApprovedByGateway",
      "type": "error"
    },
    {
      "anonymous": false,
      "inputs": [
        {
          "indexed": true,
          "internalType": "address",
          "name": "previousOwner",
          "type": "address"
        },
        {
          "indexed": true,
          "internalType": "address",
          "name": "newOwner",
          "type": "address"
        }
      ],
      "name": "OwnershipTransferred",
      "type": "event"
    },
    {
      "anonymous": false,
      "inputs": [
        {
          "indexed": true,
          "internalType": "uint256",
          "name": "policyNumber",
          "type": "uint256"
        },
        {
          "indexed": true,
          "internalType": "address",
          "name": "insurerAddress",
          "type": "address"
        },
        {
          "indexed": false,
          "internalType": "address",
          "name": "oracleAddress",
          "type": "address"
        },
        {
          "indexed": false,
          "internalType": "uint256",
          "name": "fundingAmount",
          "type": "uint256"
        },
        {
          "indexed": false,
          "internalType": "uint256",
          "name": "payoutAmount",
          "type": "uint256"
        },
        {
          "indexed": false,
          "internalType": "uint256",
          "name": "premiumsCost",
          "type": "uint256"
        }
      ],
      "name": "newPolicyAdded",
      "type": "event"
    },
    {
      "anonymous": false,
      "inputs": [
        {
          "indexed": true,
          "internalType": "uint256",
          "name": "policyNumber",
          "type": "uint256"
        },
        {
          "indexed": true,
          "internalType": "string",
          "name": "userChain",
          "type": "string"
        },
        {
          "indexed": false,
          "internalType": "address",
          "name": "userAddress",
          "type": "address"
        }
      ],
      "name": "newUserAdded",
      "type": "event"
    },
    {
      "inputs": [
        {
          "internalType": "uint256",
          "name": "",
          "type": "uint256"
        }
      ],
      "name": "InsurancePolicies",
      "outputs": [
        {
          "internalType": "address",
          "name": "insurerAddress",
          "type": "address"
        },
        {
          "internalType": "address",
          "name": "oracleAddress",
          "type": "address"
        },
        {
          "internalType": "uint256",
          "name": "fundingAmount",
          "type": "uint256"
        },
        {
          "internalType": "uint256",
          "name": "payoutAmount",
          "type": "uint256"
        },
        {
          "internalType": "uint256",
          "name": "premiumsCost",
          "type": "uint256"
        },
        {
          "internalType": "uint256",
          "name": "policyNumber",
          "type": "uint256"
        },
        {
          "internalType": "uint256",
          "name": "premiumsTotal",
          "type": "uint256"
        },
        {
          "internalType": "bool",
          "name": "isPolicyActive",
          "type": "bool"
        }
      ],
      "stateMutability": "view",
      "type": "function"
    },
    {
      "inputs": [
        {
          "internalType": "string",
          "name": "chain",
          "type": "string"
        },
        {
          "internalType": "address",
          "name": "collectorAddress",
          "type": "address"
        }
      ],
      "name": "addCollector",
      "outputs": [],
      "stateMutability": "nonpayable",
      "type": "function"
    },
    {
      "inputs": [
        {
          "internalType": "uint256",
          "name": "policyNumber",
          "type": "uint256"
        },
        {
          "internalType": "string",
          "name": "userChain",
          "type": "string"
        },
        {
          "internalType": "address",
          "name": "userAddress",
          "type": "address"
        }
      ],
      "name": "addPolicyUser",
      "outputs": [],
      "stateMutability": "nonpayable",
      "type": "function"
    },
    {
      "inputs": [
        {
          "internalType": "string",
          "name": "",
          "type": "string"
        }
      ],
      "name": "axInsureCollectors",
      "outputs": [
        {
          "internalType": "address",
          "name": "",
          "type": "address"
        }
      ],
      "stateMutability": "view",
      "type": "function"
    },
    {
      "inputs": [
        {
          "internalType": "uint256",
          "name": "policyNumber",
          "type": "uint256"
        }
      ],
      "name": "checkOracleAndPayout",
      "outputs": [],
      "stateMutability": "nonpayable",
      "type": "function"
    },
    {
      "inputs": [
        {
          "internalType": "address",
          "name": "oracleAddress",
          "type": "address"
        },
        {
          "internalType": "uint256",
          "name": "fundingAmount",
          "type": "uint256"
        },
        {
          "internalType": "uint256",
          "name": "payoutAmount",
          "type": "uint256"
        },
        {
          "internalType": "uint256",
          "name": "premiumsCost",
          "type": "uint256"
        }
      ],
      "name": "createInsurancePolicy",
      "outputs": [],
      "stateMutability": "nonpayable",
      "type": "function"
    },
    {
      "inputs": [
        {
          "internalType": "bytes32",
          "name": "commandId",
          "type": "bytes32"
        },
        {
          "internalType": "string",
          "name": "sourceChain",
          "type": "string"
        },
        {
          "internalType": "string",
          "name": "sourceAddress",
          "type": "string"
        },
        {
          "internalType": "bytes",
          "name": "payload",
          "type": "bytes"
        }
      ],
      "name": "execute",
      "outputs": [],
      "stateMutability": "nonpayable",
      "type": "function"
    },
    {
      "inputs": [
        {
          "internalType": "bytes32",
          "name": "commandId",
          "type": "bytes32"
        },
        {
          "internalType": "string",
          "name": "sourceChain",
          "type": "string"
        },
        {
          "internalType": "string",
          "name": "sourceAddress",
          "type": "string"
        },
        {
          "internalType": "bytes",
          "name": "payload",
          "type": "bytes"
        },
        {
          "internalType": "string",
          "name": "tokenSymbol",
          "type": "string"
        },
        {
          "internalType": "uint256",
          "name": "amount",
          "type": "uint256"
        }
      ],
      "name": "executeWithToken",
      "outputs": [],
      "stateMutability": "nonpayable",
      "type": "function"
    },
    {
      "inputs": [],
      "name": "gasService",
      "outputs": [
        {
          "internalType": "contract IAxelarGasService",
          "name": "",
          "type": "address"
        }
      ],
      "stateMutability": "view",
      "type": "function"
    },
    {
      "inputs": [],
      "name": "gateway",
      "outputs": [
        {
          "internalType": "contract IAxelarGateway",
          "name": "",
          "type": "address"
        }
      ],
      "stateMutability": "view",
      "type": "function"
    },
    {
      "inputs": [],
      "name": "getPaymentToken",
      "outputs": [
        {
          "internalType": "string",
          "name": "",
          "type": "string"
        }
      ],
      "stateMutability": "view",
      "type": "function"
    },
    {
      "inputs": [],
      "name": "owner",
      "outputs": [
        {
          "internalType": "address",
          "name": "",
          "type": "address"
        }
      ],
      "stateMutability": "view",
      "type": "function"
    },
    {
      "inputs": [],
      "name": "paymentToken",
      "outputs": [
        {
          "internalType": "string",
          "name": "",
          "type": "string"
        }
      ],
      "stateMutability": "view",
      "type": "function"
    },
    {
      "inputs": [],
      "name": "paymentTokenAddress",
      "outputs": [
        {
          "internalType": "address",
          "name": "",
          "type": "address"
        }
      ],
      "stateMutability": "view",
      "type": "function"
    },
    {
      "inputs": [
        {
          "internalType": "uint256",
          "name": "",
          "type": "uint256"
        },
        {
          "internalType": "uint256",
          "name": "",
          "type": "uint256"
        }
      ],
      "name": "policyUsers",
      "outputs": [
        {
          "internalType": "string",
          "name": "userChain",
          "type": "string"
        },
        {
          "internalType": "address",
          "name": "userAddress",
          "type": "address"
        }
      ],
      "stateMutability": "view",
      "type": "function"
    },
    {
      "inputs": [],
      "name": "renounceOwnership",
      "outputs": [],
      "stateMutability": "nonpayable",
      "type": "function"
    },
    {
      "inputs": [
        {
          "internalType": "address",
          "name": "newOwner",
          "type": "address"
        }
      ],
      "name": "transferOwnership",
      "outputs": [],
      "stateMutability": "nonpayable",
      "type": "function"
    }
  ],
  "bytecode": "0x60c06040523480156200001157600080fd5b5060405162003caa38038062003caa8339818101604052810190620000379190620004c8565b81620000586200004c6200020460201b60201c565b6200020c60201b60201c565b600073ffffffffffffffffffffffffffffffffffffffff168173ffffffffffffffffffffffffffffffffffffffff1603620000bf576040517fe6c4247b00000000000000000000000000000000000000000000000000000000815260040160405180910390fd5b8073ffffffffffffffffffffffffffffffffffffffff1660808173ffffffffffffffffffffffffffffffffffffffff16815250505082600190816200010591906200078e565b5060805173ffffffffffffffffffffffffffffffffffffffff1663935b13f6846040518263ffffffff1660e01b8152600401620001439190620008c7565b602060405180830381865afa15801562000161573d6000803e3d6000fd5b505050506040513d601f19601f82011682018060405250810190620001879190620008eb565b600260006101000a81548173ffffffffffffffffffffffffffffffffffffffff021916908373ffffffffffffffffffffffffffffffffffffffff1602179055508073ffffffffffffffffffffffffffffffffffffffff1660a08173ffffffffffffffffffffffffffffffffffffffff16815250505050506200091d565b600033905090565b60008060009054906101000a900473ffffffffffffffffffffffffffffffffffffffff169050816000806101000a81548173ffffffffffffffffffffffffffffffffffffffff021916908373ffffffffffffffffffffffffffffffffffffffff1602179055508173ffffffffffffffffffffffffffffffffffffffff168173ffffffffffffffffffffffffffffffffffffffff167f8be0079c531659141344cd1fd0a4f28419497f9722a3daafe3b4186f6b6457e060405160405180910390a35050565b6000604051905090565b600080fd5b600080fd5b600080fd5b600080fd5b6000601f19601f8301169050919050565b7f4e487b7100000000000000000000000000000000000000000000000000000000600052604160045260246000fd5b6200033982620002ee565b810181811067ffffffffffffffff821117156200035b576200035a620002ff565b5b80604052505050565b600062000370620002d0565b90506200037e82826200032e565b919050565b600067ffffffffffffffff821115620003a157620003a0620002ff565b5b620003ac82620002ee565b9050602081019050919050565b60005b83811015620003d9578082015181840152602081019050620003bc565b60008484015250505050565b6000620003fc620003f68462000383565b62000364565b9050828152602081018484840111156200041b576200041a620002e9565b5b62000428848285620003b9565b509392505050565b600082601f830112620004485762000447620002e4565b5b81516200045a848260208601620003e5565b91505092915050565b600073ffffffffffffffffffffffffffffffffffffffff82169050919050565b6000620004908262000463565b9050919050565b620004a28162000483565b8114620004ae57600080fd5b50565b600081519050620004c28162000497565b92915050565b600080600060608486031215620004e457620004e3620002da565b5b600084015167ffffffffffffffff811115620005055762000504620002df565b5b620005138682870162000430565b93505060206200052686828701620004b1565b92505060406200053986828701620004b1565b9150509250925092565b600081519050919050565b7f4e487b7100000000000000000000000000000000000000000000000000000000600052602260045260246000fd5b600060028204905060018216806200059657607f821691505b602082108103620005ac57620005ab6200054e565b5b50919050565b60008190508160005260206000209050919050565b60006020601f8301049050919050565b600082821b905092915050565b600060088302620006167fffffffffffffffffffffffffffffffffffffffffffffffffffffffffffffffff82620005d7565b620006228683620005d7565b95508019841693508086168417925050509392505050565b6000819050919050565b6000819050919050565b60006200066f6200066962000663846200063a565b62000644565b6200063a565b9050919050565b6000819050919050565b6200068b836200064e565b620006a36200069a8262000676565b848454620005e4565b825550505050565b600090565b620006ba620006ab565b620006c781848462000680565b505050565b5b81811015620006ef57620006e3600082620006b0565b600181019050620006cd565b5050565b601f8211156200073e576200070881620005b2565b6200071384620005c7565b8101602085101562000723578190505b6200073b6200073285620005c7565b830182620006cc565b50505b505050565b600082821c905092915050565b6000620007636000198460080262000743565b1980831691505092915050565b60006200077e838362000750565b9150826002028217905092915050565b620007998262000543565b67ffffffffffffffff811115620007b557620007b4620002ff565b5b620007c182546200057d565b620007ce828285620006f3565b600060209050601f831160018114620008065760008415620007f1578287015190505b620007fd858262000770565b8655506200086d565b601f1984166200081686620005b2565b60005b82811015620008405784890151825560018201915060208501945060208101905062000819565b868310156200086057848901516200085c601f89168262000750565b8355505b6001600288020188555050505b505050505050565b600082825260208201905092915050565b6000620008938262000543565b6200089f818562000875565b9350620008b1818560208601620003b9565b620008bc81620002ee565b840191505092915050565b60006020820190508181036000830152620008e3818462000886565b905092915050565b600060208284031215620009045762000903620002da565b5b60006200091484828501620004b1565b91505092915050565b60805160a05161334462000966600039600061069b015260008181610374015281816103fd015281816105a701528181610ef80152818161106a01526111f201526133446000f3fe608060405234801561001057600080fd5b506004361061010a5760003560e01c80638593cbe1116100a2578063afb18fe711610071578063afb18fe71461027e578063c25728381461029c578063d41c3a65146102b8578063f2559ed2146102d6578063f2fde38b1461030d5761010a565b80638593cbe1146101f75780638da5cb5b14610228578063948ffe6714610246578063a614ba09146102625761010a565b80633013ce29116100de5780633013ce291461019557806349160658146101b35780636a22d8cc146101cf578063715018a6146101ed5761010a565b80624db56e1461010f578063116191b61461012b57806318af2fa8146101495780631a98b2e014610179575b600080fd5b61012960048036038101906101249190611d96565b610329565b005b610133610372565b6040516101409190611e5c565b60405180910390f35b610163600480360381019061015e9190611fbd565b610396565b6040516101709190612015565b60405180910390f35b610193600480360381019061018e919061211c565b6103df565b005b61019d6104fb565b6040516101aa91906122ab565b60405180910390f35b6101cd60048036038101906101c891906122cd565b610589565b005b6101d7610699565b6040516101e491906123b7565b60405180910390f35b6101f56106bd565b005b610211600480360381019061020c91906123d2565b6106d1565b60405161021f929190612412565b60405180910390f35b6102306107ba565b60405161023d9190612015565b60405180910390f35b610260600480360381019061025b9190612442565b6107e3565b005b61027c600480360381019061027791906124a2565b61084f565b005b610286610b57565b6040516102939190612015565b60405180910390f35b6102b660048036038101906102b19190612516565b610b7d565b005b6102c0611342565b6040516102cd91906122ab565b60405180910390f35b6102f060048036038101906102eb9190612516565b6113d4565b60405161030498979695949392919061256d565b60405180910390f35b610327600480360381019061032291906125eb565b611479565b005b600a831061036c576040517f08c379a00000000000000000000000000000000000000000000000000000000081526004016103639061268a565b60405180910390fd5b50505050565b7f000000000000000000000000000000000000000000000000000000000000000081565b6005818051602081018201805184825260208301602085012081835280955050505050506000915054906101000a900473ffffffffffffffffffffffffffffffffffffffff1681565b600085856040516103f19291906126da565b604051809103902090507f000000000000000000000000000000000000000000000000000000000000000073ffffffffffffffffffffffffffffffffffffffff16631876eed98c8c8c8c8c878b8b8b6040518a63ffffffff1660e01b81526004016104649998979695949392919061272f565b6020604051808303816000875af1158015610483573d6000803e3d6000fd5b505050506040513d601f19601f820116820180604052508101906104a791906127d7565b6104dd576040517f500c44b400000000000000000000000000000000000000000000000000000000815260040160405180910390fd5b6104ee8a8a8a8a8a8a8a8a8a6114fc565b5050505050505050505050565b6001805461050890612833565b80601f016020809104026020016040519081016040528092919081815260200182805461053490612833565b80156105815780601f1061055657610100808354040283529160200191610581565b820191906000526020600020905b81548152906001019060200180831161056457829003601f168201915b505050505081565b6000828260405161059b9291906126da565b604051809103902090507f000000000000000000000000000000000000000000000000000000000000000073ffffffffffffffffffffffffffffffffffffffff16635f6970c38989898989876040518763ffffffff1660e01b815260040161060896959493929190612864565b6020604051808303816000875af1158015610627573d6000803e3d6000fd5b505050506040513d601f19601f8201168201806040525081019061064b91906127d7565b610681576040517f500c44b400000000000000000000000000000000000000000000000000000000815260040160405180910390fd5b61068f87878787878761162b565b5050505050505050565b7f000000000000000000000000000000000000000000000000000000000000000081565b6106c5611633565b6106cf60006116b1565b565b600460205281600052604060002081815481106106ed57600080fd5b90600052602060002090600202016000915091505080600001805461071190612833565b80601f016020809104026020016040519081016040528092919081815260200182805461073d90612833565b801561078a5780601f1061075f5761010080835404028352916020019161078a565b820191906000526020600020905b81548152906001019060200180831161076d57829003601f168201915b5050505050908060010160009054906101000a900473ffffffffffffffffffffffffffffffffffffffff16905082565b60008060009054906101000a900473ffffffffffffffffffffffffffffffffffffffff16905090565b6107eb611633565b80600584846040516107fe9291906128eb565b908152602001604051809103902060006101000a81548173ffffffffffffffffffffffffffffffffffffffff021916908373ffffffffffffffffffffffffffffffffffffffff160217905550505050565b60006003858154811061086557610864612904565b5b9060005260206000209060080201604051806101000160405290816000820160009054906101000a900473ffffffffffffffffffffffffffffffffffffffff1673ffffffffffffffffffffffffffffffffffffffff1673ffffffffffffffffffffffffffffffffffffffff1681526020016001820160009054906101000a900473ffffffffffffffffffffffffffffffffffffffff1673ffffffffffffffffffffffffffffffffffffffff1673ffffffffffffffffffffffffffffffffffffffff16815260200160028201548152602001600382015481526020016004820154815260200160058201548152602001600682015481526020016007820160009054906101000a900460ff161515151581525050905080604001518160c0015182608001516109939190612962565b106109d3576040517f08c379a00000000000000000000000000000000000000000000000000000000081526004016109ca90612a08565b60405180910390fd5b6000604051806040016040528086868080601f016020809104026020016040519081016040528093929190818152602001838380828437600081840152601f19601f8201169050808301925050505050505081526020018473ffffffffffffffffffffffffffffffffffffffff168152509050600460008781526020019081526020016000208190806001815401808255809150506001900390600052602060002090600202016000909190919091506000820151816000019081610a989190612bca565b5060208201518160010160006101000a81548173ffffffffffffffffffffffffffffffffffffffff021916908373ffffffffffffffffffffffffffffffffffffffff160217905550505081608001518260c001818151610af89190612962565b915081815250508484604051610b0f9291906128eb565b6040518091039020867f0736f217c62d7f771e891926226a8792fe30888530849c3dbaabae6c9f0d535c85604051610b479190612015565b60405180910390a3505050505050565b600260009054906101000a900473ffffffffffffffffffffffffffffffffffffffff1681565b600060038281548110610b9357610b92612904565b5b9060005260206000209060080201604051806101000160405290816000820160009054906101000a900473ffffffffffffffffffffffffffffffffffffffff1673ffffffffffffffffffffffffffffffffffffffff1673ffffffffffffffffffffffffffffffffffffffff1681526020016001820160009054906101000a900473ffffffffffffffffffffffffffffffffffffffff1673ffffffffffffffffffffffffffffffffffffffff1673ffffffffffffffffffffffffffffffffffffffff16815260200160028201548152602001600382015481526020016004820154815260200160058201548152602001600682015481526020016007820160009054906101000a900460ff16151515158152505090508060e00151610cec576040517f08c379a0000000000000000000000000000000000000000000000000000000008152600401610ce390612ce8565b60405180910390fd5b60008160200151905060008173ffffffffffffffffffffffffffffffffffffffff1663261e56366040518163ffffffff1660e01b81526004016040805180830381865afa158015610d41573d6000803e3d6000fd5b505050506040513d601f19601f82011682018060405250810190610d659190612db9565b905080600060028110610d7b57610d7a612904565b5b60200201518015610da1575080600160028110610d9b57610d9a612904565b5b60200201515b156111b05760006004600086815260200190815260200160002080549050905060005b81811015611044576000600460008881526020019081526020016000208281548110610df357610df2612904565b5b9060005260206000209060020201604051806040016040529081600082018054610e1c90612833565b80601f0160208091040260200160405190810160405280929190818152602001828054610e4890612833565b8015610e955780601f10610e6a57610100808354040283529160200191610e95565b820191906000526020600020905b815481529060010190602001808311610e7857829003601f168201915b505050505081526020016001820160009054906101000a900473ffffffffffffffffffffffffffffffffffffffff1673ffffffffffffffffffffffffffffffffffffffff1673ffffffffffffffffffffffffffffffffffffffff168152505090507f000000000000000000000000000000000000000000000000000000000000000073ffffffffffffffffffffffffffffffffffffffff166326ef699d8260000151610f448460200151611775565b600260009054906101000a900473ffffffffffffffffffffffffffffffffffffffff1673ffffffffffffffffffffffffffffffffffffffff166395d89b416040518163ffffffff1660e01b8152600401600060405180830381865afa158015610fb1573d6000803e3d6000fd5b505050506040513d6000823e3d601f19601f82011682018060405250810190610fda9190612e56565b8a606001516040518563ffffffff1660e01b8152600401610ffe9493929190612e9f565b600060405180830381600087803b15801561101857600080fd5b505af115801561102c573d6000803e3d6000fd5b5050505050808061103c90612ef9565b915050610dc4565b5060008460600151826110579190612f41565b85604001516110669190612f83565b90507f000000000000000000000000000000000000000000000000000000000000000073ffffffffffffffffffffffffffffffffffffffff166326ef699d6110b18760000151611775565b600260009054906101000a900473ffffffffffffffffffffffffffffffffffffffff1673ffffffffffffffffffffffffffffffffffffffff166395d89b416040518163ffffffff1660e01b8152600401600060405180830381865afa15801561111e573d6000803e3d6000fd5b505050506040513d6000823e3d601f19601f820116820180604052508101906111479190612e56565b846040518463ffffffff1660e01b815260040161116693929190613003565b600060405180830381600087803b15801561118057600080fd5b505af1158015611194573d6000803e3d6000fd5b5050505060008560e0019015159081151581525050505061133c565b806000600281106111c4576111c3612904565b5b602002015180156111eb5750806001600281106111e4576111e3612904565b5b6020020151155b1561133a577f000000000000000000000000000000000000000000000000000000000000000073ffffffffffffffffffffffffffffffffffffffff166326ef699d6112398560000151611775565b600260009054906101000a900473ffffffffffffffffffffffffffffffffffffffff1673ffffffffffffffffffffffffffffffffffffffff166395d89b416040518163ffffffff1660e01b8152600401600060405180830381865afa1580156112a6573d6000803e3d6000fd5b505050506040513d6000823e3d601f19601f820116820180604052508101906112cf9190612e56565b86604001516040518463ffffffff1660e01b81526004016112f293929190613003565b600060405180830381600087803b15801561130c57600080fd5b505af1158015611320573d6000803e3d6000fd5b5050505060008360e001901515908115158152505061133b565b5b5b50505050565b60606001805461135190612833565b80601f016020809104026020016040519081016040528092919081815260200182805461137d90612833565b80156113ca5780601f1061139f576101008083540402835291602001916113ca565b820191906000526020600020905b8154815290600101906020018083116113ad57829003601f168201915b5050505050905090565b600381815481106113e457600080fd5b90600052602060002090600802016000915090508060000160009054906101000a900473ffffffffffffffffffffffffffffffffffffffff16908060010160009054906101000a900473ffffffffffffffffffffffffffffffffffffffff16908060020154908060030154908060040154908060050154908060060154908060070160009054906101000a900460ff16905088565b611481611633565b600073ffffffffffffffffffffffffffffffffffffffff168173ffffffffffffffffffffffffffffffffffffffff16036114f0576040517f08c379a00000000000000000000000000000000000000000000000000000000081526004016114e7906130cd565b60405180910390fd5b6114f9816116b1565b50565b600080868681019061150e919061312b565b9150915060006115618a8a8080601f016020809104026020016040519081016040528093929190818152602001838380828437600081840152601f19601f82011690508083019250505050505050611a98565b90508073ffffffffffffffffffffffffffffffffffffffff1660058d8d60405161158c9291906128eb565b908152602001604051809103902060009054906101000a900473ffffffffffffffffffffffffffffffffffffffff1673ffffffffffffffffffffffffffffffffffffffff1614611611576040517f08c379a0000000000000000000000000000000000000000000000000000000008152600401611608906131dd565b60405180910390fd5b61161d838d8d8561084f565b505050505050505050505050565b505050505050565b61163b611ce6565b73ffffffffffffffffffffffffffffffffffffffff166116596107ba565b73ffffffffffffffffffffffffffffffffffffffff16146116af576040517f08c379a00000000000000000000000000000000000000000000000000000000081526004016116a690613249565b60405180910390fd5b565b60008060009054906101000a900473ffffffffffffffffffffffffffffffffffffffff169050816000806101000a81548173ffffffffffffffffffffffffffffffffffffffff021916908373ffffffffffffffffffffffffffffffffffffffff1602179055508173ffffffffffffffffffffffffffffffffffffffff168173ffffffffffffffffffffffffffffffffffffffff167f8be0079c531659141344cd1fd0a4f28419497f9722a3daafe3b4186f6b6457e060405160405180910390a35050565b606060008260405160200161178a91906132b1565b604051602081830303815290604052905060008151905060006040518060400160405280601081526020017f303132333435363738396162636465660000000000000000000000000000000081525090506000600284516117eb9190612f41565b60026117f79190612962565b67ffffffffffffffff8111156118105761180f611e92565b5b6040519080825280601f01601f1916602001820160405280156118425781602001600182028036833780820191505090505b5090507f30000000000000000000000000000000000000000000000000000000000000008160008151811061187a57611879612904565b5b60200101907effffffffffffffffffffffffffffffffffffffffffffffffffffffffffffff1916908160001a9053507f7800000000000000000000000000000000000000000000000000000000000000816001815181106118de576118dd612904565b5b60200101907effffffffffffffffffffffffffffffffffffffffffffffffffffffffffffff1916908160001a90535060005b83811015611a8b5782600486838151811061192e5761192d612904565b5b602001015160f81c60f81b7effffffffffffffffffffffffffffffffffffffffffffffffffffffffffffff1916901c60f81c60ff168151811061197457611973612904565b5b602001015160f81c60f81b8260028361198d9190612f41565b60026119999190612962565b815181106119aa576119a9612904565b5b60200101907effffffffffffffffffffffffffffffffffffffffffffffffffffffffffffff1916908160001a90535082600f60f81b8683815181106119f2576119f1612904565b5b602001015160f81c60f81b1660f81c60ff1681518110611a1557611a14612904565b5b602001015160f81c60f81b82600283611a2e9190612f41565b6003611a3a9190612962565b81518110611a4b57611a4a612904565b5b60200101907effffffffffffffffffffffffffffffffffffffffffffffffffffffffffffff1916908160001a90535080611a8490612ef9565b9050611910565b5080945050505050919050565b600080829050600080602a8351141580611b1257507f300000000000000000000000000000000000000000000000000000000000000083600081518110611ae257611ae1612904565b5b602001015160f81c60f81b7effffffffffffffffffffffffffffffffffffffffffffffffffffffffffffff191614155b80611b7d57507f780000000000000000000000000000000000000000000000000000000000000083600181518110611b4d57611b4c612904565b5b602001015160f81c60f81b7effffffffffffffffffffffffffffffffffffffffffffffffffffffffffffff191614155b15611bb4576040517fdf48f19e00000000000000000000000000000000000000000000000000000000815260040160405180910390fd5b6000600290505b602a811015611cda57838181518110611bd757611bd6612904565b5b602001015160f81c60f81b60f81c915060618260ff1610158015611bff575060668260ff1611155b15611c1857605782611c1191906132d9565b9150611cae565b60418260ff1610158015611c30575060468260ff1611155b15611c4957603782611c4291906132d9565b9150611cad565b60308260ff1610158015611c61575060398260ff1611155b15611c7a57603082611c7391906132d9565b9150611cac565b6040517fdf48f19e00000000000000000000000000000000000000000000000000000000815260040160405180910390fd5b5b5b6002816029611cbd9190612f83565b901b8260ff16901b8317925080611cd390612ef9565b9050611bbb565b50819350505050919050565b600033905090565b6000604051905090565b600080fd5b600080fd5b600073ffffffffffffffffffffffffffffffffffffffff82169050919050565b6000611d2d82611d02565b9050919050565b611d3d81611d22565b8114611d4857600080fd5b50565b600081359050611d5a81611d34565b92915050565b6000819050919050565b611d7381611d60565b8114611d7e57600080fd5b50565b600081359050611d9081611d6a565b92915050565b60008060008060808587031215611db057611daf611cf8565b5b6000611dbe87828801611d4b565b9450506020611dcf87828801611d81565b9350506040611de087828801611d81565b9250506060611df187828801611d81565b91505092959194509250565b6000819050919050565b6000611e22611e1d611e1884611d02565b611dfd565b611d02565b9050919050565b6000611e3482611e07565b9050919050565b6000611e4682611e29565b9050919050565b611e5681611e3b565b82525050565b6000602082019050611e716000830184611e4d565b92915050565b600080fd5b600080fd5b6000601f19601f8301169050919050565b7f4e487b7100000000000000000000000000000000000000000000000000000000600052604160045260246000fd5b611eca82611e81565b810181811067ffffffffffffffff82111715611ee957611ee8611e92565b5b80604052505050565b6000611efc611cee565b9050611f088282611ec1565b919050565b600067ffffffffffffffff821115611f2857611f27611e92565b5b611f3182611e81565b9050602081019050919050565b82818337600083830152505050565b6000611f60611f5b84611f0d565b611ef2565b905082815260208101848484011115611f7c57611f7b611e7c565b5b611f87848285611f3e565b509392505050565b600082601f830112611fa457611fa3611e77565b5b8135611fb4848260208601611f4d565b91505092915050565b600060208284031215611fd357611fd2611cf8565b5b600082013567ffffffffffffffff811115611ff157611ff0611cfd565b5b611ffd84828501611f8f565b91505092915050565b61200f81611d22565b82525050565b600060208201905061202a6000830184612006565b92915050565b6000819050919050565b61204381612030565b811461204e57600080fd5b50565b6000813590506120608161203a565b92915050565b600080fd5b600080fd5b60008083601f84011261208657612085611e77565b5b8235905067ffffffffffffffff8111156120a3576120a2612066565b5b6020830191508360018202830111156120bf576120be61206b565b5b9250929050565b60008083601f8401126120dc576120db611e77565b5b8235905067ffffffffffffffff8111156120f9576120f8612066565b5b6020830191508360018202830111156121155761211461206b565b5b9250929050565b60008060008060008060008060008060c08b8d03121561213f5761213e611cf8565b5b600061214d8d828e01612051565b9a505060208b013567ffffffffffffffff81111561216e5761216d611cfd565b5b61217a8d828e01612070565b995099505060408b013567ffffffffffffffff81111561219d5761219c611cfd565b5b6121a98d828e01612070565b975097505060608b013567ffffffffffffffff8111156121cc576121cb611cfd565b5b6121d88d828e016120c6565b955095505060808b013567ffffffffffffffff8111156121fb576121fa611cfd565b5b6122078d828e01612070565b935093505060a061221a8d828e01611d81565b9150509295989b9194979a5092959850565b600081519050919050565b600082825260208201905092915050565b60005b8381101561226657808201518184015260208101905061224b565b60008484015250505050565b600061227d8261222c565b6122878185612237565b9350612297818560208601612248565b6122a081611e81565b840191505092915050565b600060208201905081810360008301526122c58184612272565b905092915050565b60008060008060008060006080888a0312156122ec576122eb611cf8565b5b60006122fa8a828b01612051565b975050602088013567ffffffffffffffff81111561231b5761231a611cfd565b5b6123278a828b01612070565b9650965050604088013567ffffffffffffffff81111561234a57612349611cfd565b5b6123568a828b01612070565b9450945050606088013567ffffffffffffffff81111561237957612378611cfd565b5b6123858a828b016120c6565b925092505092959891949750929550565b60006123a182611e29565b9050919050565b6123b181612396565b82525050565b60006020820190506123cc60008301846123a8565b92915050565b600080604083850312156123e9576123e8611cf8565b5b60006123f785828601611d81565b925050602061240885828601611d81565b9150509250929050565b6000604082019050818103600083015261242c8185612272565b905061243b6020830184612006565b9392505050565b60008060006040848603121561245b5761245a611cf8565b5b600084013567ffffffffffffffff81111561247957612478611cfd565b5b61248586828701612070565b9350935050602061249886828701611d4b565b9150509250925092565b600080600080606085870312156124bc576124bb611cf8565b5b60006124ca87828801611d81565b945050602085013567ffffffffffffffff8111156124eb576124ea611cfd565b5b6124f787828801612070565b9350935050604061250a87828801611d4b565b91505092959194509250565b60006020828403121561252c5761252b611cf8565b5b600061253a84828501611d81565b91505092915050565b61254c81611d60565b82525050565b60008115159050919050565b61256781612552565b82525050565b600061010082019050612583600083018b612006565b612590602083018a612006565b61259d6040830189612543565b6125aa6060830188612543565b6125b76080830187612543565b6125c460a0830186612543565b6125d160c0830185612543565b6125de60e083018461255e565b9998505050505050505050565b60006020828403121561260157612600611cf8565b5b600061260f84828501611d4b565b91505092915050565b7f46756e64696e6720616d6f756e7420697320696e73756666696369656e74207460008201527f6f20636f766572207072656d69756d7300000000000000000000000000000000602082015250565b6000612674603083612237565b915061267f82612618565b604082019050919050565b600060208201905081810360008301526126a381612667565b9050919050565b600081905092915050565b60006126c183856126aa565b93506126ce838584611f3e565b82840190509392505050565b60006126e78284866126b5565b91508190509392505050565b6126fc81612030565b82525050565b600061270e8385612237565b935061271b838584611f3e565b61272483611e81565b840190509392505050565b600060c082019050612744600083018c6126f3565b8181036020830152612757818a8c612702565b9050818103604083015261276c81888a612702565b905061277b60608301876126f3565b818103608083015261278e818587612702565b905061279d60a0830184612543565b9a9950505050505050505050565b6127b481612552565b81146127bf57600080fd5b50565b6000815190506127d1816127ab565b92915050565b6000602082840312156127ed576127ec611cf8565b5b60006127fb848285016127c2565b91505092915050565b7f4e487b7100000000000000000000000000000000000000000000000000000000600052602260045260246000fd5b6000600282049050600182168061284b57607f821691505b60208210810361285e5761285d612804565b5b50919050565b600060808201905061287960008301896126f3565b818103602083015261288c818789612702565b905081810360408301526128a1818587612702565b90506128b060608301846126f3565b979650505050505050565b600081905092915050565b60006128d283856128bb565b93506128df838584611f3e565b82840190509392505050565b60006128f88284866128c6565b91508190509392505050565b7f4e487b7100000000000000000000000000000000000000000000000000000000600052603260045260246000fd5b7f4e487b7100000000000000000000000000000000000000000000000000000000600052601160045260246000fd5b600061296d82611d60565b915061297883611d60565b92508282019050808211156129905761298f612933565b5b92915050565b7f496e73756666696369656e742066756e64696e6720746f20696e73757265206160008201527f64646974696f6e616c2075736572730000000000000000000000000000000000602082015250565b60006129f2602f83612237565b91506129fd82612996565b604082019050919050565b60006020820190508181036000830152612a21816129e5565b9050919050565b60008190508160005260206000209050919050565b60006020601f8301049050919050565b600082821b905092915050565b600060088302612a8a7fffffffffffffffffffffffffffffffffffffffffffffffffffffffffffffffff82612a4d565b612a948683612a4d565b95508019841693508086168417925050509392505050565b6000612ac7612ac2612abd84611d60565b611dfd565b611d60565b9050919050565b6000819050919050565b612ae183612aac565b612af5612aed82612ace565b848454612a5a565b825550505050565b600090565b612b0a612afd565b612b15818484612ad8565b505050565b5b81811015612b3957612b2e600082612b02565b600181019050612b1b565b5050565b601f821115612b7e57612b4f81612a28565b612b5884612a3d565b81016020851015612b67578190505b612b7b612b7385612a3d565b830182612b1a565b50505b505050565b600082821c905092915050565b6000612ba160001984600802612b83565b1980831691505092915050565b6000612bba8383612b90565b9150826002028217905092915050565b612bd38261222c565b67ffffffffffffffff811115612bec57612beb611e92565b5b612bf68254612833565b612c01828285612b3d565b600060209050601f831160018114612c345760008415612c22578287015190505b612c2c8582612bae565b865550612c94565b601f198416612c4286612a28565b60005b82811015612c6a57848901518255600182019150602085019450602081019050612c45565b86831015612c875784890151612c83601f891682612b90565b8355505b6001600288020188555050505b505050505050565b7f506f6c696379206973206e6f7420616374697665000000000000000000000000600082015250565b6000612cd2601483612237565b9150612cdd82612c9c565b602082019050919050565b60006020820190508181036000830152612d0181612cc5565b9050919050565b600067ffffffffffffffff821115612d2357612d22611e92565b5b602082029050919050565b6000612d41612d3c84612d08565b611ef2565b90508060208402830185811115612d5b57612d5a61206b565b5b835b81811015612d845780612d7088826127c2565b845260208401935050602081019050612d5d565b5050509392505050565b600082601f830112612da357612da2611e77565b5b6002612db0848285612d2e565b91505092915050565b600060408284031215612dcf57612dce611cf8565b5b6000612ddd84828501612d8e565b91505092915050565b6000612df9612df484611f0d565b611ef2565b905082815260208101848484011115612e1557612e14611e7c565b5b612e20848285612248565b509392505050565b600082601f830112612e3d57612e3c611e77565b5b8151612e4d848260208601612de6565b91505092915050565b600060208284031215612e6c57612e6b611cf8565b5b600082015167ffffffffffffffff811115612e8a57612e89611cfd565b5b612e9684828501612e28565b91505092915050565b60006080820190508181036000830152612eb98187612272565b90508181036020830152612ecd8186612272565b90508181036040830152612ee18185612272565b9050612ef06060830184612543565b95945050505050565b6000612f0482611d60565b91507fffffffffffffffffffffffffffffffffffffffffffffffffffffffffffffffff8203612f3657612f35612933565b5b600182019050919050565b6000612f4c82611d60565b9150612f5783611d60565b9250828202612f6581611d60565b91508282048414831517612f7c57612f7b612933565b5b5092915050565b6000612f8e82611d60565b9150612f9983611d60565b9250828203905081811115612fb157612fb0612933565b5b92915050565b7f6178656c61720000000000000000000000000000000000000000000000000000600082015250565b6000612fed600683612237565b9150612ff882612fb7565b602082019050919050565b6000608082019050818103600083015261301c81612fe0565b905081810360208301526130308186612272565b905081810360408301526130448185612272565b90506130536060830184612543565b949350505050565b7f4f776e61626c653a206e6577206f776e657220697320746865207a65726f206160008201527f6464726573730000000000000000000000000000000000000000000000000000602082015250565b60006130b7602683612237565b91506130c28261305b565b604082019050919050565b600060208201905081810360008301526130e6816130aa565b9050919050565b60006130f882611d02565b9050919050565b613108816130ed565b811461311357600080fd5b50565b600081359050613125816130ff565b92915050565b6000806040838503121561314257613141611cf8565b5b600061315085828601611d81565b925050602061316185828601613116565b9150509250929050565b7f536f75726365206164647265737320616e6420636861696e20646f206e6f742060008201527f62656c6f6e6720696e207468652073616d65206d617070696e67000000000000602082015250565b60006131c7603a83612237565b91506131d28261316b565b604082019050919050565b600060208201905081810360008301526131f6816131ba565b9050919050565b7f4f776e61626c653a2063616c6c6572206973206e6f7420746865206f776e6572600082015250565b6000613233602083612237565b915061323e826131fd565b602082019050919050565b6000602082019050818103600083015261326281613226565b9050919050565b60008160601b9050919050565b600061328182613269565b9050919050565b600061329382613276565b9050919050565b6132ab6132a682611d22565b613288565b82525050565b60006132bd828461329a565b60148201915081905092915050565b600060ff82169050919050565b60006132e4826132cc565b91506132ef836132cc565b9250828203905060ff81111561330857613307612933565b5b9291505056fea2646970667358221220f81dd6665ab4f7bd6598b05257f756ac650beb3adab5b0269aedfc33e566895164736f6c63430008120033",
  "linkReferences": {},
  "deployedLinkReferences": {}
}