{
  "_format": "hh-sol-artifact-1",
  "contractName": "AxinsureCollector",
  "sourceName": "src/AxinsureCollector.sol",
  "abi": [
    {
      "inputs": [
        {
          "internalType": "address",
          "name": "_axinsureCoreDstAddress",
          "type": "address"
        },
        {
          "internalType": "string",
          "name": "_axinsureCoreDstChain",
          "type": "string"
        },
        {
          "internalType": "address",
          "name": "_axelarGatewayAddress",
          "type": "address"
        },
        {
          "internalType": "string",
          "name": "_paymentToken",
          "type": "string"
        },
        {
          "internalType": "address",
          "name": "_gasReceiver",
          "type": "address"
        }
      ],
      "stateMutability": "nonpayable",
      "type": "constructor"
    },
    {
      "inputs": [],
      "name": "InvalidAddress",
      "type": "error"
    },
    {
      "inputs": [],
      "name": "NotApprovedByGateway",
      "type": "error"
    },
    {
      "inputs": [
        {
          "internalType": "uint256",
          "name": "policyNumber",
          "type": "uint256"
        }
      ],
      "name": "addPolicyUserOnDstChain",
      "outputs": [],
      "stateMutability": "payable",
      "type": "function"
    },
    {
      "inputs": [],
      "name": "axinsureCoreDstAddress",
      "outputs": [
        {
          "internalType": "address",
          "name": "",
          "type": "address"
        }
      ],
      "stateMutability": "view",
      "type": "function"
    },
    {
      "inputs": [],
      "name": "axinsureCoreDstChain",
      "outputs": [
        {
          "internalType": "string",
          "name": "",
          "type": "string"
        }
      ],
      "stateMutability": "view",
      "type": "function"
    },
    {
      "inputs": [
        {
          "internalType": "uint256",
          "name": "policyNumber",
          "type": "uint256"
        }
      ],
      "name": "collectPayoutsOnDstChain",
      "outputs": [],
      "stateMutability": "nonpayable",
      "type": "function"
    },
    {
      "inputs": [
        {
          "internalType": "bytes32",
          "name": "commandId",
          "type": "bytes32"
        },
        {
          "internalType": "string",
          "name": "sourceChain",
          "type": "string"
        },
        {
          "internalType": "string",
          "name": "sourceAddress",
          "type": "string"
        },
        {
          "internalType": "bytes",
          "name": "payload",
          "type": "bytes"
        }
      ],
      "name": "execute",
      "outputs": [],
      "stateMutability": "nonpayable",
      "type": "function"
    },
    {
      "inputs": [
        {
          "internalType": "bytes32",
          "name": "commandId",
          "type": "bytes32"
        },
        {
          "internalType": "string",
          "name": "sourceChain",
          "type": "string"
        },
        {
          "internalType": "string",
          "name": "sourceAddress",
          "type": "string"
        },
        {
          "internalType": "bytes",
          "name": "payload",
          "type": "bytes"
        },
        {
          "internalType": "string",
          "name": "tokenSymbol",
          "type": "string"
        },
        {
          "internalType": "uint256",
          "name": "amount",
          "type": "uint256"
        }
      ],
      "name": "executeWithToken",
      "outputs": [],
      "stateMutability": "nonpayable",
      "type": "function"
    },
    {
      "inputs": [],
      "name": "gasService",
      "outputs": [
        {
          "internalType": "contract IAxelarGasService",
          "name": "",
          "type": "address"
        }
      ],
      "stateMutability": "view",
      "type": "function"
    },
    {
      "inputs": [],
      "name": "gateway",
      "outputs": [
        {
          "internalType": "contract IAxelarGateway",
          "name": "",
          "type": "address"
        }
      ],
      "stateMutability": "view",
      "type": "function"
    },
    {
      "inputs": [],
      "name": "paymentToken",
      "outputs": [
        {
          "internalType": "string",
          "name": "",
          "type": "string"
        }
      ],
      "stateMutability": "view",
      "type": "function"
    }
  ],
  "bytecode": "0x60c06040523480156200001157600080fd5b50604051620021b5380380620021b5833981810160405281019062000037919062000370565b82600073ffffffffffffffffffffffffffffffffffffffff168173ffffffffffffffffffffffffffffffffffffffff16036200009f576040517fe6c4247b00000000000000000000000000000000000000000000000000000000815260040160405180910390fd5b8073ffffffffffffffffffffffffffffffffffffffff1660808173ffffffffffffffffffffffffffffffffffffffff16815250505084600160006101000a81548173ffffffffffffffffffffffffffffffffffffffff021916908373ffffffffffffffffffffffffffffffffffffffff160217905550836002908162000126919062000681565b50816000908162000138919062000681565b508073ffffffffffffffffffffffffffffffffffffffff1660a08173ffffffffffffffffffffffffffffffffffffffff1681525050505050505062000768565b6000604051905090565b600080fd5b600080fd5b600073ffffffffffffffffffffffffffffffffffffffff82169050919050565b6000620001b9826200018c565b9050919050565b620001cb81620001ac565b8114620001d757600080fd5b50565b600081519050620001eb81620001c0565b92915050565b600080fd5b600080fd5b6000601f19601f8301169050919050565b7f4e487b7100000000000000000000000000000000000000000000000000000000600052604160045260246000fd5b6200024682620001fb565b810181811067ffffffffffffffff821117156200026857620002676200020c565b5b80604052505050565b60006200027d62000178565b90506200028b82826200023b565b919050565b600067ffffffffffffffff821115620002ae57620002ad6200020c565b5b620002b982620001fb565b9050602081019050919050565b60005b83811015620002e6578082015181840152602081019050620002c9565b60008484015250505050565b600062000309620003038462000290565b62000271565b905082815260208101848484011115620003285762000327620001f6565b5b62000335848285620002c6565b509392505050565b600082601f830112620003555762000354620001f1565b5b815162000367848260208601620002f2565b91505092915050565b600080600080600060a086880312156200038f576200038e62000182565b5b60006200039f88828901620001da565b955050602086015167ffffffffffffffff811115620003c357620003c262000187565b5b620003d1888289016200033d565b9450506040620003e488828901620001da565b935050606086015167ffffffffffffffff81111562000408576200040762000187565b5b62000416888289016200033d565b92505060806200042988828901620001da565b9150509295509295909350565b600081519050919050565b7f4e487b7100000000000000000000000000000000000000000000000000000000600052602260045260246000fd5b600060028204905060018216806200048957607f821691505b6020821081036200049f576200049e62000441565b5b50919050565b60008190508160005260206000209050919050565b60006020601f8301049050919050565b600082821b905092915050565b600060088302620005097fffffffffffffffffffffffffffffffffffffffffffffffffffffffffffffffff82620004ca565b620005158683620004ca565b95508019841693508086168417925050509392505050565b6000819050919050565b6000819050919050565b6000620005626200055c62000556846200052d565b62000537565b6200052d565b9050919050565b6000819050919050565b6200057e8362000541565b620005966200058d8262000569565b848454620004d7565b825550505050565b600090565b620005ad6200059e565b620005ba81848462000573565b505050565b5b81811015620005e257620005d6600082620005a3565b600181019050620005c0565b5050565b601f8211156200063157620005fb81620004a5565b6200060684620004ba565b8101602085101562000616578190505b6200062e6200062585620004ba565b830182620005bf565b50505b505050565b600082821c905092915050565b6000620006566000198460080262000636565b1980831691505092915050565b600062000671838362000643565b9150826002028217905092915050565b6200068c8262000436565b67ffffffffffffffff811115620006a857620006a76200020c565b5b620006b4825462000470565b620006c1828285620005e6565b600060209050601f831160018114620006f95760008415620006e4578287015190505b620006f0858262000663565b86555062000760565b601f1984166200070986620004a5565b60005b8281101562000733578489015182556001820191506020850194506020810190506200070c565b868310156200075357848901516200074f601f89168262000643565b8355505b6001600288020188555050505b505050505050565b60805160a0516119f6620007bf6000396000818161062301526108900152600081816101fb0152818161023b0152818161033b0152818161052f0152818161066f015281816107af015261092b01526119f66000f3fe6080604052600436106100865760003560e01c8063491606581161005957806349160658146101335780636a22d8cc1461015c5780636c46f936146101875780637eb54b2e146101b25780638b429fa0146101ce57610086565b8063116191b61461008b5780631a98b2e0146100b65780632a071551146100df5780633013ce2914610108575b600080fd5b34801561009757600080fd5b506100a06101f9565b6040516100ad9190610e08565b60405180910390f35b3480156100c257600080fd5b506100dd60048036038101906100d89190610f54565b61021d565b005b3480156100eb57600080fd5b5061010660048036038101906101019190611064565b610339565b005b34801561011457600080fd5b5061011d610483565b60405161012a9190611121565b60405180910390f35b34801561013f57600080fd5b5061015a60048036038101906101559190611143565b610511565b005b34801561016857600080fd5b50610171610621565b60405161017e919061122d565b60405180910390f35b34801561019357600080fd5b5061019c610645565b6040516101a99190611269565b60405180910390f35b6101cc60048036038101906101c79190611064565b61066b565b005b3480156101da57600080fd5b506101e36109c5565b6040516101f09190611121565b60405180910390f35b7f000000000000000000000000000000000000000000000000000000000000000081565b6000858560405161022f9291906112c3565b604051809103902090507f000000000000000000000000000000000000000000000000000000000000000073ffffffffffffffffffffffffffffffffffffffff16631876eed98c8c8c8c8c878b8b8b6040518a63ffffffff1660e01b81526004016102a299989796959493929190611327565b6020604051808303816000875af11580156102c1573d6000803e3d6000fd5b505050506040513d601f19601f820116820180604052508101906102e591906113db565b61031b576040517f500c44b400000000000000000000000000000000000000000000000000000000815260040160405180910390fd5b61032c8a8a8a8a8a8a8a8a8a610a53565b5050505050505050505050565b7f000000000000000000000000000000000000000000000000000000000000000073ffffffffffffffffffffffffffffffffffffffff16631c92115f60026103a2600160009054906101000a900473ffffffffffffffffffffffffffffffffffffffff16610a5e565b846040516024016103b39190611408565b6040516020818303038152906040527fc2572838000000000000000000000000000000000000000000000000000000007bffffffffffffffffffffffffffffffffffffffffffffffffffffffff19166020820180517bffffffffffffffffffffffffffffffffffffffffffffffffffffffff83818316178352505050506040518463ffffffff1660e01b815260040161044e93929190611571565b600060405180830381600087803b15801561046857600080fd5b505af115801561047c573d6000803e3d6000fd5b5050505050565b6000805461049090611452565b80601f01602080910402602001604051908101604052809291908181526020018280546104bc90611452565b80156105095780601f106104de57610100808354040283529160200191610509565b820191906000526020600020905b8154815290600101906020018083116104ec57829003601f168201915b505050505081565b600082826040516105239291906112c3565b604051809103902090507f000000000000000000000000000000000000000000000000000000000000000073ffffffffffffffffffffffffffffffffffffffff16635f6970c38989898989876040518763ffffffff1660e01b8152600401610590969594939291906115bd565b6020604051808303816000875af11580156105af573d6000803e3d6000fd5b505050506040513d601f19601f820116820180604052508101906105d391906113db565b610609576040517f500c44b400000000000000000000000000000000000000000000000000000000815260040160405180910390fd5b610617878787878787610d81565b5050505050505050565b7f000000000000000000000000000000000000000000000000000000000000000081565b600160009054906101000a900473ffffffffffffffffffffffffffffffffffffffff1681565b60007f000000000000000000000000000000000000000000000000000000000000000073ffffffffffffffffffffffffffffffffffffffff1663935b13f660006040518263ffffffff1660e01b81526004016106c79190611614565b602060405180830381865afa1580156106e4573d6000803e3d6000fd5b505050506040513d601f19601f820116820180604052508101906107089190611662565b90506000606490508173ffffffffffffffffffffffffffffffffffffffff166323b872dd3330846040518463ffffffff1660e01b815260040161074d9392919061168f565b6020604051808303816000875af115801561076c573d6000803e3d6000fd5b505050506040513d601f19601f8201168201806040525081019061079091906113db565b508173ffffffffffffffffffffffffffffffffffffffff1663095ea7b37f0000000000000000000000000000000000000000000000000000000000000000836040518363ffffffff1660e01b81526004016107ec9291906116c6565b6020604051808303816000875af115801561080b573d6000803e3d6000fd5b505050506040513d601f19601f8201168201806040525081019061082f91906113db565b50600083336040516020016108459291906116ef565b60405160208183030381529060405290506000610883600160009054906101000a900473ffffffffffffffffffffffffffffffffffffffff16610a5e565b90506000341115610929577f000000000000000000000000000000000000000000000000000000000000000073ffffffffffffffffffffffffffffffffffffffff1663c62c200234306002858760008a336040518963ffffffff1660e01b81526004016108f69796959493929190611718565b6000604051808303818588803b15801561090f57600080fd5b505af1158015610923573d6000803e3d6000fd5b50505050505b7f000000000000000000000000000000000000000000000000000000000000000073ffffffffffffffffffffffffffffffffffffffff1663b5417084600283856000886040518663ffffffff1660e01b815260040161098c9594939291906117a3565b600060405180830381600087803b1580156109a657600080fd5b505af11580156109ba573d6000803e3d6000fd5b505050505050505050565b600280546109d290611452565b80601f01602080910402602001604051908101604052809291908181526020018280546109fe90611452565b8015610a4b5780601f10610a2057610100808354040283529160200191610a4b565b820191906000526020600020905b815481529060010190602001808311610a2e57829003601f168201915b505050505081565b505050505050505050565b6060600082604051602001610a73919061185a565b604051602081830303815290604052905060008151905060006040518060400160405280601081526020017f30313233343536373839616263646566000000000000000000000000000000008152509050600060028451610ad491906118a4565b6002610ae091906118e6565b67ffffffffffffffff811115610af957610af861191a565b5b6040519080825280601f01601f191660200182016040528015610b2b5781602001600182028036833780820191505090505b5090507f300000000000000000000000000000000000000000000000000000000000000081600081518110610b6357610b62611949565b5b60200101907effffffffffffffffffffffffffffffffffffffffffffffffffffffffffffff1916908160001a9053507f780000000000000000000000000000000000000000000000000000000000000081600181518110610bc757610bc6611949565b5b60200101907effffffffffffffffffffffffffffffffffffffffffffffffffffffffffffff1916908160001a90535060005b83811015610d7457826004868381518110610c1757610c16611949565b5b602001015160f81c60f81b7effffffffffffffffffffffffffffffffffffffffffffffffffffffffffffff1916901c60f81c60ff1681518110610c5d57610c5c611949565b5b602001015160f81c60f81b82600283610c7691906118a4565b6002610c8291906118e6565b81518110610c9357610c92611949565b5b60200101907effffffffffffffffffffffffffffffffffffffffffffffffffffffffffffff1916908160001a90535082600f60f81b868381518110610cdb57610cda611949565b5b602001015160f81c60f81b1660f81c60ff1681518110610cfe57610cfd611949565b5b602001015160f81c60f81b82600283610d1791906118a4565b6003610d2391906118e6565b81518110610d3457610d33611949565b5b60200101907effffffffffffffffffffffffffffffffffffffffffffffffffffffffffffff1916908160001a90535080610d6d90611978565b9050610bf9565b5080945050505050919050565b505050505050565b600073ffffffffffffffffffffffffffffffffffffffff82169050919050565b6000819050919050565b6000610dce610dc9610dc484610d89565b610da9565b610d89565b9050919050565b6000610de082610db3565b9050919050565b6000610df282610dd5565b9050919050565b610e0281610de7565b82525050565b6000602082019050610e1d6000830184610df9565b92915050565b600080fd5b600080fd5b6000819050919050565b610e4081610e2d565b8114610e4b57600080fd5b50565b600081359050610e5d81610e37565b92915050565b600080fd5b600080fd5b600080fd5b60008083601f840112610e8857610e87610e63565b5b8235905067ffffffffffffffff811115610ea557610ea4610e68565b5b602083019150836001820283011115610ec157610ec0610e6d565b5b9250929050565b60008083601f840112610ede57610edd610e63565b5b8235905067ffffffffffffffff811115610efb57610efa610e68565b5b602083019150836001820283011115610f1757610f16610e6d565b5b9250929050565b6000819050919050565b610f3181610f1e565b8114610f3c57600080fd5b50565b600081359050610f4e81610f28565b92915050565b60008060008060008060008060008060c08b8d031215610f7757610f76610e23565b5b6000610f858d828e01610e4e565b9a505060208b013567ffffffffffffffff811115610fa657610fa5610e28565b5b610fb28d828e01610e72565b995099505060408b013567ffffffffffffffff811115610fd557610fd4610e28565b5b610fe18d828e01610e72565b975097505060608b013567ffffffffffffffff81111561100457611003610e28565b5b6110108d828e01610ec8565b955095505060808b013567ffffffffffffffff81111561103357611032610e28565b5b61103f8d828e01610e72565b935093505060a06110528d828e01610f3f565b9150509295989b9194979a5092959850565b60006020828403121561107a57611079610e23565b5b600061108884828501610f3f565b91505092915050565b600081519050919050565b600082825260208201905092915050565b60005b838110156110cb5780820151818401526020810190506110b0565b60008484015250505050565b6000601f19601f8301169050919050565b60006110f382611091565b6110fd818561109c565b935061110d8185602086016110ad565b611116816110d7565b840191505092915050565b6000602082019050818103600083015261113b81846110e8565b905092915050565b60008060008060008060006080888a03121561116257611161610e23565b5b60006111708a828b01610e4e565b975050602088013567ffffffffffffffff81111561119157611190610e28565b5b61119d8a828b01610e72565b9650965050604088013567ffffffffffffffff8111156111c0576111bf610e28565b5b6111cc8a828b01610e72565b9450945050606088013567ffffffffffffffff8111156111ef576111ee610e28565b5b6111fb8a828b01610ec8565b925092505092959891949750929550565b600061121782610dd5565b9050919050565b6112278161120c565b82525050565b6000602082019050611242600083018461121e565b92915050565b600061125382610d89565b9050919050565b61126381611248565b82525050565b600060208201905061127e600083018461125a565b92915050565b600081905092915050565b82818337600083830152505050565b60006112aa8385611284565b93506112b783858461128f565b82840190509392505050565b60006112d082848661129e565b91508190509392505050565b6112e581610e2d565b82525050565b60006112f7838561109c565b935061130483858461128f565b61130d836110d7565b840190509392505050565b61132181610f1e565b82525050565b600060c08201905061133c600083018c6112dc565b818103602083015261134f818a8c6112eb565b9050818103604083015261136481888a6112eb565b905061137360608301876112dc565b81810360808301526113868185876112eb565b905061139560a0830184611318565b9a9950505050505050505050565b60008115159050919050565b6113b8816113a3565b81146113c357600080fd5b50565b6000815190506113d5816113af565b92915050565b6000602082840312156113f1576113f0610e23565b5b60006113ff848285016113c6565b91505092915050565b600060208201905061141d6000830184611318565b92915050565b7f4e487b7100000000000000000000000000000000000000000000000000000000600052602260045260246000fd5b6000600282049050600182168061146a57607f821691505b60208210810361147d5761147c611423565b5b50919050565b60008190508160005260206000209050919050565b600081546114a581611452565b6114af818661109c565b945060018216600081146114ca57600181146114e057611513565b60ff198316865281151560200286019350611513565b6114e985611483565b60005b8381101561150b578154818901526001820191506020810190506114ec565b808801955050505b50505092915050565b600081519050919050565b600082825260208201905092915050565b60006115438261151c565b61154d8185611527565b935061155d8185602086016110ad565b611566816110d7565b840191505092915050565b6000606082019050818103600083015261158b8186611498565b9050818103602083015261159f81856110e8565b905081810360408301526115b38184611538565b9050949350505050565b60006080820190506115d260008301896112dc565b81810360208301526115e58187896112eb565b905081810360408301526115fa8185876112eb565b905061160960608301846112dc565b979650505050505050565b6000602082019050818103600083015261162e8184611498565b905092915050565b61163f81611248565b811461164a57600080fd5b50565b60008151905061165c81611636565b92915050565b60006020828403121561167857611677610e23565b5b60006116868482850161164d565b91505092915050565b60006060820190506116a4600083018661125a565b6116b1602083018561125a565b6116be6040830184611318565b949350505050565b60006040820190506116db600083018561125a565b6116e86020830184611318565b9392505050565b60006040820190506117046000830185611318565b611711602083018461125a565b9392505050565b600060e08201905061172d600083018a61125a565b818103602083015261173f8189611498565b9050818103604083015261175381886110e8565b905081810360608301526117678187611538565b9050818103608083015261177b8186611498565b905061178a60a0830185611318565b61179760c083018461125a565b98975050505050505050565b600060a08201905081810360008301526117bd8188611498565b905081810360208301526117d181876110e8565b905081810360408301526117e58186611538565b905081810360608301526117f98185611498565b90506118086080830184611318565b9695505050505050565b60008160601b9050919050565b600061182a82611812565b9050919050565b600061183c8261181f565b9050919050565b61185461184f82611248565b611831565b82525050565b60006118668284611843565b60148201915081905092915050565b7f4e487b7100000000000000000000000000000000000000000000000000000000600052601160045260246000fd5b60006118af82610f1e565b91506118ba83610f1e565b92508282026118c881610f1e565b915082820484148315176118df576118de611875565b5b5092915050565b60006118f182610f1e565b91506118fc83610f1e565b925082820190508082111561191457611913611875565b5b92915050565b7f4e487b7100000000000000000000000000000000000000000000000000000000600052604160045260246000fd5b7f4e487b7100000000000000000000000000000000000000000000000000000000600052603260045260246000fd5b600061198382610f1e565b91507fffffffffffffffffffffffffffffffffffffffffffffffffffffffffffffffff82036119b5576119b4611875565b5b60018201905091905056fea26469706673582212209da3df9d8a3cc816dc1c1ca73e192b056ab847fd2c588d9a41f202dbebe70de364736f6c63430008120033",
  "linkReferences": {},
  "deployedLinkReferences": {}
}